:200000000040002025F7000001C9011001C9011001C9011001C9011001C9011001C9011042
:1C00200001C9011001C9011001C9011001C9011001C9011001C901103FC9011089
:20003C002DE9F04FDD4DE888ADF11C0D11F0D2FCDCA494E80C0009F0F7F9DCA696E80C0022
:20005C0008F0A3FA02F034FADAA20CCA09F0ECF9DAA20CCA06F0B7FC0FF0DAF9288140F6F3
:20007C00B8306881E88811F0B5FC94E80C0009F0DBF9D4A20CCA08F088FA02F019FAD3A2DC
:20009C000CCA09F0D1F9D3A20CCA06F09CFC0FF0BFF9A881E88811F09DFC94E80C0009F067
:2000BC00C3F996E80C0008F070FA02F001FACBA797E80C0009F0B8F9CAA20CCA06F083FC31
:2000DC000FF0A6F9A870E88811F084FC94E80C0009F0AAF996E80C0008F057FA02F0E8F993
:2000FC00DBA20CCA09F0A0F997E80C0006F06BFC0FF08EF96E78BD4C314604EB4102A989C7
:20011C00A2F88610BA4A4FFA80F9B5F808A0B5F80AB095F9028085F803904800168010F013
:20013C00A1FACD490DF002F9CC490CF083F810F061FACBA20CCA09F077F90BF00DF90FF067
:20015C0067F9770004F1EC01E319A3F8A800A1F18800019004F1CA0222F807B0A44821F849
:20017C0007A0BE30069002F12201029104F1640101F11102039201F8068004F1750808F8AA
:20019C000690B3F8A80011F057FA10F033FAB6A20CCA8946824609F047F90FF039F908F1B3
:2001BC003308ADF80000B2A2CDF814800CCA4946504609F039F98146A06B884610F01AFABC
:2001DC000B4602464146484609F02EF90FF020F93F19661D86373B4604210222307006F124
:2001FC0081074FF4F04004970FF0CAF84FF4F040052102226B460FF0C3F8AA466079A649AC
:20021C00A6890870102E40F0EF81206CDFF88CB2029DDDF8188011270026401CC4F8100109
:20023C00D946206435F8021B38F8020B484310F068FE91A20CCA09F0F7F80FF031FB19F85A
:20025C00011B7F1E00FB0166ECD1304611F0F4F98B490BF0EFFF8B4D29460DF067F88A4913
:20027C000BF0E8FF10F0C6F90BF076F80FF018FB05991127064600201BF8012B31F8023B5F
:20029C007F1E03FB0200F7D111F0D6F929460DF04DF87E490BF0CEFF10F0ACF90BF05CF8D9
:2002BC000FF0FEFA0746A06C8019A064616CC9196164236DE26C1B185218C4F814313846C7
:2002DC00C4F8182111F0B8F971490BF0B3FF71490DF02CF810F08EF90BF03EF80FF098F8D2
:2002FC00C2B22272002084F82C210146019A1256451CE8B25218102811B2F7DBC81001EBB1
:20031C001071081110F0FDFD0BF026F80FF080F841B26429D9BF0025281C1920002584F842
:20033C002D11A0712946A4F82A512846029A32F811204B1CD9B280181029F7DB11F07CF95C
:20035C00CA490CF0F3FF10F055F90BF005F80FF0A7FAE063A4F8280110F0A4F884F82F014A
:20037C000AF082F8DFF8308184F82E01002F41D04FF47A70704311F05FF90646384611F076
:20039C005BF9014630460BF055FF10F05FFB4FF6FF71814228BF80B22ED201E0E8200020ED
:2003BC0028E0C046182D4454FB2109400000000000806640000000000070B7400000000044
:2003DC000094E1400000000000004E400000000000E075400000000000C0774000000000B2
:2003FC00000034400000000000002E40580F0020640F00204FF6FF70A4F824010EF0D6FD9F
:20041C00A4F826010EF0B8FCC4F81C010CF0C2FBA7890146C4F82011381C41D02A46284612
:20043C0003990956461CF0B2891887420AB2F7DCB7B392FBF7F010F064FD0AF08DFF0EF0E5
:20045C00E7FF41B27E29B4BF281C2020E07128E00000000000003E40DB0F4940000070420D
:20047C0052B81E85EB512440CDCCCCCCCCCC0C403BDF4F8D976EA23F2D431CEBE2361A3F3A
:20049C0000803B4500009643000061450060EA4600A08C450000B443142D00204C210020DB
:2004BC00294684F830110499088C059F0880388C069E3880308C029B3080198C019A198095
:2004DC0092F91010039F117097F9101004F5887604223970207994F82F1194F82A31B4F8C4
:2004FC00287188F80110401C88F805300521207194F82E01E7633346A07041F611000EF01A
:20051C003FFF4FF4F0400221012206F11D030EF037FF4FF4F0400621042206F108030EF0BD
:20053C002FFF4FF4F04007210422331D0EF028FF04F592734FF4F0400B2102220EF020FF5D
:20055C0004F593734FF4F040082102220EF018FF4FF4F0400921042206F10C030EF010FFD5
:20057C004FF4F0400A21042206F110030EF008FF4FF4F0400C21012206F120030EF000FFB2
:20059C00A079192804D0E079202808BFE31D00D0A31D4FF4F040032101220EF0F1FE06F17B
:2005BC00180341F60F00012102220EF0E9FE06F11E0341F60F00294601220EF0E1FE06F1CF
:2005DC001F0341F60F00042101220EF0D9FEE078A17820B90529BCBF0120E07001DB012811
:2005FC0002D10829C8BFE57020794B282DDBD4F81021E189206B1E4EC4F8342104EBC107C5
:20061C00401CD4F81821C4F838011A4D3178C7F83C21E089D4F8142104EBC000C0F840210A
:20063C00154FC4F8A4116378206B2978401CC4F8A83100258742C4F8AC118CBF2063256314
:20065C000EF044FAA56425716564BAF80600401CAAF806009AF80100401CC0B21128A8BF1D
:20067C00012007B08AF80100BDE8F08F0000803D941C0020CD20002080D3D8FF2DE9F04FC6
:20069C000446B4480D461646ADF5FE7D5B1E011DADF1600D9095F21E8F94D1F800C0929384
:2006BC0016F1140FCDF854C24FF01801CDF850C292FBF1F19391BCBF002193910C4662469D
:2006DC00A6EB04161946A6EBC406183E8D18A4EB0104969612D406466D1CE8465036002C43
:2006FC0044BFBEA003C803D456F8240010F009FC6D1EA8E8030004F10104F0D19598002836
:20071C0028D405460DF5A07B00266D1C929FB3A090E80003002F17D4DDF83CA206EBC70026
:20073C007F1C0DEB0004BAE8030094E80C0008F07BFE0B4602464946404606F044F9083C43
:20075C00894680467F1EEED16D1EABE8000306F10806DBD19598919048E0B9F1000F42DD6C
:20077C009199DDF848C2939A7A4F0DEBC1030CEB0100CB4603F5A473C4008A188C930834C9
:20079C0007EB820000F1500A61440DEBC1065AF8040F10F0B6FB083686E803008FA003C85B
:2007BC00929F8D90002F8E9115D4DDF83C820DEB04057F1CB8E8030095E80C0008F034FE13
:2007DC000B4602468E998D9806F0FDF8083D8E917F1E8D90EED18C9ABBF1010B03C204F1B8
:2007FC0008048C92D3D1919848449190C5000DEB050404F5A07494E80003002828DD083C76
:20081C0007460DF5F07BBDA20CCA4946404608F00BFE0EF0FDFD10F074FBBAA20CCA8A464E
:20083C00064608F001FE0B4602464946404606F0C5F80EF0EDFD4BF8040B94E803005346A6
:20085C00324606F0C0F8083C894680467F1EDAD1969F494640463A4609F06EFEABA20CCAE3
:20087C008846814608F0E0FD08F054FFA9A20CCA08F0DAFD0B4602464146484606F09EF87D
:20089C00884681460EF0C4FD8D9010F03AFB0B4602464146484606F091F80FF2882A8946E7
:2008BC008046002F14DC391C0BD09CA20CCA49460CF03BFA84BF00208E9071D802208E9029
:2008DC0020E091980DEB8000D0F8DC01C01516E091983C460DEB800303F5F0738D9F53F8F3
:2008FC00040CC4F11802C4F1170440FA02F101FA02F2801A43F8040C7A188D9220410028F2
:20091C008E904DDD9198002400280EDD77A951F8047F24B93FB1C7F18077012402E06FF045
:20093C007F42D71B0F60401EF1D1969F8D98002F00F101008D901ADD7F1E0DD07F1E16D1CC
:20095C0091980DEB800101F5F07151F8040C6FF39F500AE0383C010091980DEB800101F5E1
:20097C00F07151F8040C6FF3DF5041F8040C8E98022815D19AE803004B46424606F01EF8E7
:20099C008946804664B19AE80300969A09F0D4FD0B4602464946404606F010F889468046D1
:2009BC000EA20CCA494640460CF07CF93FD0969F40467A4209F0C0FD8046919851A20CCA1B
:2009DC000DEB800440460CF0B0F9894604F5F07484BF8B46464624D804E0C04600000000A2
:2009FC000000000045A20CCA404608F01DFD0EF00FFD10F086FA43A20CCA8B46064608F02C
:200A1C0013FD0B4602464946404605F0D7FF0EF0FFFC1837083544F8040B91989697401CAF
:200A3C009190594630460EF0F3FC206039E0919895990026401E81420CDC919F95980DEB03
:200A5C00870101F5EE713F1A51F804097F1E40EA0606F9D176B995984FF001090DEB800034
:200A7C0000F5EE70016800297FF477AE001F09F10109F7E79199969F0DEB8100083D183F68
:200A9C0000F5F070491E9697001F919106E09199183F083D001F9697491E919101680029FD
:200ABC00F5D09AE803003A4609F046FD82469198894600281ED407460DEBC7040DEB8708A3
:200ADC0004F5A07408F5F0787F1C58F8040910F018FA4B46524608F0A7FC08A284E80300A1
:200AFC000CCA4946504608F09FFC083C894682467F1EEAD1919C002C50D417E000000000A5
:200B1C000000703E0000000000007041000000000000C03F000000000000204000000000FB
:200B3C000000E03F000000000000F03FA5EBC40528A8E70005EB0008949E3DA090E8000CB0
:200B5C00002ECDF830A221D4DFF8EC90DDF844A2354600266D1C09F11009AAEB040AB245DA
:200B7C0014DBF20002EB090003C850ABD219D2180CCA08F059FC02468C980B46594605F073
:200B9C0022FF761C8B466D1E8C90E8D1DDF830A2641EA7F10807A8E8000CCDD5919F24A053
:200BBC0090E80C00002F10D40DEBC7047F1CA03494E80003194610464B46424605F003FF0C
:200BDC00083C7F1E02460B46F2D18E9900290CBF191C83F00041DDF840C2104628AF8CE840
:200BFC00030097E8030005F0E9FE024691980B4600280DDD0DF1A80A0746BAE800031046AC
:200C1C004B46424605F0DFFE7F1E02460B46F4D18E9909B183F0004390988D9F08307FB080
:200C3C0080E80C0018B007F00700BDE8F08FC0460000000000000000383C01002DE9F84F62
:200C5C00C04CA178FF2904BF002011F05BF8A07811F0D0FA044604F1680504F19006296849
:200C7C00086810B10021E1830CE0A87B002804BFA97E002906D13078002801BF207F012829
:200C9C00608CE0832189E08B4118491C6181204600F06CF901281EBFAB480178012904D108
:200CBC0021890020491CE08361814FF6FF77A87E01280DD1AA8B6189208900F05BF938B1C7
:200CDC00218960894A1C93B298421BD0A88B0FE03078012816D172886189208900F04AF95B
:200CFC0080B1218960894A1C93B298420AD0708892B2904206D03818608180B200F03EF947
:200D1C003F18E78304F5967999F8040020B120890021401CE183608104F12E07A87E0128A4
:200D3C0011D12189A88B4B1C9BB298420BD1608100F024F98046B988288C01FB0808204653
:200D5C000CF0EEFD01E0B7F80480B4F81EC022687E4ED2F80CE00CF1010000FB08F340F6BC
:200D7C00C41000FB03F18E44C2F80CE03668DFF8E0E13678BEF80080764AB609032E11D170
:200D9C00D67BF60748BF4FF000080BD408F101081FFA88F6012E12BF668AB9F8066006F224
:200DBC00DC5600E0668A5E434FF4C87AB6FBFAF6761C6661AEF80080A3614FF0180894F8E0
:200DDC0006A084F820C008FB0AFADFF88CC1DCF800E023680EF1080656F80AB0C3F810B0FB
:200DFC0094F806A008FB0AFACDF800A0D3F80CB0D4F814A0ABEB0A0ADDF800B046F80BA01A
:200E1C0094F806A008FB0AFA56F80A609E600EF10C06A37908FB03F30EF10C0EF65C06F040
:200E3C00F00646F002060EF803604FF0000ADCF800E0A6790EF1020308FB06F623F806A019
:200E5C00464BA6791B68760103F1140AD4F814B05AF806A00AEB4B0A03F1140B4BF806A0EC
:200E7C00AD7E022D0BD1A5796D0103F1140697F800B056F805A000FB0BAA46F805A0BD887C
:200E9C00D27BA779D60736D508FB07F70EF10802D659A6F5A86A0EF1080646F807A0A779E9
:200EBC0008FB07F7D2592768511A3961BA6003F11402A1794901575807F5F667575003F12B
:200EDC001401A27952018958C9F800106843244AA179156B03EB41162968401AA0F51670C3
:200EFC00F0612049A07903EB40100B78012B14D10121C17214E003F114027F01D1592A46C4
:200F1C004243A1F5E661A2F516729142DED30821204600F037F8012011E0916A4A78C272FF
:200F3C00A179DCF8000008FB01F281182268516007200D49087020460CF072FA0020BDE855
:200F5C00F28F00BF684E0020784F0020084F00208C2D00205C4D0020804E0020844E00207F
:200F7C00D4450100734F00206F4F0020DFF800F035440110DFF800F069860010DFF800F09D
:200F9C0091860010DFF800F0A985001038B50C4620B141680122A240114201D1022038BD0F
:200FBC00914341600E480025031900EB8401C1F8985003F144010978FF291ABF806850F80D
:200FDC00211044F02041054808F09CF820464FF0FF3110F0A1FA284638BDC046007FC767D0
:040FFC00F0130020CE
:20100000B41200001810000099EB0000FDB301106DC00110FDAE011099B501100000000044
:08102000000000002D0000009B
:20102800B01200003C100000B1C00110A9BF011067C0011069B80110000000000000000035
:041048003000000074
:20104C00B012000060100000BDC00110CDB30110D9BD01106DB3011000000000000000005B
:04106C00310000004F
:20107000000000001822002004000000000000000000000020000000E8C9011030000000F0
:2010900028100000202200200400000000000000000000000C000000D8CA011018000000CB
:2010B0004C1000002822002004000000000000000000000024000000F0CA0110180000004F
:2010D00000000000302200200400000000000000000000001000000018CA01102C0000005B
:2010F0000010000040220020040000000000000000000000200000006CCA011024000000BF
:20111000FFFFFFFF482200200400000000000000000000002800000090CA0110240000007E
:20113000FFFFFFFF502200200400000000000000000000001400000008CB011018000000FD
:20115000FFFFFFFF5822002004000000000000000000000058000000B4C9011034000000CB
:20117000FFFFFFFF602200200400000000000000000000001000000020CB01101800000099
:20119000FFFFFFFF682200200400000000000000000000001C000000B4CA011024000000C6
:2011B000FFFFFFFF702200200400000000000000000000003800000044CA011028000000EE
:2011D000FFFFFFFF782200200400000000000000000000005400000078C901103C00000063
:0811F00001000000C8450100E8
:0411F80001000000F2
:0411FC0000000E00E1
:0412000000000F00DB
:0412040032000000B4
:0412080001000000E1
:04120C003421002069
:0412100000020000D8
:0412140000000000D6
:0412180001C90110F7
:04121C0000000000CE
:0412200000000000CA
:0412240008000000BE
:0412280000002200A0
:04122C007C1E002004
:0412300000000000BA
:0412340000000000B6
:0412380008000000AA
:04123C008C200020E2
:0412400000000000AA
:0412440000000000A6
:04124800080000009A
:04124C00000000009E
:04125000000000009A
:041254000000000096
:041258000000000092
:04125C00010000008D
:04126000441F002007
:041264000600000080
:041268000100000081
:04126C00301D002011
:04127000000000007A
:041274000000000076
:041278000002000070
:04127C00000000006E
:02128000290043
:02128200010069
:02128400250043
:02128600300036
:02128800310033
:02128A002D0035
:02128C0001005F
:01128E00015E
:081290000300000040450100CD
:0812980000000000000000004E
:0412A0000000010049
:0412A4000000030043
:0412A80013C401105A
:0412AC000921010013
:0412B000B812000070
:0412B400B81200006C
:0412B8000000000032
:0412BC00EC21002001
:0412C0000F230100F7
:0412C4002000000006
:0412C8008C44010051
:0412CC00F8420100E3
:0412D00029C101101F
:0412D4007D2901006F
:0412D8007F29010069
:0412DC00A1C7011095
:0412E000A3C701108F
:0412E4000000000006
:0412E800354001008C
:0412EC009C40010021
:0412F000B440010005
:0412F4008440010031
:0212F8000200F2
:0212FA000900E9
:0212FC000100EF
:0212FE000000EE
:0113000001EB
:041304009D22010025
:04130800B906010021
:04130C00C116010005
:041310009D0A010031
:04131400F1060100DD
:0413180075F4000068
:04131C00B5C5000053
:04132000872501001C
:0413240071E700006D
:0413280015C70110D4
:04132C0025C70110C0
:201330002DE9F04FD64C211D2046ADF19C0D0DF0F3FD04F120050021284611F069FED14E1E
:2013500010201F220623A560314605F0A1FE5020ADF820000025ADF81E504FF47A7A8DF8AA
:201370002F500221ADF824500DF11E02ADF826A04FF44870ADF8220040F2063003F00EFAF4
:201390004FF44270132104F13D0203F007FA40F20730112104F12C0203F000FA4FF444704A
:2013B00001210DF12F0203F0F9F940F21130022108AA03F0F3F940F2123002210DF1220207
:2013D00003F0ECF940F21330022109AA03F0E6F94FF4457002210DF1260203F0DFF904F107
:2013F00050002A461523A8490090102005F050FE314610200622A02305F04AFE314610207B
:201410000722A02305F044FE314610200122782305F03EFE314610200822A02305F038FE44
:20143000314610200922A02305F032FE0CAC01208DF8325029468DF8300003468DF83100DF
:201450004FF480628DF83410904D00941F4610208DF83370294605F01BFE0DF13100294645
:20147000009040F202423B46102005F011FE0DF13200294640F203423B460090102005F055
:2014900007FE0DF13300294640F206423B460090102005F0FDFD0DA829464FF483623B4620
:2014B0000090102005F0F4FD794910204FF0FF3205F0EEFD1020774B00907749774A01939D
:2014D000092305F0E5FD76494FF0FF32102005F0DFFD744D2878800011F00EFA01467248DE
:2014F00004464161002900F098804FF6FF700EF045F82878800011F0FFF90146A161002945
:2015100000F08B804FF6FF700EF038F82878800011F0F2F90146E16100297ED04FF6FF701E
:201530000EF02CF82878800011F0E6F901462162002972D04FF6FF700EF020F8287880005A
:2015500011F0DAF901466162002966D04FF6FF700EF014F82878800011F0CEF90146A1624E
:2015700000295AD04FF6FF700EF008F82878800011F0C2F90146216300294ED04FF6FF70B4
:201590000DF0FCFF2878800011F0B6F90146A163002942D04FF6FF700DF0F0FF287880002D
:2015B00011F0AAF90146E163002936D04FF6FF700DF0E4FF2878800011F09EF90146616465
:2015D00059B34FF6FF700DF0D9FF2878800011F093F90146E16401B34FF6FF700DF0CEFFFB
:2015F0002878800011F088F901462165A9B14FF6FF700DF0C3FF2878800011F07DF90146C1
:20161000616551B14FF6FF700DF0B8FF274B04F15800352110220FF09BFD2878800011F08B
:201630006BF904F1580201468A480F920029C16055D04FF6FF700DF0A1FF2878800011F04C
:201650005BF9014683480029016148D04FF6FF700DF094FF2878800011F04EF901467D48B9
:20167000002941613BD04FF6FF700DF087FF2878800011F041F901467648816179B317E0E8
:20169000D00800203109010059CF0000CD530000C515010028450100611101005C17002070
:2016B000D1180100694F002008020020983D01004FF6FF700DF062FF2878800011F01CF910
:2016D00001466448C16151B14FF6FF700DF056FF6048614B1521102220300FF039FD2878FC
:2016F000800011F009F95B4A014620325B4822920029C16047D04FF6FF700DF03FFF2878D2
:20171000800011F0F9F801465448002901613AD04FF6FF700DF032FF2878800011F0ECF8E8
:2017300001464E48416171B34FF6FF700DF026FF2878800011F0E0F801464848816111B3AA
:201750004FF6FF700DF01AFF2878800011F0D4F801464248C161B1B14FF6FF700DF00EFFAF
:201770002878800011F0C8F801463C48416251B14FF6FF700DF002FF3848394B19211022E6
:2017900028300FF0E5FC37490846344E4F78007806F128011C91CFB93E49324A0C3151622A
:2017B0000FF0E4FB2F4F024600203E463D462E49009007F14800019006F15800029005F19F
:2017D00020000390BB78102005F062FC314A27491020183205F05CFC2E4800780FF0C6FB30
:2017F00023490246102005F053FC2A4800780FF0BDFB20490246102005F04AFC1E4910205D
:2018100005F046FC1D4D0120287009F0AFFE1C49002007F0F5FB1B4900200EF0A7FA002009
:201830000DF048FD02200E9028700EF023F9174E154A174806F10801116006F114010160E3
:2018500006F1200010F084FD0120377886F8280027BB21E08012002050430100A00D002074
:20187000B83E0100B005002043F90000611B01005188011031810110C5AB00108B220020D9
:2018900000000303DDD0000004200020E41C0020202D0020D00800200FF0D2FFE04EA846D0
:2018B000032006F1140588F80000284610F0C0FBDFF87093D9F8000006F134074FF4FA71B1
:2018D0002B463A46BAFBF0F080B24143491EE248716011F099FBDFF884B306F10802306026
:2018F0007168CBF80C2011F08BFB002124220823384611F081FB042088F80000E348002508
:20191000A6F844507768B7642F46D54DF76410F08FFBD9F80000DD4B05F1340651463246D7
:20193000BAFBF0F080B24143491ECE48696011F06BFB242208232860394605F10800CBF866
:201950001000304611F058FB3846EF646968A5F844002868A96411F053FB2868696810F0CD
:20197000FDFFCB480525C04E88F8005010F060FBD9F80000C64B06F1340540F2DC51BAFBBF
:20199000F0F02A4680B24143491EB848716011F03BFBB74930602422082306F1080008605A
:2019B0003946284611F028FBB7643846F7640623A6F84400AF4D88F8003005F114063046D5
:2019D00010F036FBD9F80000B24A4FF49671BAFBF0F0334680B24143491EA748696011F0CB
:2019F00013FBA649286005F108000861A94824220823394611F000FB3846EF646968A5F8CF
:201A100044002868A96411F0FBFA2868696810F0A5FF072088F800009F48994D10F008FB63
:201A3000D9F800009C4B05F134064FF49651BAFBF0F0324680B24143491E9248696011F0B6
:201A5000E3FA8E4928602422082305F1080048613946304611F0D0FA3846EF646968A5F823
:201A700044002868A96411F0CBFA6968286810F075FF0820844D88F8000005F110063046DF
:201A900010F0D6FAD9F80000844A6421BAFBF0F0334680B24143491EE948696011F0B4FA6E
:201AB000E849286005F1080008627C4824220823394611F0A1FA3846AF646968A5F8400066
:201AD0002868696411F09CFA2868696810F046FF0920DD4D88F8000005F11006304610F007
:201AF000A7FAD9F80000E04A47F23059BAFBF0F0334680B209FB00F1491ED448696011F0F6
:201B100083FAD349286005F108000860D64824220823394611F070FA4FF00A0A88F800A042
:201B30006F64AF643846A5F840000DF043FFC549C84D05F10C004862281D10F019FE0B20BF
:201B500088F80000012028720DF034FFBD49C24D05F10C008862281D10F00AFE0120287201
:201B70000C2088F800000EF005F8BC4E06F10800CBF8140006F1180010F0A6F90D2588F86E
:201B900000503A46CBF81C203B46CBF8203001217176384686F82E3088468BF80000424696
:201BB0003276394686F82D104FF4E1333363AD4DC6F81C800322AA49AA70EA4BB1628420D4
:201BD000736205F10C02E849226105F110068E600EF0A9FF0BF128018422CBF804000AF03C
:201BF00039F808200EF09FFF0646FF23CBF8186038463071504673710EF095FFDBF8141015
:201C1000306008688047DBF81000006880471B4805F11C030678CBF8083086B904E0C046C1
:201C3000DC190020C44501000646306904210068A9708047706900688047404630700520D0
:201C5000CB49A870384630F0100629D0420834BF0E9A042225E0C04635290100EC17002003
:201C7000341A0020EBD700008C1A00203929010068210020E41A00203D290100E8200020A5
:201C90003C1B002041290100EC1B0020481A0020A01A0020181B0020501B00201C1C002099
:201CB00042460A70401C491C1128CCDBB14E46F67272C6F85C2149F22F73C6F85831C6F835
:201CD0008C71C6F89071C6F89471C6F89871C6F89C71C6F8A071C6F8A87140F2DC50C6F821
:201CF000B0713D38C6F8340146F6C031C6F8541145F2E522C6F83C212723C6F8383109F137
:201D10006409C6F8A48149F6C060C6F8600147F6F767C6F86C7147F25572C6F8642147F233
:201D30009533C6F840310E99C6F83C904AF2CF70C6F8680146F20247C6F84C7145F69942B7
:201D5000C6F844218846C6F8AC8148F2DE13C6F8483148F2B560C6F874014BF2D232C6F8B4
:201D700070214CF69F27C6F880714BF64273C6F8783148F61F52C6F8502102F1EF00C6F830
:201D90007C0149F2FA42C6F884214DF20E50C6F888010CF0A1FE0F2786F82D71002286F86B
:201DB0002C21F36CC6F81831306DC6F81401B18FA6F828111346A6F82A310EF079FB86F897
:201DD0002F0108F057FB86F82E014FF6FF70A6F824010DF0F1F8A6F826010CF0D3FFC6F81E
:201DF0001C010AF0DDFEC6F82001707886F830710FF006FAC5A30020A6F8860093E80300D2
:201E100009F0B0FA0DF00AFBA6F8A800A6F8EC9040F6B83286F86470314686F87570DFF88A
:201E3000F8A2F378A6F8CA20B078DFF8E892BB4F044E0BB9052819DB012B19D01CE0C04634
:201E500045290100941C0020401C002049290100442D0020042100201C210020081E0020CB
:201E70008FE4000020200020701C00200123CB700828C4BF0020C8700123337042F6E94041
:201E900030834FF0490B0623728306F13001AB704FF4F07086F807B00823B08306F140001E
:201EB00040F2523221F8022B5B1E20F8022BF7D105F118000121F062306A8AF80210006878
:201ED000B1718047706A00688047B06A0068804705F11406C9F80C600920A87010F08EFBB0
:201EF0002870012831D1BD4E3188F8684FF00009ADF8101042460DF1350340688DF835902E
:201F100004A98446CDF800905846E047012878711BD17188F868ADF82A1040688DF83690F7
:201F300042460DF136034946CDF8009006468DF82B1058460DF12A01B04778710120F870B2
:201F50004E463E7142F6E063FB802F78B848012F12D05FB900270121B8460E91464646703F
:201F70000CE0C04639830000A00D0020417807E04C210020580F0020414641708170414672
:201F90008AF806100021A61CC17004F10D030E96B74A109304F14801119104F10B061396A9
:201FB000927B6A7004F13403149304F12C01159104F1090616960D27AF70E31D1793611C65
:201FD000661D189104F140071996E31C1297B8491A9301F120020E46DFF8ECB2DFF8EC9252
:201FF000DFF8EC82BB4F1B923346321D1D92DA1CB94B1E928A1C1F92721C20921946DA1CC8
:2020100021921E468A1C2392721C07F11001249200268AF807601A1DA96037462592DFF897
:20203000D4A20771AB48406800214FF040424FF0FF3310F0DDFF071CF4D0002006900DF13D
:202050002E0106AA07A80EF055FD002870D1BDF81CC00126BCF1100F65D19E489DF82E10B6
:20207000007888425FD1069D28884FF6FF71814259D02B78913B29D01F3B54D168781628E5
:2020900018BF002205D130460FF08AF9B74832460560904843699AB163B94FF6FD70BA49ED
:2020B000BA4A00900023102004F0F2FF89494B69C2B22AB9874843F002030026436132E084
:2020D00029790835284610F08FFF2CE06B780E3B02D09B1E24D026E0A88842F2030181422D
:2020F00021D1A9680D78F5B9491C04A80A684968026004AD41602878BA4904AA00F0FD0074
:202110002870102004F0C4FF0DE0C046000000000000000060210020142D0020F81F002004
:2021300008200CF04BFB069810B10EB110F0A6FBF80FFFF477AF6748806810F051FF002837
:202150007FF470AF63488568284610F045FF854208BF002502D085680EF0F8FA002DEAD04A
:202170005C4928884969401E00F09381C01E00F08C81001F00F07A81083800F057811038B1
:2021900040F08A816868427806788778C17841F60F0306EB0226001DF61A00F00581B61EDB
:2021B00000F0AA8045F6EF72B61A40F06E810C2F00F26B81DFE807F0927E72685E52483E73
:2021D00032281E1407C0012940F05F8100780E990870CDF80080206D89E0C046343C010019
:2021F000022940F05281008810990880CDF80080606D7CE0042940F04881006811990860DA
:20221000CDF80080E06C72E0042940F03E81006812990860CDF80080606C68E0022940F080
:202230003481008813990880CDF80080E06B5EE0CC200020042940F02881006814990860C0
:20225000CDF80080A06B52E0042940F01E81006815990860CDF80080206B48E0022940F01F
:202270001481008816990880CDF80080A06A3EE0B0050020022940F0088100881799088014
:20229000CDF80080606A32E0012940F0FE80007818990870CDF80080206A28E0012940F063
:2022B000F480007821460870CDF80080E0691EE0A00D0020022940F0E88000881999088065
:2022D000CDF80080A06912E02DA100004195000015680000D008002080120020022940F088
:2022F000D48000881A990880CDF8008060690F9A352398E040E20100002F49D07F1E37D021
:202310007F1E27D07F1E1AD07F1E0DD07F1E40F0BC80042940F0B98000681B99086061484C
:20233000CDF80090406A3CE0022940F0AE8000881D9908805B48CDF80090C06931E00129C7
:2023500040F0A38000781E9908705648CDF80090806926E0012940F0988000781F99087077
:202370005048CDF8009040691BE0C046642D0020012940F08A800078209908704948CDF8A2
:20239000009000690DE0C046E1E90000C11E010001297AD1017843480170CDF800904149CE
:2023B000C0681C9A19233EE0002F31D07F1E25D07F1E19D07F1E0BD07F1E66D1012964D1E2
:2023D0000078219908703848CDF800B0C06928E001295AD10078239908703348CDF800B02C
:2023F00080691EE095B4001001294ED10078249908702D48CDF800B0406912E0022944D1D2
:202410000088259908802848CDF800B0006908E001293AD1017824480170CDF800B022493D
:20243000C068229A152309F0E5FF2EE088082CD31E4807684FB37888397908373A4610F0AE
:20245000C7FD0746162F03D0042F01D00EF0A8FF17484669CFB936F00206466115D1154AEA
:2024700015494FF6FD70012300900BE040F252300AA9443806F05CFABDF828200849CDF85B
:2024900000A00023102004F003FE68680EF05EF902E0A8780CF008F928460EF057F94AE634
:2024B000690B0100A00D002080120020642D0020D0080020C11E0100E1E900002DE9F04F70
:2024D0000746C84821F000440E460FF2D82BADF15C0DA04213DDC448A04203DD38460CF0C1
:2024F0009DFF48B1002000909BE80C003146384605F0BEF90E46074631463846A1E2BB483B
:20251000A04205DC38460B46024604F05DFA98E2B748B146AFA50FF2C42AA04280F2C88037
:20253000B448A04251DCB448A04200F36F81B34AC1F30A502315000502AEA3F21648251A95
:202550003C460227AD18294620460CF067FF0EF0DEFC0B460246294620460CC604F034FA8A
:2025700092A20CCA06F066FF04460D467F1EEAD106A880E830000325044694E803009BE837
:202590000C000AF095FB1DD002A808A942462B46FEF77AF8B9F1000F014606D408A890E8EB
:2025B00000030AAF97E80C001CE208A890E800030AAF97E80C00494289F0004983F0004354
:2025D00010460EE2083C6D1ED7E78D48A04238DA8C48A04200F01A81B9F1000F75A277A423
:2025F00016DC0CCA384604F0F4F994E80C000D46064604F0EEF9894680464B464246294685
:20261000304604F0E1F994E80C0004F0E2F915E00CCA384604F0D8F994E80C000D460646DA
:2026300004F0D2F9894680464B4642462946304604F0CAF994E80C0004F0C6F902460B46AD
:20265000D8E17148A04200F0E180B9F1000F5DA25EA416DC0CCA384604F0BBF994E80C0095
:202670000D46064604F0B5F9894680464B4642462946304604F0A8F994E80C0004F0A9F9C3
:202690008CE00CCA384604F09FF994E80C000D46064604F099F9894680464B464246294614
:2026B000304604F091F994E80C0004F08DF95AE0D449C4F31300814200F0A880D248A0421C
:2026D00036DAB9F1000FD4A2D5A417DC0CCA4946384604F07EF994E80C000D46064604F0D6
:2026F00078F980468946424630464B46294604F06BF994E80C0004F06CF916E00CCA494632
:20271000384604F061F994E80C000D46064604F05BF980468946424630464B46294604F0E7
:2027300053F994E80C0004F04FF902460B467BE1B9F1000F1ADC95E80C004946384604F04B
:2027500048F99AE80C000C46054604F042F980468946424628464B46214604F035F99AE8A7
:202770000C0004F036F902460B4664E195E80C004946384604F028F99AE80C000C46054666
:2027900004F022F980468946424628464B46214604F01AF99AE80C0004F016F902460B4666
:2027B00034E1C0460000000000000000000000000000704100004054FB2119403163621A24
:2027D00061B4F03D0000307F7CD91240CA9493A7910EE93D00004054FB21F93F3163621AFC
:2027F00061B4D03DFC21E93F0000503E0000F07F7A6A0F403C461C40FB213941000060411D
:20281000BCFD1540FB2119407CD912408EA20CCA4946384606F00EFE0FF2342898E80C0080
:2028300004F0D7F898E80C0004F0CEF80D9181460C9088460CF0F2FD0E9095E80C00414617
:20285000484606F0F7FD0B4602463146384604F0BBF815909AE80C008B464146484606F0AC
:20287000E9FD13901598139A14910B46594604F0ABF880460D984B4689460146184695E84C
:202890000C0006F0D7FD0B4602463146384604F09BF810910F900D990C989AE80C0006F02F
:2028B000C9FD0B46024610990F9804F08DF824154800A4EB5050102840F387800D990C9874
:2028D00065A20CCA06F0B6FD8A46054610990F9853462A4604F078F88B4615900D990C98CA
:2028F0005FA20CCA06F0A6FD0E460746159A10990F985B4604F068F853462A4604F064F86A
:202910000B4602463146384604F05EF8139014911598149B139A594604F056F88046894608
:2029300015981099119002460F98CDF848B05B4604F04AF853462A4604F046F80B46024639
:202950003146384604F040F8024611980B46594604F03AF84800A4EB5054322C35DB0D9CAD
:202970000C9D41A20CCA2146284606F063FD82461598894659464B46524604F025F88046D7
:202990003BA2CDF854800CCA8B462846214606F051FD0C460546129911985B46424604F0E3
:2029B00013F84B46524604F00FF80B4602462146284604F009F80B461493024613925946F1
:2029D000404604F001F889468046159859464B46424603F0F9FF149B139A03F0F5FF0B46FB
:2029F0000E99024611F0030104D0491E0ED0491E1AD020E0012000904946404604F038FF78
:202A10001FE0C046FB2109007CD902404946404605F092F815E0C04600004054FB2109405D
:202A30003163621A61B4E03D012000904946404604F01EFF03E04946404605F07DF881F09A
:202A5000004117B0BDE8F08F83C8C96D305FE43F00000000000038430000601A61B4D03DF0
:202A70007370032E8A19A33B0000002E8A19A33BC14920259A837B392DE9F04FD34C04F179
:202A90001C012046ADF1340D0CF046FA002604F1A80A4FF6FF7066700121608250460DF09A
:202AB0005FFCD04802210DF05BFCCF4804210DF057FC04F14808042010223146A0704046E8
:202AD0000AF07BFC04F158091022484631460AF074FC04F120073E6004F10A052E700720FB
:202AF0006072DFF810B3E67102222672594610200346CDF8008004F0CBFA1020032259463D
:202B1000CDF80090034604F0C3FA0422102059460097134604F0BCFA4FF0080A4FF003092B
:202B30004FF0010B05F12E00079005F17D00089005F12200099005F15E000A9028350B95D8
:202B500019E06078B4F84050B4F84230B4F84420B4F8461006280ED1ADF80A50ADF80C303B
:202B7000ADF80E209F48ADF810100FF0E7FE584602A90AF059F8E069B44A31464FF0FF331F
:202B900010F036FA071CF6D0059606A80DF11A0105AA0DF0AFFF002840F0BE81BDF81810DC
:202BB0002078102940F0B4819DF81A10884240F0AF81059D29884FF6FF728A4200F09D8103
:202BD0002B78A23B00F080812E3B40F0A181A978B046002900F03C81891E00F00D81491E40
:202BF000012940F2D780891E00F09B80491E72D0491E5FD0083900F05781891E40F05A8166
:202C100094F83E10A8880529ADF808004AD075488DF812B00FF092FE94F83E00012820D02F
:202C300004281ED003280DD002280BD00598C188ADF80A100189ADF80C104189ADF80E10E0
:202C500081892BE0B4F84210B4F84000ADF80C10B4F84450ADF80A00B4F84610ADF80E50B0
:202C70001CE0B4F84000E9888842D8BF081CADF80A002989B4F842008842D8BF081CADF8ED
:202C90000C006989B4F844008842D8BF081CADF80E00A989B4F84600884200DC0846ADF841
:202CB000100001E08DF81260A749102002AA04F0EFF9FFE04C480FF041FE6B78002B40F085
:202CD000F980E888A0822889E0826889208345480FF08EFBEEE0AA88B249102004F0D8F92D
:202CF0000798414606220AF068FBA682E6822683A87920733B480FF021FE3B480FF01EFEED
:202D1000D8464FF6FF70237960823BB9A879082814BF042005206070E670CBE084F8019014
:202D3000C8E06B787BBB291D0A6807980260898881800623637068896082E889A082288AE3
:202D5000E082688A94F83E102083E8780129E07218BF02290BD1994910201F2204F098F900
:202D70004FF47A7180B241431E480DF015FB68890423009090490193EA7810202D1D2B468A
:202D900004F086F999E06878312840F08A80E67004202CE06B78002B40F08380A878218A32
:202DB0006278032814D0E078257921B9012814BF2671E67005E0054303D081480DF0ECFAB5
:202DD0006278072AE4D1062011E0C046B0050020062A0BD0E578002D08BF84F801906CD08C
:202DF000022004E07C060020A00600200720607063E0C046271B01006B78002B51D1EB783F
:202E1000617893B902291DD007291BD0062902D12079012816D1032914D069480FF0E8FAFD
:202E300080B958460FF01CFB0CE00EF09FF80246A07960490090089843460190102004F09C
:202E500027F968706D78002D2BD133E0070000806B7833BB5B485649009002221020034682
:202E700004F016F958484A46514900901020034604F00EF9ED1C296809980160A9888180A3
:202E9000207884F801B00EF071F802465B460A9D6079484900901020019504F0F9F8C0B24F
:202EB00058B184F801A008E0AA8840491020052304F0EEF8B8F1010F2AD1656A45B32968FB
:202ED00031B36078884723E06879132820D12889012808D1607B022805D13E480FF02EFD09
:202EF0000DF052FE14E035491020052204F0D0F881B238480DF050FA0AE06888C00B07D377
:202F1000324804222A4900901346102004F0C0F8059808B10FF0B2FC2579E07879082ED34E
:202F300055EA00032BD0204600787DB9E279217A8DF808200B9D8DF809102B680DF10A01AB
:202F50000B60AA888A8003E0051601108DF80890627A8DF81020A17A8DF811100EF006F840
:202F70001149024602AB102004F092F838B1656A84F801A01DB1296809B150468847B80831
:202F900003D31349304609F04FFEF808FFF4F3AD607B401E3FF4D5AD401E7FF4ECAD0DF04B
:202FB000F3FDE8E5D9EE000059440110C1170110399600000945011015990000391F0100B1
:202FD00058060020F805002008060020D0050020EE050020A00600202DE9F04F0F46CD4C87
:202FF0000168E16241688068ADF11C0DE060C548A1608047C448E16A0160A168DFF810A35D
:203010004160E168DFF804938160CE49002FA346C1606FD03D68E8788DF80C0028798DF81C
:203030000D0003A80FF0D0FFA86808B1C6490160E86808B1C5490160C54C28782070687828
:20305000BE686070A878B268A0703178A2607368E1702E696360EA6926627968E26208687F
:20307000E06068696062A8697B68A062286A9E68206395F8240084F834001EB900200EF006
:2030900047FE00E066617868C06818B900200EF03FFE00E0A0617868006918B900200EF0E7
:2030B00037FE00E0E0617868406818B900200EF02FFE00E0206128692062F86881680E68D3
:2030D00006B9D24ED0494FF001084E60C66881F8018036B900200EF01BFE4D462E68F8681B
:2030F00001E04D462E6000685446FB68A0615868E06107E000200EF00BFE4D462E684FF0E1
:2031100001085446361DC7493668621C04F114035020B04710B1286880688047DBF808002F
:203130008047C24E002781463B46BF487770694620610422337038460DF06AF80098B0F538
:20315000801F0CD020B90EF071F806F0F1F808E00CF0F8F80FF086F80420708001E00EF081
:2031700065F83846BA4EA0602B68B760986980477060AF4880F800803946418014200FF0B8
:203190007FF9FF211422A0620FF0E0FBE01CFF2102220FF0DBFB14200FF072F9A54F386036
:2031B0003868002114220FF0D1FB002000F052F940460CF0CBFEA0480188FF2906D1022104
:2031D00001807822001D00210FF0C0FB03200FF0F7FE04200FF0F0FE05200FF0E9FE062073
:2031F0000FF0E2FE07200BF08DFA944E0820307006F124000FF0D4FE0BF042FC06F1360A31
:2032100005200A2152460EF086FC38B10020C0F10901401C0AF8011B0A28F8DB307810211A
:2032300007F0ACFC2B68864909200DF10E025E68087001AB10200021B047A06AE1690A2690
:203250000A309DF80E20761E00F8012BF9D1891EE161DBF80C104846884704F120002B6802
:20327000626A059040461E69DFF8D88104F120034146B04710B1286880688047B8460EF00E
:20329000CBF85FEA000903D008F0AAFB4FF0FF39002643E00298216910F8062CA0F10C07D7
:2032B000032A03D1002939D0884737E0A16A9DF810C00A223046491E11F8013F9C4506D06C
:2032D000521E00F10100F7D14FF0FF0A01E05FFA80FA2868BAF1FF0F00F108001CD03879D9
:2032F0000DF03AF9B979012904D0022904BF0299887001E002990870029950460EF050FB6F
:203310000CE0C04641490010F8440020AC220020A41F002018160020006880472868C369AB
:2033300004A902AA0DF10F0098470028B2D0D8F800007700C35B6BB9761CF6B20A2EF8DBC0
:203350002BE0C0462830010009110100091F0100441E00200A2E20DADBF808008047D8F889
:203370000010002231F807A0CA53DBF80C108847354850F82620267051463046904706468F
:20339000FF202070DBF808008047D8F800107A5A16437E52DBF80C1088470EF03DF80746B1
:2033B000B9451AD007B9294FE069B84238BF071CDBF80800804781462868016A206A8847C3
:2033D000626A28681F49059B521C6262C6683846B047DBF80C1048468847A76829686069EF
:2033F0001431AFB9D8F800000A270026835B33B10969606988472968D8F8000014317F1EDA
:2034100006F10206F2D107E000220020EB140100096988472968143109684FF0FF308847EC
:203430002DE7C04631160100691F0100902200208C220020842D0020981800200C11002013
:20345000962D0020A1050100804201008EC2F528242D00202DE9F84FDFF8BC13DFF8BC2378
:20347000DFF8BC5308700821002010600D23DFF8B40340F23732017043808280DFF8A80314
:203490000560AC7EDFF8A4030470FF2CE97E417008BFFF292A7F82706B7FC370AE7F06710D
:2034B000ED7F457115D1FF2A08BFFF2B11D1FF2E08BFFF2D0DD1DFF878130A7802704B78E1
:2034D00043708A788270CB78C3700A79027149794171DFF860130278DFF85C83DFF85C9315
:2034F000DFF85C730A70FF2543784B7082788A70C378CB7002790A714079487188F8005060
:2035100088F8015088F8025088F8035088F8045088F805500020CB490880D9F83440CA4968
:20353000607808702278C9493A70A0780870A2681079C74A411E1170E078C649C64A0870D2
:20355000E068106008B90EF0E3FB2069C34E306008B90EF0DDFB3068DFF804A301688847F7
:20357000326852F8041F50468847BE48BE49CAF82000CAF824106069BC49086008B90EF0F5
:20359000C7FBA069BA49086008B90EF0C1FBE069B849086008B90EF0BBFBDFF8DCB2B74CDB
:2035B0009BF804000EF06CFF0028206075D09BF80500B34E0EF064FF002830606DD09BF88C
:2035D0000600DFF8C0A20EF05BFF0028CAF8000063D09BF807000EF053FFAB4900280860B9
:2035F0005BD039789BF80000891C484380B20EF047FFA649002888604FD03878002862D07E
:20361000BBF80210484380B20EF03AFFA04A0028506042D038780EF033FF9E4900280860B6
:203630003BD0387840000EF02BFF9B490028086033D03878182148430EF022FF974A1060FC
:2036500058B3387840010EF01BFF9549086020B3387800010EF014FF92490860E8B13878DF
:2036700000010EF00DFF90490860B0B13878302148430EF005FF8D4A106070B18C48397812
:20369000007848430EF0FCFE8A4A106028B138780EF0F6FE8849086018B9BDE8F14F06F07B
:2036B000B9B84FF0000B09E00EF0B2FE0021418081600180022303710BF1010B39785FFAB9
:2036D0008BF08842F0D32268694F0120107121680D732068457321688D732068C5732168D3
:2036F0000D7400212068457400202268D172A0222168487103212068C280017207202268D4
:2037100050720021206881722821206801224182C2760020216848770022206880F85E2044
:203730000121226811770120216881F85D0001223068027131680D733068457331688D7395
:203750003068C57331680D7400213068457400203268D172002231684871306882724FF4BD
:2037700020703168C88008818A7401213368D974DAF800201573DAF800104D73DAF8002029
:203790009573DAF80010CD73DAF8002015740022DAF800104D740121DAF80030DA7200231C
:2037B000DAF800201171DAF800104B71DAF80010C88008818B720520DAF800209374DAF847
:2037D00000103E4AC874106880473968054608688047396851F8042F00209047D9F80C10A2
:2037F0001C4B0A881878364902430A802846354A136898470C2134480FF0CEFB40460FF0A5
:20381000C7FB0FF0C1FBBDE8F44F034800784FF4005107F0B3B900BF6E4F0020044F00206A
:20383000B63F0050604E0020084F00202C4E0020E81200503C4E0020344E0020D4450100A4
:203850007B4F00200C4F00206D4F00206B4F0020724F00206C4F0020F04E0020F44E0020C1
:203870007C4B002091240100B1240100F84E0020FC4E0020682D0020E0210020104F0020A0
:20389000144F0020184F00201C4F0020302D0020684E0020004F00206C2D0020804E00201A
:2038B000844E0020884E00208C4E0020904E0020CC220020702D0020742D00202016002036
:2038D000544F002024160020F84D00202DE9F84F0C46E00788B00BD50EF0AAFD28B1002109
:2038F0008160B348006800B1804784F001005CE1A0070FD500210023069105910491039323
:2039100002910191009101223C200FF039FB84F002004AE11D256007A64EA74F40F18A80C0
:20393000002107918B46A5488178FF2904BF00200EF0EEF9386890F8A0000EF061FC80462E
:203950003868C07A98F82691022818BF032808F5907A06D106F10D000FF00EFB08B906F168
:20397000070B514648460FF003FB88B33868807A002818BF012804D1314650460FF0F4FA37
:2039900004E05246494630460FF0EAFAFF2834D005FB00F906EB090506225146E81D0EF0CE
:2039B0000BFB16F80900396840F00209E81D07900622887E00F0010088F8260105F1010A9B
:2039D000386800F1140108F590700EF0F5FA14E0514648460FF0C0FA78B1524649463046AF
:2039F0000FF0BEFAFF2808D006F10D01454348190FF0C2FA08B949F0020908F12C004B469D
:203A1000017806914289120905920122B8F822100491C0880799029140080390CDF804B0A0
:203A3000CDF800A0002098F806100FF0A9FA84F00400BAE020060FD500210023069105911C
:203A50000491039302910191009101223B200FF097FA84F08000A8E0E0044BD5F11D06F1E2
:203A70000D000FF075FA3868017A012918BF042931D1C17A02291EBF0329817E01292AD1DD
:203A9000817E00F1140230460FF06AFAFF2811D04543354405F10D000FF06EFA50B9E91DB5
:203AB00005F10D000FF054FA38680622E91D14300EF082FA3868C07A022818BF03280AD139
:203AD00006F10D000FF058FA28B938680622F11D0C300EF071FA3A4842683A4800784FF4BC
:203AF00080510BF0C1FE10B18E2009F02DFB84F480505AE0A00505D50EF044FD32490120BF
:203B10000860FEE7600504D506F0DFFB84F480604BE0600405D5812009F016FB84F4804096
:203B300043E0A10440D5294D286810B100200EF0EFF8274E4FF0FF3028600FF005FA3168CA
:203B5000244D51F8202F684690472349234B486A8A6A009001920293C86A0268086A0392EC
:203B7000ADF810000A6B1178002904BF5068002805D19068002804BFD068002806D029702E
:203B9000506868609168A960D068E86029463568134A2E6813486B46B0471349086003F05A
:203BB000DBFC84F4005000E0002009B0BDE8F08F204F0020AC450020104F0020684E002084
:203BD000784E00206E4F0020FC002043044F0020F04E002068450020441E0020312401003D
:203BF0002C4D0020282C0020EC4E0020BB482DE9F84F0025BA4CB849056094F8E2000028C7
:203C100000F06581012800F02F81B64E02283CD0032840F05C8151F8250CD4F8B81000294C
:203C3000A0F5C060C4F8D400B8BF49420028B8BF4042814226DA4FF08057D7F8A401456812
:203C5000B4F8BC0030214FF47F42082300903046A847D7F8A4014568B4F8C00004214FF482
:203C7000F802122300903046A847D7F8A401B4F8D070456820214FF440620A2330460097A3
:203C9000A847012584F8D8501CE151F8258C0EF079FC2F4600B901273946934F3868002872
:203CB000FCD0B146012609F10409D9F82CA03E6009B10EF06DFCCAF30720C4F8BC000EF04D
:203CD00061FCAA4600B9B2463B68002BFCD0D9F800B0BAF1000F3E6001D00EF059FCCBF381
:203CF0008440C4F8C0000EF04DFCAA4600B9B2463B68002BFCD0D9F81C90BAF1000F3E601D
:203D100001D00EF045FCC9F38120C4F8D000B8F5C061C4F8B81000F09C8094F8D80068B9B7
:203D3000C4F8D410D4F8C000C4F8C800D4F8BC70C4F8C470D4F8D030C4F8CC30D4F8D400B7
:203D5000D4F8BC30002854BF02226FF0010204F1C8010F6800EB40008018421000EB9272A1
:203D700007EBA2000860D4F8C810C4F8C43000291CDD1E293CDDD4F8CC0030B93429B4BF10
:203D900015391E21C4F8C81025E02A29BABFD4F8C8000B381E20C4F8C800D4F8C4003F2891
:203DB000B4BF401C3F20C4F8C4001FE0D4F8CC00032812D011F10B0FC6BFD4F8C8000B3031
:203DD000301CC4F8C800D4F8C4000028C4BF401E051CC4F8C450032508E011F1150FC6BFBE
:203DF000D4F8C8001530301CC4F8C800C4F8CC504FF08057D7F8A401B4F8C43030214FF474
:203E10007F424568374800930823A847D7F8A40104214FF400321123456832480096A8470A
:203E3000B4F8C860D7F8A40104214FF4F802122345682C480096A847D7F8A40120214FF4F5
:203E500040620A23B4F8CC60456826480096A84701E084F8D85040F2FF50404502D8801C0A
:203E700040452FD2082030E051F8251C1F4F4BF2F5204843060A3868C0F3814001280CD175
:203E90001B480068006880470BF0CAFF0EF086FB3111C010484306EBE03694F8E50030B9D7
:203EB0001448006820F07F403618760801E084F8E5501148310C0660012741600F4D8760F9
:203ED000287808B90B2000E0052084F8E40003F0B3F9BDE8F88FC0462D400C402C500C408F
:203EF0000415002000A00C4000800C40B43F0050EC010010102009403C600C404544010096
:203F10002DE9F84FB34D696884B0019121B905B0BDE8F04F0FF014B80978DFF8BC82AF4ECC
:203F3000DFF8BC92DFF8BCA201291CBF0229042946F2A81741F64C5B05D0402918BF802927
:203F500000F096803CE10EF0C5FB0028FAD00198007804F01BFE0090446814B900200DF03A
:203F7000D7FE9AF8010000285CD000F043F90EF047F902900168009801914F6809F08CFEAC
:203F9000022825D000990A78012ADBD196490A68137A19F80310317018B90EF0CDFF584426
:203FB000A0602069C17E01F0EF01C1762069C17E41F08001C1762069C17E01F0F00141F085
:203FD0000201C1762269B96888484118D1614BE001980178802911D10820854930700A78B0
:203FF000012A03D09AF80100022801DB38690CE0D8F828003A690178D1720DE07C4907205D
:2040100030700A783869012A02D10121C17203E0D8F828104A78C2720298817901988AF8EA
:204030000210C8E0009800288CD00199009A0078914205D101281CBF00200DF069FE15E0C8
:20405000012840F0BD80684801680A7A19F8020030700EF071FF3918A0680EF069FF18B96C
:204070000EF06AFF5844A0600120A8700098A2E09AF8010000287AD000F0BCF80EF0C0F87B
:2040900004462068029047689AF802000EF0B8F803900EF025FB10F0070F3DD0A87804F0D3
:2040B00075FD0190416801980091029909F0F4FD022831D001990A78012A2AD14A490A6823
:2040D000137A19F80310317028B90EF035FF83440098C0F808B000980069C17E01F0EF017B
:2040F000C17600980069C17E41F08001C17600980069C17E01F0F00141F00201C176009A29
:20411000B9683A4841181069C16101210198A97051E000200DF0FCFD0398A04225D00298D1
:2041300033490278802A12D1082030700978012903D09AF80100022803DB38690121C17215
:2041500010E0D8F828003A690178D1720AE0072030700978386901290EBF0122D8F8281013
:204170004A78C272A0798AF80200029823E00EF0B7FA10F0070F29D0A87804F007FD0446DF
:204190002078D4F80480012820D117490868027A19F8021031700EF0CFFE3918D8F8080009
:2041B0000EF0C6FE20B90EF0C7FE5844C8F808000120A870204605B0BDE8F04F06F0FCBD46
:2041D00005B0BDE8F04F00200DF0A2BD05B0BDE8F08F00BF302D0020D44501006F4F0020AD
:2041F000289A0110684E0020104F0020F0D8FFFF734F00202DE9FE4FB24C617811B90020BB
:204210000DF086FD0EF098FE4FF00008074607F6C417C246AC4DDFF8B49228E050460DF055
:20423000EFFF06467079F0B12968B07901F80800394608F101005FFA80F830460EF074FEBF
:2042500030680178402902BF06F182000178012902BF41887289914205D1B169C08841180E
:2042700030460BF063FF0AF101005FFA80FA99F800008245D2DB6178884505D000200DF0EF
:2042900047FD82200EF04CFE6078012840F0F180002701E07F1CFFB299F80000874280F21E
:2042B000E28038460DF0ACFF064670790028F1D02968B0790A7890421CBF00200DF028FD1D
:2042D000B079FDE0286810F809000DF099FF00684268DAF808109068814204BF3E4609F19A
:2042F000010900F0D480D6E0286890F800B001224FF4C0710FE0636803F5AD76835C01FB9B
:2043100003F901FB0BFE36F809C036F80E60B44538BF9B46521CFBB29A42ECDB4FF6FF70B6
:204330000EF0FAFD064658460DF06AFF68490068D0F804A00868D94630F8192060684FF4A8
:20435000C07300F10E0103FB09F3C85AB2EBD00F52D2720840F6C4104243009200275D4AF5
:204370000190029217E058460DF04AFF01680A78802A03D1DAF81030009A5A610978402973
:2043900008D1029980790A6802EB4011009800F5A060C8617F1C47452EDA2868C05D834596
:2043B000F8D001464FF4C073594363685A1803F5AD73D289595A53088B4202D2521A90452C
:2043D000E8DA0DF01DFF01684A68019B9168DAF808207008A1F6C41103FB00200EF0A8FDA3
:2043F0000028C0D03A48006830F81910491C20F81910286810F807B0296808780DF000FFB8
:204410000026006847684FF4C079464551DA2868805D0DF0F5FE0068296842688B5D60686D
:2044300009FB03F3034403F18201087830B15889B1F802C0401C80B2604508DA887B0128C6
:204450000ED15889098A401C80B2884208DB6EB3B968906801F5C241A8310EF069FD28B373
:20447000761CF6B2D1E700200DF052FC82200EF057FD617828680EF04BFD286800780DF027
:20449000BFFE00260068D0F804A04FF00109771CC145FFF617AFF6B2002E1CBFF8B2002835
:2044B0007FF422AF286890F800B037E7296811F806B007490A6800205B4622F81300584624
:2044D000BDE8FE8F684E0020004F00207B4F00206C2D0020844E00202DE9FC47DFF8B8A236
:2044F0000F460546F80B80F00881A64EDFF88882B80F80F0BA80B80880F0AE803809C0F07B
:204510002F819B480178090980F0A180007830F07F0040F09C80684607F0B2FA012803D12B
:204530000098002800F0938092480078002840F08E8001240025E8B20DF026FE48B1837AF5
:204550003BB1847290F9090004FA00F0C0B20BF0EBFE6D1C032DEED345464FF0030905F14D
:20457000AC0085F810900EF0B3F9844A0021884610681160824952F8080C05F1340042F885
:20459000088C42460EF0B4F93068006B8047AA68A969801A000BC0F1FF328A422CBF0144D3
:2045B0004FF0FF31A961287F20B1E868A969B1EBC02F1ED90DF024F9414600B12146081C39
:2045D00014D0714840F60901018041464180427B64F303024273027B61F30302027341606B
:2045F0000DF0E6FE418811F4406FFBD02C774146A9616649086820F0020040F40070086011
:20461000634A42F8049C41F23006966014605023936014604FF4CA6696601460022042F81D
:204630000C4C44460C600CF0F9F8112006F066FB287818B9686838300EF066F9687F18B1F1
:204650006C7705200CF0EAF8524868612C7409F0B7FE27F0080783E005F0CAF94046743048
:20467000006808B927F002077AE00EF039F934468146606D0068014604208847C8B1287C8A
:20469000B8B14046083006689EB12068EC68006B8047801BE860010BE960A14202D2091907
:2046B0004908E96040F6C41088422CBFB1F5FA7FE86048460EF028FC0BF01AFE90B1A86915
:2046D0006FF4807100224FF0007304462846A04740466C300068002808BF47F0020701D079
:2046F00009F06EFE686900214FF0806304460A462846A04727F0005732E00EF0F1F8514644
:204710000E684EB306F1280106C90A234FF0E0450B40154008BF002B1ED106F1280191E878
:20473000300006F1280393E8060006F12803AA43A14383E806000EF0E7FBB16871B1002DEA
:2047500008BF002C0AD03069B6F93C10B2682B4616462246B04701E00EF0D6FB27F4804710
:2047700027B15046394650300EF0D6F8BDE8FC878E2D002071240020D822002014100440B6
:2047900025E100008C010010EC2C0020000004600C410440BDA70000582300202DE9FC41E7
:2047B000A0F2013714468846022F40F234819C4E9D499E4A3F1F0F2F04D9143F4CD0BF1E62
:2047D0001CD011E0DFE817F0D000CA000E01FB00C200BA002701B000A800100010009E00C0
:2047F00090008100740066002D2880F21481B8F1020F40F010818949238808E1B8F1010FC8
:2048100040F00981F078012800F00581324620781179107189B9002800F0FD8050780128E4
:2048300000F0B680042800F0B380062800F0B080052800F0AD80BDE8FC812078002840F049
:20485000EA805078032800F0B080072800F0AD80052840F0E080A8E0B8F1010F40F0DB80F6
:204870002078012840F0D78006F1F0000DF0C0FD002840F0D0803446002004F13E0108F0D1
:20489000D3F9002840F0C78004F1CC000EF056F8BDE8FC81B8F1020F40F0BD8020880A286D
:2048B000C0F2B980B0F5486F00F3B5800E4619E0B8F1020F40F0AF802088B0F5FA7F80F2DB
:2048D000AA800E463080BDE8FC81B8F1020F40F0A28020880628C0F29E80B0F5486F00F377
:2048F0009A801646B61CEDE7B8F1020F40F0938020880628C0F28F80B0F5486F00F38B809E
:204910001646DFE7B8F1010F40F085802078062880F28180464E0EE0B8F1010F7BD120781F
:20493000042878DA0A3606E0B8F1010F73D12078082870DA09363070BDE8FC81B8F1010FFA
:2049500069D12078042866DA0836F4E7B8F1010F61D1207804285EDCF61DECE7B8F1020F67
:2049700059D120881036ADE7B8F1010F53D13079012850D032462078D178D07069B90028C9
:2049900049D05078012803D0042818BF052842D101200DF065FDBDE8FC81207800283AD17A
:2049B0005078022818BF052835D110780CF0DEFA1C490246102002F06BFBBDE8FC8106F141
:2049D000870500211F22284608F0F7FC21464246284607F03FF944463078B4710CF0C6FAE1
:2049F000002311E006F1680500211F22284608F0E4FC21464246284607F02CF944463078DC
:204A100074710CF0B3FA012300940A4901950246102002F03DFBBDE8FC81C0463109010052
:204A3000B005002099450110F4050020F0050020EE050020094501102DE9FC418E488F4A00
:204A500004788F488F4B90490D2C6FD8DFE814F012010E000E000E000E000A010A018E0006
:204A70000A01C900C900E700E700EE00106041F204478648864DB0F802C08649BC451FBF26
:204A9000B0F81AE0BE45B0F83280B8454FF4A0561ED181480068D0F800C09CF80400032866
:204AB0000CF1080E0BD1DEF80E0000281CBFBEF81800002803D01F80784911608AE0022CDE
:204AD0001CBF1E800D46156000208CF8040081E0BCF1000FA3F800C041D0BCF1010743D08C
:204AF000B7F1010C3BD040F2FE37BCEB07071ED0A7F1040CBCF1010F20D94FF47F77BCEB9E
:204B1000070C1DD04FF44067BCEB07070FD0BF1E012F0CD93F1F0AD07B1E012B0ED940F2FF
:204B3000F937DB1B012B1AD91B1F09D09AE0022C01D115604EE01E800D46FAE7584DF8E79A
:204B5000584B1C68257A012D05D141F20243438043834386F0E7468046834686ECE700208C
:204B70000DF0D6F8832081E08F207FE04E498978FF290CD0106018204C4C41432068851CBF
:204B900040F204466C5A1C80A41B012C484B71D94FF47F76A41B0FD04FF44066A41B032CB1
:204BB00084BF641F012C0BD9A41E012C62D940F2FD36A41B08D103E0801C41F2014444525A
:204BD000136005F0E9F805E000200DF0A1F885200EF0A6F9BDE8FC4136480078012105F0B0
:204BF000CDBF40F204424888188090421CBF41F2084290423ED041F60402904211D12E4CC4
:204C10002E482F4B00680025CDE9004502222D4C256855F8086FB0472B4908802AE0488851
:204C3000188000200DF074F885201FE04888188002280DD940F20442801A1BD040F6FC7286
:204C5000801A05D0083815D04FF47F72801AE8D1887B801CC2B2B52AA8BF6620887300202F
:204C7000488007E000200DF053F88420BDE8F6410EF056B9BDE8F3816F4F0020204F0020FA
:204C9000B1280100504F0020CC4C0020204A0020B1540110615A0110F44B002059550110A9
:204CB000755B0110104F0020684E0020804E0020313901106E4F002002000080EC4E00208C
:204CD000C9080100F04E0020424F00202DE9F04F8246DAF80070DAF804600C465FEA0208A9
:204CF000ADF11C0D14BF00214FF0FF31DFF8409248460DF0F2FA002818BF0B2040F015816A
:204D100000258F488C4905708A48FC6052460DF0EFFD317B27200DF0EDFDB8F1010F07D024
:204D3000657002200BF0A8FF06200BF0A5FF01E0012060702078012840F2AA80801E01284F
:204D500068D9801E012833D9801E012800F2DE800DF0C6FD83464FF0805000F5EE77D0F85E
:204D7000DC01A378466A009321782846062908BF0120019001200290A068228AE1686368BE
:204D9000B047814658460EF0BFF8B9F1000F40F0BF80B8F1000F02D00DF0D2F802E0504601
:204DB0000BF0D8FD002800F0A3803868806A2AE00DF096FD83464FF0805000F5EE77D0F8BA
:204DD000DC01012306680093A168A27860682478AC46042C08BF9C466346B047814658466A
:204DF0000EF092F8B9F1000F40F09280B8F1000F02D00DF0A5F802E050460BF0ABFD0028B9
:204E100076D03868406880474C49C1F8B0510D6081467DE00DF064FD83464FF0805000F522
:204E3000EE77D0F8DC01E38A86690093E0680190208B0290A0780390207D049001210591BF
:204E500022782846022A08BF081CE1786268A368B047814658460EF057F8B9F1000F57D16B
:204E7000B8F1000F02D00DF06BF802E050460BF071FD00283CD03868006A80475FEA000900
:204E900046D1E078A168E28A236907F097FFBFE70DF026FD83464FF0805000F5EE76D0F846
:204EB000DC01E38AC7680093E0680190208B0290A0780390207D2946049001200590257822
:204ED00005B9014608466268A368E178B847814658460EF019F8B9F1000F19D1B8F1000F73
:204EF00002D00DF02DF802E050460BF033FD08B914201AE03068406980475FEA000907D1EA
:204F1000306802692169E078904781E74FF0FF39B8F1010F05D002200BF080FC06200BF09E
:204F30007DFC03480DF0F0FC484607B0BDE8F08F88190020C0190020C112010050450240E6
:204F5000942D00202DE9F04385B011F8017B0446082F04F1FD0004F1FC0804F1760504F588
:204F7000A076844A844BDFF8149213D0092F21D00F2F2FD0112F01BF2878012868781028C7
:204F900040F0D5800A78327648787076012184F83D11EBE00025521C4E5D5F5D3E434E55D7
:204FB000575D3E4046556D1C082DF5DB204608F03DFE74E00024571C0D5D1E5D35430D5543
:204FD0003A5D15400555641C082CF5DB022088F80000CBE098F80100820704D410F0110F98
:204FF00057D01A2266E008784A7800EB02203080CA78887800EB022070804A79087900EB8B
:205010000220B080CA79887900EB0220F080087A30724A7A887A02EB00227281C87A0A7BBA
:2050300000EB0220B0818A7B487B00EB0220F0810A7CC87B00EB022030828A7C487C00EB9F
:20505000022070820A7DC87C00EB0220B082487D897D00EB0120F082494801788A0658BF28
:205070001A2212D504F5A670049071890391307A029021890191F0880090B388728831885E
:20509000204608F071FBE0B11E2298F80100410710D40F2088F8150020460DF031FF002829
:2050B00064D199F8000005B0BDE8F0434FF4804105F064BD204605B0BDE8F0430F210DF053
:2050D0001BBF7088A882B188E9820221F0882883297400206882A18EA88AC91DE981618E93
:2050F000B0EB510F02BFE88AA18E884202BF288BE18EB0EB111F18D02878012804BF687877
:205110000F2805D0687918B10F21A972FE2127E0FC2120460DF0ECFEF0880090B3887288B1
:205130003188A0790DF0E0FE20E0102118E0491E20460DF0D5FE032F18D1A878042818BFAE
:205150000D2813D16E78142E18BF0E2E0ED12F7820460DF0C1FE012F06BFAE72FD21314699
:20517000204605B0BDE8F0430DF0C2BE05B0BDE8F08300BFEC4D0020542D00206E4F00204C
:20519000144E002010B50B7884074CBF43F0020303F0FD0304064CBF43F0800303F07F0334
:2051B00004074CBF43F0080303F0F70384064CBF43F0200303F0DF0310F0AA0F0B7003D0D7
:2051D000107840F00C0003E018B9107800F0F300107010BD2DE9F8430D46002728780228FA
:2051F00014461E4667D1696808784978DDF8208000EB012080B25FEA08021CBFB0F5285F8A
:205210000B205BD14FF42851401A08D0401E21D0401E2FD0401E25D0401E31D04BE0DDF8DB
:205230002490E8680DF094FB80B2A0EB08024A45BCBFA0EB08001FFA80F909EB080016289E
:2052500006DAA6F800904A46E86800EB08010DE00D2732E0E8680088022131802070000AE3
:2052700060702AE0062030800622E96820460CF0A3FE22E001203080E9680A7822701CE0BE
:20529000E868B0B1082131800288227003881B0A63704188A1704288120AE2708188217127
:2052B0008288120A6271C188A171C088000AE07103E0308001E0378001273846BDE8F283FC
:2052D0002DE9F0470F46814638780024022890461D466DD17868089E01784078DFF8D8A0DA
:2052F00001EB002189B24FF42852891A06D0491E29D0491E4ED0491E39D059E0F8680DF035
:2053100027FB80B2B04204D3A919162903DB0D244FE007244DE0FB682A46414698190CF0C2
:205330004BFEAD19F868ADB2C5F11602002140190DF00CFBDAF8000000281CBF0268002ADA
:2053500037D0002123E08EBB022DE0D198F8000098F80110FA6800EB01201080DAF80000E8
:2053700000281CBF0268002A23D001210FE0EEB9062DCCD1F868062241460CF01DFEDAF813
:20539000000000281CBF0268002A12D00321484690470EE056B9012DB9D198F8000000288E
:2053B00013BF0128F9680870802402E00B2400E001242046BDE8F0877C2D00207CB5894DFD
:2053D000144602460026A2F58062182A1AD8DFE812F0FF00F900F200EA00E300D800D1001F
:2053F000CC001900C100BA00B300AA009F00190019007E006D00660052004A003D003500B0
:205410002B0023002D2880F2818002297ED121880BF086FA0646E3E0012940F0E080002CD3
:2054300000F0DD801135A3E0102940F0D880002C00F0D58005F15000102210E0012940F052
:20545000CE80002C00F0CB80AD1D91E0262940F0C680002C00F0C38028462622603021467B
:205470000CF0AAFDBCE0012940F0B980002C00F0B6806D1D7CE0602900D13CB9012940F069
:20549000AE80002C00F0AB800D3571E005F18600214660220CF090FD01206873A0E0012960
:2054B00040F09D8020780DF013FD99E0012940F096802078022800F392800C3528702078C9
:2054D000022814BF301C01200DF0FEFC88E0072940F08580611C684606220CF043FC207868
:2054F0006946324605F08EFE04460A2C0EDA0DF0E7FC38B9204603F0E9F80BF0A1FF09F0ED
:20551000BFFA6DE02C350120285569E0022667E0012964D1A87B21780028A97360D1207896
:2055300001285DD1EBE7012959D12178072956DB102954DC0B353CE0012950D121780A2908
:205550004DDA093535E0012949D12178022946DA08352EE0002942D10DF0B2FC10B90CF0A2
:20557000C0FDCAE701210F3523E0012937D10A3521781EE0012932D1217802292FDAED1D38
:2055900017E010292BD14035102014F8011B401E05F8011BF9D123E0012920D121780229DF
:2055B0001DDA2D1D05E0012919D12178042916DCED1C297014E0012911D1217802290EDA9B
:2055D000AD1CF6E702290AD120881435288007E0012904D121780229D8BF6D1CE9DD1826A8
:2055F00030467CBD0C1100202DE9FE4F05467B48002400680094C00905D37948007810B97B
:2056100020200BF0F5F9012D40F0E280DFF80092D9F8DC00012840F0D8800220C9F8DC000B
:205630000CF016FC01200BF0E3F95FEA000805D00120C9F8DC000CF017FCCBE00DF068F958
:20565000A34602906748684DC0F800B0A86A016801208847012804D1584608F053FB012085
:2056700000906248624FC0F800B0386811200CF0A7FF00B1012410200CF0A2FF08B144F0C4
:2056900002040F200CF09CFF08B144F004040B200CF096FF20B12868564E016B3088884785
:2056B0000A200CF08DFF20B12868534E016B308888475248012606602868816944F020003E
:2056D00088474F4806600CF075FF00F001010191400814D2286A81684A4888478246BAF17D
:2056F000040FF7D0BAF1010F04D1286A42684548032190474449086820F003000860584656
:2057100000F088F82B683868986B8047019801280CD0BAF1010F04D1286A426839483146AA
:2057300090473949086840F0030008602F48066028684169204688470B200CF041FF20B171
:2057500028682C4BC16A188888470A200CF038FF20B12868284BC16A1888884727480660F8
:205770000322C9F8DC20264BC3F800B02868416B204688470128F9D1386804200BF038F907
:205790000446184806603868144800688009FBD30098012802D1304608F0B4FA0CF0F8FE8C
:2057B00008200BF025F907460298C9F8DC600DF083FB1648008808F049F80CF055FB57EA8D
:2057D000040018BF4FF0FF3804E06FF0040801E06FF001084046BDE8FE8FC04614100940A5
:2057F000EC1500200C400940B8010010000222432C20094064400100604001002820086028
:2058100080010443004003402422084040440100041500202DE9F84FDFF804B20746ABF10E
:205830003500DFF8F0810068800880F0E28075480068006880477E490831D1F80090002547
:205850004FEA29715FEA995201F101010AD2C0F13E0210F10A0F4FEAE202D8BF08229142A5
:20587000B8BF111C684BD3F87C21C2F30462162AA8BF203A1B68C3F30443162BA8BF203BBA
:205890009A465218162A05DA12F10A0FB8BF6FF0090200E015225D4B5D4E02F01F0141F4E1
:2058B000F8511980316811F0030F18BF0125C90828BF45F002050FB145F00405434693F946
:2058D0000710411A052904DA9979A94208BF99886FD0DFF844E10F28A0F10F0829DB08EB44
:2058F0000011A1F1F0084FEA28210091072984BF07210091062988BF06215EF82160042422
:20591000774604EB81043C594FEA950CA41BEE0804F0FF0124BFC4F3072631446F08AE08C5
:2059300024BFC4F3074631446E0828BF01EB146104E000214FEA950C6F080091009C5EF864
:2059500024E05FEA5C060EF0FF0424BFCEF3072634447E0824BFCEF3074634446E0828BFF2
:2059700004EB1E64009E89B2A8EB06267143803104EB1124AAEB02010029D8BF01213422B5
:2059900009F0FF074A4391B24FF6FF727943B1FBF4F18A4238BF111C802889B2998005DA5A
:2059B00010F1800FB8BF6FF07F0000E07F20D8719D711A4800681F2918604FF0000008D378
:2059D00040F2FF128A4206D24908401C8A42FBD301E01F219980134F0F39090940EAC100A8
:2059F00047EA0001CBF8FB1F0026CBF8FF6FBDE8F88F0D490D4F434608200F609B1D1870F3
:205A1000BDE8F88FEC0100103C1100506E620840242208405C2D00209C13005008200940F1
:205A30003500094000E7A48030100940FDFDA400AC3F00502DE9F04F044675488A460168D6
:205A500094461F46BAF1000FADF13C0D4DD0BCF1000F4AD09AF8002001209040014244D069
:205A7000BCF80000B0F5C15F32D1DCF81430DCF818206848DCF81C104FF0030E0DF1280848
:205A90000B93DFF894B10C9200680D91C0F3036958F8046FCEB10021351F05200B4655F8FF
:205AB000042FB2F1FF3F10D0934506D0401E01F1040103F10103F2D107E0052B05DA705866
:205AD00020F4702040EA09407050BEF1010EDFD1C4F804A0C4F808C00CF002FF4F4D80462E
:205AF000287820B140460DF00FFA00208DE002F0B7FF4B49086840F00200086007A80CF01B
:205B10005FFC002605F1D00007AA464909960AF0C3F9454905F5827007AA0AF0BDF907A80F
:205B30000CF006FCFF2105F1340007AB3F4A089119210AF0BFF83E4A05F150001A2107AB93
:205B50000AF0B8F83B49324605F18800134609F043F93949324605F1AC00134609F03CF960
:205B7000364A05F12000042133460BF0C9FB0E2005F0EEFA05F174000CF0DEFA05F16C0077
:205B90000CF0DAFA2E74072085F898012E77AE616E770523AE602B49EB602A786961501CE0
:205BB0002870274B1E7040460DF0AEF9B1464FB92548B0E88C106946A1E88C100DC86F4615
:205BD00081E80D0038682060398A6182012060747B6813B940F6C4130646E3601B48A061D5
:205BF00026746061F86800B1A061B86800B160615822494604F1200007F0DFFB04F138007A
:205C100049460BF04DFA20466C600FB0BDE8F08FD4210840541300500200F844D822002042
:205C300000200940A91E0100F1A6000025E1000089DF0000F1170100411C010001F10000C5
:205C50008E2D0020BDA70000B04301000BAD00002DE9F04F05468048066800680F461C4654
:205C70009246C4F399018900ADF12C0D0A010021803207F0A2FBDFF8C891A9F1880002467F
:205C90006E48016830469047A3088046610801979F1C21F00101F819009506EB800003909E
:205CB000091DCDF808A07818434506EB800206EB870B3844049206EB80000690C4F39C00C7
:205CD0004FEA800000F1080007EB400000EB070206EB82020A9224F0030202F1080200EBCA
:205CF000020506EB85053A44059506EB82050A4407953A4406EB8202089206EB80020992FD
:205D1000084406EB800A384406EB800518BF6FF0010040F08F8009F168000246414630469D
:205D3000904700233CB10199264611F8010B761E40EA0303F9D1002B08BF01207AD0002640
:205D50003CB10299234611F8010B5B1E40EA0606F9D1002E08BF02206CD001995846C8471A
:205D700003980299C847009881680498C8473548049A594681462846C847012803D14FEA6E
:205D900088042E590EB1032054E0BE0028460021324607F012FB0399049A2846C847012821
:205DB00001D12F590FB1042044E0274F274C069859463A46A047079803993A46A0470699A3
:205DD000089827460A46B84709980899069AB8470A9806991E4C2246B8472846002128228B
:205DF00007F0EBFA1B4809990A9A81462846C8472034284622460146C847079950460A46C4
:205E1000B84705980021324607F0D7FA5FFA88F45046002C0CBF01225FFA88F200216B5C35
:205E3000445CA34218BF052004D1491C521EC9B2F5D100200BB0BDE8F08FC0468C4F0020E6
:205E5000B9DB0010C9DE0010D81F0020F9E0001058410100C9E60010884F00202DE9F04140
:205E70000446804DA178A869ADF1180D891F00F0F280C91E00F0DD80491E5FD0491E48D0BB
:205E9000C91E3CD0481E40F0E980287A697AB8B96878002831D0A0880DF00AF8071C00F0C7
:205EB000DD80A07A40080FD3787968B1E168890A0AD2B91D01AA05F0A5F90A2804D1032130
:205ED000A0880CF0F1FFC9E0287B022802D1A07A0009F4D3A088797904F1080201F074FAF3
:205EF000A869002800F0BA804368002B00F0B68000210A46A0889847B0E00521E0E7002816
:205F100000F0AC804368002B00F0A88062780221F0E70CF095FA002800F0A080A86950B1BE
:205F3000076847B1206900906189227B637BE01C3C46A04792E060890121C2E767784FF0C3
:205F50000008002F66D1A179490863D3EF69002F60D101A841460E220CF0F8FCA0880CF0F6
:205F7000A7FF071C7AD0606940B97879B91D06228DF80A0001A80CF01FF819E06669307C8E
:205F9000062206F111018DF80A0001A80CF014F807F10C00B91D06220CF00EF8B81D06227F
:205FB00006F111010CF008F8307C40F002007871A079C00839BF387900F0FD00387940F0AD
:205FD00002003871A079000939BF387900F0DF00387940F020003871A1799DF81120C1F32E
:205FF000800010438DF81100080905D39DF8110040F008008DF8110001A8214600F028FAA9
:2060100028B92878022104F0B9FD404627E0A8694FF0150810B3436803B3A08862780121E0
:206030009847B8F1000F19D0A86943680321424660E7E078211D002205F0E4F80A280DDA7F
:20605000410001EB800004F10C0225300421C0B203F0EAFA02E0A08808F036FF012006B0AF
:20607000BDE8F0810C1100202DE9FE4F0E468246307AC10693461F464FF000090CD55846C8
:206090000CF00EFF030000F0E8800A223146504698475FEA00094DD130780C9D0D9CDDF835
:2060B000388002281AD170680178407801EB002189B24FF42052891A012910D9891E3AD096
:2060D000491E14D0FD397AD0491E00F08180491E6DD0491E73D0491E00F09580ABE0002C1C
:2060F0002AD1F068017829800278416887E0002C22D101202880F1680A783A70002170890A
:20611000401C80B20CF0C8FE298860B10278921C51182980418979704289120ABA704168B6
:206130000278F81C6CE0091D298004220021781C0CF00CFC93E0002C66D1F06806880421E6
:2061500029803E70320A7A700DF1020130460CF0A3FE040021D0D4F80C80BDF802204FF635
:20617000FF766B4631460CF093FE40B9237862683C4802210CF088FE08B9ADF8006098F808
:20619000000002280BD1D8F804100222381D0BF013FF2888801C288001E0ADF80060BDF8F0
:2061B0000000B870BDF80010090AF97057E0002C2AD1F068016850460CF0B2F802E01CBB52
:2061D000F0680088022129803870000A787046E0F0680CF0BDFB80B2A042B8BF4FF007095D
:2061F0003DDB844208BF002205D008EB04028242B4BF4246021B2A8092B2F0680119384640
:206210000BF0DAFE2BE014B14FF00B0927E0F0680721298002783A7043787B704188B9708C
:206230004288120AFA7001793971C2887A71C088000AB87113E058460CF022FE5FEA00092B
:206250000BD00F980290CDF8048000942B463A4631465046C847814601E04FF00E094846A4
:20627000BDE8FE8FE44101002DE9F04F0746880FADF1140DC0F0D4806B4E301D00684168A3
:206290008D68CC68486800B18047B046674E002D08BF002C0BD030680028FCD000203060BB
:2062B00005B1A84704B1A04761480AF0A1FE0024A6F11C015F4ACC615F480A6040F60A0C40
:2062D000A0F800C04480017B64F303010173A646C0F804E0417B4FF0010A6AF303014173A4
:2062F000BA687B7C54801188B146A1F60201C9B141F21E05491B15D041F6E675491B01293E
:2063100020D8517E012B64F38201517606D0118B21F47C7141F43471118313E0118B64F311
:206330000911F9E7517C012B64F38201517405D0118A21F47C7141F4347102E0118A64F39B
:2063500009111182D7F808B07C7461465D4600E035466E6816B132889142F9D168606A7BC3
:2063700064F303026A73D8F86C603EB1F2681288CB1F93421BD0891F914218D03E8CC6B107
:20639000C7F824E007F120014C8097F82C2064F3030287F82C2097F82D206AF3030287F886
:2063B0002D204160417B64F30301417301E0C8F808402248036882680192C168406B009372
:2063D000102220F0784040F0805003901C480291694605F03FFCD9F800000028FBD0194825
:2063F000C8F8140098F81D00C9F8004078B916480068006801465046884701280DD0687B17
:206410006AF303006873114FC8F8147005E009F091FB0028FBD00CF073FA58460BF0C8FF67
:2064300005B0BDE8F08FC046D82200201C1004400100070601010E04EC2C00204C130050DA
:2064500018000021E9440000E001001031E900002DE9F04F754CDFF8D0A1E569884681467A
:20647000ADF1140D002D52D1B9F1000F00F09A80B8F1000F00F096800AF086FA06460A2E7E
:20649000267426DAD8F81470002F41D0700010216A4600EB86002330C0B20BF03CFBB0B99C
:2064B0001020ADF1010111F8012FFF2A02D1401EF9D10CE05046007838B999F8060049468E
:2064D00000F001000CF0D8FC01E00120A074E5691DE004F1E60B0A2700265846FF21062267
:2064F0000BF084FC88B97F1E0BF10E0B06F10106F3D1607C002804BF0A20207452D094F829
:206510003660304602F0E2F8E569267400E0267C0A2E47DA002D35D170000E214A4600EB83
:2065300086002030C0B203F07FF8207C08F02CFE6846FF2110220CF009FA207C10216A465F
:206550007030C0B203F070F8217C0E220801A0EB410000194946E6300BF02EFDD8F8142034
:206570006AB15046007840B9107C02F11101002300F001000CF07CFC01E00120A074C4F8FE
:206590001C804CE0AA68002A3ED12A69002A2FD16A690ABBEA683AB9A07B08B10AF00EFA68
:2065B00009F040F901203BE07000102100EB86002430C0B203F038F8E769217CFA684800CB
:2065D00000EB8100103225300421C0B203F02CF8E1690020C86022E07000102100EB860054
:2065F0002330C0B203F020F8E1690020486116E070001C2100EB86002230C0B203F014F8D1
:20661000E169002008610AE070001C2100EB86002130C0B203F008F8E16900208860002067
:2066300005B0BDE8F08FC0465A4F00200C1100202DE9FE4F714C606A40680146684688470F
:2066500020792279BDF80010401C04EB4202C0B208281186B9BF20714FF0000A4FF0000ACE
:2066700084F804A0A06A4068014604F1080088476179208904EB4101A1F840006079401C63
:20669000C0B20828B4BF607184F805A0FF23082720461D462E3030F8022F018A7F1E1A448C
:2066B000294493B28DB2F6D141F27071D810ED109942D8BF94F8018002DD01276770B846BE
:2066D00040F6C411814202DA01276770B846A1F19602824206DB40F25233834203DDA382B3
:2066F000184601E01046A08240F2EE23AB4202DD02276770B846A94202DA02276770B84601
:20671000AA4205DB6433AB4203DDE3821D4601E01546E582A0F252300F2190FBF1F086B2E6
:206730002682678AB4F80AB0B4F80C90012F12D158460BF055F90190029148460AF0E7FB7A
:206750002CA20CCA02F076FE02460B460198029906F0F1FA1DD90FB9062E15DA58460AF0F8
:20677000D6FB01908B4648460AF0D1FB21A20CCA02F060FE024601980B46594606F098FA40
:2067900012D2062E0ADB0FE001276782A4F80CB00AE0B9F1000F05D1062E03DAA4F812A0BC
