:20000000004000200D04010001C9011001C9011001C9011001C9011001C9011001C901104C
:1C00200001C9011001C9011001C9011001C9011001C9011001C901103FC9011089
:20003C002DE9F04FE14CE088ADF11C0D13F0F4FAE0A595E80C0009F0CFFBE0A797E80C001F
:20005C0008F0E7FB02F0B4FADEA20CCA09F0C4FBDEA20CCA06F097FE10F070F8208140F6DC
:20007C00B8306081E08813F0D7FA95E80C0009F0B3FBD8A696E80C0008F0CBFB02F098FAE5
:20009C00D6A20CCA09F0A8FBD6A20CCA06F07BFE10F054F8A081E08813F0BEFA95E80C0084
:2000BC0009F09AFB97E80C0008F0B3FB02F080FA96E80C0009F090FBCCA20CCA06F063FE50
:2000DC0010F03CF8A070E08813F0A6FA95E80C0009F082FB97E80C0008F09BFB02F068FA49
:2000FC00C4A20CCA09F078FB96E80C0006F04BFE10F024F86678C14D314605EB4102A18997
:20011C00A2F88610BE4A4FFA80F9B4F808A0B4F80AB094F9028084F803904800168011F012
:20013C00CBFFDA490DF018FBD9490CF0DBFA11F08BFFD8A20CCA09F04FFB0BF065FB0FF03B
:20015C00FDFF770005F1EC04EB19A3F8A80005F1CA0222F807B0A4F1880124F807A0A84C7B
:20017C00019102F12201029105F1640101F8068004F1BE00059001F11104039405F17508F5
:20019C0008F80690B3F8A80013F066F811F05CFFC2A20CCA8946824609F01EFB0FF0CEFFEE
:2001BC00C0A2ADF800000CCA4946504609F014FB8246A86B894611F047FF0B460246494600
:2001DC00504609F009FB0FF0B9FF6E1D7F1906F1810486370421022230703B4604944FF418
:2001FC00F0400FF063FF4FF4F040052102226B460FF05CFFB6486979AF8908F13308401CE2
:20021C000170102F40F00982286CDFF8C0B2029CDDF8149011270026401CC5F81001DA46BB
:20023C00286434F8021B39F8020B484312F03AFC9EA20CCA09F0D0FA10F084F91AF8011B48
:20025C007F1E00FB0166ECD1304613F005F899490CF048FA984E31460DF07EFA97490CF082
:20027C0041FA11F0F1FE0BF0CFFA10F06BF911270446414600201BF8012B31F8023B7F1EA4
:20029C0003FB0200F7D112F0E7FF31460DF064FA8B490CF027FA11F0D7FE0BF0B5FA10F04F
:2002BC0051F90746A86C0019A864696CC91969642B6DEA6C1B185218C5F814313846C5F806
:2002DC00182112F0C9FF7F490CF00CFA7E490DF043FA11F0B9FE0BF097FA0FF02FFFC2B24F
:2002FC002A72002085F82C210146019A1256461CF0B25218102811B2F7DBC81001EB107192
:20031C00081112F0CFFB0BF07FFA0FF017FF41B26429D9BF0026301C1920002685F82D11AF
:20033C00A8713146A5F82A613046029A32F811204B1CD9B280181029F7DB12F08DFFD74939
:20035C000DF00AFA11F080FE0BF05EFA10F0FAF8E863A5F8280111F08DF985F82F010AF07D
:20037C003BFBDFF86C9185F82E01A7B14FF47A70604312F071FF0446384612F06DFF014694
:20039C0020460CF0AFF912F08BF84FF6FF71814228BF80B201D24FF6FF70A5F824016C6DFF
:2003BC00D5F81871BC4246D002E0C0466822002028E0C046182D4454FB21094000000000D5
:2003DC0000806640000000000070B740000000000094E1400000000000003440000000004B
:2003FC0000E075400000000000C077400000000000002E400000000000003E40580F002062
:20041C00640F0020A96DD5F81401401A12F024FFA3490DF0A1F98246381B12F01DFF0146B3
:20043C0050460CF05FF912F03BF84FF6FF71814228BF80B201D24FF6FF70A5F826010FF0A6
:20045C003FFAC5F81C010CF0FDFDAF890146C5F82011381C3ED03246304603990956441C5F
:20047C00E0B2891887420AB2F7DC9FB392FBF7F012F018FB0BF0C8F90FF060FE41B27E2947
:20049C00B4BF301C2020E87125E0C046DB0F49400000704252B81E85EB512440CDCCCCCC3A
:2004BC00CCCC0C403BDF4F8D976EA23F2D431CEBE2361A3F00803B450000964300006145F9
:2004DC000060EA4600A08C450000B443CC2200200C110020314685F830110499088C0880CF
:2004FC00B8F82000059FA8F80000398C029C3980218C019B218093F91010039A197092F969
:20051C0010101170287995F82F1105F5887701243B46042289F80210401C89F80640B5F888
:20053C002811287195F82E01E9630521A87041F611000FF0BBFD4FF4F040022107F11D03DA
:20055C0022460FF0B3FD4FF4F0400621042207F108030FF0ABFD4FF4F040072104223B1DE5
:20057C000FF0A4FD05F592734FF4F0400B2102220FF09CFD05F593734FF4F04008210222A5
:20059C000FF094FD4FF4F0400921042207F10C030FF08CFD4FF4F0400A21042207F110038E
:2005BC000FF084FD4FF4F0400C2107F1200322460FF07CFDA879192804D0E879202808BF5E
:2005DC00EB1D00D0AB1D4FF4F040032122460FF06DFD07F1180341F60F00214602220FF014
:2005FC0065FD07F11E0341F60F00314622460FF05DFD07F11F0341F60F00042122460FF0FA
:20061C0055FDE878A97818B90529B8BFEC7001DB012802D10829C8BFEE7028794B282DDB0F
:20063C00D5F81021E989286B1E4EC5F8342105EBC107401CD5F81821C5F838011A4C3178FE
:20065C00C7F83C21E889D5F8142105EBC000C0F84021164FC5F8A4116B78286B2178401CE4
:20067C00C5F8A83100248742C5F8AC118CBF28632C630EF083FDAC642C716C640C48014666
:20069C00C0880F46401CC8807878401CC0B21128A8BF012007B04870BDE8F08F0000803D2E
:2006BC0000007A44141E00204D22002080D3D8FF682200202DE9F04F0446B4480D46164661
:2006DC00ADF5FE7D5B1E011DADF1600D9095F21E8F94D1F800C0929316F1140FCDF854C234
:2006FC004FF01801CDF850C292FBF1F19391BCBF002193910C466246A6EB04161946A6EBC7
:20071C00C406183E8D18A4EB0104969612D406466D1CE8465036002C44BFBEA003C803D49A
:20073C0056F8240012F0BEF96D1EA8E8030004F10104F0D19598002828D405460DF5A07BE0
:20075C0000266D1C929FB3A090E80003002F17D4DDF83CA206EBC7007F1C0DEB0004BAE811
:20077C00030094E80C0009F037F80B4602464946404606F008FB083C894680467F1EEED1CE
:20079C006D1EABE8000306F10806DBD19598919048E0B9F1000F42DD9199DDF848C2939AE7
:2007BC007A4F0DEBC1030CEB0100CB4603F5A473C4008A188C93083407EB820000F1500A00
:2007DC0061440DEBC1065AF8040F12F06BF9083686E803008FA003C8929F8D90002F8E9189
:2007FC0015D4DDF83C820DEB04057F1CB8E8030095E80C0008F0F0FF0B4602468E998D98CD
:20081C0006F0C1FA083D8E917F1E8D90EED18C9ABBF1010B03C204F108048C92D3D191989F
:20083C0048449190C5000DEB050404F5A07494E80003002828DD083C07460DF5F07BBDA213
:20085C000CCA4946404608F0C7FF0FF077FC12F029F9BAA20CCA8A46064608F0BDFF0B46EA
:20087C0002464946404606F089FA0FF067FC4BF8040B94E803005346324606F084FA083C8A
:20089C00894680467F1EDAD1969F494640463A460AF00AF9ABA20CCA8846814608F09CFF4D
:2008BC0009F010F9A9A20CCA08F096FF0B4602464146484606F062FA884681460FF03EFC9E
:2008DC008D9012F0EFF80B4602464146484606F055FA0FF2882A89468046002F14DC391C47
:2008FC000BD09CA20CCA49460CF077FC84BF00208E9071D802208E9020E091980DEB800044
:20091C00D0F8DC01C01516E091983C460DEB800303F5F0738D9F53F8040CC4F11802C4F1BF
:20093C00170440FA02F101FA02F2801A43F8040C7A188D92204100288E904DDD91980024B0
:20095C0000280EDD77A951F8047F24B93FB1C7F18077012402E06FF07F42D71B0F60401E1A
:20097C00F1D1969F8D98002F00F101008D901ADD7F1E0DD07F1E16D191980DEB800101F574
:20099C00F07151F8040C6FF39F500AE01859010091980DEB800101F5F07151F8040C6FF320
:2009BC00DF5041F8040C8E98022815D19AE803004B46424606F0E2F98946804664B19AE8D2
:2009DC000300969A0AF070F80B4602464946404606F0D4F9894680460EA20CCA49464046C5
:2009FC000CF0B8FB3FD0969F40467A420AF05CF88046919851A20CCA0DEB800440460CF0A2
:200A1C00ECFB894604F5F07484BF8B46464624D804E0C046000000000000000045A20CCA64
:200A3C00404608F0D9FE0FF089FB12F03BF843A20CCA8B46064608F0CFFE0B4602464946C8
:200A5C00404606F09BF90FF079FB1837083544F8040B91989697401C9190594630460FF039
:200A7C006DFB206039E0919895990026401E81420CDC919F95980DEB870101F5EE713F1A48
:200A9C0051F804097F1E40EA0606F9D176B995984FF001090DEB800000F5EE700168002945
:200ABC007FF477AE001F09F10109F7E79199969F0DEB8100083D183F00F5F070491E969724
:200ADC00001F919106E09199183F083D001F9697491E919101680029F5D09AE803003A46DC
:200AFC0009F0E2FF82469198894600281ED407460DEBC7040DEB870804F5A07408F5F0781D
:200B1C007F1C58F8040911F0CDFF4B46524608F063FE08A284E803000CCA4946504608F066
:200B3C005BFE083C894682467F1EEAD1919C002C50D417E0000000000000703E00000000EB
:200B5C0000007041000000000000C03F0000000000002040000000000000E03F000000004A
:200B7C000000F03FA5EBC40528A8E70005EB0008949E3DA090E8000C002ECDF830A221D4D5
:200B9C00DFF8EC90DDF844A2354600266D1C09F11009AAEB040AB24514DBF20002EB09007D
:200BBC0003C850ABD219D2180CCA08F015FE02468C980B46594606F0E6F8761C8B466D1E7F
:200BDC008C90E8D1DDF830A2641EA7F10807A8E8000CCDD5919F24A090E80C00002F10D48B
:200BFC000DEBC7047F1CA03494E80003194610464B46424606F0C7F8083C7F1E02460B462B
:200C1C00F2D18E9900290CBF191C83F00041DDF840C2104628AF8CE8030097E8030006F0FE
:200C3C00ADF8024691980B4600280DDD0DF1A80A0746BAE8000310464B46424606F0A3F87D
:200C5C007F1E02460B46F4D18E9909B183F0004390988D9F08307FB080E80C0018B007F0F8
:200C7C000700BDE8F08FC0460000000000000000185901002DE9F84FC04CA178FF2904BF48
:200C9C00002012F07FFEA07813F020F9044604F1680504F190062968086810B10021E183E7
:200CBC000CE0A87B002804BFA97E002906D13078002801BF207F0128608CE0832189E08B3B
:200CDC004118491C6181204600F06CF901281EBFAB480178012904D121890020491CE0839A
:200CFC0061814FF6FF77A87E01280DD1AA8B6189208900F05BF938B1218960894A1C93B2DB
:200D1C0098421BD0A88B0FE03078012816D172886189208900F04AF980B1218960894A1C2E
:200D3C0093B298420AD0708892B2904206D03818608180B200F03EF93F18E78304F5967967
:200D5C0099F8040020B120890021401CE183608104F12E07A87E012811D12189A88B4B1C07
:200D7C009BB298420BD1608100F024F98046B988288C01FB080820460CF0E8FF01E0B7F8C6
:200D9C000480B4F81EC022687E4ED2F80CE00CF1010000FB08F340F6C41000FB03F18E445E
:200DBC00C2F80CE03668DFF8E0E13678BEF80080764AB609032E11D1D67BF60748BF4FF031
:200DDC0000080BD408F101081FFA88F6012E12BF668AB9F8066006F2DC5600E0668A5E43D5
:200DFC004FF4C87AB6FBFAF6761C6661AEF80080A3614FF0180894F806A084F820C008FB3E
:200E1C000AFADFF88CC1DCF800E023680EF1080656F80AB0C3F810B094F806A008FB0AFA86
:200E3C00CDF800A0D3F80CB0D4F814A0ABEB0A0ADDF800B046F80BA094F806A008FB0AFAD9
:200E5C0056F80A609E600EF10C06A37908FB03F30EF10C0EF65C06F0F00646F002060EF8FF
:200E7C0003604FF0000ADCF800E0A6790EF1020308FB06F623F806A0464BA6791B68760169
:200E9C0003F1140AD4F814B05AF806A00AEB4B0A03F1140B4BF806A0AD7E022D0BD1A57902
:200EBC006D0103F1140697F800B056F805A000FB0BAA46F805A0BD88D27BA779D60736D53B
:200EDC0008FB07F70EF10802D659A6F5A86A0EF1080646F807A0A77908FB07F7D259276843
:200EFC00511A3961BA6003F11402A1794901575807F5F667575003F11401A2795201895842
:200F1C00C9F800106843244AA179156B03EB41162968401AA0F51670F0612049A07903EB25
:200F3C0040100B78012B14D10121C17214E003F114027F01D1592A464243A1F5E661A2F54B
:200F5C0016729142DED30821204600F037F8012011E0916A4A78C272A179DCF8000008FBC7
:200F7C0001F281182268516007200D49087020460CF06CFC0020BDE8F28F00BF684E0020F4
:200F9C00784F0020084F0020FC2E00205C4D0020804E0020844E002034630100734F00206A
:200FBC006F4F0020DFF800F035440110DFF800F069860010DFF800F091860010DFF800F06B
:200FDC00A9850010064808380068410802D210F0120F01D10020704700F01C007047C04611
:040FFC000C2800407D
:20100000B41200001810000049F20000FDB301106DC00110FDAE011099B50110000000008D
:08102000000000002D0000009B
:20102800B01200003C100000B1C00110A9BF011067C0011069B80110000000000000000035
:041048003000000074
:20104C00B012000060100000BDC00110CDB30110D9BD01106DB3011000000000000000005B
:04106C00310000004F
:20107000000000009823002004000000000000000000000020000000E8C90110300000006F
:2010900028100000A02300200400000000000000000000000C000000D8CA0110180000004A
:2010B0004C100000A823002004000000000000000000000024000000F0CA011018000000CE
:2010D00000000000B02300200400000000000000000000001000000018CA01102C000000DA
:2010F00000100000C0230020040000000000000000000000200000006CCA0110240000003E
:20111000FFFFFFFFC82300200400000000000000000000002800000090CA011024000000FD
:20113000FFFFFFFFD02300200400000000000000000000001400000008CB0110180000007C
:20115000FFFFFFFFD823002004000000000000000000000058000000B4C90110340000004A
:20117000FFFFFFFFE02300200400000000000000000000001000000020CB01101800000018
:20119000FFFFFFFFE82300200400000000000000000000001C000000B4CA01102400000045
:2011B000FFFFFFFFF02300200400000000000000000000003800000044CA0110280000006D
:2011D000FFFFFFFFF82300200400000000000000000000005400000078C901103C000000E2
:0811F00001000000286301006A
:0411F80001000000F2
:0411FC0000000E00E1
:0412000000000F00DB
:0412040032000000B4
:0412080001000000E1
:04120C00B4220020E8
:0412100000020000D8
:0412140000000000D6
:0412180001C90110F7
:04121C0000000000CE
:0412200000000000CA
:0412240008000000BE
:0412280000002200A0
:04122C00FC1F002083
:0412300000000000BA
:0412340000000000B6
:0412380008000000AA
:04123C000C22002060
:0412400000000000AA
:0412440000000000A6
:04124800080000009A
:04124C00000000009E
:04125000000000009A
:041254000000000096
:041258000000000092
:04125C00010000008D
:04126000C420002086
:041264000600000080
:041268000100000081
:04126C00B01E002090
:04127000000000007A
:041274000000000076
:041278000002000070
:04127C00000000006E
:02128000290043
:02128200010069
:02128400250043
:02128600300036
:02128800310033
:02128A002D0035
:02128C0001005F
:01128E00015E
:0812900003000000A062010050
:0812980000000000000000004E
:0412A0000000010049
:0412A4000000030043
:0412A80013C401105A
:0412AC00B73D010049
:0412B000B812000070
:0412B400B81200006C
:0412B8000000000032
:0412BC006C2300207F
:0412C000E73F010003
:0412C4002000000006
:0412C800EC610100D4
:0412CC005860010065
:0412D00029C101101F
:0412D4005946010076
:0412D8005B46010070
:0412DC00A1C7011095
:0412E000A3C701108F
:0412E4000000000006
:0412E800955D01000F
:0412EC00FC5D0100A4
:0412F000145E010087
:0412F400E45D0100B4
:0212F8000200F2
:0212FA000900E9
:0212FC000100EF
:0212FE000000EE
:0113000001EB
:04130400753F010030
:041308000D210100B2
:04130C00E1320100C9
:04131000F1240100C3
:04131400452101006E
:04131800A10101002E
:04131C0065CA00009E
:041320005F42010027
:04132400C9ED00000F
:0413280015C70110D4
:04132C0025C70110C0
:201330002DE9F04FD74C211D2046ADF19C0D0EF097FB04F120050021284613F0D7FCD24E0B
:2013500010201F220623A560314606F081F85020ADF820000025ADF81E504FF47A7A8DF8CF
:201370002F500221ADF824500DF11E02ADF826A04FF44870ADF8220040F2063003F094FA6E
:201390004FF44270132104F13D0203F08DFA40F20730112104F12C0203F086FA4FF444703E
:2013B00001210DF12F0203F07FFA40F21130022108AA03F079FA40F2123002210DF12202F9
:2013D00003F072FA40F21330022109AA03F06CFA4FF4457002210DF1260203F065FA04F172
:2013F00050002A461523A9490090102006F030F8314610200622A02306F02AF831461020C4
:201410000722A02306F024F8314610200122782306F01EF8314610200822A02306F018F8B3
:20143000314610200922A02306F012F80CAC01208DF8325029468DF8300003468DF8310004
:201450004FF480628DF83410914D00941F4610208DF83370294605F0FBFF0DF13100294663
:20147000009040F202423B46102005F0F1FF0DF13200294640F203423B460090102005F074
:20149000E7FF0DF13300294640F206423B460090102005F0DDFF0DA829464FF483623B465D
:2014B0000090102005F0D4FF7A4910204FF0FF3205F0CEFF1020784B00907849784A0193D5
:2014D000092305F0C5FF77494FF0FF32102005F0BFFF754D2878800013F07AF801467348AB
:2014F0002C464161002900F0A5804FF6FF700EF0DBFE2078800013F06BF801466B4800295E
:20151000816100F097804FF6FF700EF0CDFE2078800013F05DF8014664480029C16100F0B7
:2015300089804FF6FF700EF0BFFE2078800013F04FF801465D48002901627BD04FF6FF704A
:201550000EF0B2FE2078800013F042F801465748002941626ED04FF6FF700EF0A5FE20789B
:20157000800013F035F8014650480029816261D04FF6FF700EF098FE2078800013F028F80C
:2015900001464A480029016354D04FF6FF700EF08BFE2078800013F01BF80146434800294D
:2015B000816347D04FF6FF700EF07EFE2078800013F00EF801463D480029C1633AD04FF669
:2015D000FF700EF071FE2078800013F001F801463648416471B34FF6FF700EF065FE2078D0
:2015F000800012F0F5FF01463048C16411B34FF6FF700EF059FE2078800012F0E9FF01466B
:201610002A480165B1B14FF6FF700EF04DFE2078800012F0DDFF01462448416551B14FF6ED
:20163000FF700EF041FE2148214B35211022583011F05EFB2078800012F0CAFF1B4A014620
:2016500058328C480F920029C16056D04FF6FF700EF02AFE2078800012F0BAFF014685484A
:201670000029016149D04FF6FF700EF01DFE2078800012F0ADFF01467E48002941613CD03F
:2016900018E0C046D00800208523010085D30000D9520000E531010088620100012D0100E7
:2016B000DC18002015350100694F002008020020785A01004FF6FF700EF0F6FD2078800029
:2016D00012F086FF01466B488161B1B14FF6FF700EF0EAFD2078800012F07AFF0146654815
:2016F000C16151B14FF6FF700EF0DEFD6148624B15211022203011F0FBFA2078800012F00B
:2017100067FF5C4A014620325C4822920029C16047D04FF6FF700EF0C7FD2078800012F0CB
:2017300057FF01465548002901613AD04FF6FF700EF0BAFD2078800012F04AFF01464F4820
:20175000416171B34FF6FF700EF0AEFD2078800012F03EFF01464948816111B34FF6FF70CD
:201770000EF0A2FD2078800012F032FF01464348C161B1B14FF6FF700EF096FD20788000BE
:2017900012F026FF01463D48416251B14FF6FF700EF08AFD39483A4B19211022283011F09D
:2017B000A7FA38490846354E4F78007806F128011C91D7B93F49334A0C31516211F0A6F9F5
:2017D000304F024600203E463D462F4900903C4607F14800019006F15800029005F12000B9
:2017F0000390A378102005F033FE324A27491020183205F02DFE2F48007811F087F9244972
:201810000246102005F024FE2A48007811F07EF920490246102005F01BFE1F49102005F04B
:2018300017FE1E4C012020700AF0A2F81C49002007F0BEFD1B4900200FF0BEFF00200EF03F
:20185000CFFB02200E9020700FF0FAF9174D164A174805F10801116005F11401016005F177
:20187000200012F0E1FB01202F7885F828002FBB22E0C04600140020B0600100A00D0020E9
:20189000185C0100B0050020E7050100E13701005188011031810110C5AB00100B2400206C
:2018B0000000030309D5000084210020641E002024110020D008002011F0E4FD0320DD4F4F
:2018D000207007F11405284612F0FEF9DFF89893D9F8000007F134064FF4FA712B46324654
:2018F000BAFBF0F080B24143491EE048796013F0F9F9DFF87C8307F1080238607968C8F81F
:201910000C2013F0EBF9002124220823304613F0E1F9D84E002504202B4620707A68FD640C
:2019300006F1140BA7F844305846BA6412F0CCF9D9F8000006F1340751465B463A46BAFB7B
:20195000F0F080B24143491ECB48716013F0CAF9242208233060294606F10800C8F8100091
:20197000384613F0B7F92846F5647168A6F844003068B16413F0B2F93068716812F05AFE7E
:201990000520BE4E207006F1140B584612F09CF9D9F8000006F1340740F2DC51BAFBF0F034
:2019B0005B463A4680B24143491EB548716013F099F9B44930602422082306F10800086011
:2019D0002946384613F086F9B5642F46F5640620A6F84470AC4E207006F11407384612F00D
:2019F00073F9D9F80000AF4A4FF49671BAFBF0F03B4680B24143491EA448716013F072F9F9
:201A1000DFF88CB23060A74806F1080124220823CBF81010294613F05DF92846F564716866
:201A3000A6F844003068B16413F058F97168306812F000FE072020709B48964E12F044F985
:201A5000D9F80000984B06F134074FF49651BAFBF0F03A4680B24143491E8F48716013F089
:201A700041F9306029462422082306F10800CBF81400384613F02EF92846F5647168A6F8F0
:201A900044003068B16413F029F97168306812F0D1FD0820814E207006F11007384612F0CA
:201AB00013F9D9F80000814A6421BAFBF0F03B4680B24143491E7A48716013F013F9DC49EF
:201AD000306006F108000862784824220823294613F000F92846B5647168A6F8400030688B
:201AF000716413F0FBF83068716812F0A3FD0920D04E207006F11007384612F0E5F8D9F8E5
:201B1000000047F23052BAFBF0F080B202FB00F1C9483B4606F13007491E3A46716013F0CA
:201B3000E1F8C64930602422082306F1080008602946384613F0CEF80A2020707564B564E3
:201B50002846A6F840000FF01BF8B949BC4E06F10C004862301D12F077FC0B2020700120C0
:201B700030720FF00DF8B249B64E06F10C008862301D12F069FC012030720C2020700FF091
:201B9000FFFCB14E06F10800C8F8140006F1180011F0E6FF0D272B4627702A46C8F82030B7
:201BB0000121C8F81C20284671762F4686F82D200B4686F82E70A74C88F800004FF4E1312D
:201BD0003376A34A316303277262A04BA770A349B362012704F1100204F10C030B61A04942
:201BF000F76184208A6010F0C8FC08F128018422C8F804000AF086FA082010F0BEFCFF2321
:201C10000646C8F81860284630710A20737110F0B4FCD8F81410306008688047D8F81000C8
:201C30000068804704F11C009BF80060C8F808006EB901E05C1B00205E4630690421006830
:201C5000A17080477069006880473846307005208149A070284630F0100629D0420834BF9D
:201C70000E9A042225E0C046246301000D4601006C190020B41B002017DC00000C1C0020D0
:201C900011460100E8220020641C00201546010068220020BC1C0020194601006C1D00200B
:201CB0001D460100981C0020D01C00209C1D00203A460A70401C491C1128CCDBE24EC6F86E
:201CD000A47149F22F72C6F8582147F29450F063C6F88C51C6F89051C6F89451C6F89851D8
:201CF000C6F89C51C6F8A051C6F8A85146F6C031C6F8B05147F6F767C6F86C7140F2DC5340
:201D1000C6F8541146F67272C6F85C21A3F13D00C6F8340149F6C063C6F860314BF2D2357C
:201D3000C6F870512722C6F8382148F2DE17C6F8487147F25570C6F8640145F2E523C6F8F0
:201D50003C310E99109146F20245C6F84C51C6F8AC1147F29532C6F840214AF2CF73C6F80E
:201D7000683148F2B560C6F874014CF69F27C6F8807149F2FA45C6F8845145F69943C6F89F
:201D9000443148F61F52C6F8502102F1EF00C6F87C014BF64273C6F878314DF20E53C6F808
:201DB00088310DF0F1F94FF00F0986F82D91002086F82C010746A6F82A71356DC6F81451CA
:201DD000F36CC6F81831B28FA6F828210FF058FC86F82F0108F006FE4FF6FF71DFF87082EA
:201DF000D6F854A0D6F818B1114F86F82E01974DA6F82411DA4535D0B16DD6F81401401A37
:201E100011F030FA8F490BF0ADFC1190ABEB0A0011F028FA014611980AF06AFC10F046FB16
:201E30004FF6FF71814228BF80B21CD21AE0C046141E0020C01D002021460100B42E00205A
:201E5000842200209C220020881F00201BE90000258E0000A0210020CC2200200802002037
:201E7000A00D00200846A6F826010DF02FFDC6F81C010BF0EDF8C6F82001707886F8309188
:201E900010F08EFFCAA30020A6F8860093E8030009F0C0FC0EF058F9A6F8A80047F294510E
:201EB000A6F8EC1086F86490F37886F8759040F6B830B178A6F8CA0023B90529BCBF0122C1
:201ED000F27001DB012B03D10829C4BF0021F17042F6E9410126398306233E704FF0490AD0
:201EF00078834FF4F072A370082607F1300187F807A007F14000BA8340F25232761E21F8CA
:201F1000022B134620F8023BF6D104F118000121F862386AE9700068B9718047786A0068E8
:201F30008047B86A006880470920B349A07004F11406CE6012F0CEF9DFF8C4922070012858
:201F500073D1AE4ED8F80C0031880027109AADF810100DF1350340688DF8357004A9844687
:201F700000975046E047012888F8050020D17188D8F80C003A46ADF82A1040688DF8367057
:201F90000DF136038DF82B2011460646109A009150460DF12A01B04788F80500012088F870
:201FB00003003E4688F8046042F6E063A8F80630BE4EB846A8693188109FADF81010406865
:201FD00043463A4604A98446CDF800803C20E0477288A969ADF810204968687243463C2058
:201FF0003A468C4604A9CDF80080E047F288A969ADF810204968687243463C203A460E46C1
:20201000CDF8008004A9B04768720A208E21A8720746EF723E462E733B466B733A46AA732B
:202030002078AF740128E97414D038B9012100270E91484610973E4646700EE048464178EE
:202050000DE0C04600007A44580F00200C110020782100200E994846417081701099B54AC3
:20207000B54E927BE971002162700D27C1703346A770B21C0E92374603F10D0231461092F7
:2020900007F14802119206F14002129203F10B02DFF8D4A2DFF8D492DFF8D482DFF8D4B259
:2020B000139206F13402149201F12C02B84F159203F109021692F21D17924A1CB54918925D
:2020D0005A1D1992F21C1A920B4601F120021B921A1D1E461D92F21CBA4E1E928A1C1F929B
:2020F0005A1C20923146F21C219233468A1C23925A1C249207F11001A16000272F72321D4F
:2021100025923B460371A248406800214FF040424FF0FF3312F0DAFD071CF4D000200690A8
:202130000DF12E0106AA07A810F00EFA002871D1BDF81CC00126BCF1100F66D194489DF865
:202150002E100078884260D1069C20884FF6FF7181425AD02578913D2ED01F3D55D160780F
:20217000162818BF002305D1304610F029FF3346CBF80040864845699BB165B94FF6FD708F
:20219000BA49BB4A00900023102005F061F980494D69C3B22BB97E4845F00205002645614F
:2021B00033E021790834204612F08CFD2DE0C046000000000000000065780E3D02D0AD1E5D
:2021D00020D022E0A08842F2030181421DD1A1680D78D5B9491C04A80A684968026004AD89
:2021F00041602878B94904AA00F0FD002870102005F02EF909E0C046E0220020145901008E
:202210004C22002008200CF005FE069810B10EB112F0A0F9F80FFFF476AF5D48806812F092
:202230004DFD00287FF46FAF59488468204612F041FD844208BF002402D084680FF0B0FF3B
:20225000002CEAD0524920884969401E00F09E81C01E00F09781001F00F08581083800F0FB
:202270006381103840F095816068427806788778C17841F60F0506EB0226001D761B00F0A2
:202290001081B61E00F0B88045F6EF72B61A40F079810C2F00F27681DFE807F0A196897EEB
:2022B0006E5B5041362B20150AC0C046985B0100012940F0678100780E9908701E48CDF856
:2022D0000080006D95E0022940F05C810088109908801948CDF80080406D8AE0042940F081
:2022F00051810068119908601348CDF80080C06C7FE0042940F046810068129908600E4862
:20231000CDF80080406C74E0022940F03B810088139908800848CDF80080C06B69E004295F
:2023300040F030810068149908600348CDF80080806B5EE0B005002008020020042940F01A
:2023500021810068159908609648CDF80080006B4FE0022940F01681008816990880914806
:20237000CDF80080806A44E09DA60000F1980000D56B0000D42E0020022940F00381008865
:20239000179908808748CDF80080406A31E0C046D0080020A00D0020012940F0F380007816
:2023B000189908707F48CDF80080006A21E0012940F0E88001787B480170CDF800807949F7
:2023D000C06916E000140020022940F0DB800088199908807348CDF80080806909E0022925
:2023F00040F0D08000881A9908806E48CDF8008040690F9A352394E0002F46D07F1E39D086
:202410007F1E27D07F1E1AD07F1E0DD07F1E40F0B980042940F0B68000681B990860624850
:20243000CDF80090406A39E0022940F0AB8000881D9908805C48CDF80090C0692EE00129CE
:2024500040F0A08000781E9908705748CDF80090806923E0012940F0958000781F9908707E
:202470005148CDF80090406918E0C04691F00000593B0100012940F0858000782099087099
:202490004948CDF80090006908E001297AD1017845480170CDF800904349C0681C9A19230E
:2024B0003FE0002F32D07F1E26D07F1E1AD07F1E0ED07F1E66D1012964D10078219908704A
:2024D0003A48CDF800A0C06929E0C04695B40010012957D10078239908703448CDF800A095
:2024F00080691CE001294DD10078249908702F48CDF800A0406912E0022943D100882599F6
:2025100008802A48CDF800A0006908E0012939D1017826480170CDF800A02449C068229AB9
:2025300015230AF0BFF92DE088082BD3DBF8007047B37888397908373A4612F0B7FB074657
:20255000162F03D0042F01D010F03AFD18484669C7B936F00206466114D1164A16494FF6CB
:20257000FD7001230AE040F252300AA9443806F023FB0023BDF82820094808490090102057
:2025900004F066FF60680FF00BFE02E0A0780CF0B7FB20460FF004FE3FE6C046BD250100E5
:2025B00040E2010008020020A00D002000140020D0080020593B010091F000002DE9F04F5A
:2025D0000746C84821F000440E460FF2D82BADF15C0DA04213DDC448A04203DD38460DF0BF
:2025F000B3FD48B1002000909BE80C003146384605F01EFB0E46074631463846A1E2BB48C4
:20261000A04205DC38460B46024604F0BDFB98E2B748B146AFA50FF2C42AA04280F2C880D5
:20263000B448A04251DCB448A04200F36F81B34AC1F30A502315000502AEA3F21648251A94
:202650003C460227AD18294620460DF07DFD10F02FFA0B460246294620460CC604F094FBC2
:2026700092A20CCA07F0BEF804460D467F1EEAD106A880E830000325044694E803009BE8E4
:202690000C000AF06DFD1DD002A808A942462B46FEF716F8B9F1000F014606D408A890E874
:2026B00000030AAF97E80C001CE208A890E800030AAF97E80C00494289F0004983F0004353
:2026D00010460EE2083C6D1ED7E78D48A04238DA8C48A04200F01A81B9F1000F75A277A422
:2026F00016DC0CCA384604F054FB94E80C000D46064604F04EFB894680464B4642462946C0
:20271000304604F041FB94E80C0004F042FB15E00CCA384604F038FB94E80C000D460646B3
:2027300004F032FB894680464B4642462946304604F02AFB94E80C0004F026FB02460B4686
:20275000D8E17148A04200F0E180B9F1000F5DA25EA416DC0CCA384604F01BFB94E80C0032
:202770000D46064604F015FB894680464B4642462946304604F008FB94E80C0004F009FB9C
:202790008CE00CCA384604F0FFFA94E80C000D46064604F0F9FA894680464B464246294651
:2027B000304604F0F1FA94E80C0004F0EDFA5AE0D449C4F31300814200F0A880D248A04259
:2027D00036DAB9F1000FD4A2D5A417DC0CCA4946384604F0DEFA94E80C000D46064604F074
:2027F000D8FA80468946424630464B46294604F0CBFA94E80C0004F0CCFA16E00CCA49460E
:20281000384604F0C1FA94E80C000D46064604F0BBFA80468946424630464B46294604F024
:20283000B3FA94E80C0004F0AFFA02460B467BE1B9F1000F1ADC95E80C004946384604F088
:20285000A8FA9AE80C000C46054604F0A2FA80468946424628464B46214604F095FA9AE883
:202870000C0004F096FA02460B4664E195E80C004946384604F088FA9AE80C000C460546A3
:2028900004F082FA80468946424628464B46214604F07AFA9AE80C0004F076FA02460B4642
:2028B00034E1C0460000000000000000000000000000704100004054FB2119403163621A23
:2028D00061B4F03D0000307F7CD91240CA9493A7910EE93D00004054FB21F93F3163621AFB
:2028F00061B4D03DFC21E93F0000503E0000F07F7A6A0F403C461C40FB213941000060411C
:20291000BCFD1540FB2119407CD912408EA20CCA4946384606F066FF0FF2342898E80C0026
:2029300004F037FA98E80C0004F02EFA0D9181460C9088460DF008FC0E9095E80C0041463C
:20295000484606F04FFF0B4602463146384604F01BFA15909AE80C008B464146484606F0EF
:2029700041FF13901598139A14910B46594604F00BFA80460D984B4689460146184695E88F
:202990000C0006F02FFF0B4602463146384604F0FBF910910F900D990C989AE80C0006F073
:2029B00021FF0B46024610990F9804F0EDF924154800A4EB5050102840F387800D990C98B8
:2029D00065A20CCA06F00EFF8A46054610990F9853462A4604F0D8F98B4615900D990C980E
:2029F0005FA20CCA06F0FEFE0E460746159A10990F985B4604F0C8F953462A4604F0C4F94E
:202A10000B4602463146384604F0BEF9139014911598149B139A594604F0B6F98046894645
:202A300015981099119002460F98CDF848B05B4604F0AAF953462A4604F0A6F90B46024676
:202A50003146384604F0A0F9024611980B46594604F09AF94800A4EB5054322C35DB0D9CEA
:202A70000C9D41A20CCA2146284606F0BBFE82461598894659464B46524604F085F980461C
:202A90003BA2CDF854800CCA8B462846214606F0A9FE0C460546129911985B46424604F089
:202AB00073F94B46524604F06FF90B4602462146284604F069F90B461493024613925946CD
:202AD000404604F061F989468046159859464B46424604F059F9149B139A04F055F90B46E3
:202AF0000E99024611F0030104D0491E0ED0491E1AD020E0012000904946404605F098F81D
:202B10001FE0C046FB2109007CD902404946404605F0F2F915E0C04600004054FB210940FB
:202B30003163621A61B4E03D012000904946404605F07EF803E04946404605F0DDF981F0DE
:202B5000004117B0BDE8F08F83C8C96D305FE43F00000000000038430000601A61B4D03DEF
:202B70007370032E8A19A33B0000002E8A19A33BC14920259A837B392DE9F04FD34C04F178
:202B90001C012046ADF1340D0CF06AFF002604F1A80A4FF6FF7066700121608250460FF06E
:202BB00041F9D04802210FF03DF9CF4804210FF039F904F14808042010223146A070404646
:202BD0000AF011FE04F158091022484631460AF00AFE04F120073E6004F10A052E700720CA
:202BF0006072DFF810B3E67102222672594610200346CDF8008004F02BFC102003225946DA
:202C1000CDF80090034604F023FC0422102059460097134604F01CFC4FF0080A4FF0030966
:202C30004FF0010B05F12E00079005F17D00089005F12200099005F15E000A9028350B95D7
:202C500019E06078B4F84050B4F84230B4F84420B4F8461006280ED1ADF80A50ADF80C303A
:202C7000ADF80E209F48ADF8101011F0D3FC584602A90AF031FAE069B44A31464FF0FF3358
:202C900012F024F8071CF6D0059606A80DF11A0105AA0FF059FC002840F0BE81BDF8181044
:202CB0002078102940F0B4819DF81A10884240F0AF81059D29884FF6FF728A4200F09D8102
:202CD0002B78A23B00F080812E3B40F0A181A978B046002900F03C81891E00F00D81491E3F
:202CF000012940F2D780891E00F09B80491E72D0491E5FD0083900F05781891E40F05A8165
:202D100094F83E10A8880529ADF808004AD075488DF812B011F07EFC94F83E00012820D042
:202D300004281ED003280DD002280BD00598C188ADF80A100189ADF80C104189ADF80E10DF
:202D500081892BE0B4F84210B4F84000ADF80C10B4F84450ADF80A00B4F84610ADF80E50AF
:202D70001CE0B4F84000E9888842D8BF081CADF80A002989B4F842008842D8BF081CADF8EC
:202D90000C006989B4F844008842D8BF081CADF80E00A989B4F84600884200DC0846ADF840
:202DB000100001E08DF81260A749102002AA04F04FFBFFE04C4811F02DFC6B78002B40F036
:202DD000F980E888A0822889E08268892083454811F07AF9EEE0AA88B249102004F038FBDE
:202DF0000798414606220AF0FEFCA682E6822683A87920733B4811F00DFC3B4811F00AFC7D
:202E1000D8464FF6FF70237960823BB9A879082814BF042005206070E670CBE084F8019013
:202E3000C8E06B787BBB291D0A6807980260898881800623637068896082E889A082288AE2
:202E5000E082688A94F83E102083E8780129E07218BF02290BD1994910201F2204F0F8FA9E
:202E70004FF47A7180B241431E480EF0F7FF68890423009090490193EA7810202D1D2B46A2
:202E900004F0E6FA99E06878312840F08A80E67004202CE06B78002B40F08380A878218AD0
:202EB0006278032814D0E078257921B9012814BF2671E67005E0054303D081480EF0CEFFCC
:202ED0006278072AE4D1062011E0C046B0050020062A0BD0E578002D08BF84F801906CD08B
:202EF000022004E07C060020A00600200720607063E0C046A73701006B78002B51D1EB78A2
:202F1000617893B902291DD007291BD0062902D12079012816D1032914D0694811F0D4F810
:202F300080B9584611F008F90CE00FF0EFFD0246A07960490090089843460190102004F059
:202F500087FA68706D78002D2BD133E0070000806B7833BB5B485649009002221020034620
:202F700004F076FA58484A46514900901020034604F06EFAED1C296809980160A9888180E0
:202F9000207884F801B00FF0C1FD02465B460A9D6079484900901020019504F059FAC0B296
:202FB00058B184F801A008E0AA8840491020052304F04EFAB8F1010F2AD1656A45B3296898
:202FD00031B36078884723E06879132820D12889012808D1607B022805D13E4811F01AFB1C
:202FF0000FF0FCFA14E035491020052204F030FA81B238480EF032FF0AE06888C00B07D384
:20301000324804222A4900901346102004F020FA059808B111F09EFA2579E07879082ED3FF
:2030300055EA00032BD0204600787DB9E279217A8DF808200B9D8DF809102B680DF10A01AA
:203050000B60AA888A8003E0051601108DF80890627A8DF81020A17A8DF811100FF056FDE9
:203070001149024602AB102004F0F2F938B1656A84F801A01DB1296809B150468847B808CF
:2030900003D3134930460AF027F8F808FFF4F3AD607B401E3FF4D5AD401E7FF4ECAD0FF075
:2030B0009DFAE8E521FA000059440110C1170110E999000009450110C59C0000D13B01009B
:2030D00058060020F805002008060020D0050020EE050020A00600202DE9F04F0F46CD4C86
:2030F0000168E16241688068ADF11C0DE060C548A1608047C448E16A0160A168DFF810A35C
:203110004160E168DFF804938160CE49002FA346C1606FD03D68E8788DF80C0028798DF81B
:203130000D0003A811F0BEFDA86808B1C6490160E86808B1C5490160C54C28782070687839
:20315000BE686070A878B268A0703178A2607368E1702E696360EA6926627968E26208687E
:20317000E06068696062A8697B68A062286A9E68206395F8240084F834001EB9002010F003
:2031900007FC00E066617868C06818B9002010F0FFFB00E0A0617868006918B9002010F067
:2031B000F7FB00E0E0617868406818B9002010F0EFFB00E0206128692062F86881680E6856
:2031D00006B9D24ED0494FF001084E60C66881F8018036B9002010F0DBFB4D462E68F8685B
:2031F00001E04D462E6000685446FB68A0615868E06107E0002010F0CBFB4D462E684FF021
:2032100001085446361DC7493668621C04F114035020B04710B1286880688047DBF808002E
:203230008047C24E002781463B46BF487770694620610422337038460EF04CFD0098B0F54F
:20325000801F0CD020B90FF0C1FD06F049FA08E00CF00EFF10F072FE0420708001E00FF0BF
:20327000B5FD3846BA4EA0602B68B760986980477060AF4880F8008039464180142010F061
:203290006BFFFF211422A06211F0CCF9E01CFF21022211F0C7F9142010F05EFFA54F386078
:2032B00038680021142211F0BDF9002000F052F940460EF0ADFBA0480188FF2906D1022136
:2032D00001807822001D002111F0ACF9032011F0E5FC042011F0DEFC052011F0D7FC0620BC
:2032F00011F0D0FC07200BF039FD944E0820307006F1240011F0C2FC0BF01AFF06F1360ACA
:2033100005200A21524610F046FA38B10020C0F10901401C0AF8011B0A28F8DB3078102159
:2033300007F084FE2B68864909200DF10E025E68087001AB10200021B047A06AE1690A26B5
:203350000A309DF80E20761E00F8012BF9D1891EE161DBF80C104846884704F120002B6801
:20337000626A059040461E69DFF8D88104F120034146B04710B1286880688047B8460FF00C
:203390005BFE5FEA000903D008F082FD4FF0FF39002643E00298216910F8062CA0F10C0766
:2033B000032A03D1002939D0884737E0A16A9DF810C00A223046491E11F8013F9C4506D06B
:2033D000521E00F10100F7D14FF0FF0A01E05FFA80FA2868BAF1FF0F00F108001CD03879D8
:2033F0000EF0E4FDB979012904D0022904BF0299887001E0029908700299504610F0F2F81E
:203410000CE0C04641490010F84400202C2400202421002098170020006880472868C36925
:2034300004A902AA0DF10F0098470028B2D0D8F800007700C35B6BB9761CF6B20A2EF8DBBF
:203450002BE0C046084D0100A92C0100A13B0100C41F00200A2E20DADBF808008047D8F89B
:203470000010002231F807A0CA53DBF80C108847354850F82620267051463046904706468E
:20349000FF202070DBF808008047D8F800107A5A16437E52DBF80C1088470FF0CDFD07461A
:2034B000B9451AD007B9294FE069B84238BF071CDBF80800804781462868016A206A8847C2
:2034D000626A28681F49059B521C6262C6683846B047DBF80C1048468847A76829686069EE
:2034F0001431AFB9D8F800000A270026835B33B10969606988472968D8F8000014317F1ED9
:2035100006F10206F2D107E080230020E33D0100096988472968143109684FF0FF30884749
:203530002DE7C04651320100013C0100102400200C240020F42E0020181A00208C120020A9
:20355000062F0020F51F0100E05F01008EC2F528942E00202DE9F84FDFF8BC13DFF8BC23A9
:20357000DFF8BC5308700821002010600D23DFF8B40340F23732017043808280DFF8A80313
:203590000560AC7EDFF8A4030470FF2CE97E417008BFFF292A7F82706B7FC370AE7F06710C
:2035B000ED7F457115D1FF2A08BFFF2B11D1FF2E08BFFF2D0DD1DFF878130A7802704B78E0
:2035D00043708A788270CB78C3700A79027149794171DFF860130278DFF85C83DFF85C9314
:2035F000DFF85C730A70FF2543784B7082788A70C378CB7002790A714079487188F800505F
:2036100088F8015088F8025088F8035088F8045088F805500020CB490880D9F83440CA4967
:20363000607808702278C9493A70A0780870A2681079C74A411E1170E078C649C64A0870D1
:20365000E068106008B910F0A3F92069C34E306008B910F09DF93068DFF804A30168884776
:20367000326852F8041F50468847BE48BE49CAF82000CAF824106069BC49086008B910F0F2
:2036900087F9A069BA49086008B910F081F9E069B849086008B910F07BF9DFF8DCB2B74C9C
:2036B0009BF8040010F058FD0028206075D09BF80500B34E10F050FD002830606DD09BF8B3
:2036D0000600DFF8C0A210F047FD0028CAF8000063D09BF8070010F03FFDAB4900280860E0
:2036F0005BD039789BF80000891C484380B210F033FDA649002888604FD03878002862D091
:20371000BBF80210484380B210F026FDA04A0028506042D0387810F01FFD9E4900280860DD
:203730003BD03878400010F017FD9B490028086033D038781821484310F00EFD974A106023
:2037500058B33878400110F007FD9549086020B33878000110F000FD92490860E8B1387806
:20377000000110F0F9FC90490860B0B138783021484310F0F1FC8D4A106070B18C4839783B
:203790000078484310F0E8FC8A4A106028B1387810F0E2FC8849086018B9BDE8F14F06F0A2
:2037B00011BA4FF0000B09E010F09EFC0021418081600180022303710BF1010B39785FFA72
:2037D0008BF08842F0D32268694F0120107121680D732068457321688D732068C5732168D2
:2037F0000D7400212068457400202268D172A0222168487103212068C280017207202268D3
:2038100050720021206881722821206801224182C2760020216848770022206880F85E2043
:203830000121226811770120216881F85D0001223068027131680D733068457331688D7394
:203850003068C57331680D7400213068457400203268D172002231684871306882724FF4BC
:2038700020703168C88008818A7401213368D974DAF800201573DAF800104D73DAF8002028
:203890009573DAF80010CD73DAF8002015740022DAF800104D740121DAF80030DA7200231B
:2038B000DAF800201171DAF800104B71DAF80010C88008818B720520DAF800209374DAF846
:2038D00000103E4AC874106880473968054608688047396851F8042F00209047D9F80C10A1
:2038F0001C4B0A881878364902430A802846354A136898470C21344811F0BCF9404611F0B4
:20391000B5F911F0AFF9BDE8F44F034800784FF4005107F08BBB00BF6E4F0020044F0020B5
:20393000B63F0050604E0020084F00202C4E0020E81200503C4E0020344E00203463010025
:203950007B4F00200C4F00206D4F00206B4F0020724F00206C4F0020F04E0020F44E0020C0
:203970007C4B00206941010089410100F84E0020FC4E0020D82E002060230020104F0020C2
:20399000144F0020184F00201C4F0020A02E0020684E0020004F0020DC2E0020804E002037
:2039B000844E0020884E00208C4E0020904E00204C240020E02E0020E42E0020A017002050
:2039D000544F0020A4170020F84D00202DE9F84F0C46E00788B00BD510F096FB28B100219B
:2039F0008160B348006800B1804784F001005CE1A0070FD500210023069105910491039322
:203A100002910191009101223C2011F027F984F002004AE11D256007A64EA74F40F18A80D1
:203A3000002107918B46A5488178FF2904BF00200FF0AEFF386890F8A00010F04DFA80467A
:203A50003868C07A98F82691022818BF032808F5907A06D106F10D0011F0FCF808B906F17A
:203A7000070B5146484611F0F1F888B33868807A002818BF012804D13146504611F0E2F85B
:203A900004E052464946304611F0D8F8FF2834D005FB00F906EB090506225146E81D10F0DD
:203AB000D7F816F80900396840F00209E81D07900622887E00F0010088F8260105F1010AD1
:203AD000386800F1140108F5907010F0C1F814E05146484611F0AEF878B1524649463046F4
:203AF00011F0ACF8FF2808D006F10D014543481911F0B0F808B949F0020908F12C004B46C0
:203B1000017806914289120905920122B8F822100491C0880799029140080390CDF804B09F
:203B3000CDF800A0002098F8061011F097F884F00400BAE020060FD500210023069105912D
:203B50000491039302910191009101223B2011F085F884F08000A8E0E0044BD5F11D06F1F3
:203B70000D0011F063F83868017A012918BF042931D1C17A02291EBF0329817E01292AD1EE
:203B9000817E00F11402304611F058F8FF2811D04543354405F10D0011F05CF850B9E91DD8
:203BB00005F10D0011F042F838680622E91D143010F04EF83868C07A022818BF03280AD17E
:203BD00006F10D0011F046F828B938680622F11D0C3010F03DF83A4842683A4800784FF401
:203BF00080510CF093FC10B18E2009F0C3FC84F480505AE0A00505D510F030FB324901206A
:203C10000860FEE7600504D506F017FE84F480604BE0600405D5812009F0ACFC84F48040C3
:203C300043E0A10440D5294D286810B100200FF0AFFE274E4FF0FF30286010F0F3FF31680E
:203C5000244D51F8202F684690472349234B486A8A6A009001920293C86A0268086A0392EB
:203C7000ADF810000A6B1178002904BF5068002805D19068002804BFD068002806D029702D
:203C9000506868609168A960D068E86029463568134A2E6813486B46B0471349086003F059
:203CB0003BFE84F4005000E0002009B0BDE8F08F204F0020AC450020104F0020684E002021
:203CD000784E00206E4F0020FC002043044F0020F04E002068450020C41F002009410100C6
:203CF0002C4D0020A82D0020EC4E0020BB482DE9F84F0025BA4CB849056094F8E200002845
:203D100000F06581012800F02F81B64E02283CD0032840F05C8151F8250CD4F8B81000294B
:203D3000A0F5C060C4F8D400B8BF49420028B8BF4042814226DA4FF08057D7F8A401456811
:203D5000B4F8BC0030214FF47F42082300903046A847D7F8A4014568B4F8C00004214FF481
:203D7000F802122300903046A847D7F8A401B4F8D070456820214FF440620A2330460097A2
:203D9000A847012584F8D8501CE151F8258C10F065FA2F4600B901273946934F3868002885
:203DB000FCD0B146012609F10409D9F82CA03E6009B110F059FACAF30720C4F8BC0010F05E
:203DD0004DFAAA4600B9B2463B68002BFCD0D9F800B0BAF1000F3E6001D010F045FACBF3AA
:203DF0008440C4F8C00010F039FAAA4600B9B2463B68002BFCD0D9F81C90BAF1000F3E6030
:203E100001D010F031FAC9F38120C4F8D000B8F5C061C4F8B81000F09C8094F8D80068B9CA
:203E3000C4F8D410D4F8C000C4F8C800D4F8BC70C4F8C470D4F8D030C4F8CC30D4F8D400B6
:203E5000D4F8BC30002854BF02226FF0010204F1C8010F6800EB40008018421000EB9272A0
:203E700007EBA2000860D4F8C810C4F8C43000291CDD1E293CDDD4F8CC0030B93429B4BF0F
:203E900015391E21C4F8C81025E02A29BABFD4F8C8000B381E20C4F8C800D4F8C4003F2890
:203EB000B4BF401C3F20C4F8C4001FE0D4F8CC00032812D011F10B0FC6BFD4F8C8000B3030
:203ED000301CC4F8C800D4F8C4000028C4BF401E051CC4F8C450032508E011F1150FC6BFBD
:203EF000D4F8C8001530301CC4F8C800C4F8CC504FF08057D7F8A401B4F8C43030214FF473
:203F10007F424568374800930823A847D7F8A40104214FF400321123456832480096A84709
:203F3000B4F8C860D7F8A40104214FF4F802122345682C480096A847D7F8A40120214FF4F4
:203F500040620A23B4F8CC60456826480096A84701E084F8D85040F2FF50404502D8801C09
:203F700040452FD2082030E051F8251C1F4F4BF2F5204843060A3868C0F3814001280CD174
:203F90001B480068006880470DF08EFC10F072F93111C010484306EBE03694F8E50030B927
:203FB0001448006820F07F403618760801E084F8E5501148310C0660012741600F4D8760F8
:203FD000287808B90B2000E0052084F8E40003F013FBBDE8F88FC0462D400C402C500C402C
:203FF0008416002000A00C4000800C40B43F0050EC010010102009403C600C40A561010097
:204010002DE9F84FB34D696884B0019121B905B0BDE8F04F10F002BE0978DFF8BC82AF4ED6
:20403000DFF8BC92DFF8BCA201291CBF0229042946F2A81741F64C5B05D0402918BF802926
:2040500000F096803CE110F0B1F90028FAD00198007804F073FF0090446814B900200FF0F2
:2040700097FC9AF8010000285CD000F043F90FF033FF02900168009801914F680AF022F869
:20409000022825D000990A78012ADBD196490A68137A19F80310317018B910F0BBFD584437
:2040B000A0602069C17E01F0EF01C1762069C17E41F08001C1762069C17E01F0F00141F084
:2040D0000201C1762269B96888484118D1614BE001980178802911D10820854930700A78AF
:2040F000012A03D09AF80100022801DB38690CE0D8F828003A690178D1720DE07C4907205C
:2041100030700A783869012A02D10121C17203E0D8F828104A78C2720298817901988AF8E9
:204130000210C8E0009800288CD00199009A0078914205D101281CBF00200FF029FC15E007
:20415000012840F0BD80684801680A7A19F80200307010F05FFD3918A06810F057FD18B98F
:2041700010F058FD5844A0600120A8700098A2E09AF8010000287AD000F0BCF80FF0ACFE99
:2041900004462068029047689AF802000FF0A4FE039010F011F910F0070F3DD0A87804F0F3
:2041B000CDFE0190416801980091029909F08AFF022831D001990A78012A2AD14A490A6831
:2041D000137A19F80310317028B910F023FD83440098C0F808B000980069C17E01F0EF018C
:2041F000C17600980069C17E41F08001C17600980069C17E01F0F00141F00201C176009A28
:20421000B9683A4841181069C16101210198A97051E000200FF0BCFB0398A04225D0029810
:2042300033490278802A12D1082030700978012903D09AF80100022803DB38690121C17214
:2042500010E0D8F828003A690178D1720AE0072030700978386901290EBF0122D8F8281012
:204270004A78C272A0798AF80200029823E010F0A3F810F0070F29D0A87804F05FFE044699
:204290002078D4F80480012820D117490868027A19F80210317010F0BDFC3918D8F808001A
:2042B00010F0B4FC20B910F0B5FC5844C8F808000120A870204605B0BDE8F04F06F0D4BF8F
:2042D00005B0BDE8F04F00200FF062BB05B0BDE8F08F00BFA02E0020346301006F4F0020FD
:2042F000289A0110684E0020104F0020F0D8FFFF734F00202DE9FE4FB24C617811B90020BA
:204310000FF046FB10F086FC4FF00008074607F6C417C246AC4DDFF8B49228E050460FF0A4
:20433000DBFD06467079F0B12968B07901F80800394608F101005FFA80F8304610F062FCE6
:2043500030680178402902BF06F182000178012902BF41887289914205D1B169C08841180D
:2043700030460DF045FC0AF101005FFA80FA99F800008245D2DB6178884505D000200FF00B
:2043900007FB822010F03AFC6078012840F0F180002701E07F1CFFB299F80000874280F271
:2043B000E28038460FF098FD064670790028F1D02968B0790A7890421CBF00200FF0E8FA71
:2043D000B079FDE0286810F809000FF085FD00684268DAF808109068814204BF3E4609F1AD
:2043F000010900F0D480D6E0286890F800B001224FF4C0710FE0636803F5AD76835C01FB9A
:2044100003F901FB0BFE36F809C036F80E60B44538BF9B46521CFBB29A42ECDB4FF6FF70B5
:2044300010F0E8FB064658460FF056FD68490068D0F804A00868D94630F8192060684FF4CD
:20445000C07300F10E0103FB09F3C85AB2EBD00F52D2720840F6C4104243009200275D4AF4
:204470000190029217E058460FF036FD01680A78802A03D1DAF81030009A5A610978402986
:2044900008D1029980790A6802EB4011009800F5A060C8617F1C47452EDA2868C05D834595
:2044B000F8D001464FF4C073594363685A1803F5AD73D289595A53088B4202D2521A90452B
:2044D000E8DA0FF009FD01684A68019B9168DAF808207008A1F6C41103FB002010F096FBC8
:2044F0000028C0D03A48006830F81910491C20F81910286810F807B0296808780FF0ECFCCC
:204510000026006847684FF4C079464551DA2868805D0FF0E1FC0068296842688B5D606880
:2045300009FB03F3034403F18201087830B15889B1F802C0401C80B2604508DA887B0128C5
:204550000ED15889098A401C80B2884208DB6EB3B968906801F5C241A83110F057FB28B384
:20457000761CF6B2D1E700200FF012FA822010F045FB6178286810F039FB286800780FF088
:20459000ABFC00260068D0F804A04FF00109771CC145FFF617AFF6B2002E1CBFF8B200284A
:2045B0007FF422AF286890F800B037E7296811F806B007490A6800205B4622F81300584623
:2045D000BDE8FE8F684E0020004F00207B4F0020DC2E0020844E00202DE9FC47DFF8C4A2B8
:2045F0000F460546F80B80F00A81A74EDFF88C82B80F80F0BC80B80880F0B0803809C0F06F
:2046100031819C480178090980F0A380007830F07F0040F09E80684607F08AFC012803D149
:204630000098002800F0958093480078002840F0908001240025E8B20FF008FC48B1837A0D
:204650003BB1847290F9090004FA00F0C0B20DF0CDFB6D1C032DEED345464FF0030905F16B
:20467000AC0085F810900FF09FFF854A0021884610681160834952F8080C05F1340042F88F
:20469000088C42460FF0A0FF3068006B8047AA68A969801A000BC0F1FF328A422CBF0144DF
:2046B0004FF0FF31A961287F20B1E868A969B1EBC02F20D97548006810F0010018D0744849
:2046D0000068000A14D3734840F60901018041464180427B64F303024273027B61F3030209
:2046F000027341600FF0D0FC418811F4406FFBD02C774146A9616849086820F0020040F4E6
:2047100000700860654A42F8049C41F23006966014605023936014604FF4CA66966014609E
:20473000022042F80C4C44460C600DF0A1FD112006F03CFD287818B9686838300FF050FFCD
:20475000687F18B16C7705200DF092FD544868612C740AF04BF827F0080783E005F020FB2A
:2047700040467430006808B927F002077AE00FF023FF34468146606D00680146042088478B
:20479000C8B1287CB8B14046083006689EB12068EC68006B8047801BE860010BE960A142DF
:2047B00002D209194908E96040F6C41088422CBFB1F5FA7FE860484610F014FA0DF0FAFAA6
:2047D00090B1A8696FF4807100224FF0007304462846A04740466C300068002808BF47F000
:2047F000020701D00AF002F8686900214FF0806304460A462846A04727F0005732E00FF059
:20481000DBFE51460E684EB306F1280106C90A234FF0E0450B40154008BF002B1ED106F1A9
:20483000280191E8300006F1280393E8060006F12803AA43A14383E8060010F0D3F9B168AA
:2048500071B1002D08BF002C0AD03069B6F93C10B2682B4616462246B04701E010F0C2F9B6
:2048700027F4804727B15046394650300FF0C0FEBDE8FC87FE2E0020F125002058240020D6
:204890001410044051E500008C01001040210840000004406C2E0020000004600C41044031
:2048B0002DAD0000D82400202DE9FC41A0F2013714468846022F40F234819C4E9D499E4ADD
:2048D0003F1F0F2F04D9143F4CD0BF1E1CD011E0DFE817F0D000CA000E01FB00C200BA0038
:2048F0002701B000A800100010009E0090008100740066002D2880F21481B8F1020F40F039
:2049100010818949238808E1B8F1010F40F00981F078012800F005813246207811791071FB
:2049300089B9002800F0FD805078012800F0B680042800F0B380062800F0B080052800F0BF
:20495000AD80BDE8FC812078002840F0EA805078032800F0B080072800F0AD80052840F0E2
:20497000E080A8E0B8F1010F40F0DB802078012840F0D78006F1F0000FF0A6FB002840F0D4
:20499000D0803446002004F13E0108F0A5FB002840F0C78004F1CC000FF03CFEBDE8FC8196
:2049B000B8F1020F40F0BD8020880A28C0F2B980B0F5486F00F3B5800E4619E0B8F1020F70
:2049D00040F0AF802088B0F5FA7F80F2AA800E463080BDE8FC81B8F1020F40F0A28020882C
:2049F0000628C0F29E80B0F5486F00F39A801646B61CEDE7B8F1020F40F09380208806286B
:204A1000C0F28F80B0F5486F00F38B801646DFE7B8F1010F40F085802078062880F2818022
:204A3000464E0EE0B8F1010F7BD12078042878DA0A3606E0B8F1010F73D12078082870DA94
:204A500009363070BDE8FC81B8F1010F69D12078042866DA0836F4E7B8F1010F61D12078B2
:204A700004285EDCF61DECE7B8F1020F59D120881036ADE7B8F1010F53D13079012850D0A5
:204A900032462078D178D07069B9002849D05078012803D0042818BF052842D101200FF0E3
:204AB0004BFBBDE8FC81207800283AD15078022818BF052835D110780EF028F81C49024664
:204AD000102002F0C5FCBDE8FC8106F1870500211F22284608F087FE21464246284607F09D
:204AF00011FB44463078B4710EF010F8002311E006F1680500211F22284608F074FE214624
:204B10004246284607F0FEFA4446307874710DF0FDFF012300940A4901950246102002F085
:204B300097FCBDE8FC81C04685230100B005002099450110F4050020F0050020EE050020FC
:204B5000094501102DE9FC418E488F4A04788F488F4B90490D2C6FD8DFE814F012010E0072
:204B70000E000E000E000A010A018E000A01C900C900E700E700EE00106041F20447864842
:204B9000864DB0F802C08649BC451FBFB0F81AE0BE45B0F83280B8454FF4A0561ED181482D
:204BB0000068D0F800C09CF8040003280CF1080E0BD1DEF80E0000281CBFBEF81800002866
:204BD00003D01F80784911608AE0022C1CBF1E800D46156000208CF8040081E0BCF1000F83
:204BF000A3F800C041D0BCF1010743D0B7F1010C3BD040F2FE37BCEB07071ED0A7F1040CFF
:204C1000BCF1010F20D94FF47F77BCEB070C1DD04FF44067BCEB07070FD0BF1E012F0CD97E
:204C30003F1F0AD07B1E012B0ED940F2F937DB1B012B1AD91B1F09D09AE0022C01D1156007
:204C50004EE01E800D46FAE7584DF8E7584B1C68257A012D05D141F202434380438343862C
:204C7000F0E7468046834686ECE700200EF090FE832081E08F207FE04E498978FF290CD0C5
:204C9000106018204C4C41432068851C40F204466C5A1C80A41B012C484B71D94FF47F7638
:204CB000A41B0FD04FF44066A41B032C84BF641F012C0BD9A41E012C62D940F2FD36A41B4A
:204CD00008D103E0801C41F201444452136005F0ADFA05E000200EF05BFE85200FF08EFFC2
:204CF000BDE8FC4136480078012106F09FB940F204424888188090421CBF41F20842904280
:204D10003ED041F60402904211D12E4C2E482F4B00680025CDE9004502222D4C256855F81B
:204D3000086FB0472B4908802AE04888188000200EF02EFE85201FE04888188002280DD921
:204D500040F20442801A1BD040F6FC72801A05D0083815D04FF47F72801AE8D1887B801CE8
:204D7000C2B2B52AA8BF662088730020488007E000200EF00DFE8420BDE8F6410FF03EBF74
:204D9000BDE8F3816F4F0020204F002089450100504F0020CC4C0020204A0020B154011017
:204DB000615A0110F44B002059550110755B0110104F0020684E0020804E0020313901105A
:204DD0006E4F002002000080EC4E00201D230100F04E0020424F00202DE9F84F9A48954B9B
:204DF000974C0168974A954FDFF84C9258884FF00A0A4FF0000B04F11C069846B2FBF1F1DC
:204E1000009140082AD27878022827D1AC200AF0DFFCAE200AF0DCFC0EF024FBB8600EF027
:204E300021FB01465A467879F960B1F5FA7F38BF0122864902250B460A545A4613F8011B70
:204E50006D1E1144CAB2F9D1401C3A70C0B20228D4BF787187F805B00EF0C6F8D8F804003A
:204E700099F800104EF6602200F59670C8F80400B0FBF2F2914209D2491C89F8001041F692
:204E9000110002224B4604210BF016F92078A17C884206D03C2814BF8E212021E174A07428
:204EB00000E0E17CE579A27A207D954208BF884219D055B1012D06D070695946024607204C
:204ED0009047E17C07E0706906E0706959460246072090475946B069024607209047E279D1
:204EF000E17C207DA272E578627B954208BF88420DD025B1012D14BF7068B06800E0F06816
:204F1000024607209047E278E17C207D62732579227B954208BF88420AD0002D0CBFB06B82
:204F3000706B0246072090472279E17C207D22736279E37A9A4208BF88420DD0022A03D095
:204F5000062A1CBF072A594630690246072090476279E17C207DE272A578E27B954208BF46
:204F700088421FD0B5B1012D11D0022D0CD0032D07D0042D03D0052D13D1706F02E0B06FE7
:204F900000E0F06F024607E0D6F8802004E0D6F8842001E0D6F8882007209047A578E17C00
:204FB000207DE5736578A27B954208BF884217D095FBFAF006EB8000D0F88C200720904746
:204FD000E17C95FBFAF000FB0AF02D1A06EB8500D0F8B420072090476278207DE17CA273B5
:204FF000A579227C954208BF884209D005B95946F069024607209047A279E17C207D2274FD
:20501000257A627C954208BF884209D005B959467069024607209047E57C2575207A6074DD
:2050300000980FF0DBFDB8F80200401C80B2A8F80200E6E6E00B0020542400204C22002012
:205050000C110020E093040024630100522200202DE9F04F8246DAF80070DAF804600C4689
:205070005FEA0208ADF11C0D14BF00214FF0FF31DFF8409248460EF09CFF002818BF0B20A9
:2050900040F0158100258F488C4905708A48FC6052460FF099FA317B27200FF097FAB8F170
:2050B000010F07D0657002200DF088FB06200DF085FB01E0012060702078012840F2AA80F0
:2050D000801E012868D9801E012833D9801E012800F2DE800FF070FA83464FF0805000F598
:2050F000EE77D0F8DC01A378466A009321782846062908BF0120019001200290A068228A22
:20511000E1686368B047814658460FF06BFDB9F1000F40F0BF80B8F1000F02D00EF05CFD9F
:2051300002E050460DF040F9002800F0A3803868806A2AE00FF040FA83464FF0805000F5DC
:20515000EE77D0F8DC01012306680093A168A27860682478AC46042C08BF9C466346B0471E
:20517000814658460FF03EFDB9F1000F40F09280B8F1000F02D00EF02FFD02E050460DF05C
:2051900013F9002876D03868406880474C49C1F8B0510D6081467DE00FF00EFA83464FF087
:2051B000805000F5EE77D0F8DC01E38A86690093E0680190208B0290A0780390207D04902F
:2051D0000121059122782846022A08BF081CE1786268A368B047814658460FF003FDB9F1B5
:2051F000000F57D1B8F1000F02D00EF0F5FC02E050460DF0D9F800283CD03868006A8047A4
:205210005FEA000946D1E078A168E28A236908F02DF8BFE70FF0D0F983464FF0805000F564
:20523000EE76D0F8DC01E38AC7680093E0680190208B0290A0780390207D294604900120A4
:205250000590257805B9014608466268A368E178B847814658460FF0C5FCB9F1000F19D1C4
:20527000B8F1000F02D00EF0B7FC02E050460DF09BF808B914201AE03068406980475FEA9B
:20529000000907D1306802692169E078904781E74FF0FF39B8F1010F05D002200CF0E8FFEF
:2052B00006200CF0E5FF03480FF09AF9484607B0BDE8F08F081B0020401B0020B92E0100EC
:2052D00050450240042F00202DE97E411446DFF86482994A03460025A3F58063182B1AD8A7
:2052F000DFE813F01C0115010D010401FC00F000E800E2001900D600CE00C600BC00B000E9
:20531000190019008E007D0076005D00540044003B002E0024002D2880F29280022940F014
:205330008F8021880DF026F8054600E1012940F0FD80002C00F0FA80434603F11102B7E0CA
:20535000102940F0F380002C00F0F08040462146102250300EF07CFCE9E0012940F0E68037
:20537000002C00F0E3804246921DA1E0262940F0DD80002C00F0DA8042462620603214F828
:20539000011B401E02F8011BF9D1D0E0012940F0CD80002C00F0CA804246521D88E06029FE
:2053B00000D144B9012940F0C180002C00F0BE8042460D327CE0114660207A3114F8012B3D
:2053D000401E01F8012BF9D1424601205073AEE0012940F0AB8020780FF0FCFBA7E00129B2
:2053F00040F0A4802078022800F3A080114608702078022814BF281C01200FF0E7FB96E054
:20541000072940F09380611C684606220EF0EAFA207869462A4606F04DF904460A2C0FDA78
:205430000FF0D0FB38B9204603F094FA0DF018FE09F07EFE7BE0424601202C32105576E015
:20545000022574E0012971D142462178907B002891736CD12078012869D1E9E7012965D195
:205470002178072962DB102960DC42460B3244E001295BD121780A2958DA424609323CE085
:20549000012953D12178022950DA4246083234E000294BD10FF096FB10B90EF079FCC5E72D
:2054B000424601210F3228E001293FD142460A32217822E0012939D12178022936DA4246C0
:2054D000D21D1AE0102931D142461020403214F8011B401E02F8011BF9D128E0012925D1E0
:2054F0002178022922DA4246121D06E001291DD1217804291ADC4246D21C117017E0012953
:2055100014D12178022911DA4246921CF5E702290CD1208842461432108008E0012905D1DF
:2055300021780229DCBF4246521CE6DD18252846BDE87E818C120020981200202DE9F04323
:2055500085B011F8017B0446082F04F1FD0004F1FC0804F1760504F5A076844A844BDFF822
:20557000149213D0092F21D00F2F2FD0112F01BF287801286878102840F0D5800A7832769C
:2055900048787076012184F83D11EBE00025521C4E5D5F5D3E434E55575D3E4046556D1C2A
:2055B000082DF5DB204608F057FD74E00024571C0D5D1E5D35430D553A5D15400555641CB4
:2055D000082CF5DB022088F80000CBE098F80100820704D410F0110F57D01A2266E008782F
:2055F0004A7800EB02203080CA78887800EB022070804A79087900EB0220B080CA79887918
:2056100000EB0220F080087A30724A7A887A02EB00227281C87A0A7B00EB0220B0818A7B07
:20563000487B00EB0220F0810A7CC87B00EB022030828A7C487C00EB022070820A7DC87CFD
:2056500000EB0220B082487D897D00EB0120F082494801788A0658BF1A2212D504F5A670CF
:20567000049071890391307A029021890191F0880090B38872883188204608F08BFAE0B116
:205690001E2298F80100410710D40F2088F8150020460FF093FA002864D199F8000005B0A4
:2056B000BDE8F0434FF4804105F0C0BC204605B0BDE8F0430F210FF07DBA7088A882B188D9
:2056D000E9820221F0882883297400206882A18EA88AC91DE981618EB0EB510F02BFE88A94
:2056F000A18E884202BF288BE18EB0EB111F18D02878012804BF68780F2805D0687918B1E9
:205710000F21A972FE2127E0FC2120460FF04EFAF0880090B38872883188A0790FF042FAF4
:2057300020E0102118E0491E20460FF037FA032F18D1A878042818BF0D2813D16E78142EB4
:2057500018BF0E2E0ED12F7820460FF023FA012F06BFAE72FD213146204605B0BDE8F04381
:205770000FF024BA05B0BDE8F08300BFEC4D0020C42E00206E4F0020144E002010B50B789E
:2057900084074CBF43F0020303F0FD0304064CBF43F0800303F07F0304074CBF43F00803A4
:2057B00003F0F70384064CBF43F0200303F0DF0310F0AA0F0B7003D0107840F00C0003E07E
:2057D00018B9107800F0F300107010BD2DE9F8430D4600272878022814461E4667D16968D4
:2057F00008784978DDF8208000EB012080B25FEA08021CBFB0F5285F0B205BD14FF4285138
:20581000401A08D0401E21D0401E2FD0401E25D0401E31D04BE0DDF82490E8680EF004FFE3
:2058300080B2A0EB08024A45BCBFA0EB08001FFA80F909EB0800162806DAA6F800904A468A
:20585000E86800EB08010DE00D2732E0E8680088022131802070000A60702AE006203080CB
:205870000622E96820460EF0F3F922E001203080E9680A7822701CE0E868B0B10821318090
:205890000288227003881B0A63704188A1704288120AE270818821718288120A6271C1886A
:2058B000A171C088000AE07103E0308001E0378001273846BDE8F2832DE9F0470F468146CF
:2058D00038780024022890461D466DD17868089E01784078DFF8D8A001EB002189B24FF4B2
:2058F0002852891A06D0491E29D0491E4ED0491E39D059E0F8680EF097FE80B2B04204D329
:20591000A919162903DB0D244FE007244DE0FB682A46414698190EF09BF9AD19F868ADB2BE
:20593000C5F11602002140190EF07CFEDAF8000000281CBF0268002A37D0002123E08EBBBA
:20595000022DE0D198F8000098F80110FA6800EB01201080DAF8000000281CBF0268002ABF
:2059700023D001210FE0EEB9062DCCD1F868062241460EF06DF9DAF8000000281CBF0268EA
:20599000002A12D00321484690470EE056B9012DB9D198F80000002813BF0128F968087021
:2059B000802402E00B2400E001242046BDE8F087EC2E00202DE9FE4F05467B480024006864
:2059D0000094C00905D37948007810B920200CF039FD012D40F0E280DFF80092D9F8DC0038
:2059F000012840F0D8800220C9F8DC000EF07CF801200CF027FD5FEA000805D00120C9F86C
:205A1000DC000EF07DF8CBE00EF0EEFDA34602906748684DC0F800B0A86A016801208847E1
:205A3000012804D1584608F083FB012000906248624FC0F800B0386811200EF02DFC00B127
:205A5000012410200EF028FC08B144F002040F200EF022FC08B144F004040B200EF01CFC4B
:205A700020B12868564E016B308888470A200EF013FC20B12868534E016B30888847524858
:205A9000012606602868816944F0200088474F4806600EF0FBFB00F001010191400814D229
:205AB000286A81684A4888478246BAF1040FF7D0BAF1010F04D1286A426845480321904759
:205AD0004449086820F003000860584600F088F82B683868986B8047019801280CD0BAF1EA
:205AF000010F04D1286A42683948314690473949086840F0030008602F4806602868416902
:205B1000204688470B200EF0C7FB20B128682C4BC16A188888470A200EF0BEFB20B12868A1
:205B3000284BC16A18888847274806600322C9F8DC20264BC3F800B02868416B2046884744
:205B50000128F9D1386804200CF07CFC0446184806603868144800688009FBD3009801287E
:205B700002D1304608F0E4FA0EF07EFB08200CF069FC07460298C9F8DC600FF007F81648B6
:205B9000008808F079F80DF0BBFF57EA040018BF4FF0FF3804E06FF0040801E06FF0010823
:205BB0004046BDE8FE8FC046141009406C1700200C400940B8010010000222432C200940AD
:205BD000C45D0100C05D010028200860800104430040034024220840A06101008416002030
:205BF0002DE9F84FDFF804B20746ABF13500DFF8F0810068800880F0E280754800680068F6
:205C100080477E490831D1F8009000254FEA29715FEA995201F101010AD2C0F13E0210F166
:205C30000A0F4FEAE202D8BF08229142B8BF111C684BD3F87C21C2F30462162AA8BF203AAF
:205C50001B68C3F30443162BA8BF203B9A465218162A05DA12F10A0FB8BF6FF0090200E06B
:205C700015225D4B5D4E02F01F0141F4F8511980316811F0030F18BF0125C90828BF45F0CB
:205C900002050FB145F00405434693F90710411A052904DA9979A94208BF99886FD0DFF861
:205CB00044E10F28A0F10F0829DB08EB0011A1F1F0084FEA28210091072984BF07210091FF
:205CD000062988BF06215EF821600424774604EB81043C594FEA950CA41BEE0804F0FF01CF
:205CF00024BFC4F3072631446F08AE0824BFC4F3074631446E0828BF01EB146104E000210C
:205D10004FEA950C6F080091009C5EF824E05FEA5C060EF0FF0424BFCEF3072634447E0820
:205D300024BFCEF3074634446E0828BF04EB1E64009E89B2A8EB06267143803104EB1124FB
:205D5000AAEB02010029D8BF0121342209F0FF074A4391B24FF6FF727943B1FBF4F18A42C5
:205D700038BF111C802889B2998005DA10F1800FB8BF6FF07F0000E07F20D8719D711A48F7
:205D900000681F2918604FF0000008D340F2FF128A4206D24908401C8A42FBD301E01F2162
:205DB0009980134F0F39090940EAC10047EA0001CBF8FB1F0026CBF8FF6FBDE8F88F0D492B
:205DD0000D4F434608200F609B1D1870BDE8F88FEC0100103C1100506E620840242208408B
:205DF000CC2E00209C130050082009403500094000E7A48030100940FDFDA400AC3F00501E
:205E10002DE9F04F044675488A46016894461F46BAF1000FADF13C0D4DD0BCF1000F4AD00A
:205E30009AF8002001209040014244D0BCF80000B0F5C15F32D1DCF81430DCF81820684808
:205E5000DCF81C104FF0030E0DF128080B93DFF894B10C9200680D91C0F3036958F8046F74
:205E7000CEB10021351F05200B4655F8042FB2F1FF3F10D0934506D0401E01F1040103F170
:205E90000103F2D107E0052B05DA705820F4702040EA09407050BEF1010EDFD1C4F804A0C8
:205EB000C4F808C00EF088FB4F4D8046287820B140460EF097FE00208DE002F015FF4B49BA
:205ED000086840F00200086007A80EF0E5F8002605F1D00007AA464909960BF03FFD45498E
:205EF00005F5827007AA0BF039FD07A80EF08CF8FF2105F1340007AB3F4A089119210BF040
:205F1000FFFB3E4A05F150001A2107AB0BF0F8FB3B49324605F18800134609F001FD394982
:205F3000324605F1AC00134609F0FAFC364A05F12000042133460CF0F3FF0E2005F060FB4F
:205F500005F174000DF050FF05F16C000DF04CFF2E74072085F898012E77AE616E77052331
:205F7000AE602B49EB602A786961501C2870274B1E7040460EF036FEB1464FB92548B0E818
:205F90008C106946A1E88C100DC86F4681E80D0038682060398A6182012060747B6813B917
:205FB00040F6C4130646E3601B48A06126746061F86800B1A061B86800B1606158224946C9
:205FD00004F1200007F00FFC04F1380049460CF037FE20466C600FB0BDE8F08FD42108405B
:205FF000541300500200F8445824002000200940413B010061AC000051E50000B5E300003F
:2060100055340100C13801002DFE0000FE2E00202DAD000010610100BBB100002DE9F04374
:206030000446834DA178A869ADF1140D891F00F0F780C91E00F0E280491E5FD0491E48D0F0
:20605000C91E3CD0481E40F0EE80287A697AB8B96878002831D0A0880EF094FD071C00F070
:20607000E280A07A40080FD3787968B1E168890A0AD2B91D01AA05F01DFB0A2804D10321EF
:20609000A0880EF07BFDCEE0287B022802D1A07A0009F4D3A088797904F1080201F074FBA1
:2060B000A869002800F0BF804368002B00F0BB8000210A46A0889847B5E00521E0E7002845
:2060D00000F0B1804368002B00F0AD8062780221F0E70EF021F8002800F0A580A86950B162
:2060F000076847B1206900906189227B637BE01C3C46A04797E060890121C2E767784FF0FD
:206110000008002F6BD1A179490868D3EF69002F65D101A841460E220EF084FAA0880EF097
:2061300031FD071C7FD0606940B97879B91D06228DF80A0001A80DF08BFD1EE06669307CC8
:20615000062301A906F111098DF80A0006F1110010F8012B5B1E01F8012BF9D107F10C0014
:20617000B91D06220DF074FDB81D494606220DF06FFD307C40F002007871A079C00839BF0E
:20619000387900F0FD00387940F002003871A079000939BF387900F0DF00387940F020002A
:2061B0003871A1799DF81120C1F3800010438DF81100080905D39DF8110040F008008DF8DD
:2061D000110001A8214600F027FB28B92878022104F02CFF404627E0A8694FF0150810B3FC
:2061F000436803B3A088627801219847B8F1000F19D0A8694368032142465BE7E078211D4A
:20621000002205F057FA0A280DDA410001EB800004F10C0225300421C0B203F0DDFB02E0A4
:20623000A08809F0F5FB012005B0BDE8F083C0468C1200202DE9F04F05468048066800684D
:206250000F461C469246C4F399018900ADF12C0D0A010021803207F0C6FADFF8C891A9F18F
:20627000880002466E48016830469047A3088046610801979F1C21F00101F819009506EBFB
:2062900080000390091DCDF808A07818434506EB800206EB870B3844049206EB8000069021
:2062B000C4F39C004FEA800000F1080007EB400000EB070206EB82020A9224F0030202F186
:2062D000080200EB020506EB85053A44059506EB82050A4407953A4406EB8202089206EB3F
:2062F00080020992084406EB800A384406EB800518BF6FF0010040F08F8009F16800024698
:2063100041463046904700233CB10199264611F8010B761E40EA0303F9D1002B08BF0120CD
:206330007AD000263CB10299234611F8010B5B1E40EA0606F9D1002E08BF02206CD0019971
:206350005846C84703980299C847009881680498C8473548049A594681462846C8470128E8
:2063700003D14FEA88042E590EB1032054E0BE0028460021324607F036FA0399049A284643
:20639000C847012801D12F590FB1042044E0274F274C069859463A46A047079803993A460B
:2063B000A0470699089827460A46B84709980899069AB8470A9806991E4C2246B84728468A
:2063D0000021282207F00FFA1B4809990A9A81462846C8472034284622460146C847079935
:2063F00050460A46B84705980021324607F0FBF95FFA88F45046002C0CBF01225FFA88F22F
:2064100000216B5C445CA34218BF052004D1491C521EC9B2F5D100200BB0BDE8F08FC04613
:206430008C4F0020B9DB0010C9DE001058210020F9E00010B85E0100C9E60010884F0020A7
:206450002DE9FE4F0E468246307AC10693461F464FF000090CD558460EF08CFB030000F0BF
:20647000E8800A223146504698475FEA00094DD130780C9D0D9CDDF8388002281AD17068A8
:206490000178407801EB002189B24FF42052891A012910D9891E3AD0491E14D0FD397AD08C
:2064B000491E00F08180491E6DD0491E73D0491E00F09580ABE0002C2AD1F068017829808E
:2064D0000278416887E0002C22D101202880F1680A783A7000217089401C80B20EF046FBCE
:2064F000298860B10278921C51182980418979704289120ABA7041680278F81C6CE0091D23
:20651000298004220021781C0EF08CF893E0002C66D1F0680688042129803E70320A7A7007
:206530000DF1020130460EF021FB040021D0D4F80C80BDF802204FF6FF766B4631460EF0B6
:2065500011FB40B9237862683C4802210EF006FB08B9ADF8006098F8000002280BD1D8F8EF
:2065700004100222381D0DF073FB2888801C288001E0ADF80060BDF80000B870BDF8001097
:20659000090AF97057E0002C2AD1F068016850460DF032FD02E01CBBF06800880221298029
:2065B0003870000A787046E0F0680EF03DF880B2A042B8BF4FF007093DDB844208BF0022DF
:2065D00005D008EB04028242B4BF4246021B2A8092B2F068011938460DF03AFB2BE014B121
:2065F0004FF00B0927E0F0680721298002783A7043787B704188B9704288120AFA70017982
:206610003971C2887A71C088000AB87113E058460EF0A0FA5FEA00090BD00F980290CDF8BC
:20663000048000942B463A4631465046C847814601E04FF00E094846BDE8FE8F445F0100C3
:206650002DE9F0430446880FADF1140DC0F0CD80674F381D006841688E68CD68486800B19C
:206670008047002E08BF002D08D00DF0DBFB06B1B04705B1A8475F480CF03EFC5E4A00207E
:206690005E4BD0615E49136040F60A070F8048800A7B60F303020A738646C1F804E04A7BD0
:2066B0004FF0010868F303024A73A368657C58801A888C46A2F60202CAB141F21E06921B12
:2066D00015D041F6E676921B012A20D8597E012D60F38201597606D0198B21F47C7141F407
:2066F0003471198313E0198B60F30911F9E7597C012D60F38201597405D0198A21F47C7145
:2067100041F4347102E0198A60F309111982D4F80890607439464D4600E03D466F6817B1B6
:206730003A889142F9D1C5F804C06A7B304E60F303026A73F76E3FB1FA681288CB1F9342C1
:206750001ED08F1F97421BD0278CDFB1C4F824E004F12001488094F82C2060F3030284F83C
:206770002C2094F82D2068F3030284F82D20CCF804109CF80D1060F303018CF80D1001E059
:20679000314688601F48036882680192C168406B0093102220F0784040F0805003901A48E5
