:20000000004000202504010001C9011001C9011001C9011001C9011001C9011001C9011034
:1C00200001C9011001C9011001C9011001C9011001C9011001C901103FC9011089
:20003C002DE9F04FE04CE088ADF1140D13F0DEFAD9A595E80C0009F0B3FBD9A797E80C0068
:20005C0008F061FC02F084FAE3A20CCA09F0A8FBE3A20CCA06F075FE10F05AF8208140F6DB
:20007C00B8306081E08813F0C1FA95E80C0009F097FBDDA696E80C0008F045FC02F068FAC7
:20009C00DBA20CCA09F08CFBDBA20CCA06F059FE10F03EF8A081E08813F0A8FA95E80C00E4
:2000BC0009F07EFB97E80C0008F02DFC02F050FA96E80C0009F074FBDFA20CCA06F041FE4C
:2000DC0010F026F8A070E08813F090FA95E80C0009F066FB97E80C0008F015FC02F038FA46
:2000FC00D7A20CCA09F05CFB96E80C0006F029FE10F00EF86778E24D394605EB4102A189AE
:20011C00A2F88610E14A4FFA80F9B4F808A0B4F80AB094F9028084F803904800178011F0EE
:20013C00B9FFC9490DF0E8FAC8490CF069FA11F079FFC7A20CCA09F033FB0BF049FB0FF06D
:20015C00E7FF7E00AB19A3F8A800D04805F1EC04A4F18801019105F1CA0222F806B0BE30EA
:20017C00049005F1640124F806A002F12204029401F1110A01F8078005F1750808F807906C
:20019C00B3F8A80013F042F811F04CFFB2A20CCA8946834609F004FB0FF0BAFF08F13308C1
:2001BC00ADF80000AEA2CDF80C800CCA4946584609F0F6FA8146A86B884611F033FF0B46C5
:2001DC0002464146484609F0EBFA0FF0A1FF76196F1D863604210222387033464FF4F04075
:2001FC000FF04EFF4FF4F040052102226B460FF047FFA548AC89697907F1810B401C01708F
:20021C00102C40F0E881286CDDF80880DDF810909C4C1127401CC5F810010026286438F85B
:20023C00021B39F8020B484312F02AFC8EA20CCA09F0B6FA10F092F914F8011B7F1E00FB9A
:20025C000166ECD1304612F0E1FF89490CF0D8F9884C21460DF050FA87490CF0D1F911F04E
:20027C00E1FE0BF0B5FA10F079F98649039A11270646002011F8013B32F802CB7F1E0CFB77
:20029C000300F7D112F0C2FF21460DF035FA7B490CF0B6F911F0C6FE0BF09AFA10F05EF907
:2002BC000746A86C8019A864696CC91969642B6DEA6C1B185218C5F814313846C5F8182197
:2002DC0012F0A4FFE4490CF09BF9E4490DF014FA11F0A8FE0BF07CFA0FF01AFFC2B22A7228
:2002FC00002085F82C210146019A1256441CE0B25218102811B2F7DBC81001EB1071081127
:20031C0012F0BEFB0BF064FA0FF002FF41B26429D9BF0024201C1920002485F82D11A87104
:20033C002146A5F82A412046029A32F811204B1CD9B280181029F7DB12F068FFC8490DF0C9
:20035C00DBF911F06FFE0BF043FA10F007F9E863A5F8280111F09AF985F82F010AF020FBA0
:20037C00DFF8248185F82E0107B34FF47A70704312F04CFF0646384612F048FF0146304682
:20039C000CF03EF912F07AF84FF6FF71814228BF80B20DD20AE0C046182D4454FB210940F8
:2003BC000000000000806640682200204FF6FF70A5F824010FF07AFCA5F826010FF01CFA8D
:2003DC00C5F81C010CF0CCFDAF890146C5F82011381C5DD014E0C046000000000070B74013
:2003FC00000000000094E14000000000000034400000000000E075400000000000C07740AC
:20041C00224620461AF90010401CC0B2891887420AB2F7DC002F3BD092FBF7F012F030FB2D
:20043C000BF0D6F90FF074FE41B27E29B4BF201C2020E8712DE0C0460000000000002E4002
:20045C000000000000003E40DB0F49400000704252B81E85EB512440CDCCCCCCCCCC0C407B
:20047C003BDF4F8D976EA23F2D431CEBE2361A3F00803B4500009643000061450060EA468D
:20049C00580F0020CC2200200C110020640F0020214685F83011BBF820000399ABF80000A4
:2004BC00088C049F0880398C029E3980318C019B318093F9101019709AF910008AF80000DF
:2004DC00287995F82F11042205F5887701263B4688F80210401C88F80660B5F82811287178
:2004FC0095F82E01E9630521A87041F611000FF0C7FD4FF4F040022107F11D0332460FF06A
:20051C00BFFD4FF4F0400621042207F108030FF0B7FD4FF4F040072104223B1D0FF0B0FDC8
:20053C0005F592734FF4F0400B2102220FF0A8FD05F593734FF4F040082102220FF0A0FDDD
:20055C004FF4F0400921042207F10C030FF098FD4FF4F0400A21042207F110030FF090FDC6
:20057C004FF4F0400C2107F1200332460FF088FDA879192804D0E879202808BFEB1D00D02A
:20059C00AB1D4FF4F040032132460FF079FD07F1180341F60F00314602220FF071FD07F19A
:2005BC001E0341F60F00214632460FF069FD07F11F0341F60F00042132460FF061FDE878BA
:2005DC00A97818B90529B8BFEE7001DB012802D10829C8BFEC7028794B282DDBD5F8102104
:2005FC00E989286B1F4EC5F8342105EBC107401CD5F81821C5F838011B4C3178C7F83C211F
:20061C00E889D5F8142105EBC000C0F84021174FC5F8A4116B78286B2178401CC5F8A831A9
:20063C0000248742C5F8AC118CBF28632C630EF041FDAC642C716C640D480146C0880F46E0
:20065C00401CC8807878401CC0B21128A8BF012005B04870BDE8F08F00A08C450000B44362
:20067C000000803D141E00204D22002080D3D8FF682200202DE9F04F0446B4480D461646A2
:20069C00ADF5FE7D5B1E011DADF1600D9095F21E8F94D1F800C0929316F1140FCDF854C274
:2006BC004FF01801CDF850C292FBF1F19391BCBF002193910C466246A6EB04161946A6EB07
:2006DC00C406183E8D18A4EB0104969612D406466D1CE8465036002C44BFBEA003C803D4DB
:2006FC0056F8240012F0CCF96D1EA8E8030004F10104F0D19598002828D405460DF5A07B13
:20071C0000266D1C929FB3A090E80003002F17D4DDF83CA206EBC7007F1C0DEB0004BAE851
:20073C00030094E80C0009F03BF80B4602464946404606F006FB083C894680467F1EEED10C
:20075C006D1EABE8000306F10806DBD19598919048E0B9F1000F42DD9199DDF848C2939A27
:20077C007A4F0DEBC1030CEB0100CB4603F5A473C4008A188C93083407EB820000F1500A40
:20079C0061440DEBC1065AF8040F12F079F9083686E803008FA003C8929F8D90002F8E91BB
:2007BC0015D4DDF83C820DEB04057F1CB8E8030095E80C0008F0F4FF0B4602468E998D9809
:2007DC0006F0BFFA083D8E917F1E8D90EED18C9ABBF1010B03C204F108048C92D3D19198E2
:2007FC0048449190C5000DEB050404F5A07494E80003002828DD083C07460DF5F07BBDA254
:20081C000CCA4946404608F0CBFF0FF081FC12F037F9BAA20CCA8A46064608F0C1FF0B460A
:20083C0002464946404606F087FA0FF071FC4BF8040B94E803005346324606F082FA083CC4
:20085C00894680467F1EDAD1969F494640463A460AF00EF9ABA20CCA8846814608F0A0FF85
:20087C0009F014F9A9A20CCA08F09AFF0B4602464146484606F060FA884681460FF048FCCE
:20089C008D9012F0FDF80B4602464146484606F053FA0FF2882A89468046002F14DC391C7B
:2008BC000BD09CA20CCA49460CF025FC84BF00208E9071D802208E9020E091980DEB8000D6
:2008DC00D0F8DC01C01516E091983C460DEB800303F5F0738D9F53F8040CC4F11802C4F100
:2008FC00170440FA02F101FA02F2801A43F8040C7A188D92204100288E904DDD91980024F1
:20091C0000280EDD77A951F8047F24B93FB1C7F18077012402E06FF07F42D71B0F60401E5A
:20093C00F1D1969F8D98002F00F101008D901ADD7F1E0DD07F1E16D191980DEB800101F5B4
:20095C00F07151F8040C6FF39F500AE0C058010091980DEB800101F5F07151F8040C6FF3B9
:20097C00DF5041F8040C8E98022815D19AE803004B46424606F0E0F98946804664B19AE814
:20099C000300969A0AF074F80B4602464946404606F0D2F9894680460EA20CCA4946404603
:2009BC000CF066FB3FD0969F40467A420AF060F88046919851A20CCA0DEB800440460CF030
:2009DC009AFB894604F5F07484BF8B46464624D804E0C046000000000000000045A20CCAF7
:2009FC00404608F0DDFE0FF093FB12F049F843A20CCA8B46064608F0D3FE0B4602464946E9
:200A1C00404606F099F90FF083FB1837083544F8040B91989697401C9190594630460FF071
:200A3C0077FB206039E0919895990026401E81420CDC919F95980DEB870101F5EE713F1A7E
:200A5C0051F804097F1E40EA0606F9D176B995984FF001090DEB800000F5EE700168002985
:200A7C007FF477AE001F09F10109F7E79199969F0DEB8100083D183F00F5F070491E969764
:200A9C00001F919106E09199183F083D001F9697491E919101680029F5D09AE803003A461C
:200ABC0009F0E6FF82469198894600281ED407460DEBC7040DEB870804F5A07408F5F07859
:200ADC007F1C58F8040911F0DBFF4B46524608F067FE08A284E803000CCA4946504608F095
:200AFC005FFE083C894682467F1EEAD1919C002C50D417E0000000000000703E0000000028
:200B1C0000007041000000000000C03F0000000000002040000000000000E03F000000008A
:200B3C000000F03FA5EBC40528A8E70005EB0008949E3DA090E8000C002ECDF830A221D415
:200B5C00DFF8EC90DDF844A2354600266D1C09F11009AAEB040AB24514DBF20002EB0900BD
:200B7C0003C850ABD219D2180CCA08F019FE02468C980B46594606F0E4F8761C8B466D1EBD
:200B9C008C90E8D1DDF830A2641EA7F10807A8E8000CCDD5919F24A090E80C00002F10D4CB
:200BBC000DEBC7047F1CA03494E80003194610464B46424606F0C5F8083C7F1E02460B466D
:200BDC00F2D18E9900290CBF191C83F00041DDF840C2104628AF8CE8030097E8030006F03F
:200BFC00ABF8024691980B4600280DDD0DF1A80A0746BAE8000310464B46424606F0A1F8C2
:200C1C007F1E02460B46F4D18E9909B183F0004390988D9F08307FB080E80C0018B007F038
:200C3C000700BDE8F08FC0460000000000000000C05801002DE9F84FC04CA178FF2904BFE1
:200C5C00002012F089FEA07813F016F9044604F1680504F190062968086810B10021E18327
:200C7C000CE0A87B002804BFA97E002906D13078002801BF207F0128608CE0832189E08B7B
:200C9C004118491C6181204600F06CF901281EBFAB480178012904D121890020491CE083DA
:200CBC0061814FF6FF77A87E01280DD1AA8B6189208900F05BF938B1218960894A1C93B21B
:200CDC0098421BD0A88B0FE03078012816D172886189208900F04AF980B1218960894A1C6F
:200CFC0093B298420AD0708892B2904206D03818608180B200F03EF93F18E78304F59679A8
:200D1C0099F8040020B120890021401CE183608104F12E07A87E012811D12189A88B4B1C47
:200D3C009BB298420BD1608100F024F98046B988288C01FB080820460CF0D8FF01E0B7F816
:200D5C000480B4F81EC022687E4ED2F80CE00CF1010000FB08F340F6C41000FB03F18E449E
:200D7C00C2F80CE03668DFF8E0E13678BEF80080764AB609032E11D1D67BF60748BF4FF071
:200D9C0000080BD408F101081FFA88F6012E12BF668AB9F8066006F2DC5600E0668A5E4315
:200DBC004FF4C87AB6FBFAF6761C6661AEF80080A3614FF0180894F806A084F820C008FB7E
:200DDC000AFADFF88CC1DCF800E023680EF1080656F80AB0C3F810B094F806A008FB0AFAC7
:200DFC00CDF800A0D3F80CB0D4F814A0ABEB0A0ADDF800B046F80BA094F806A008FB0AFA1A
:200E1C0056F80A609E600EF10C06A37908FB03F30EF10C0EF65C06F0F00646F002060EF83F
:200E3C0003604FF0000ADCF800E0A6790EF1020308FB06F623F806A0464BA6791B687601A9
:200E5C0003F1140AD4F814B05AF806A00AEB4B0A03F1140B4BF806A0AD7E022D0BD1A57942
:200E7C006D0103F1140697F800B056F805A000FB0BAA46F805A0BD88D27BA779D60736D57B
:200E9C0008FB07F70EF10802D659A6F5A86A0EF1080646F807A0A77908FB07F7D259276883
:200EBC00511A3961BA6003F11402A1794901575807F5F667575003F11401A2795201895882
:200EDC00C9F800106843244AA179156B03EB41162968401AA0F51670F0612049A07903EB66
:200EFC0040100B78012B14D10121C17214E003F114027F01D1592A464243A1F5E661A2F58C
:200F1C0016729142DED30821204600F037F8012011E0916A4A78C272A179DCF8000008FB07
:200F3C0001F281182268516007200D49087020460CF05CFC0020BDE8F28F00BF684E002044
:200F5C00784F0020084F0020FC2E00205C4D0020804E0020844E0020DC620100734F002003
:200F7C006F4F0020DFF800F035440110DFF800F069860010DFF800F091860010DFF800F0AB
:200F9C00A9850010F8B506AF3F880E4605463FBB022B23D15078147804EB002434F0010088
:200FBC001AD1F0680168284612F0F6FF844211D0F06806683146284612F0B8FA48B94FF6B8
:200FDC00FF70314612F0B2FA002808BF112008D0058084700020F8BD8020F8BD0D20F8BDE4
:040FFC000B20F8BD11
:20100000B41200001810000081F10000FDB301106DC00110FDAE011099B501100000000056
:08102000000000002D0000009B
:20102800B01200003C100000B1C00110A9BF011067C0011069B80110000000000000000035
:041048003000000074
:20104C00B012000060100000BDC00110CDB30110D9BD01106DB3011000000000000000005B
:04106C00310000004F
:20107000000000009823002004000000000000000000000020000000E8C90110300000006F
:2010900028100000A02300200400000000000000000000000C000000D8CA0110180000004A
:2010B0004C100000A823002004000000000000000000000024000000F0CA011018000000CE
:2010D00000000000B02300200400000000000000000000001000000018CA01102C000000DA
:2010F00000100000C0230020040000000000000000000000200000006CCA0110240000003E
:20111000FFFFFFFFC82300200400000000000000000000002800000090CA011024000000FD
:20113000FFFFFFFFD02300200400000000000000000000001400000008CB0110180000007C
:20115000FFFFFFFFD823002004000000000000000000000058000000B4C90110340000004A
:20117000FFFFFFFFE02300200400000000000000000000001000000020CB01101800000018
:20119000FFFFFFFFE82300200400000000000000000000001C000000B4CA01102400000045
:2011B000FFFFFFFFF02300200400000000000000000000003800000044CA0110280000006D
:2011D000FFFFFFFFF82300200400000000000000000000005400000078C901103C000000E2
:0811F00001000000D0620100C3
:0411F80001000000F2
:0411FC0000000E00E1
:0412000000000F00DB
:0412040032000000B4
:0412080001000000E1
:04120C00B4220020E8
:0412100000020000D8
:0412140000000000D6
:0412180001C90110F7
:04121C0000000000CE
:0412200000000000CA
:0412240008000000BE
:0412280000002200A0
:04122C00FC1F002083
:0412300000000000BA
:0412340000000000B6
:0412380008000000AA
:04123C000C22002060
:0412400000000000AA
:0412440000000000A6
:04124800080000009A
:04124C00000000009E
:04125000000000009A
:041254000000000096
:041258000000000092
:04125C00010000008D
:04126000C420002086
:041264000600000080
:041268000100000081
:04126C00B01E002090
:04127000000000007A
:041274000000000076
:041278000002000070
:04127C00000000006E
:02128000290043
:02128200010069
:02128400250043
:02128600300036
:02128800310033
:02128A002D0035
:02128C0001005F
:01128E00015E
:081290000300000048620100A8
:0812980000000000000000004E
:0412A0000000010049
:0412A4000000030043
:0412A80013C401105A
:0412AC008B3D010075
:0412B000B812000070
:0412B400B81200006C
:0412B8000000000032
:0412BC006C2300207F
:0412C000933F010057
:0412C4002000000006
:0412C800946101002C
:0412CC0000600100BD
:0412D00029C101101F
:0412D40003460100CC
:0412D80005460100C6
:0412DC00A1C7011095
:0412E000A3C701108F
:0412E4000000000006
:0412E8003D5D010067
:0412EC00A45D0100FC
:0412F000BC5D0100E0
:0412F4008C5D01000C
:0212F8000200F2
:0212FA000900E9
:0212FC000100EF
:0212FE000000EE
:0113000001EB
:04130400213F010084
:04130800E9200100D7
:04130C009532010015
:04131000CD240100E7
:041314002121010092
:04131800750101005A
:04131C0081C9000083
:041320000B4201007B
:04132400A9EC000030
:0413280015C70110D4
:04132C0025C70110C0
:201330002DE9F04FDD4C211D2046ADF19C0D0EF033FB04F120050021284613F0ADFCD84E8D
:2013500010201F220623A560314606F05FF85020ADF820000025ADF81E504FF47A7A8DF8F1
:201370002F500221ADF824500DF11E02ADF826A04FF44870ADF8220040F2063003F05EFAA4
:201390004FF44270132104F13D0203F057FA40F20730112104F12C0203F050FA4FF44470AA
:2013B00001210DF12F0203F049FA40F21130022108AA03F043FA40F2123002210DF1220265
:2013D00003F03CFA40F21330022109AA03F036FA4FF4457002210DF1260203F02FFA04F114
:2013F00050002A461523AF490090102006F00EF8314610200622A02306F008F83146102002
:201410000722A02306F002F8314610200122782305F0FCFF314610200822A02305F0F6FF0D
:20143000314610200922A02305F0F0FF0CAC01208DF8325029468DF8300003468DF8310020
:201450004FF480628DF83410974D00941F4610208DF83370294605F0D9FF0DF1310029467F
:20147000009040F202423B46102005F0CFFF0DF13200294640F203423B460090102005F096
:20149000C5FF0DF13300294640F206423B460090102005F0BBFF0DA829464FF483623B46A1
:2014B0000090102005F0B2FF804910204FF0FF3205F0ACFF10207E4B00907E497E4A019301
:2014D000092305F0A3FF7D494FF0FF32102005F09DFF7B4D2878800013F050F80146794807
:2014F0002C4680464161002900F0A5804FF6FF700EF0C4FE2078800013F040F80146C8F8F6
:201510001810002900F097804FF6FF700EF0B6FE2078800013F032F80146C8F81C1000295C
:2015300000F089804FF6FF700EF0A8FE2078800013F024F80146C8F8201000297BD04FF623
:20155000FF700EF09BFE2078800013F017F80146C8F8241000296ED04FF6FF700EF08EFE6B
:201570002078800013F00AF80146C8F82810002961D04FF6FF700EF081FE2078800012F05A
:20159000FDFF0146C8F83010002954D04FF6FF700EF074FE2078800012F0F0FF0146C8F877
:2015B0003810002947D04FF6FF700EF067FE2078800012F0E3FF0146C8F83C1000293AD0FA
:2015D0004FF6FF700EF05AFE2078800012F0D6FF0146C8F8441071B34FF6FF700EF04EFE85
:2015F0002078800012F0CAFF0146C8F84C1011B34FF6FF700EF042FE2078800012F0BEFF08
:201610000146C8F85010B1B14FF6FF700EF036FE2078800012F0B2FF0146C8F8541051B1D3
:201630004FF6FF700EF02AFE274B08F158003521102211F04BFB2078800012F09FFF08F17D
:20165000580201468B480F920029C16055D04FF6FF700EF013FE2078800012F08FFF014644
:2016700084480029016148D04FF6FF700EF006FE2078800012F082FF01467E4800294161C2
:201690003BD04FF6FF700EF0F9FD2078800012F075FF01467748816179B317E0D0080020F6
:2016B0006123010025D30000915200009931010030620100DD2C0100DC180020E934010020
:2016D000694F002008020020205A01004FF6FF700EF0D4FD2078800012F050FF014665489D
:2016F000C16151B14FF6FF700EF0C8FD6148624B15211022203011F0E9FA2078800012F033
:201710003DFF5C4A014620325C4822920029C16047D04FF6FF700EF0B1FD2078800012F00B
:201730002DFF01465548002901613AD04FF6FF700EF0A4FD2078800012F020FF01464F488A
:20175000416171B34FF6FF700EF098FD2078800012F014FF01464948816111B34FF6FF700D
:201770000EF08CFD2078800012F008FF01464348C161B1B14FF6FF700EF080FD2078800014
:2017900012F0FCFE01463D48416251B14FF6FF700EF074FD39483A4B19211022283011F0DE
:2017B00095FA38490846354E4F78007806F128011C91D7B93F49334A0C31516211F094F919
:2017D000304F024600203E463D462F4900903C4607F14800019006F15800029005F12000B9
:2017F0000390A378102005F011FE324A27491020183205F00BFE2F48007811F075F92449C8
:201810000246102005F002FE2A48007811F06CF920490246102005F0F9FD1F49102005F0A2
:20183000F5FD1E4F012038700AF086F81C49002007F0A2FD1B4900200FF0CAFF00200EF073
:20185000B9FB02200E9038700FF006FA174C164A174804F10801116004F11401016004F16C
:20187000200012F0B7FB0120267884F828002EBB22E0C0460014002058600100A00D002076
:20189000C05B0100B0050020FF050100B53701005188011031810110C5AB00100B240020D9
:2018B00000000303A9D4000084210020641E002024110020D008002011F0CEFD0320D84DCD
:2018D000387005F11404204612F0E8F9DFF85493D9F8000005F134064FF4FA7123463246AB
:2018F000BAFBF0F080B24143491EDB48696013F0CFF9DA4B05F1080228606968DA6013F0B4
:20191000C3F9002124220823304613F0B9F904203870DE480024A5F844406E68AE642646B3
:20193000CF4CEE6412F0BAF9D9F80000D74B04F1340551462A46BAFBF0F080B24143491E9B
:20195000C848616013F0A4F9C44920602422082304F1080008612846314613F091F93046BA
:20197000E6646168A4F844002068A16413F08CF92068616812F034FEC5480524BA4D3C70E1
:2019900012F08CF9D9F80000C14B05F1340440F2DC51BAFBF0F0224680B24143491EB34831
:2019B000696013F075F9B24928602422082305F1080008603146204613F062F9AE643046C0
:2019D000EE640623A5F84400AA4C3B7004F11405284612F063F9D9F80000AE4A4FF496710D
:2019F000BAFBF0F02B4680B24143491EA248616013F04EF9A149206004F108000861A54802
:201A100024220823314613F03BF93046E6646168A4F844002068A16413F036F9206861681E
:201A300012F0DEFD072038709B48954C12F036F9D9F80000984B04F134054FF49651BAFB34
:201A5000F0F02A4680B24143491E8E48616013F01FF98A4920602422082304F108004861ED
:201A70003146284613F00CF93046E6646168A4F844002068A16413F007F96168206812F01D
:201A9000AFFD0820804D3870844812F007F9D9F80000824B824A6421BAFBF0F080B24143E5
:201AB000491EE748696013F0F3F8DFF898B3286005F10800CBF82000794831462422082395
:201AD00013F0DEF83046AE646968A5F840002868696413F0D9F82868696812F081FDE348AA
:201AF0000924D94D3C7012F0D9F8D9F80000DF4B05F1300447F23051BAFBF0F0224680B2F6
:201B10004143491ED148696013F0C2F8D04928602422082305F1080008603146204613F0D3
:201B3000AFF80A2038706E64AE643046A5F840000FF032F8C74D05F10C00CBF82400281D7A
:201B500012F058FC0B203870012028720FF024F8C14D05F10C00CBF82800281D12F04AFCEE
:201B7000012028720C2038700FF016FDBB4C3B4904F10800486104F1180011F0DBFF0D2569
:201B9000314636483D704FF001090170334684F82E30024613623746C761B34D84F82D700B
:201BB00049464A46C4F81C9003236176AD4F22764FF4E131AB7084206762A94A216305F1B3
:201BD0000C03A262AA49C8F8103005F110028A6010F0C1FC214A11465060283184220AF0D5
:201BF0001FFA082010F0B7FC074630461B4C3871FF23A7610A207B7110F0ADFC214649690C
:201C100038600868804720460069006880471B480778214605F11C048C6087B904E0C04672
:201C30005C1B0020CC6201000746386904210068A970804778690068804748463870052008
:201C5000E749A870304630F010072BD0420834BF0E9A042227E0C046B94501006C190020C8
:201C7000B41B0020B7DB00000C1C0020BD450100E8220020641C0020C1450100682200200D
:201C9000BC1C0020C54501006C1D0020C81B0020201C0020981C0020D01C00207C1D002090
:201CB0009C1D00204A460A70401C491C1128CADBD04C49F6C062C4F8602146F67273C4F8FB
:201CD0005C3149F22F77C4F85871C4F88C61C4F89061C4F89461C4F89861C4F89C61C4F8D0
:201CF000A061C4F8A86146F6C031C4F8B06140F2DC50C4F854113D38C4F8340147F295322F
:201D1000C4F8402145F2E523C4F83C312727C4F8387147F25570C4F8640147F6F766C4F806
:201D30006C614CF69F21C4F880114AF2CF72C4F8682145F69943C4F8A4914BF2D230C4F8B2
:201D5000443146F20246C4F8700148F6A047C4F84C6148F2DE12C4F848214BF64271E76336
:201D700007F17F03C4F8781103F1EF00C4F87C01C4F8503149F2FA46C4F8846148F2B562CE
:201D9000C4F874210E981090C4F8AC014DF20E52C4F888210DF094F90F2684F82D61002244
:201DB00084F82C21E36CC4F81831206DC4F81401A18FA4F828111346A4F82A3108F0F6FD58
:201DD00084F82E010FF068FC84F82F014FF6FF70A4F824010DF070FFA4F826010DF012FD89
:201DF000C4F81C010BF0C2F8C4F82001607884F8306110F0C3FF7DA30020A4F8860093E8E4
:201E1000030009F0EBFC0EF089F9A4F8A800A4F8EC7084F8646040F6B83284F875602146FB
:201E3000DFF82C93E378A078CB4FCA4EA4F8CA205C460BB905281DDB012B1DD020E0C04627
:201E5000C9450100141E0020C01D0020CD450100B42E0020842200209C220020881F002094
:201E7000FBE70000B5860000A0210020D01D0020A00D00200123CB700828C4BF0020C87010
:201E90000123237042F6E94020834FF0490B0623628304F13001AB704FF4F07084F807B0BF
:201EB0000823A08304F1400040F2523221F8022B5B1E20F8022BF7D105F118000121E0629B
:201ED000206AF1700068A1718047606A00688047A06A0068804705F11404C9F80C40092050
:201EF000A87012F0CDF9DFF8B892287001286DD1AA4CF86821884FF0000A109AADF810101B
:201F10000DF1350340688DF835A004A98446CDF800A05846E047012878711BD16188F86891
:201F30005246ADF82A1040688DF836A00DF136038DF82B2011460446109A009158460DF198
:201F50002A01A04778710120F87054463C7142F6E063FB80BD4CB0692188109FADF8101071
:201F7000406853463A4604A98446CDF800A03C20E0476288B169ADF810204968707253462C
:201F90003C203A468C46CDF800A004A9E047E288B169ADF810204968707253463C203A46E9
:201FB0000C46CDF800A004A9A04770720A208E21B0720746F7723C4634733B4673733A4623
:201FD000B2732878B7740128F17415D050B9012100270E91484610973C4644700FE0C0463D
:201FF000CC220020484641780BE0C0460000000000000000580F00200E994846417081702D
:202010001099F171002108F10204C17008F10D030E94B64A109308F14801119108F10B041A
:20203000139408F134031493927B6A7008F12C01159108F10904169408F1070317930D27CE
:20205000AF7008F1010108F10504189108F10303199408F140071A93B649129701F1200256
:202070000C46DFF8ECB2DFF8ECA2DFF8EC921B922346221DB94F1D92DA1CB94B1E928A1C73
:202090001F92621C20921946DA1C21921C468A1C2392621C249207F11001A9600027377274
:2020B0001A1D25923C460471AC48406800214FF040424FF0FF3312F0DFFD061CF4D0002058
:2020D00006900DF12E0106AA07A810F02BFA002870D1BDF81CC00127BCF1100F65D19F489E
:2020F0009DF82E10007888425FD1069C20884FF6FF71814259D02578913D2FD01F3D54D1B5
:202110006078162818BF002305D1384610F032FFBD483B460460914845699BB165B94FF6FA
:20213000FD70C049C04A00900023102005F06EF98A494D69C3B22BB9884845F002050027BB
:20215000456132E021790834204612F091FD2CE0E02200200C1100207821002065780E3D9F
:2021700002D0AD1E1ED020E0A08842F2030181421BD1A1680D78C5B9491C04A80A68496875
:20219000026004AD41602878BD4904AA00F0FD002870102005F03AF907E0C046BC58010048
:2021B0004C22002008200CF0A5FD069810B10FB112F0A6F9F00FFFF477AF6848806812F049
:2021D00053FD00287FF470AF64488468204612F047FD844208BF002402D084680FF0CEFF66
:2021F000002CEAD05D4920884969401E00F09E81C01E00F09781001F00F08581083800F051
:202210006381103840F095816068427806788778C17841F60F0506EB0226001D761B00F002
:202230001181B61E00F0B68045F6EF72B61A40F079810C2F00F27681DFE807F09F947E7069
:20225000655A4C41362B20150AC0C046405B0100012940F0678100780E990870CDF80090F2
:20227000D8F8500093E0022940F05C81008810990880CDF80090D8F8540088E0042940F08C
:202290005181006811990860CDF80090D8F84C007DE0042940F04681006812990860CDF8B0
:2022B0000090D8F8440072E0022940F03B81008813990880CDF80090D8F83C0067E0042970
:2022D00040F03081006814990860CDF80090D8F838005CE0042940F0258100681599086076
:2022F000CDF80090D8F8300051E0C046B0050020022940F01781008816990880CDF8009066
:20231000D8F8280043E0022940F00C81008817990880CDF80090D8F8240038E0012940F02F
:202330000181007818990870CDF80090D8F820002DE0C046A00D0020012940F0F380007800
:2023500041460870CDF80090D8F81C001FE0C04665A60000B9980000916B0000D0080020D8
:2023700000140020022940F0DD80008819990880CDF80090D8F8180009E0022940F0D280CC
:2023900000881A990880CDF80090D8F814000F9A352396E0002F49D07F1E37D07F1E27D03A
:2023B0007F1E1AD07F1E0DD07F1E40F0BB80042940F0B88000681B9908606248CDF800A0DC
:2023D000406A3CE0022940F0AD8000881D9908805C48CDF800A0C06931E0012940F0A2801A
:2023F00000781E9908705748CDF800A0806926E0012940F0978000781F9908705148CDF8BC
:2024100000A040691BE0C046D42E0020012940F089800078209908704A48CDF800A00069D4
:202430000DE0C046C9EF00002D3B0100012979D1017844480170CDF800A04249C0681C9AC0
:2024500019233EE0002F31D07F1E25D07F1E19D07F1E0BD07F1E65D1012963D100782199EF
:2024700008703948CDF800B0C06928E0012959D10078239908703448CDF800B080691EE0D5
:2024900095B4001001294DD10078249908702E48CDF800B0406912E0022943D100882599D3
:2024B00008802948CDF800B0006908E0012939D1017825480170CDF800B02349C068229AFD
:2024D00015230AF07DF92DE088082BD31F48076847B37888397908373A4612F0BDFB074661
:2024F000162F03D0042F01D010F044FD18484669C7B936F00206466114D1164A16494FF622
:20251000FD7001230AE040F252300AA9443806F0CDFB0023BDF8282009480849009010200D
:2025300004F074FF60680FF029FE02E0A0780CF057FB20460FF022FE3FE6C046992501007F
:2025500040E20100A00D002000140020D42E0020D00800202D3B0100C9EF00002DE9F04FB7
:202570000746C84821F000440E460FF2D82BADF15C0DA04213DDC448A04203DD38460DF01F
:20259000CDFD48B1002000909BE80C003146384605F02CFB0E46074631463846A1E2BB48FC
:2025B000A04205DC38460B46024604F0CBFB98E2B748B146AFA50FF2C42AA04280F2C88028
:2025D000B448A04251DCB448A04200F36F81B34AC1F30A502315000502AEA3F21648251AF5
:2025F0003C460227AD18294620460DF097FD10F04DFA0B460246294620460CC604F0A2FBDD
:2026100092A20CCA07F0D2F804460D467F1EEAD106A880E830000325044694E803009BE830
:202630000C000AF02BFD1DD002A808A942462B46FEF726F8B9F1000F014606D408A890E806
:2026500000030AAF97E80C001CE208A890E800030AAF97E80C00494289F0004983F00043B3
:2026700010460EE2083C6D1ED7E78D48A04238DA8C48A04200F01A81B9F1000F75A277A482
:2026900016DC0CCA384604F062FB94E80C000D46064604F05CFB894680464B464246294604
:2026B000304604F04FFB94E80C0004F050FB15E00CCA384604F046FB94E80C000D460646EA
:2026D00004F040FB894680464B4642462946304604F038FB94E80C0004F034FB02460B46BD
:2026F000D8E17148A04200F0E180B9F1000F5DA25EA416DC0CCA384604F029FB94E80C0085
:202710000D46064604F023FB894680464B4642462946304604F016FB94E80C0004F017FBD2
:202730008CE00CCA384604F00DFB94E80C000D46064604F007FB894680464B464246294693
:20275000304604F0FFFA94E80C0004F0FBFA5AE0D449C4F31300814200F0A880D248A0429D
:2027700036DAB9F1000FD4A2D5A417DC0CCA4946384604F0ECFA94E80C000D46064604F0C6
:20279000E6FA80468946424630464B46294604F0D9FA94E80C0004F0DAFA16E00CCA494644
:2027B000384604F0CFFA94E80C000D46064604F0C9FA80468946424630464B46294604F069
:2027D000C1FA94E80C0004F0BDFA02460B467BE1B9F1000F1ADC95E80C004946384604F0CD
:2027F000B6FA9AE80C000C46054604F0B0FA80468946424628464B46214604F0A3FA9AE8BA
:202810000C0004F0A4FA02460B4664E195E80C004946384604F096FA9AE80C000C460546E7
:2028300004F090FA80468946424628464B46214604F088FA9AE80C0004F084FA02460B4678
:2028500034E1C0460000000000000000000000000000704100004054FB2119403163621A83
:2028700061B4F03D0000307F7CD91240CA9493A7910EE93D00004054FB21F93F3163621A5B
:2028900061B4D03DFC21E93F0000503E0000F07F7A6A0F403C461C40FB213941000060417C
:2028B000BCFD1540FB2119407CD912408EA20CCA4946384606F07AFF0FF2342898E80C0073
:2028D00004F045FA98E80C0004F03CFA0D9181460C9088460DF022FC0E9095E80C00414667
:2028F000484606F063FF0B4602463146384604F029FA15909AE80C008B464146484606F02E
:2029100055FF13901598139A14910B46594604F019FA80460D984B4689460146184695E8CD
:202930000C0006F043FF0B4602463146384604F009FA10910F900D990C989AE80C0006F0B0
:2029500035FF0B46024610990F9804F0FBF924154800A4EB5050102840F387800D990C98F6
:2029700065A20CCA06F022FF8A46054610990F9853462A4604F0E6F98B4615900D990C984C
:202990005FA20CCA06F012FF0E460746159A10990F985B4604F0D6F953462A4604F0D2F97D
:2029B0000B4602463146384604F0CCF9139014911598149B139A594604F0C4F9804689468A
:2029D00015981099119002460F98CDF848B05B4604F0B8F953462A4604F0B4F90B460246BB
:2029F0003146384604F0AEF9024611980B46594604F0A8F94800A4EB5054322C35DB0D9C2F
:202A10000C9D41A20CCA2146284606F0CFFE82461598894659464B46524604F093F980465A
:202A30003BA2CDF854800CCA8B462846214606F0BDFE0C460546129911985B46424604F0D5
:202A500081F94B46524604F07DF90B4602462146284604F077F90B46149302461392594603
:202A7000404604F06FF989468046159859464B46424604F067F9149B139A04F063F90B4619
:202A90000E99024611F0030104D0491E0ED0491E1AD020E0012000904946404605F0A6F86F
:202AB0001FE0C046FB2109007CD902404946404605F000FA15E0C04600004054FB2109404D
:202AD0003163621A61B4E03D012000904946404605F08CF803E04946404605F0EBF981F023
:202AF000004117B0BDE8F08F83C8C96D305FE43F00000000000038430000601A61B4D03D50
:202B10007370032E8A19A33B0000002E8A19A33BC14920259A837B392DE9F04FD34C04F1D8
:202B30001C012046ADF1340D0CF036FF002604F1A80A4FF6FF7066700121608250460FF002
:202B50005FF9D04802210FF05BF9CF4804210FF057F904F14808042010223146A07040464C
:202B70000AF011FE04F158091022484631460AF00AFE04F120073E6004F10A052E7007202A
:202B90006072DFF810B3E67102222672594610200346CDF8008004F039FC1020032259462C
:202BB000CDF80090034604F031FC0422102059460097134604F02AFC4FF0080A4FF00309AB
:202BD0004FF0010B05F12E00079005F17D00089005F12200099005F15E000A9028350B9538
:202BF00019E06078B4F84050B4F84230B4F84420B4F8461006280ED1ADF80A50ADF80C309B
:202C1000ADF80E209F48ADF8101011F0D9FC584602A90AF0EFF9E069B44A31464FF0FF33F5
:202C300012F02AF8071CF6D0059606A80DF11A0105AA0FF077FC002840F0BE81BDF8181080
:202C50002078102940F0B4819DF81A10884240F0AF81059D29884FF6FF728A4200F09D8162
:202C70002B78A23B00F080812E3B40F0A181A978B046002900F03C81891E00F00D81491E9F
:202C9000012940F2D780891E00F09B80491E72D0491E5FD0083900F05781891E40F05A81C5
:202CB00094F83E10A8880529ADF808004AD075488DF812B011F084FC94F83E00012820D09D
:202CD00004281ED003280DD002280BD00598C188ADF80A100189ADF80C104189ADF80E1040
:202CF00081892BE0B4F84210B4F84000ADF80C10B4F84450ADF80A00B4F84610ADF80E5010
:202D10001CE0B4F84000E9888842D8BF081CADF80A002989B4F842008842D8BF081CADF84C
:202D30000C006989B4F844008842D8BF081CADF80E00A989B4F84600884200DC0846ADF8A0
:202D5000100001E08DF81260A749102002AA04F05DFBFFE04C4811F033FC6B78002B40F082
:202D7000F980E888A0822889E08268892083454811F080F9EEE0AA88B249102004F046FB2A
:202D90000798414606220AF0FEFCA682E6822683A87920733B4811F013FC3B4811F010FCD1
:202DB000D8464FF6FF70237960823BB9A879082814BF042005206070E670CBE084F8019074
:202DD000C8E06B787BBB291D0A6807980260898881800623637068896082E889A082288A43
:202DF000E082688A94F83E102083E8780129E07218BF02290BD1994910201F2204F006FBF0
:202E10004FF47A7180B241431E480FF015F868890423009090490193EA7810202D1D2B46EA
:202E300004F0F4FA99E06878312840F08A80E67004202CE06B78002B40F08380A878218A22
:202E50006278032814D0E078257921B9012814BF2671E67005E0054303D081480EF0ECFF0E
:202E70006278072AE4D1062011E0C046B0050020062A0BD0E578002D08BF84F801906CD0EB
:202E9000022004E07C060020A00600200720607063E0C0467B3701006B78002B51D1EB782E
:202EB000617893B902291DD007291BD0062902D12079012816D1032914D0694811F0DAF86B
:202ED00080B9584611F00EF90CE00FF00DFE0246A07960490090089843460190102004F095
:202EF00095FA68706D78002D2BD133E0070000806B7833BB5B485649009002221020034673
:202F100004F084FA58484A46514900901020034604F07CFAED1C296809980160A988818024
:202F3000207884F801B00FF0DFFD02465B460A9D6079484900901020019504F067FAC0B2CA
:202F500058B184F801A008E0AA8840491020052304F05CFAB8F1010F2AD1656A45B32968EA
:202F700031B36078884723E06879132820D12889012808D1607B022805D13E4811F020FB76
:202F90000FF01AFB14E035491020052204F03EFA81B238480EF050FF0AE06888C00B07D399
:202FB000324804222A4900901346102004F02EFA059808B111F0A4FA2579E07879082ED34C
:202FD00055EA00032BD0204600787DB9E279217A8DF808200B9D8DF809102B680DF10A010B
:202FF0000B60AA888A8003E0051601108DF80890627A8DF81020A17A8DF811100FF074FD2C
:203010001149024602AB102004F000FA38B1656A84F801A01DB1296809B150468847B80820
:2030300003D31349304609F0E5FFF808FFF4F3AD607B401E3FF4D5AD401E7FF4ECAD0FF011
:20305000BBFAE8E559F9000059440110C1170110B1990000094501108D9C0000A53B010042
:2030700058060020F805002008060020D0050020EE050020A00600202DE9F04F0F46CD4CE6
:203090000168E16241688068ADF11C0DE060C548A1608047C448E16A0160A168DFF810A3BC
:2030B0004160E168DFF804938160CE49002FA346C1606FD03D68E8788DF80C0028798DF87C
:2030D0000D0003A811F0C4FDA86808B1C6490160E86808B1C5490160C54C28782070687894
:2030F000BE686070A878B268A0703178A2607368E1702E696360EA6926627968E2620868DF
:20311000E06068696062A8697B68A062286A9E68206395F8240084F834001EB9002010F063
:2031300021FC00E066617868C06818B9002010F019FC00E0A0617868006918B9002010F092
:2031500011FC00E0E0617868406818B9002010F009FC00E0206128692062F86881680E6880
:2031700006B9D24ED0494FF001084E60C66881F8018036B9002010F0F5FB4D462E68F868A1
:2031900001E04D462E6000685446FB68A0615868E06107E0002010F0E5FB4D462E684FF067
:2031B00001085446361DC7493668621C04F114035020B04710B1286880688047DBF808008F
:2031D0008047C24E002781463B46BF487770694620610422337038460EF06AFD0098B0F592
:2031F000801F0CD020B90FF0DFFD06F05DFA08E00CF028FF10F078FE0420708001E00FF0CE
:20321000D3FD3846BA4EA0602B68B760986980477060AF4880F8008039464180142010F0A3
:2032300071FFFF211422A06211F0D2F9E01CFF21022211F0CDF9142010F064FFA54F3860C0
:2032500038680021142211F0C3F9002000F052F940460EF0CBFBA0480188FF2906D1022172
:2032700001807822001D002111F0B2F9032011F0EBFC042011F0E4FC052011F0DDFC062004
:2032900011F0D6FC07200BF0D9FC944E0820307006F1240011F0C8FC0BF0E6FE06F1360AB4
:2032B00005200A21524610F060FA38B10020C0F10901401C0AF8011B0A28F8DB30781021A0
:2032D00007F098FE2B68864909200DF10E025E68087001AB10200021B047A06AE1690A2602
:2032F0000A309DF80E20761E00F8012BF9D1891EE161DBF80C104846884704F120002B6862
:20331000626A059040461E69DFF8D88104F120034146B04710B1286880688047B8460FF06C
:2033300065FE5FEA000903D008F040FD4FF0FF39002643E00298216910F8062CA0F10C07FE
:20335000032A03D1002939D0884737E0A16A9DF810C00A223046491E11F8013F9C4506D0CB
:20337000521E00F10100F7D14FF0FF0A01E05FFA80FA2868BAF1FF0F00F108001CD0387938
:203390000EF002FEB979012904D0022904BF0299887001E0029908700299504610F00CF944
:2033B0000CE0C04641490010F84400202C2400202421002098170020006880472868C36986
:2033D00004A902AA0DF10F0098470028B2D0D8F800007700C35B6BB9761CF6B20A2EF8DB20
:2033F0002BE0C046B04C0100852C0100753B0100C41F00200A2E20DADBF808008047D8F8A5
:203410000010002231F807A0CA53DBF80C108847354850F8262026705146304690470646EE
:20343000FF202070DBF808008047D8F800107A5A16437E52DBF80C1088470FF0D7FD074670
:20345000B9451AD007B9294FE069B84238BF071CDBF80800804781462868016A206A884722
:20347000626A28681F49059B521C6262C6683846B047DBF80C1048468847A768296860694E
:203490001431AFB9D8F800000A270026835B33B10969606988472968D8F8000014317F1E39
:2034B00006F10206F2D107E080230020A7330100096988472968143109684FF0FF308847F0
:2034D0002DE7C04605320100D53B0100102400200C240020F42E0020181A00208C12002083
:2034F000062F0020D11F0100885F01008EC2F528942E00202DE9F84FDFF8BC13DFF8BC2386
:20351000DFF8BC5308700821002010600D23DFF8B40340F23732017043808280DFF8A80373
:203530000560AC7EDFF8A4030470FF2CE97E417008BFFF292A7F82706B7FC370AE7F06716C
:20355000ED7F457115D1FF2A08BFFF2B11D1FF2E08BFFF2D0DD1DFF878130A7802704B7840
:2035700043708A788270CB78C3700A79027149794171DFF860130278DFF85C83DFF85C9374
:20359000DFF85C730A70FF2543784B7082788A70C378CB7002790A714079487188F80050BF
:2035B00088F8015088F8025088F8035088F8045088F805500020CB490880D9F83440CA49C8
:2035D000607808702278C9493A70A0780870A2681079C74A411E1170E078C649C64A087032
:2035F000E068106008B910F0BDF92069C34E306008B910F0B7F93068DFF804A301688847A3
:20361000326852F8041F50468847BE48BE49CAF82000CAF824106069BC49086008B910F052
:20363000A1F9A069BA49086008B910F09BF9E069B849086008B910F095F9DFF8DCB2B74CAE
:203650009BF8040010F05EFD0028206075D09BF80500B34E10F056FD002830606DD09BF807
:203670000600DFF8C0A210F04DFD0028CAF8000063D09BF8070010F045FDAB490028086034
:203690005BD039789BF80000891C484380B210F039FDA649002888604FD03878002862D0EB
:2036B000BBF80210484380B210F02CFDA04A0028506042D0387810F025FD9E490028086032
:2036D0003BD03878400010F01DFD9B490028086033D038781821484310F014FD974A106078
:2036F00058B33878400110F00DFD9549086020B33878000110F006FD92490860E8B138785B
:20371000000110F0FFFC90490860B0B138783021484310F0F7FC8D4A106070B18C4839788F
:203730000078484310F0EEFC8A4A106028B1387810F0E8FC8849086018B9BDE8F14F06F0F6
:2037500025BA4FF0000B09E010F0A4FC0021418081600180022303710BF1010B39785FFAB8
:203770008BF08842F0D32268694F0120107121680D732068457321688D732068C573216832
:203790000D7400212068457400202268D172A0222168487103212068C28001720720226833
:2037B00050720021206881722821206801224182C2760020216848770022206880F85E20A4
:2037D0000121226811770120216881F85D0001223068027131680D733068457331688D73F5
:2037F0003068C57331680D7400213068457400203268D172002231684871306882724FF41D
:2038100020703168C88008818A7401213368D974DAF800201573DAF800104D73DAF8002088
:203830009573DAF80010CD73DAF8002015740022DAF800104D740121DAF80030DA7200237B
:20385000DAF800201171DAF800104B71DAF80010C88008818B720520DAF800209374DAF8A6
:2038700000103E4AC874106880473968054608688047396851F8042F00209047D9F80C1001
:203890001C4B0A881878364902430A802846354A136898470C21344811F0C2F9404611F00E
:2038B000BBF911F0B5F9BDE8F44F034800784FF4005107F09FBB00BF6E4F0020044F0020F6
:2038D000B63F0050604E0020084F00202C4E0020E81200503C4E0020344E0020DC620100DF
:2038F0007B4F00200C4F00206D4F00206B4F0020724F00206C4F0020F04E0020F44E002021
:203910007C4B00201541010035410100F84E0020FC4E0020D82E002060230020104F0020CA
:20393000144F0020184F00201C4F0020A02E0020684E0020004F0020DC2E0020804E002097
:20395000844E0020884E00208C4E0020904E00204C240020E02E0020E42E0020A0170020B0
:20397000544F0020A4170020F84D00202DE9F84F0C46E00788B00BD510F09CFB28B10021F5
:203990008160B348006800B1804784F001005CE1A0070FD500210023069105910491039382
:2039B00002910191009101223C2011F02DF984F002004AE11D256007A64EA74F40F18A802C
:2039D000002107918B46A5488178FF2904BF00200FF0C8FF386890F8A00010F053FA8046BB
:2039F0003868C07A98F82691022818BF032808F5907A06D106F10D0011F002F908B906F1D4
:203A1000070B5146484611F0F7F888B33868807A002818BF012804D13146504611F0E8F8AF
:203A300004E052464946304611F0DEF8FF2834D005FB00F906EB090506225146E81D10F037
:203A5000F1F816F80900396840F00209E81D07900622887E00F0010088F8260105F1010A17
:203A7000386800F1140108F5907010F0DBF814E05146484611F0B4F878B152464946304634
:203A900011F0B2F8FF2808D006F10D014543481911F0B6F808B949F0020908F12C004B4614
:203AB000017806914289120905920122B8F822100491C0880799029140080390CDF804B000
:203AD000CDF800A0002098F8061011F09DF884F00400BAE020060FD5002100230691059188
:203AF0000491039302910191009101223B2011F08BF884F08000A8E0E0044BD5F11D06F14E
:203B10000D0011F069F83868017A012918BF042931D1C17A02291EBF0329817E01292AD148
:203B3000817E00F11402304611F05EF8FF2811D04543354405F10D0011F062F850B9E91D2C
:203B500005F10D0011F048F838680622E91D143010F068F83868C07A022818BF03280AD1BE
:203B700006F10D0011F04CF828B938680622F11D0C3010F057F83A4842683A4800784FF441
:203B900080510CF0CFFC10B18E2009F0C3FC84F480505AE0A00505D510F036FB3249012088
:203BB0000860FEE7600504D506F02BFE84F480604BE0600405D5812009F0ACFC84F4804010
:203BD00043E0A10440D5294D286810B100200FF0C9FE274E4FF0FF30286010F0F9FF31684F
:203BF000244D51F8202F684690472349234B486A8A6A009001920293C86A0268086A03924C
:203C1000ADF810000A6B1178002904BF5068002805D19068002804BFD068002806D029708D
:203C3000506868609168A960D068E86029463568134A2E6813486B46B0471349086003F0B9
:203C500049FE84F4005000E0002009B0BDE8F08F204F0020AC450020104F0020684E002073
:203C7000784E00206E4F0020FC002043044F0020F04E002068450020C41F0020B54001007B
:203C90002C4D0020A82D0020EC4E0020BB482DE9F84F0025BA4CB849056094F8E2000028A5
:203CB00000F06581012800F02F81B64E02283CD0032840F05C8151F8250CD4F8B8100029AC
:203CD000A0F5C060C4F8D400B8BF49420028B8BF4042814226DA4FF08057D7F8A401456872
:203CF000B4F8BC0030214FF47F42082300903046A847D7F8A4014568B4F8C00004214FF4E2
:203D1000F802122300903046A847D7F8A401B4F8D070456820214FF440620A233046009702
:203D3000A847012584F8D8501CE151F8258C10F06BFA2F4600B901273946934F38680028DF
:203D5000FCD0B146012609F10409D9F82CA03E6009B110F05FFACAF30720C4F8BC0010F0B8
:203D700053FAAA4600B9B2463B68002BFCD0D9F800B0BAF1000F3E6001D010F04BFACBF3FE
:203D90008440C4F8C00010F03FFAAA4600B9B2463B68002BFCD0D9F81C90BAF1000F3E608A
:203DB00001D010F037FAC9F38120C4F8D000B8F5C061C4F8B81000F09C8094F8D80068B925
:203DD000C4F8D410D4F8C000C4F8C800D4F8BC70C4F8C470D4F8D030C4F8CC30D4F8D40017
:203DF000D4F8BC30002854BF02226FF0010204F1C8010F6800EB40008018421000EB927201
:203E100007EBA2000860D4F8C810C4F8C43000291CDD1E293CDDD4F8CC0030B93429B4BF6F
:203E300015391E21C4F8C81025E02A29BABFD4F8C8000B381E20C4F8C800D4F8C4003F28F0
:203E5000B4BF401C3F20C4F8C4001FE0D4F8CC00032812D011F10B0FC6BFD4F8C8000B3090
:203E7000301CC4F8C800D4F8C4000028C4BF401E051CC4F8C450032508E011F1150FC6BF1D
:203E9000D4F8C8001530301CC4F8C800C4F8CC504FF08057D7F8A401B4F8C43030214FF4D3
:203EB0007F424568374800930823A847D7F8A40104214FF400321123456832480096A8476A
:203ED000B4F8C860D7F8A40104214FF4F802122345682C480096A847D7F8A40120214FF455
:203EF00040620A23B4F8CC60456826480096A84701E084F8D85040F2FF50404502D8801C6A
:203F100040452FD2082030E051F8251C1F4F4BF2F5204843060A3868C0F3814001280CD1D4
:203F30001B480068006880470DF0CAFC10F078F93111C010484306EBE03694F8E50030B945
:203F50001448006820F07F403618760801E084F8E5501148310C0660012741600F4D876058
:203F7000287808B90B2000E0052084F8E40003F021FBBDE8F88FC0462D400C402C500C407E
:203F90008416002000A00C4000800C40B43F0050EC010010102009403C600C404D6101004F
:203FB0002DE9F84FB34D696884B0019121B905B0BDE8F04F10F008BE0978DFF8BC82AF4E31
:203FD000DFF8BC92DFF8BCA201291CBF0229042946F2A81741F64C5B05D0402918BF802987
:203FF00000F096803CE110F0B7F90028FAD00198007804F089FF0090446814B900200FF037
:20401000B1FC9AF8010000285CD000F043F90FF039FF02900168009801914F680AF022F8A9
:20403000022825D000990A78012ADBD196490A68137A19F80310317018B910F0C1FD584491
:20405000A0602069C17E01F0EF01C1762069C17E41F08001C1762069C17E01F0F00141F0E4
:204070000201C1762269B96888484118D1614BE001980178802911D10820854930700A780F
:20409000012A03D09AF80100022801DB38690CE0D8F828003A690178D1720DE07C490720BC
:2040B00030700A783869012A02D10121C17203E0D8F828104A78C2720298817901988AF84A
:2040D0000210C8E0009800288CD00199009A0078914205D101281CBF00200FF043FC15E04E
:2040F000012840F0BD80684801680A7A19F80200307010F065FD3918A06810F05DFD18B9E4
:2041100010F05EFD5844A0600120A8700098A2E09AF8010000287AD000F0BCF80FF0B2FEED
:2041300004462068029047689AF802000FF0AAFE039010F017F910F0070F3DD0A87804F047
:20415000E3FE0190416801980091029909F08AFF022831D001990A78012A2AD14A490A687B
:20417000137A19F80310317028B910F029FD83440098C0F808B000980069C17E01F0EF01E6
:20419000C17600980069C17E41F08001C17600980069C17E01F0F00141F00201C176009A88
:2041B000B9683A4841181069C16101210198A97051E000200FF0D6FB0398A04225D0029857
:2041D00033490278802A12D1082030700978012903D09AF80100022803DB38690121C17275
:2041F00010E0D8F828003A690178D1720AE0072030700978386901290EBF0122D8F8281073
:204210004A78C272A0798AF80200029823E010F0A9F810F0070F29D0A87804F075FE0446DD
:204230002078D4F80480012820D117490868027A19F80210317010F0C3FC3918D8F8080074
:2042500010F0BAFC20B910F0BBFC5844C8F808000120A870204605B0BDE8F04F06F0E8BFCF
:2042700005B0BDE8F04F00200FF07CBB05B0BDE8F08F00BFA02E0020DC6201006F4F00209C
:20429000289A0110684E0020104F0020F0D8FFFF734F00202DE9FE4FB24C617811B900201A
:2042B0000FF060FB10F08CFC4FF00008074607F6C417C246AC4DDFF8B49228E050460FF0E5
:2042D000E1FD06467079F0B12968B07901F80800394608F101005FFA80F8304610F068FC3B
:2042F00030680178402902BF06F182000178012902BF41887289914205D1B169C08841186E
:2043100030460DF063FC0AF101005FFA80FA99F800008245D2DB6178884505D000200FF04D
:2043300021FB822010F040FC6078012840F0F180002701E07F1CFFB299F80000874280F2B1
:20435000E28038460FF09EFD064670790028F1D02968B0790A7890421CBF00200FF002FBB0
:20437000B079FDE0286810F809000FF08BFD00684268DAF808109068814204BF3E4609F107
:20439000010900F0D480D6E0286890F800B001224FF4C0710FE0636803F5AD76835C01FBFA
:2043B00003F901FB0BFE36F809C036F80E60B44538BF9B46521CFBB29A42ECDB4FF6FF7016
:2043D00010F0EEFB064658460FF05CFD68490068D0F804A00868D94630F8192060684FF422
:2043F000C07300F10E0103FB09F3C85AB2EBD00F52D2720840F6C4104243009200275D4A55
:204410000190029217E058460FF03CFD01680A78802A03D1DAF81030009A5A6109784029E0
:2044300008D1029980790A6802EB4011009800F5A060C8617F1C47452EDA2868C05D8345F5
:20445000F8D001464FF4C073594363685A1803F5AD73D289595A53088B4202D2521A90458B
:20447000E8DA0FF00FFD01684A68019B9168DAF808207008A1F6C41103FB002010F09CFB1C
:204490000028C0D03A48006830F81910491C20F81910286810F807B0296808780FF0F2FC26
:2044B0000026006847684FF4C079464551DA2868805D0FF0E7FC0068296842688B5D6068DB
:2044D00009FB03F3034403F18201087830B15889B1F802C0401C80B2604508DA887B012826
:2044F0000ED15889098A401C80B2884208DB6EB3B968906801F5C241A83110F05DFB28B3DF
:20451000761CF6B2D1E700200FF02CFA822010F04BFB6178286810F03FFB286800780FF0C2
:20453000B1FC00260068D0F804A04FF00109771CC145FFF617AFF6B2002E1CBFF8B20028A4
:204550007FF422AF286890F800B037E7296811F806B007490A6800205B4622F81300584683
:20457000BDE8FE8F684E0020004F00207B4F0020DC2E0020844E00202DE9FC47DFF8B8A224
:204590000F460546F80B80F00881A64EDFF88882B80F80F0BA80B80880F0AE803809C0F0DA
:2045B0002F819B480178090980F0A180007830F07F0040F09C80684607F048FC012803D1F3
:2045D0000098002800F0938092480078002840F08E8001240025E8B20FF018FC48B1837A63
:2045F0003BB1847290F9090004FA00F0C0B20DF0EBFB6D1C032DEED345464FF0030905F1AE
:20461000AC0085F810900FF0A5FF844A0021884610681160824952F8080C05F1340042F8EB
:20463000088C42460FF0A6FF3068006B8047AA68A969801A000BC0F1FF328A422CBF014439
:204650004FF0FF31A961287F20B1E868A969B1EBC02F1ED90EF0E0FE414600B12146081CD6
:2046700014D0714840F60901018041464180427B64F303024273027B61F3030202734160CA
:204690000FF0D8FC418811F4406FFBD02C774146A9616649086820F0020040F4007008607E
:2046B000634A42F8049C41F23006966014605023936014604FF4CA6696601460022042F87D
:2046D0000C4C44460C600DF0C1FD112006F052FD287818B9686838300FF058FF687F18B19C
:2046F0006C7705200DF0B2FD524868612C740AF01DF827F0080783E005F036FB404674300B
:20471000006808B927F002077AE00FF02BFF34468146606D0068014604208847C8B1287CF0
:20473000B8B14046083006689EB12068EC68006B8047801BE860010BE960A14202D2091966
:204750004908E96040F6C41088422CBFB1F5FA7FE860484610F01CFA0DF01AFB90B1A86981
:204770006FF4807100224FF0007304462846A04740466C300068002808BF47F0020701D0D8
:2047900009F0D4FF686900214FF0806304460A462846A04727F0005732E00FF0E3FE514643
:2047B0000E684EB306F1280106C90A234FF0E0450B40154008BF002B1ED106F1280191E8D8
:2047D000300006F1280393E8060006F12803AA43A14383E8060010F0DBF9B16871B1002D56
:2047F00008BF002C0AD03069B6F93C10B2682B4616462246B04701E010F0CAF927F480477C
:2048100027B15046394650300FF0C8FEBDE8FC87FE2E0020F12500205824002014100440A8
:20483000F1E400008C0100106C2E0020000004600C410440F5AC0000D82400202DE9FC4137
:20485000A0F2013714468846022F40F234819C4E9D499E4A3F1F0F2F04D9143F4CD0BF1EC1
:204870001CD011E0DFE817F0D000CA000E01FB00C200BA002701B000A800100010009E001F
:2048900090008100740066002D2880F21481B8F1020F40F010818949238808E1B8F1010F27
:2048B00040F00981F078012800F00581324620781179107189B9002800F0FD805078012844
:2048D00000F0B680042800F0B380062800F0B080052800F0AD80BDE8FC812078002840F0A9
:2048F000EA805078032800F0B080072800F0AD80052840F0E080A8E0B8F1010F40F0DB8056
:204910002078012840F0D78006F1F0000FF0B2FB002840F0D0803446002004F13E0108F03E
:2049300069FB002840F0C78004F1CC000FF048FEBDE8FC81B8F1020F40F0BD8020880A283B
:20495000C0F2B980B0F5486F00F3B5800E4619E0B8F1020F40F0AF802088B0F5FA7F80F23A
:20497000AA800E463080BDE8FC81B8F1020F40F0A28020880628C0F29E80B0F5486F00F3D6
:204990009A801646B61CEDE7B8F1020F40F0938020880628C0F28F80B0F5486F00F38B80FD
:2049B0001646DFE7B8F1010F40F085802078062880F28180464E0EE0B8F1010F7BD120787F
:2049D000042878DA0A3606E0B8F1010F73D12078082870DA09363070BDE8FC81B8F1010F5A
:2049F00069D12078042866DA0836F4E7B8F1010F61D1207804285EDCF61DECE7B8F1020FC7
:204A100059D120881036ADE7B8F1010F53D13079012850D032462078D178D07069B9002828
:204A300049D05078012803D0042818BF052842D101200FF057FBBDE8FC81207800283AD1E7
:204A50005078022818BF052835D110780EF04CF81C490246102002F0D9FCBDE8FC8106F1C3
:204A7000870500211F22284608F08DFE21464246284607F0D5FA44463078B4710EF034F8A3
:204A9000002311E006F1680500211F22284608F07AFE21464246284607F0C2FA444630780C
:204AB00074710EF021F8012300940A4901950246102002F0ABFCBDE8FC81C046612301008B
:204AD000B005002099450110F4050020F0050020EE050020094501102DE9FE4FA3489E4B2B
:204AF000A04C0168A04A9E4FDFF870A258884FF00A0B4FF0000904F11C069846B2FBF1F191
:204B1000019140082AD27878022827D1AC200AF0FBFDAE200AF0F8FD0EF08EFCB8600EF084
:204B30008BFC01464A467879F960B1F5FA7F38BF01228F4902250B460A544A4613F8011B1F
:204B50006D1E1144CAB2F9D1401C3A70C0B20228D4BF787187F805900EF020FAD8F8040001
:204B70009AF800104EF6602200F59670C8F80400B0FBF2F2914209D2491C8AF8001041F693
:204B900011000222534604210BF080FA2078A17C884206D03C2814BF8E212021E174A074B8
:204BB00000E0E17CE579A27A207D954208BF884219D055B1012D06D070694946024607205F
:204BD0009047E17C07E0706906E0706949460246072090474946B069024607209047E279F4
:204BF000E17C207DA272E578627B954208BF88420DD025B1012D14BF7068B06800E0F06819
:204C1000024607209047E278E17C207D62732579227B954208BF884208D0002D0CBFB06B87
:204C3000706B0246072090472079207340F21A30694604F03BF89DF80000022808D0607955
:204C5000062805D007281CBF84F805904A4602D1012060710246E37AE17C207D9A4208BF8F
:204C700088420AD0012A18BF494630690246072090476279E17C207DE272A578E27B954296
:204C900008BF88421FD0B5B1012D11D0022D0CD0032D07D0042D03D0052D13D1706F02E022
:204CB000B06F00E0F06F024607E0D6F8802004E0D6F8842001E0D6F8882007209047A57821
:204CD000E17C207DE5736578A27B954208BF884217D095FBFBF006EB8000D0F88C200720A2
:204CF0009047E17C95FBFBF000FB0BF02D1A06EB8500D0F8B420072090476278207DE17CD4
:204D1000A273A579227C954208BF884209D005B94946F069024607209047A279E17C207D70
:204D30002274257A627C954208BF884209D005B949467069024607209047E57C2575207A0E
:204D5000607401980FF020FFB8F80200401C80B2A8F80200D5E6C046E00B00205424002072
:204D70004C2200200C110020E0930400CC620100522200202DE9FC418E488F4A04788F48C9
:204D90008F4B90490D2C6FD8DFE814F012010E000E000E000E000A010A018E000A01C90042
:204DB000C900E700E700EE00106041F204478648864DB0F802C08649BC451FBFB0F81AE015
:204DD000BE45B0F83280B8454FF4A0561ED181480068D0F800C09CF8040003280CF1080EB2
:204DF0000BD1DEF80E0000281CBFBEF81800002803D01F80784911608AE0022C1CBF1E8035
:204E10000D46156000208CF8040081E0BCF1000FA3F800C041D0BCF1010743D0B7F1010C0C
:204E30003BD040F2FE37BCEB07071ED0A7F1040CBCF1010F20D94FF47F77BCEB070C1DD00F
:204E50004FF44067BCEB07070FD0BF1E012F0CD93F1F0AD07B1E012B0ED940F2F937DB1B96
:204E7000012B1AD91B1F09D09AE0022C01D115604EE01E800D46FAE7584DF8E7584B1C6856
:204E9000257A012D05D141F20243438043834386F0E7468046834686ECE700200EF062FD13
:204EB000832081E08F207FE04E498978FF290CD0106018204C4C41432068851C40F20446CB
:204ED0006C5A1C80A41B012C484B71D94FF47F76A41B0FD04FF44066A41B032C84BF641F24
:204EF000012C0BD9A41E012C62D940F2FD36A41B08D103E0801C41F201444452136005F075
:204F100079F905E000200EF02DFD85200FF04CFEBDE8FC4136480078012106F06BB840F2AF
:204F300004424888188090421CBF41F2084290423ED041F60402904211D12E4C2E482F4B4E
:204F500000680025CDE9004502222D4C256855F8086FB0472B4908802AE048881880002046
:204F70000EF000FD85201FE04888188002280DD940F20442801A1BD040F6FC72801A05D0FA
:204F9000083815D04FF47F72801AE8D1887B801CC2B2B52AA8BF662088730020488007E0AC
:204FB00000200EF0DFFC8420BDE8F6410FF0FCBDBDE8F3816F4F0020204F002035450100AF
:204FD000504F0020CC4C0020204A0020B1540110615A0110F44B002059550110755B01105F
:204FF000104F0020684E0020804E0020313901106E4F002002000080EC4E0020F92201000E
:20501000F04E0020424F00202DE9F04F8246DAF80070DAF804600C465FEA0208ADF11C0D70
:2050300014BF00214FF0FF31DFF8409248460EF096FF002818BF0B2040F0158100258F4847
:205050008C4905708A48FC6052460FF093FA317B27200FF091FAB8F1010F07D065700220A0
:205070000DF09AFB06200DF097FB01E0012060702078012840F2AA80801E012868D9801E44
:20509000012833D9801E012800F2DE800FF06AFA83464FF0805000F5EE77D0F8DC01A3785F
:2050B000466A009321782846062908BF0120019001200290A068228AE1686368B0478146B5
:2050D00058460FF065FDB9F1000F40F0BF80B8F1000F02D00EF06AFD02E050460DF052F9EA
:2050F000002800F0A3803868806A2AE00FF03AFA83464FF0805000F5EE77D0F8DC010123A3
:2051100006680093A168A27860682478AC46042C08BF9C466346B047814658460FF038FDF3
:20513000B9F1000F40F09280B8F1000F02D00EF03DFD02E050460DF025F9002876D0386801
:20515000406880474C49C1F8B0510D6081467DE00FF008FA83464FF0805000F5EE77D0F8F5
:20517000DC01E38A86690093E0680190208B0290A0780390207D04900121059122782846A1
:20519000022A08BF081CE1786268A368B047814658460FF0FDFCB9F1000F57D1B8F1000FCD
:2051B00002D00EF003FD02E050460DF0EBF800283CD03868006A80475FEA000946D1E078F1
:2051D000A168E28A236907F0DFFFBFE70FF0CAF983464FF0805000F5EE76D0F8DC01E38A3E
:2051F000C7680093E0680190208B0290A0780390207D2946049001200590257805B9014624
:2052100008466268A368E178B847814658460FF0BFFCB9F1000F19D1B8F1000F02D00EF0B9
:20523000C5FC02E050460DF0ADF808B914201AE03068406980475FEA000907D1306802695F
:205250002169E078904781E74FF0FF39B8F1010F05D002200CF0FAFF06200CF0F7FF03489E
:205270000FF094F9484607B0BDE8F08F081B0020401B0020952E010050450240042F00207D
:205290002DE97E411446DFF85882964A03460025A3F58063182B1AD8DFE813F016010F012F
:2052B0000701FE00F600E900E100DB001900CF00C700BF00B500A900190019008700760042
:2052D0006F0056004D00400037002D0024002D2880F28B80022940F0888021880DF038F8D9
:2052F0000546FAE0012940F0F780002C00F0F48040461130B1E0102940F0EE80002C00F0CD
:20531000EB8040461022503011E0012940F0E480002C00F0E1804046801D9EE0262940F08E
:20533000DB80002C00F0D88040462622603021460EF078FCD1E0012940F0CE80002C00F0E2
:20535000CB804046401D88E0602900D144B9012940F0C280002C00F0BF8040460D307CE03A
:20537000114660207A3114F8012B401E01F8012BF9D1404601214173AFE0012940F0AC80A5
:2053900020780FF0FDFBA8E0012940F0A5802078022800F3A180114608702078022814BF2D
:2053B000281C01200FF0E8FB97E0072940F09480611C684606220EF0FFFA207869462A46AA
:2053D00006F05CF904460A2C0FDA0FF0D1FB38B9204603F039FB0DF01DFE09F045FE7CE010
:2053F000404601212C30015577E0022575E0012972D141462278887B00288A736DD12078E4
:2054100001286AD1E9E7012966D12178072963DB102961DC40460B3045E001295CD1217894
:205430000A2959DA404609303DE0012954D12178022951DA4046083035E000294CD10FF0C4
:2054500097FB10B90EF08EFCC5E7404601210F3029E0012940D140460A30217823E00129FC
:205470003AD12178022937DA4046C01D1BE0102932D1404600F14001102014F8012B401E24
:2054900001F8012BF9D128E0012925D12178022922DA4046001D06E001291DD121780429BE
:2054B0001ADC4046C01C017017E0012914D12178022911DA4046801CF5E702290CD12188AF
:2054D00040461430018008E0012905D121780229DCBF4046401CE6DD18252846BDE87E8136
:2054F0008C120020981200202DE9F04385B011F8017B0446082F04F1FD0004F1FC0804F1B0
:20551000760504F5A076844A844BDFF8149213D0092F21D00F2F2FD0112F01BF28780128C5
:205530006878102840F0D5800A78327648787076012184F83D11EBE00025521C4E5D5F5D3D
:205550003E434E55575D3E4046556D1C082DF5DB204608F051FD74E00024571C0D5D1E5D40
:2055700035430D553A5D15400555641C082CF5DB022088F80000CBE098F80100820704D438
:2055900010F0110F57D01A2266E008784A7800EB02203080CA78887800EB022070804A7931
:2055B000087900EB0220B080CA79887900EB0220F080087A30724A7A887A02EB0022728170
:2055D000C87A0A7B00EB0220B0818A7B487B00EB0220F0810A7CC87B00EB022030828A7CE2
:2055F000487C00EB022070820A7DC87C00EB0220B082487D897D00EB0120F082494801787B
:205610008A0658BF1A2212D504F5A670049071890391307A029021890191F0880090B388C4
:2056300072883188204608F085FAE0B11E2298F80100410710D40F2088F8150020460FF013
:2056500093FA002864D199F8000005B0BDE8F0434FF4804105F0CEBC204605B0BDE8F043BC
:205670000F210FF07DBA7088A882B188E9820221F0882883297400206882A18EA88AC91DBA
:20569000E981618EB0EB510F02BFE88AA18E884202BF288BE18EB0EB111F18D0287801281B
:2056B00004BF68780F2805D0687918B10F21A972FE2127E0FC2120460FF04EFAF08800903E
:2056D000B38872883188A0790FF042FA20E0102118E0491E20460FF037FA032F18D1A87817
:2056F000042818BF0D2813D16E78142E18BF0E2E0ED12F7820460FF023FA012F06BFAE7226
:20571000FD213146204605B0BDE8F0430FF024BA05B0BDE8F08300BFEC4D0020C42E00201D
:205730006E4F0020144E002010B50B7884074CBF43F0020303F0FD0304064CBF43F0800326
:2057500003F07F0304074CBF43F0080303F0F70384064CBF43F0200303F0DF0310F0AA0F0A
:205770000B7003D0107840F00C0003E018B9107800F0F300107010BD2DE9F8430D460027D0
:205790002878022814461E4667D1696808784978DDF8208000EB012080B25FEA08021CBF46
:2057B000B0F5285F0B205BD14FF42851401A08D0401E21D0401E2FD0401E25D0401E31D00A
:2057D0004BE0DDF82490E8680EF004FF80B2A0EB08024A45BCBFA0EB08001FFA80F909EBCA
:2057F0000800162806DAA6F800904A46E86800EB08010DE00D2732E0E86800880221318092
:205810002070000A60702AE0062030800622E96820460EF007FA22E001203080E9680A78AA
:2058300022701CE0E868B0B1082131800288227003881B0A63704188A1704288120AE2708E
:20585000818821718288120A6271C188A171C088000AE07103E0308001E0378001273846D5
:20587000BDE8F2832DE9F0470F46814638780024022890461D466DD17868089E0178407869
:20589000DFF8D8A001EB002189B24FF42852891A06D0491E29D0491E4ED0491E39D059E09D
:2058B000F8680EF097FE80B2B04204D3A919162903DB0D244FE007244DE0FB682A464146F9
:2058D00098190EF0AFF9AD19F868ADB2C5F11602002140190EF07CFEDAF8000000281CBF47
:2058F0000268002A37D0002123E08EBB022DE0D198F8000098F80110FA6800EB0120108081
:20591000DAF8000000281CBF0268002A23D001210FE0EEB9062DCCD1F868062241460EF086
:2059300081F9DAF8000000281CBF0268002A12D00321484690470EE056B9012DB9D198F8C4
:205950000000002813BF0128F9680870802402E00B2400E001242046BDE8F087EC2E0020C5
:205970002DE9FE4F05467B48002400680094C00905D37948007810B920200CF051FD012D2B
:2059900040F0E280DFF80092D9F8DC00012840F0D8800220C9F8DC000EF090F801200CF03C
:2059B0003FFD5FEA000805D00120C9F8DC000EF091F8CBE00EF0EEFDA34602906748684DBD
:2059D000C0F800B0A86A016801208847012804D1584608F07DFB012000906248624FC0F814
:2059F00000B0386811200EF02DFC00B1012410200EF028FC08B144F002040F200EF022FC89
:205A100008B144F004040B200EF01CFC20B12868564E016B308888470A200EF013FC20B140
:205A30002868534E016B308888475248012606602868816944F0200088474F4806600EF073
:205A5000FBFB00F001010191400814D2286A81684A4888478246BAF1040FF7D0BAF1010FAA
:205A700004D1286A42684548032190474449086820F003000860584600F088F82B683868C4
:205A9000986B8047019801280CD0BAF1010F04D1286A42683948314690473949086840F0D1
:205AB000030008602F48066028684169204688470B200EF0C7FB20B128682C4BC16A188891
:205AD00088470A200EF0BEFB20B12868284BC16A18888847274806600322C9F8DC20264B70
:205AF000C3F800B02868416B204688470128F9D1386804200CF094FC0446184806603868C7
:205B1000144800688009FBD30098012802D1304608F0DEFA0EF07EFB08200CF081FC07461B
:205B30000298C9F8DC600FF007F81648008808F073F80DF0CFFF57EA040018BF4FF0FF381A
:205B500004E06FF0040801E06FF001084046BDE8FE8FC046141009406C1700200C4009403A
:205B7000B8010010000222432C2009406C5D0100685D0100282008608001044300400340C5
:205B90002422084048610100841600202DE9F84FDFF804B20746ABF13500DFF8F08100684B
:205BB000800880F0E28075480068006880477E490831D1F8009000254FEA29715FEA9952A2
:205BD00001F101010AD2C0F13E0210F10A0F4FEAE202D8BF08229142B8BF111C684BD3F807
:205BF0007C21C2F30462162AA8BF203A1B68C3F30443162BA8BF203B9A465218162A05DAF0
:205C100012F10A0FB8BF6FF0090200E015225D4B5D4E02F01F0141F4F8511980316811F04A
:205C3000030F18BF0125C90828BF45F002050FB145F00405434693F90710411A052904DAC0
:205C50009979A94208BF99886FD0DFF844E10F28A0F10F0829DB08EB0011A1F1F0084FEA6A
:205C700028210091072984BF07210091062988BF06215EF821600424774604EB81043C59AC
:205C90004FEA950CA41BEE0804F0FF0124BFC4F3072631446F08AE0824BFC4F307463144AC
:205CB0006E0828BF01EB146104E000214FEA950C6F080091009C5EF824E05FEA5C060EF090
:205CD000FF0424BFCEF3072634447E0824BFCEF3074634446E0828BF04EB1E64009E89B2D2
:205CF000A8EB06267143803104EB1124AAEB02010029D8BF0121342209F0FF074A4391B2AD
:205D10004FF6FF727943B1FBF4F18A4238BF111C802889B2998005DA10F1800FB8BF6FF03F
:205D30007F0000E07F20D8719D711A4800681F2918604FF0000008D340F2FF128A4206D273
:205D50004908401C8A42FBD301E01F219980134F0F39090940EAC10047EA0001CBF8FB1FFC
:205D70000026CBF8FF6FBDE8F88F0D490D4F434608200F609B1D1870BDE8F88FEC01001055
:205D90003C1100506E62084024220840CC2E00209C130050082009403500094000E7A4809D
:205DB00030100940FDFDA400AC3F00502DE9F04F044675488A46016894461F46BAF1000FE3
:205DD000ADF13C0D4DD0BCF1000F4AD09AF8002001209040014244D0BCF80000B0F5C15F66
:205DF00032D1DCF81430DCF818206848DCF81C104FF0030E0DF128080B93DFF894B10C92E6
:205E100000680D91C0F3036958F8046FCEB10021351F05200B4655F8042FB2F1FF3F10D0DF
:205E3000934506D0401E01F1040103F10103F2D107E0052B05DA705820F4702040EA0940BF
:205E50007050BEF1010EDFD1C4F804A0C4F808C00EF088FB4F4D8046287820B140460EF048
:205E700097FE00208DE002F0B9FF4B49086840F00200086007A80EF0E5F8002605F1D00032
:205E900007AA464909960BF057FD454905F5827007AA0BF051FD07A80EF08CF8FF2105F109
:205EB000340007AB3F4A089119210BF035FC3E4A05F150001A2107AB0BF02EFC3B49324688
:205ED00005F18800134609F0C7FC3949324605F1AC00134609F0C0FC364A05F120000421BA
:205EF00033460CF0F7FF0E2005F06EFB05F174000DF064FF05F16C000DF060FF2E7407204A
:205F100085F898012E77AE616E770523AE602B49EB602A786961501C2870274B1E704046D7
:205F30000EF036FEB1464FB92548B0E88C106946A1E88C100DC86F4681E80D00386820608B
:205F5000398A6182012060747B6813B940F6C4130646E3601B48A06126746061F86800B17B
:205F7000A061B86800B160615822494604F1200007F009FC04F1380049460CF04FFE2046F9
:205F90006C600FB0BDE8F08FD4210840541300500200F8445824002000200940153B0100BA
:205FB00029AC0000F1E4000055E30000093401009538010001FE0000FE2E0020F5AC0000F7
:205FD000B860010083B100002DE9F0430446834DA178A869ADF1140D891F00F0F780C91E22
:205FF00000F0E280491E5FD0491E48D0C91E3CD0481E40F0EE80287A697AB8B96878002835
:2060100031D0A0880EF094FD071C00F0E280A07A40080FD3787968B1E168890A0AD2B91D67
:2060300001AA05F02BFB0A2804D10321A0880EF07BFDCEE0287B022802D1A07A0009F4D389
:20605000A088797904F1080201F07CFBA869002800F0BF804368002B00F0BB8000210A46D5
:20607000A0889847B5E00521E0E7002800F0B1804368002B00F0AD8062780221F0E70EF079
:2060900021F8002800F0A580A86950B1076847B1206900906189227B637BE01C3C46A0473E
:2060B00097E060890121C2E767784FF00008002F6BD1A179490868D3EF69002F65D101A808
:2060D00041460E220EF084FAA0880EF031FD071C7FD0606940B97879B91D06228DF80A0077
:2060F00001A80DF09FFD1EE06669307C062301A906F111098DF80A0006F1110010F8012B26
:206110005B1E01F8012BF9D107F10C00B91D06220DF088FDB81D494606220DF083FD307CCE
:2061300040F002007871A079C00839BF387900F0FD00387940F002003871A079000939BF17
:20615000387900F0DF00387940F020003871A1799DF81120C1F3800010438DF811000809F7
:2061700005D39DF8110040F008008DF8110001A8214600F02FFB28B92878022104F03AFFC8
:20619000404627E0A8694FF0150810B3436803B3A088627801219847B8F1000F19D0A8691C
:2061B0004368032142465BE7E078211D002205F065FA0A280DDA410001EB800004F10C0261
:2061D00025300421C0B203F0EBFB02E0A08809F0BBFB012005B0BDE8F083C0468C1200207F
:2061F0002DE9F04F05468048066800680F461C469246C4F399018900ADF12C0D0A010021E5
:20621000803207F0C0FADFF8C891A9F1880002466E48016830469047A30880466108019793
:206230009F1C21F00101F819009506EB80000390091DCDF808A07818434506EB800206EBC7
:20625000870B3844049206EB80000690C4F39C004FEA800000F1080007EB400000EB070258
:2062700006EB82020A9224F0030202F1080200EB020506EB85053A44059506EB82050A449C
:2062900007953A4406EB8202089206EB80020992084406EB800A384406EB800518BF6FF0C8
:2062B000010040F08F8009F16800024641463046904700233CB10199264611F8010B761E51
:2062D00040EA0303F9D1002B08BF01207AD000263CB10299234611F8010B5B1E40EA06067C
:2062F000F9D1002E08BF02206CD001995846C84703980299C847009881680498C84735483C
:20631000049A594681462846C847012803D14FEA88042E590EB1032054E0BE002846002140
:20633000324607F030FA0399049A2846C847012801D12F590FB1042044E0274F274C0698EB
:2063500059463A46A047079803993A46A0470699089827460A46B84709980899069AB847A9
:206370000A9806991E4C2246B84728460021282207F009FA1B4809990A9A81462846C8473B
:206390002034284622460146C847079950460A46B84705980021324607F0F5F95FFA88F4F8
:2063B0005046002C0CBF01225FFA88F200216B5C445CA34218BF052004D1491C521EC9B2BC
:2063D000F5D100200BB0BDE8F08FC0468C4F0020B9DB0010C9DE001058210020F9E000100A
:2063F000605E0100C9E60010884F00202DE9FE4F0E468246307AC10693461F464FF00009A2
:206410000CD558460EF08CFB030000F0E8800A223146504698475FEA00094DD130780C9D34
:206430000D9CDDF8388002281AD170680178407801EB002189B24FF42052891A012910D945
:20645000891E3AD0491E14D0FD397AD0491E00F08180491E6DD0491E73D0491E00F095809E
:20647000ABE0002C2AD1F068017829800278416887E0002C22D101202880F1680A783A70E9
:2064900000217089401C80B20EF046FB298860B10278921C51182980418979704289120A6F
:2064B000BA7041680278F81C6CE0091D298004220021781C0EF08CF893E0002C66D1F068C5
:2064D0000688042129803E70320A7A700DF1020130460EF021FB040021D0D4F80C80BDF8E9
:2064F00002204FF6FF766B4631460EF011FB40B9237862683C4802210EF006FB08B9ADF814
:20651000006098F8000002280BD1D8F804100222381D0DF087FB2888801C288001E0ADF81F
:206530000060BDF80000B870BDF80010090AF97057E0002C2AD1F068016850460DF032FDEC
:2065500002E01CBBF0680088022129803870000A787046E0F0680EF03DF880B2A042B8BFF0
:206570004FF007093DDB844208BF002205D008EB04028242B4BF4246021B2A8092B2F06805
:20659000011938460DF04EFB2BE014B14FF00B0927E0F0680721298002783A7043787B70F0
:2065B0004188B9704288120AFA7001793971C2887A71C088000AB87113E058460EF0A0FA8C
:2065D0005FEA00090BD00F980290CDF8048000942B463A4631465046C847814601E04FF074
:2065F0000E094846BDE8FE8FEC5E01002DE9F04F0746880FADF1140DC0F0D4806B4E301D67
:20661000006841688D68CC68486800B18047B046674E002D08BF002C0BD030680028FCD0D6
:206630000020306005B1A84704B1A04761480CF09DFA0024A6F11C015F4ACC615F480A605E
:2066500040F60A0CA0F800C04480017B64F303010173A646C0F804E0417B4FF0010A6AF38C
:2066700003014173BA687B7C54801188B146A1F60201C9B141F21E05491B15D041F6E67590
:20669000491B012920D8517E012B64F38201517606D0118B21F47C7141F43471118313E0F3
:2066B000118B64F30911F9E7517C012B64F38201517405D0118A21F47C7141F4347102E017
:2066D000118A64F309111182D7F808B07C7461465D4600E035466E6816B132889142F9D1FB
:2066F00068606A7B64F303026A73D8F86C603EB1F2681288CB1F93421BD0891F914218D018
:206710003E8CC6B1C7F824E007F120014C8097F82C2064F3030287F82C2097F82D206AF345
:20673000030287F82D204160417B64F30301417301E0C8F808402248036882680192C168A8
:20675000406B0093102220F0784040F0805003901C480291694605F063FCD9F8000000286B
:20677000FBD01948C8F8140098F81D00C9F8004078B9164800680068014650468847012827
:206790000DD0687B6AF303006873114FC8F8147005E00AF0E1FE0028FBD00DF0F3FE58460D
