:200000000040002059F9000001C9011001C9011001C9011001C9011001C9011001C901100C
:1C00200001C9011001C9011001C9011001C9011001C9011001C901103FC9011089
:20003C002DE9F04FD34C04F11C012046ADF1340D0EF0FCFE002604F1A80A4FF6FF7066708A
:20005C0001216082504611F053F9D048022111F04FF9CF48042111F04BF904F1480804202F
:20007C0010223146A07040460CF0FBFC04F158091022484631460CF0F4FC04F120073E60FF
:20009C0004F10A052E7007206072DFF810B3E67102222672594610200346CDF8008006F0A9
:2000BC000BFD102003225946CDF80090034606F003FD0422102059460097134606F0FCFCC1
:2000DC004FF0080A4FF003094FF0010B05F12E00079005F17D00089005F12200099005F1B0
:2000FC005E000A9028350B9519E06078B4F84050B4F84230B4F84420B4F8461006280ED1A5
:20011C00ADF80A50ADF80C30ADF80E209F48ADF8101013F046FD584602A90CF017F9E06980
:20013C00B44A31464FF0FF3300F02AFA071CF6D0059606A80DF11A0105AA11F09FFC0028EB
:20015C0040F0BE81BDF818102078102940F0B4819DF81A10884240F0AF81059D29884FF680
:20017C00FF728A4200F09D812B78A23B00F080812E3B40F0A181A978B046002900F03C81FF
:20019C00891E00F00D81491E012940F2D780891E00F09B80491E72D0491E5FD0083900F0E2
:2001BC005781891E40F05A8194F83E10A8880529ADF808004AD075488DF812B013F0F1FCA6
:2001DC0094F83E00012820D004281ED003280DD002280BD00598C188ADF80A100189ADF825
:2001FC000C104189ADF80E1081892BE0B4F84210B4F84000ADF80C10B4F84450ADF80A008B
:20021C00B4F84610ADF80E501CE0B4F84000E9888842D8BF081CADF80A002989B4F8420090
:20023C008842D8BF081CADF80C006989B4F844008842D8BF081CADF80E00A989B4F846002E
:20025C00884200DC0846ADF8100001E08DF81260A749102002AA06F02FFCFFE04C4813F09E
:20027C00A0FC6B78002B40F0F980E888A0822889E08268892083454813F0F0F9EEE0AA885D
:20029C00B249102006F018FC0798414606220CF0E8FBA682E6822683A87920733B4813F06D
:2002BC0080FC3B4813F07DFCD8464FF6FF70237960823BB9A879082814BF04200520607026
:2002DC00E670CBE084F80190C8E06B787BBB291D0A6807980260898881800623637068897B
:2002FC006082E889A082288AE082688A94F83E102083E8780129E07218BF02290BD199494E
:20031C0010201F2206F0D8FB4FF47A7180B241431E4811F009F86889042300909049019326
:20033C00EA7810202D1D2B4606F0C6FB99E06878312840F08A80E67004202CE06B78002B1D
:20035C0040F08380A878218A6278032814D0E078257921B9012814BF2671E67005E00543B4
:20037C0003D0814810F0E0FF6278072AE4D1062011E0C046B8050020062A0BD0E578002D97
:20039C0008BF84F801906CD0022004E084060020A80600200720607063E0C0460B2D01003A
:2003BC006B78002B51D1EB78617893B902291DD007291BD0062902D12079012816D103295F
:2003DC0014D0694813F04AF980B9584613F07EF90CE011F035FE0246A0796049009008987B
:2003FC0043460190102006F067FB68706D78002D2BD133E0070000806B7833BB5B485649AC
:20041C00009002221020034606F056FB58484A46514900901020034606F04EFBED1C2968A0
:20043C0009980160A9888180207884F801B011F007FE02465B460A9D6079484900901020E7
:20045C00019506F039FBC0B258B184F801A008E0AA8840491020052306F02EFBB8F1010F55
:20047C002AD1656A45B3296831B36078884723E06879132820D12889012808D1607B0228BA
:20049C0005D13E4813F08DFB11F042FB14E035491020052206F010FB81B2384810F044FF5B
:2004BC000AE06888C00B07D3324804222A4900901346102006F000FB059808B113F013FB1D
:2004DC002579E07879082ED355EA00032BD0204600787DB9E279217A8DF808200B9D8DF867
:2004FC0009102B680DF10A010B60AA888A8003E0051601108DF80890627A8DF81020A17AAC
:20051C008DF8111011F09CFD1149024602AB102006F0D2FA38B1656A84F801A01DB129680A
:20053C0009B150468847B80803D3134930460BF00DFFF808FFF4F3AD607B401E3FF4D5AD90
:20055C00401E7FF4ECAD11F0E3FAE8E5F9ED000059440110C1170110698B0000094501109A
:20057C00458E00004D310100600600200006002010060020D8050020F6050020A806002045
:20059C00DFF800F0F99B01102DE9F04FADF11C0D12F0C1FEBE48C04CBE494678304604EBBA
:2005BC0040028888A2F89600BC4AB1F800B0B1F802A091F9067091F907800E72400016808C
:2005DC0010F0E6FFD6490CF00BFAD6490BF084F910F0A6FFD4A20CCA08F0BEF90AF068F968
:2005FC000FF030F8750004EB0509A9F8B800D24820F805A0D14820F805B0D14887553619EC
:20061C0086F88580B9F8B80012F0C8F8CA4922310391CA4988390491C949113105919F49DB
:20063C0004F11607CC31029110F07AFFC0A20CCA08F092F90FF006F83880B9F8B80012F0A8
:20065C00ADF810F06DFF07F1A208A61DE1A20CCA08F082F98246E06B894610F061FF0B46A9
:20067C0002464946504608F077F90EF0EBFF2D19963530700421022290362B464FF4F040FD
:20069C0001960EF097FF4FF4F040052102223B460EF090FFE589DC48A1790095401C01703A
:2006BC0028461028C0F25481606CDDF80CA0DDF808B0DFF850931127401CC4F820010025C7
:2006DC0060643AF8021B3BF8020B484311F08AFCC2A20CCA08F040F90FF0DAF919F8011B2F
:2006FC007F1E00FB0155ECD1284612F057F8BD490BF0F2F8BC4E31460CF072F9BB490BF0A2
:20071C00EBF810F00DFF0AF0D3F80FF0C1F9BD491127054642460020A56611F8013B32F8A5
:20073C0002CB7F1E0CFB0300F7D112F037F831460CF056F9AE490BF0CFF810F0F1FE0AF0CC
:20075C00B7F80FF0A5F9E16C4919E164A26CE0661218A264656D236D6D18C4F824519B18EE
:20077C00C4F8283112F01AF8009905464FF496704843A0F5967010F00BFF014628460BF027
:20079C00ABF89C490CF02CF910F0CAFE0AF090F80EF058FFC0B2A07284F83D010EF0C2FEF9
:2007BC0084F83E01002584F83C510EF06BFDA4F83A0110F005FA84F8400109F0CDF9E76E27
:2007DC00DFF8449284F83F01A7B1A16E4FF47A70484311F0E3FF8246384611F0DFFF014626
:2007FC0050460BF079F810F0B7FE4CF2503180B2814201DA4CF25030A4F838010EF068FDA1
:20081C000746C4F83471002F08BF281C19D094F83F0111F0C3FF78490CF0E2F810F080FE47
:20083C0076A20CCA08F098F883468A46384612F0A5F90B4602465146584607F0C0F90FF0F2
:20085C0027F9C4F82C010BF03DFDC4F830010DF067FC2F4684F8410117BB0198B8F8206023
:20087C00029B0146008CA8F800601A460880188C039E10803346308C049A1880164692F9DD
:20089C001000059B307093F910001A46107014E0C022002080230020E80B0020F60B002083
:2008BC000498C5557B0028F80350059EF5550199CD52029AD5520398C5527F1C112FCBDBDC
:2008DC0094F84011B4F83A71607994F83F6189F8021004F5907304222764401C6071052130
:2008FC0041F61100A6700EF065FE04F594734FF4F040062104220EF05DFE04F592734FF4C3
:20091C00F040072104220EF055FE607A401C6072E078B8B9A178052915DA0120E07014E080
:20093C00DB0F49400000704252B81E85EB512440CDCCCCCCCCCC0C40C20C0020E40C002016
:20095C005C0C0020A178012802D10829C8BFE57060794B282DDBD4F82021218A606B2B4E81
:20097C00C4F8442104EBC107401CD4F82821C4F84801274D3178C7F84C21208AD4F8242109
:20099C0004EBC000C0F85021224FC4F8B4116378606B2978401CC4F8B83100258742C4F87F
:2009BC00BC118CBF606365630DF0E8FBE5646571A5641948014680880F46401C8880787817
:2009DC00401CC0B21128A8BF012007B04870BDE8F08FC0463BDF4F8D976EA23F2D431CEB80
:2009FC00E2361A3F00803B4500009643000061450060EA460000B4430070AD48CDCCCCCCCE
:200A1C00CCCCEC3FD422002024110020591F00205D22002080D3D8FFC02200202DE9F04FD4
:200A3C000F46CD4C0168E16241688068ADF11C0DE060C548A1608047C448E16A0160A16852
:200A5C00DFF810A34160E168DFF804938160CE49002FA346C1606FD03D68E8788DF80C0092
:200A7C0028798DF80D0003A800F016FAA86808B1C6490160E86808B1C5490160C54C28781A
:200A9C0020706878BE686070A878B268A0703178A2607368E1702E696360EA69266279689D
:200ABC00E2620868E06068696062A8697B68A062286A9E68206395F8240084F834001EB94A
:200ADC00002012F011FA00E066617868C06818B9002012F009FA00E0A0617868006918B92D
:200AFC00002012F001FA00E0E0617868406818B9002012F0F9F900E0206128692062F8685B
:200B1C0081680E6806B9D24ED0494FF001084E60C66881F8018036B9002012F0E5F94D46C2
:200B3C002E68F86801E04D462E6000685446FB68A0615868E06107E0002012F0D5F94D46D0
:200B5C002E684FF001085446361DC7493668621C04F114035020B04710B12868806880470F
:200B7C00DBF808008047C24E002781463B46BF4877706946206104223370384610F010FBC8
:200B9C000098B0F5801F0CD020B911F0CFFB07F061FE08E00EF0EAFC12F092FC0420708017
:200BBC0001E011F0C3FB3846BA4EA0602B68B760986980477060AF4880F800803946418082
:200BDC00142012F09BFDFF211422A06212F0F1FFE01CFF21022212F0ECFF142012F08EFDF3
:200BFC00A54F386038680021142212F0E2FF002001F034FD404610F08DF9A0480188FF298C
:200C1C0006D1022101807822001D002112F0D1FF032000F045F9042000F046F9052000F0DA
:200C3C0047F9062000F048F907200DF04BFA944E0820307006F1240000F042F90DF0B4FCFB
:200C5C0006F1360A05200A21524612F050F838B10020C0F10901401C0AF8011B0A28F8DBCC
:200C7C003078102109F034FA2B68864909200DF10E025E68087001AB10200021B047A06A83
:200C9C00E1690A260A309DF80E20761E00F8012BF9D1891EE161DBF80C104846884704F115
:200CBC0020002B68626A059040461E69DFF8D88104F120034146B04710B128688068804731
:200CDC00B84611F055FC5FEA000903D00AF086F94FF0FF39002643E00298216910F8062CEC
:200CFC00A0F10C07032A03D1002939D0884737E0A16A9DF810C00A223046491E11F8013F59
:200D1C009C4506D0521E00F10100F7D14FF0FF0A01E05FFA80FA2868BAF1FF0F00F1080098
:200D3C001CD0387910F0A8FBB979012904D0022904BF0299887001E0029908700299504681
:200D5C0011F0FCFE0CE0C04641490010F84400203424002030210020B41700200068804791
:200D7C002868C36904A902AA0DF10F0098470028B2D0D8F800007700C35B6BB9761CF6B2E9
:200D9C000A2EF8DB2BE0C04680420100152201001D310100D01F00200A2E20DADBF80800B5
:200DBC008047D8F80010002231F807A0CA53DBF80C108847354850F82620267051463046F5
:200DDC0090470646FF202070DBF808008047D8F800107A5A16437E52DBF80C10884711F0E7
:200DFC00C7FB0746B9451AD007B9294FE069B84238BF071CDBF80800804781462868016AE7
:200E1C00206A8847626A28681F49059B521C6262C6683846B047DBF80C1048468847A768C9
:200E3C00296860691431AFB9D8F800000A270026835B33B10969606988472968D8F800003B
:200E5C0014317F1E06F10206F2D107E09423002023240100096988472968143109684FF005
:200E7C00FF3088472DE7C0469527010095310100CC1E0020B4050020FC2E0020341A00201F
:200E9C00A81200200E2F0020CD140100385401008EC2F5289C2E0020DFF800F0B992011016
:200EBC00DFF800F0C9790110DFF800F059880110DFF800F0D9750110DFF800F07D81011047
:200EDC00DFF800F0518B0110B0B544688068006811F024FD3F49012201F118031A60A8B134
:200EFC00237AFF2B12D010F0140F01D0020901D3277A4FB9C00804D304200860022012F062
:200F1C00F5FDFF2020725FE0FF203DE0207A00285AD0314B401E19D0401E02D0FD3853D060
:200F3C004FE01D68D4F8B4000570D4F8B870D4F8B400401CC4F8B400781EC4F8B800D4F8D6
:200F5C00B87007B3012F39D909221FE0D4F8B000401EC4F8B000D4F8B070E7B9D4F8B87061
:200F7C008FB10220D4F8A8202072127C0B1F012F4FEA420242F001021A6099BF0321596084
:200F9C000B220A6004E00020207204220A60022012F0ACFDB0BDD4F8AC0000781860D4F80A
:200FBC00AC00022F00F10100C4F8AC00EED2D4F8B870002FEAD100202072052243F8042CFC
:200FDC00E5E7FF202072B0BD04F12C0012F0DBFDB0BDC046042800400828004040680021F8
:040FFC0001747047C5
:20100000B41200001810000075E60000FDB301106DC00110FDAE011099B50110000000006D
:08102000000000002D0000009B
:20102800B01200003C100000B1C00110A9BF011067C0011069B80110000000000000000035
:041048003000000074
:20104C00B012000060100000BDC00110CDB30110D9BD01106DB3011000000000000000005B
:04106C00310000004F
:2010700000000000AC23002004000000000000000000000020000000E8C90110300000005B
:2010900028100000B42300200400000000000000000000000C000000D8CA01101800000036
:2010B0004C100000BC23002004000000000000000000000024000000F0CA011018000000BA
:2010D00000000000C42300200400000000000000000000001000000018CA01102C000000C6
:2010F00000100000D4230020040000000000000000000000200000006CCA0110240000002A
:20111000FFFFFFFFDC2300200400000000000000000000002800000090CA011024000000E9
:20113000FFFFFFFFE42300200400000000000000000000001400000008CB01101800000068
:20115000FFFFFFFFEC23002004000000000000000000000058000000B4C901103400000036
:20117000FFFFFFFFF42300200400000000000000000000001000000020CB01101800000004
:20119000FFFFFFFFFC2300200400000000000000000000001C000000B4CA01102400000031
:2011B000FFFFFFFF042400200400000000000000000000003800000044CA01102800000058
:2011D000FFFFFFFF0C2400200400000000000000000000005400000078C901103C000000CD
:0811F00001000000605701003E
:0411F80001000000F2
:0411FC0000000E00E1
:0412000000000F00DB
:0412040032000000B4
:0412080001000000E1
:04120C00A8220020F4
:0412100000020000D8
:0412140000000000D6
:0412180001C90110F7
:04121C0000000000CE
:0412200000000000CA
:0412240008000000BE
:0412280000002200A0
:04122C000820002076
:0412300000000000BA
:0412340000000000B6
:0412380008000000AA
:04123C001C22002050
:0412400000000000AA
:0412440000000000A6
:04124800080000009A
:04124C00000000009E
:04125000000000009A
:041254000000000096
:041258000000000092
:04125C00010000008D
:04126000D02000207A
:041264000600000080
:041268000100000081
:04126C00801E0020C0
:04127000000000007A
:041274000000000076
:041278000002000070
:04127C00000000006E
:02128000290043
:02128200010069
:02128400250043
:02128600300036
:02128800310033
:02128A002D0035
:02128C0001005F
:01128E00015E
:0812900003000000D456010028
:0812980000000000000000004E
:0412A0000000010049
:0412A4000000030043
:0412A80013C401105A
:0412AC0049330100C1
:0412B000B812000070
:0412B400B81200006C
:0412B8000000000032
:0412BC007423002077
:0412C000773501007D
:0412C4002000000006
:0412C80020560100AB
:0412CC00B054010019
:0412D00029C101101F
:0412D400EB3B0100EF
:0412D800ED3B0100E9
:0412DC00A1C7011095
:0412E000A3C701108F
:0412E4000000000006
:0412E800B9510100F7
:0412EC00205201008B
:0412F000385201006F
:0412F400085201009B
:0212F8000200F2
:0212FA000900E9
:0212FC000100EF
:0212FE000000EE
:0113000001EB
:0413040005350100AA
:04130800E5150100E6
:04130C00252801008F
:04131000311A01008D
:041314001D160100A1
:04131800A9F6000032
:04131C0059BC0000B8
:041320001D38010073
:04132400F5E10000EF
:0413280015C70110D4
:04132C0025C70110C0
:201330002DE9F04FD74C211D2046ADF19C0D0DF083FD04F120060021304612F095FFD24D56
:2013500010201F220623A660294605F0BBFB0020ADF81E004FF47A79ADF8269082468DF802
:201370002FA00221ADF824A0502015900DF11E02ADF820004FF44870ADF8220040F20630E0
:2013900003F018F84FF44270132104F13D0203F011F840F20730112104F12C0203F00AF82E
:2013B0004FF4447001210DF12F0203F003F840F21130022108AA02F0FDFF40F2123002211A
:2013D0000DF1220202F0F6FF40F21330022109AA02F0F0FF4FF4457002210DF1260202F095
:2013F000E9FF04F1500052461523A8490090102005F068FB294610200622A02305F062FBFB
:20141000294610200722A02305F05CFB2946102001221E2305F056FB294610200822A02310
:2014300005F050FB294610200922A02305F04AFB01208DF830008DF831000CAE8DF832A0F8
:2014500003468DF834A04FF48062914D00961F4610208DF83370294605F034FB0DF13100C2
:201470002946009040F202423B46102005F02AFB0DF13200294640F203423B4600901020C5
:2014900005F020FB0DF13300294640F206423B460090102005F016FB0DA829464FF483627F
:2014B0003B460090102005F00DFB7A4910204FF0FF3205F007FB1020774B00907749784A80
:2014D0000193092305F0FEFA76494FF0FF32102005F0F8FA744D2878800012F048FB01469C
:2014F00072484161002900F0A5804FF6FF700EF05FF92878800012F03AFB01466B480029BE
:20151000816100F097804FF6FF700EF051F92878800012F02CFB014664480029C16100F05F
:2015300089804FF6FF700EF043F92878800012F01EFB01465D48002901627BD04FF6FF70F2
:201550000EF036F92878800012F011FB01465748002941626ED04FF6FF700EF029F92878BC
:20157000800012F004FB014650480029816261D04FF6FF700EF01CF92878800012F0F7FAE4
:2015900001464A480029016354D04FF6FF700EF00FF92878800012F0EAFA014643480029F6
:2015B000816347D04FF6FF700EF002F92878800012F0DDFA01463D48002901643AD04FF6D1
:2015D000FF700EF0F5F82878800012F0D0FA01463648816471B34FF6FF700EF0E9F82878B4
:2015F000800012F0C4FA01463048016511B34FF6FF700EF0DDF82878800012F0B8FA014610
:201610002A484165B1B14FF6FF700EF0D1F82878800012F0ACFA01462448816551B14FF61D
:20163000FF700EF0C5F82148214B352110225C3010F014FE2878800012F099FA1B4A014614
:201650005C328B4814920029C16056D04FF6FF700EF0AEF82878800012F089FA01468448F3
:201670000029016149D04FF6FF700EF0A1F82878800012F07CFA01467D48002941613CD0F0
:2016900018E0C046D8080020C518010089C60000E54F000029270100BC5601006D220100E7
:2016B000F8180020792A0100694F0020080200209C4E01004FF6FF700EF07AF82878800015
:2016D00012F055FA01466A488161B1B14FF6FF700EF06EF82878800012F049FA01466448FC
:2016F000C16151B14FF6FF700EF062F86048614B15211022203010F0B1FD2878800012F0CE
:2017100036FA5B4A014620325B4822920029C16047D04FF6FF700EF04BF82878800012F07C
:2017300026FA01465448002901613AD04FF6FF700EF03EF82878800012F019FA01464E4807
:20175000416171B34FF6FF700EF032F82878800012F00DFA01464848816111B34FF6FF707D
:201770000EF026F82878800012F001FA01464248C161B1B14FF6FF700EF01AF828788000E7
:2017900012F0F5F901463C48416251B14FF6FF700EF00EF83848394B19211022283010F059
:2017B0005DFD37490846344E4F78007806F128011C91CFB9324A21460C31516210F046FCC6
:2017D00002462F4F2E482F49CDF800A03E463D464830019007F15800029006F12000039044
:2017F000AB78102005F06EF9274922461020183205F068F92046007810F028FC23490246CC
:20181000102005F05FF92046007810F01FFC20490246102005F056F91E49102005F052F946
:201830001D4C0120207009F0A3F91C49504606F07FFE1B4950460FF065FA50460DF030FE62
:2018500002200E9020700EF0A1FC174D154A174805F10801116005F11401016005F1200079
:2018700011F0AAFE01202F7885F8280017BB1FE01C140020645301006C0F00203C50010041
:20189000B805002033FB0000452D01005188011031810110C5AB001027240020000003031C
:2018B000F9CF0000BC210020341E00204011002011F09AF80320D94F207007F11405284683
:2018D00011F0C0FCDFF85883D8F8000007F134064FF4FA712B463246B9FBF0F080B24143A6
:2018F000491EDC48796012F0BBFCDB4D07F1080238607968EA6012F0AFFC51462422082319
:20191000304612F0A5FC5046A7F84400C5484FF0040B7E6884F800B05146BE64CF4EF96485
:2019300011F090FCD8F8000006F138074946B9FBF0F080B24143491EB160C948B94B3A461E
:2019500012F08EFC06F10C0170602422082329613846514612F07CFC57465046A6F8480074
:20197000B16837657068F16412F076FCB168706812F02DF905202070CA48BA4E11F062FCBA
:20199000D8F80000C74BC84A4F4640F2DC51B7FBF0F080B24143491EB348716012F060FC76
:2019B000B249306006F108000860BF4824220823514612F04DFC06202070BC485346B36461
:2019D0005246A6F844205146F164A94E11F03AFCD8F80000B54BB64A4FF49671B7FBF0F097
:2019F00080B24143491EA348716012F039FCDFF888923060AE4806F1080124220823C9F81E
:201A10000810514612F024FC50465346A6F844007168F3643068B16412F01EFC716830686A
:201A300012F0D5F807202070A248944E11F00AFCD8F800009F4BA04A4FF49651B7FBF0F0DD
:201A500080B24143491E8E48716012F009FC306006F10800C9F80C00974851462422082368
:201A700012F0F6FB50465346A6F844007168F3643068B16412F0F0FB7168306812F0A7F876
:201A90000820804E20708D4811F0DCFBD8F800008A4B8B4AB7FBF0F080B2010101EB801146
:201AB000491E7948716012F0DBFB784A3060844806F10801082311625146242212F0C8FBE7
:201AD00050465346A6F840007168B3643068716412F0C2FB7168306812F079F80920207030
:201AF00078486B4E11F0AEFBD8F80000754B47F23051B7FBF0F006F1300780B23A46414373
:201B1000491E6448716012F0ABFB634930602422082306F1080008605146384612F098FB6B
:201B30000A272770504670645346A6F84030B0640EF0CCFA5549594E06F10C004862301DA5
:201B500011F062FF0B202070012030720EF0BEFA4E49534E06F10C008862301D11F054FF19
:201B70000C202070012030720EF0B0FFE54E06F10800686106F1180011F0B0FA514686F85F
:201B90002D10534686F82E3001202B70024632760146F1610D2323704FF4E1327076DA491C
:201BB0003263DA4CB162DA49746203465246CB70D84C2A620E46D849EA61334606F1100042
:201BD000206103F11400886084200FF076FF05F128018422686009F08FFB08200FF06DFFC9
:201BF000FF260446AC6150462071384666710FF064FF696920600868804728690068804732
:201C1000C3482030A86011F0E9FB11F08AFBDA48D84C99F80070606687B905E0D41B0020A5
:201C30005C570100381B00204D46A86800688047E868006880470121606E2970CF4A5146E3
:201C500031F0100740D04B0838BF0E9B3DD382F800B03BE0AB3B010088190020201B0020E1
:201C7000693601002C1C00208DD70000F0220020841C0020AF3B0100C0220020DC1C0020F1
:201C9000B33B01008C1D0020B73B0100581F0020E01D0020BB3B0100BC2E0020782200201A
:201CB00090220020401C0020601C0020981C0020B81C0020F01C0020101D00209C1D002010
:201CD000BC1D0020F01D002001231370491C521C1129B5DB418804F1960B038890F90620F1
:201CF000109104F1FC0804F1740604F185051127CDF83CB004F1B80A119390F907101292C4
:201D100004F1DA09139100200F9B2BF8020B188840000FF043FC94490AF068FE914909F00F
:201D3000E1FD0FF003FC91A20CCA06F01BFE08F0C5FD0DF08DFC119B2AF8020B129A28F8B8
:201D5000023B139906F8012B109805F8011B7F1E29F8020BD7D140F2DC5027273D3845F2D4
:201D7000E526C4F8440147F29535C4F8487145F69943C4F84C6148F2DE12C4F8505146F290
:201D90000241C4F8543148F61F57C4F8582149F22F70C4F85C1146F67276C4F8607146F6D6
:201DB000C031C4F8641149F6C065C4F8680147F25573C4F86C614AF2CF72C4F8705147F6A7
:201DD000F760C4F874314BF2D236C4F8782148F2B565C4F87C014BF64273C4F880614CF63F
:201DF0009F22C4F8845107F1EF00C4F8883149F2FA46C4F88C014DF20E55C4F8902100232F
:201E1000C4F894611F46C4F898513A46C4F89C313E46C4F8A0713D46C4F8A4210127C4F8B5
:201E3000A8613A46E281C4F8AC510E99C4F8B0318946C4F8B491C4F8B871C4F8BC91304675
:201E5000C4F8C0010CF0A0F9606DC4F82401266DC4F8286184F83D510DF06AFB84F83E01B3
:201E70000DF016FAA4F83A01284684F83C0107F079FE84F83F010EF0A9FE84F840014CF27D
:201E90005030A4F838010DF029FA0746C4F83471002F08BF281C19D094F83F0110F084FCA0
:201EB00091490AF0A3FD0FF041FB90A20CCA06F059FD06460D46384610F066FE0B460246F5
:201ED0002946304605F081FE0DF0E8FDC4F82C010AF0FEF9C4F830010CF028F984F8410115
:201EF000607810F013FAE378DFF80882824D834FDFF81CA0824EA0780BB905280EDB012B0F
:201F10000ED011E0941F002017CF0000117D00005C210020080200206C0F00200121E170C6
:201F30000828C4BF0020E0702079011C28D0491E0DD0491E18BF70702FD164244FF47A53C6
:201F500040F2DC5240F297214846159406E001204FF4485340F6CA024FF4F0717070159CD4
:201F700017E0C04600007042DB0F494052B81E85EB512440E80B002080230020D4220020F6
:201F90000020412442F6A00340F6B83270704FF4877173833472B283F18306F1300206F131
:201FB0003601032440F2523322F8023B641E21F8023BF7D10AF11C01F162316AE870012086
:201FD0000968F0718847706A00688047B06A006880470AF11800C8F80C0011F05BFCDFF8F0
:201FF000CC828AF80000012871D1AE4C2188F8680026ADF810104A460DF1350340688DF8B5
:20201000356004A9844600964920E047012878711BD16188F8683246ADF82A1040688DF8B3
:2020300036600DF136038DF82B201146044600914A4649200DF12A01A04778710120F87046
:2020500034463C7142F6E063FB80974C2188E869ADF8101040684A46334604A90746009670
:202070003C20B8476288E969ADF810204968287233463C204A460F46009604A9B847E28833
:20209000E969ADF810204968287233463C204A460C46009604A9A0472872FF2068720746FD
:2020B000AF723E46EE723C462C733B466B733A462A74CF2169742F759AF80000EE740128DF
:2020D000AC734FF001036B751946A9751AD038B9002701214046B9460E914E46467014E0AB
:2020F0004046417813E0C0460070AD48CDCCCCCCCCCCEC3FE822002024110020B0210020CF
:20211000581F002040464946417081704946B84AB84E927BA971002103278AF8012034463B
:20213000C17033468AF80370B21C0E92374604F10B0231460F9203F14C02109207F14402C9
:20215000119206F13C02DFF8DCB2DFF8DC92DFF8DC82129204F13402139203F12C02B44F1F
:20217000159201F109021692F21D1792621CB74E18925A1D1992CA1C34461A92334606F180
:2021900020021B923146221DB74C1D92DA1C1E928A1C1F922346721C07F110012092E21C4B
:2021B00021922646CAF808109A1C2392721C24920023EB711F460771221D25929C48406889
:2021D00000214FF040424FF0FF33FEF7DFF9071CF4D0002006900DF12E0106AA07A80FF0A7
:2021F00053FC00286CD1BDF81CC00126BCF1100F61D18F489DF82E10007888425BD1069CAB
:2022100020884FF6FF71814255D02578913D29D01F3D50D16078162818BF002305D130462C
:2022300010F070F9B44833460460814845699BB165B94FF6FD70B749B74A009000231020D5
:2022500004F040FC7A494D69C3B22BB9784845F00205002645612EE021790834204611F059
:20227000F3FF28E065780E3D02D0AD1E20D022E0A08842F2030181421DD1A1680D78D5B970
:20229000491C04A80A684968026004AD41602878B84904AA00F0FD002870102004F012FC40
:2022B00009E0C04630570100BC4F01005C22002008200BF0C5FF069810B10EB111F019FCD2
:2022D000F80FFFF47BAF5A48806811F0B9FF00287FF474AF56488468204611F0ADFF844266
:2022F00008BF002402D084680FF0E0F9002CEAD04F4920884969401E00F09C81C01E00F03C
:202310009581001F00F08381083800F06181103840F093816068427806788778C17841F677
:202330000F0506EB0226001D761B00F00E81B61E00F0B48045F6EF72B61A40F077810C2F6C
:2023500000F27481DFE807F09D9284766358493E33281D1207C0012940F0688100780E99AA
:2023700008702448CDF80080406D94E0022940F05D8100880F9908801E48CDF80080806D7A
:2023900089E0042940F052810068109908601948CDF80080006D7EE0042940F0478100681D
:2023B000119908601348CDF80080806C73E0042940F03C810068129908600E48CDF80080EC
:2023D000006C68E0042940F031810068139908600848CDF80080806B5DE0042940F02681ED
:2023F0000068159908609948CDF80080006B52E0B805002008020020022940F0178100880A
:20241000169908809148CDF80080806A43E0022940F00C810088179908808C48CDF8008089
:20243000406A38E01D980000718A000049620000D8080020012940F0F980007818990870FB
:202450008248CDF80080006A25E0C0466C0F0020012940F0EB8001787C480170CDF8008095
:202470007A49C06917E0C0461C140020022940F0DD800088199908807448CDF800808069AF
:2024900009E0022940F0D28000881A9908806F48CDF800804069149A352396E0002F48D06B
:2024B0007F1E3BD07F1E29D07F1E1AD07F1E0DD07F1E40F0BB80042940F0B88000681B9914
:2024D00008606348CDF80090406A3BE0012940F0AD8000781D9908705D48CDF80090C0696F
:2024F00030E0012940F0A28000781E9908705848CDF80090806925E0DC2E0020012940F032
:20251000958000781F9908705148CDF80090406918E0C04615E50000D5300100012940F0FF
:2025300085800078209908704948CDF80090006908E001297AD1017845480170CDF8009065
:202550004349C0681C9A19233FE0002F32D07F1E26D07F1E1AD07F1E0ED07F1E66D10129E2
:2025700064D10078219908703A48CDF800B0C06929E0C04695B40010012957D1007823995E
:2025900008703448CDF800B080691CE001294DD10078249908702F48CDF800B0406912E061
:2025B000022943D10088259908802A48CDF800B0006908E0012939D1017826480170CDF875
:2025D00000B02449C068229A152309F065FA2DE088082BD32048076847B3788839790837FD
:2025F0003A4611F025FE0746162F03D0042F01D00FF088FF19484669C7B936F002064661D3
:2026100014D1174A17494FF6FD7001230AE040F252300AA9443805F03FFD0023BDF8282010
:20263000094808490090102004F04CFA60680FF03DF802E0A0780BF01DFD20460FF036F850
:2026500041E6C046FD1A010040E20100080200206C0F00201C140020DC2E0020D8080020C3
:20267000D530010015E500002DE9F84FDFF8BC13DFF8BC23DFF8BC5308700821002010607A
:202690000D23DFF8B40340F23732017043808280DFF8A8030560AC7EDFF8A4030470FF2C6D
:2026B000E97E417008BFFF292A7F82706B7FC370AE7F0671ED7F457115D1FF2A08BFFF2B85
:2026D00011D1FF2E08BFFF2D0DD1DFF878130A7802704B7843708A788270CB78C3700A7951
:2026F000027149794171DFF860130278DFF85C83DFF85C93DFF85C730A70FF2543784B70E9
:2027100082788A70C378CB7002790A714079487188F8005088F8015088F8025088F8035091
:2027300088F8045088F805500020CB490880D9F83440CA49607808702278C9493A70A0780E
:202750000870A2681079C74A411E1170E078C649C64A0870E068106008B910F0CBFB2069B6
:20277000C34E306008B910F0C5FB3068DFF804A301688847326852F8041F50468847BE4867
:20279000BE49CAF82000CAF824106069BC49086008B910F0AFFBA069BA49086008B910F074
:2027B000A9FBE069B849086008B910F0A3FBDFF8DCB2B74C9BF8040010F0A6FF0028206008
:2027D00075D09BF80500B34E10F09EFF002830606DD09BF80600DFF8C0A210F095FF0028EB
:2027F000CAF8000063D09BF8070010F08DFFAB49002808605BD039789BF80000891C48438B
:2028100080B210F081FFA649002888604FD03878002862D0BBF80210484380B210F074FFD9
:20283000A04A0028506042D0387810F06DFF9E49002808603BD03878400010F065FF9B49DE
:202850000028086033D038781821484310F05CFF974A106058B33878400110F055FF954987
:20287000086020B33878000110F04EFF92490860E8B13878000110F047FF90490860B0B19A
:2028900038783021484310F03FFF8D4A106070B18C4839780078484310F036FF8A4A1060F5
:2028B00028B1387810F030FF8849086018B9BDE8F14F06F047BA4FF0000B09E010F0E4FE55
:2028D0000021418081600180022303710BF1010B39785FFA8BF08842F0D32268694F01208E
:2028F000107121680D732068457321688D732068C57321680D74002120684574002022689F
:20291000D172A0222168487103212068C2800172072022685072002120688172282120681F
:2029300001224182C2760020216848770022206880F85E200121226811770120216881F80A
:202950005D0001223068027131680D733068457331688D733068C57331680D740021306837
:20297000457400203268D172002231684871306882724FF420703168C88008818A74012134
:202990003368D974DAF800201573DAF800104D73DAF800209573DAF80010CD73DAF8002015
:2029B00015740022DAF800104D740121DAF80030DA720023DAF800201171DAF800104B7114
:2029D000DAF80010C88008818B720520DAF800209374DAF800103E4AC87410688047396893
:2029F000054608688047396851F8042F00209047D9F80C101C4B0A881878364902430A806D
:202A10002846354A136898470C21344811F00CFC404611F005FC11F0FFFBBDE8F44F0348F7
:202A300000784FF4005107F059BB00BF6E4F0020044F0020B63F0050604E0020084F0020D6
:202A50002C4E0020E81200503C4E0020344E00206C5701007B4F00200C4F00206D4F002031
:202A70006B4F0020724F00206C4F0020F04E0020F44E00207C4B0020193701003937010047
:202A9000F84E0020FC4E0020E02E002068230020104F0020144F0020184F00201C4F002069
:202AB000A82E0020684E0020004F0020E42E0020804E0020844E0020884E00208C4E0020C9
:202AD000904E002052240020E82E0020EC2E0020BC170020544F0020C0170020F84D0020D0
:202AF0002DE9FE4FBA48BF4CBF49BD4EBB4F00684FF00A0B04F120054FF000084FF00109D3
:202B1000A5F108020092B1FBF0F00190788840082AD27078022827D1AC200CF06FF8AE200B
:202B30000CF06CF80FF050FFB0600FF04DFF014642467079F160B1F5FA7F38BF4A46AB49D9
:202B500002238C460A5442461CF8011B5B1E1144CAB2F9D1401C3270C0B20228D4BF707136
:202B700086F805800FF0E2FC7868BE494EF6602200F5967009787860B0FBF2F2914209D227
:202B9000B848491C4A46B74B0170042141F611000CF016FD2078217C884206D03C2814BF35
:202BB000CF219F216174207400E0617CA27CE07C8A4202D1227D824253D001283DD0022830
:202BD00034D003282FD0042826D0052821D0062818D0072813D008280ED0092809D00A2805
:202BF00004D00B2834D1D5F88C2021E0D5F88C2014E0D5F88C2022E0D5F8982018E0D5F80D
:202C100098201CE0D5F8942007209047D5F8F82019E0D5F8942012E0D5F8942007209047A1
:202C3000D5F8F0200FE0D5F8942001E0D5F8902007209047D5F8E82005E0D5F8902007207D
:202C50009047D5F8E020617C07209047617CE07CFF2805D0E869024607209047E07C617CE0
:202C70002075A379607A834202D1A07C884218D053B1012B06D068694146024607209047AF
:202C9000617C07E0686906E0686941460246072090474146A869024607209047A079617C37
:202CB0006072E378207B834202D1A07C88420CD023B1012B14BF6868A86800E0E8680246B7
:202CD00007209047E078617C20732379E07A834202D1A07C884208D0002B0CBFA86B686BF6
:202CF0000246072090472079E072B7F802A0009940F21A3005F0D0F9207E062823D0072881
:202D100021D002281BD1022060715FEA5A0014D3A37D617C012B08D053BB286941460246B0
:202D30000720904784F8169005E0286902460720904784F81680617C1AE0022006E084F83A
:202D50000580404602E084F805904846A27A617C904202D1A27C8A420AD0012801D030B992
:202D7000414628690246072090476079617CA072A378B3B97888400813D3627D012A09D085
:202D9000002A3BD1D5F8842007204146904784F8159031E0D5F884200720904784F8158045
:202DB0002AE0A07B834202D1A07C884226D0012B1ED0022B0ED0032B07D0042B03D0052B0E
:202DD0001CD1686F02E0A86F00E0E86F024611E05C570100D5F880200CE0C046AC0D0020CA
:202DF0005C22002024110020E093040062220020D5F8842007209047617CA378227D6078D7
:202E1000A373FF2A40D1627B904202D1A27C8A423AD090FBFBF390FBFBF202FB0BF2A0EB66
:202E3000020A0BBB072041460BF098FD072041460BF06AFD072041460AF0DAFF0720414633
:202E50000BF0E4FC072041460BF00AFD072041460AF0A0FF072041460BF02CFD0FF0AEFA17
:202E700008E0C0465A24002005EB8300D0F88C200720904705EB8A00D0F8B420617C0720B7
:202E900090476078617C6073E379E07B834202D1A07C884209D003B9414668690246072032
:202EB0009047E079E073637CA374019811F0B0F97888401C788029E62DE9F84FC04CA17861
:202ED000FF2904BF002010F015F8A07810F0C2FA044604F1680504F190062968086810B1FD
:202EF0000021E1830CE0A87B002804BFA97E002906D13078002801BF207F0128608CE08375
:202F10002189E08B4118491C6181204611F07CF901281EBFAB480178012904D121890020D5
:202F3000491CE08361814FF6FF77A87E01280DD1AA8B6189208911F063F938B1218960894E
:202F50004A1C93B298421BD0A88B0FE03078012816D172886189208911F052F980B1218963
:202F700060894A1C93B298420AD0708892B2904206D03818608180B211F03EF93F18E783B9
:202F900004F5967999F8040020B120890021401CE183608104F12E07A87E012811D1218943
:202FB000A88B4B1C9BB298420BD1608111F024F98046B988288C01FB080820460AF084F8C2
:202FD00001E0B7F80480B4F81EC022687E4ED2F80CE00CF1010000FB08F340F6C41000FB3E
:202FF00003F18E44C2F80CE03668DFF8E0E13678BEF80080764AB609032E11D1D67BF6075B
:2030100048BF4FF000080BD408F101081FFA88F6012E12BF668AB9F8066006F2DC5600E0C9
:20303000668A5E434FF4C87AB6FBFAF6761C6661AEF80080A3614FF0180894F806A084F839
:2030500020C008FB0AFADFF88CC1DCF800E023680EF1080656F80AB0C3F810B094F806A054
:2030700008FB0AFACDF800A0D3F80CB0D4F814A0ABEB0A0ADDF800B046F80BA094F806A083
:2030900008FB0AFA56F80A609E600EF10C06A37908FB03F30EF10C0EF65C06F0F00646F0B0
:2030B00002060EF803604FF0000ADCF800E0A6790EF1020308FB06F623F806A0464BA679FF
:2030D0001B68760103F1140AD4F814B05AF806A00AEB4B0A03F1140B4BF806A0AD7E022DAC
:2030F0000BD1A5796D0103F1140697F800B056F805A000FB0BAA46F805A0BD88D27BA779D3
:20311000D60736D508FB07F70EF10802D659A6F5A86A0EF1080646F807A0A77908FB07F7BE
:20313000D2592768511A3961BA6003F11402A1794901575807F5F667575003F11401A27965
:2031500052018958C9F800106843244AA179156B03EB41162968401AA0F51670F0612049A2
:20317000A07903EB40100B78012B14D10121C17214E003F114027F01D1592A464243A1F5CC
:20319000E661A2F516729142DED30821204611F02FF8012011E0916A4A78C272A179DCF88D
:2031B000000008FB01F281182268516007200D490870204609F0D0FC0020BDE8F28F00BF10
:2031D000684E0020784F0020084F0020042F00205C4D0020804E0020844E00206C570100EB
:2031F000734F00206F4F00202DE9F84F0C46E00788B00BD510F058FA28B100218160B34829
:20321000006800B1804784F001005CE1A0070FD500210023069105910491039302910191C0
:20323000009101223C2010F0DFFF84F002004AE11D256007A64EA74F40F18A800021079168
:203250008B46A5488178FF2904BF00200FF052FE386890F8A00010F0FDF880463868C07AF0
:2032700098F82691022818BF032808F5907A06D106F10D0010F0B4FF08B906F1070B5146D5
:20329000484610F0A9FF88B33868807A002818BF012804D13146504610F09AFF04E05246F4
:2032B0004946304610F090FFFF2834D005FB00F906EB090506225146E81D0FF087FF16F8F0
:2032D0000900396840F00209E81D07900622887E00F0010088F8260105F1010A386800F105
:2032F000140108F590700FF071FF14E05146484610F066FF78B152464946304610F064FF96
:20331000FF2808D006F10D014543481910F068FF08B949F0020908F12C004B46017806917E
:203330004289120905920122B8F822100491C0880799029140080390CDF804B0CDF800A032
:20335000002098F8061010F04FFF84F00400BAE020060FD500210023069105910491039391
:2033700002910191009101223B2010F03DFF84F08000A8E0E0044BD5F11D06F10D0010F03B
:203390001BFF3868017A012918BF042931D1C17A02291EBF0329817E01292AD1817E00F135
:2033B0001402304610F010FFFF2811D04543354405F10D0010F014FF50B9E91D05F10D0031
:2033D00010F0FAFE38680622E91D14300FF0FEFE3868C07A022818BF03280AD106F10D00F3
:2033F00010F0FEFE28B938680622F11D0C300FF0EDFE3A4842683A4800784FF480510CF0AE
:203410002BFB10B18E2009F0F9F984F480505AE0A00505D510F001FA324901200860FEE737
:20343000600504D506F0C9FA84F480604BE0600405D5812009F0E2F984F4804043E0A1044F
:2034500040D5294D286810B100200FF053FD274E4FF0FF30286010F0ABFE3168244D51F8AA
:20347000202F684690472349234B486A8A6A009001920293C86A0268086A0392ADF81000D8
:203490000A6B1178002904BF5068002805D19068002804BFD068002806D02970506868604A
:2034B0009168A960D068E86029463568134A2E6813486B46B0471349086003F067FD84F4E5
:2034D000005000E0002009B0BDE8F08F204F0020AC450020104F0020684E0020784E0020D4
:2034F0006E4F0020FC002043044F0020F04E002068450020D01F0020A93601002C4D00205A
:20351000B02D0020EC4E0020BB482DE9F84F0025BA4CB849056094F8E200002800F06581E7
:20353000012800F02F81B64E02283CD0032840F05C8151F8250CD4F8B8100029A0F5C06054
:20355000C4F8D400B8BF49420028B8BF4042814226DA4FF08057D7F8A4014568B4F8BC0046
:2035700030214FF47F42082300903046A847D7F8A4014568B4F8C00004214FF4F8021223A2
:2035900000903046A847D7F8A401B4F8D070456820214FF440620A2330460097A8470125A4
:2035B00084F8D8501CE151F8258C10F036F92F4600B901273946934F38680028FCD0B146EF
:2035D000012609F10409D9F82CA03E6009B110F02AF9CAF30720C4F8BC0010F01EF9AA4632
:2035F00000B9B2463B68002BFCD0D9F800B0BAF1000F3E6001D010F016F9CBF38440C4F879
:20361000C00010F00AF9AA4600B9B2463B68002BFCD0D9F81C90BAF1000F3E6001D010F0F6
:2036300002F9C9F38120C4F8D000B8F5C061C4F8B81000F09C8094F8D80068B9C4F8D41013
:20365000D4F8C000C4F8C800D4F8BC70C4F8C470D4F8D030C4F8CC30D4F8D400D4F8BC3086
:20367000002854BF02226FF0010204F1C8010F6800EB40008018421000EB927207EBA200AC
:203690000860D4F8C810C4F8C43000291CDD1E293CDDD4F8CC0030B93429B4BF15391E21FE
:2036B000C4F8C81025E02A29BABFD4F8C8000B381E20C4F8C800D4F8C4003F28B4BF401C36
:2036D0003F20C4F8C4001FE0D4F8CC00032812D011F10B0FC6BFD4F8C8000B30301CC4F8DF
:2036F000C800D4F8C4000028C4BF401E051CC4F8C450032508E011F1150FC6BFD4F8C80019
:203710001530301CC4F8C800C4F8CC504FF08057D7F8A401B4F8C43030214FF47F42456880
:20373000374800930823A847D7F8A40104214FF400321123456832480096A847B4F8C8608B
:20375000D7F8A40104214FF4F802122345682C480096A847D7F8A40120214FF440620A23E1
:20377000B4F8CC60456826480096A84701E084F8D85040F2FF50404502D8801C40452FD23A
:20379000082030E051F8251C1F4F4BF2F5204843060A3868C0F3814001280CD11B48006817
:2037B000006880470DF026FB10F043F83111C010484306EBE03694F8E50030B914480068AF
:2037D00020F07F403618760801E084F8E5501148310C0660012741600F4D8760287808B943
:2037F0000B2000E0052084F8E40003F03FFABDE8F88FC0462D400C402C500C40A016002074
:2038100000A00C4000800C40B43F0050EC010010102009403C600C40D95501002DE9FE4FAD
:2038300004200EF04AF9012704462E202070032167700220A07020460FF064F8B54AD3689B
:20385000E0700FF033FC20B9204604210BF05CFC0DE018688047204604210BF055FCAD4823
:20387000AC494069C9698268086809799047A64C606A4068014668468847A06ABDF80020AE
:20389000A179406804EB410301461A8604F10A008847A079A179B4F80AC0401C04EB410237
:2038B000C1B2A2F836C00329A8BF00210025032620462B462E30A17130F8022FC188761E76
:2038D0002A44194495B28BB2F6D1904E032095FBF0F1B3F5166F327DE18293FBF0F0354628
:2038F000208304DAE7700C2AA4BF0B23EB7440F6C418804504DAE7700C2AA4BF0B23EB7488
:20391000A8F19609814507DB40F25233834208DDB0F5487F05DB03E04346834201DB4B466C
:203930002383667AB1F5487F01DB012E19D1677220793E4680B940F2523363450CDB0E20EC
:20395000A07027710026667009F0CAF866726378E18A2A7D2079EB700A2AC4BF0A23EB74FC
:2039700000E02079B1F5487F01DB012E17D16389677280B940F252369E420CDB0E20A070A1
:2039900027710026667009F0ABF866726378E18A2A7D2079EB700A2AC4BF0A22EA744A465D
:2039B0008A4207DB40F252328A4208DDB1F5487F05DB02E043468B4201DBE2821146A1F233
:2039D00052310F2291FBF2F18DB26582A68A002863D1B4F80CB0B4F80E80012E0FF22019F7
:2039F00016D158460EF004FB8A46019040460EF0FFFA99E80C0004F0B5FF024601980B46F0
:203A1000514608F030FD03D8B8F1000F16D017E00EB9062D17DA58460EF0EAFA83468A4666
:203A300040460EF0E5FA99E80C0004F09BFF0B4602465146584608F0D3FC01D2062D2CDB56
:203A5000012E03D02BE0A782A4F80EB004200EF034F805463E20287003216F702846AF70A7
:203A70000EF050FF2B49CA68E8700FF01FFB20B9284604210BF048FB0DE01068804728468E
:203A900004210BF041FB234822494069C9698268086809799047A68A01E00026A682218B4B
:203AB000E5780F20A1F2523191FBF0F080B2A0814DB9012E07D0217A05264843C00090FBED
:203AD000F6F081B200E00021E06A2182A2780368E08B9847207801280FD13946631C41F62A
:203AF00011000A460BF06CFD094B41F6110003213A460BF065FD00202070BDE8FE8FC0466C
:203B1000333333333333D33F581F0020241100205D220020881900202DE9F84FB34D6968D7
:203B300084B0019121B905B0BDE8F04F10F03CBB0978DFF8BC82AF4EDFF8BC92DFF8BCA258
:203B500001291CBF0229042946F2A81741F64C5B05D0402918BF802900F096803CE10FF043
:203B700005FF0028FAD00198007804F0C3FB0090446814B900200FF0BDF99AF801000028E3
:203B90005CD000F043F90FF065FC02900168009801914F6809F04EFC022825D000990A7804
:203BB000012ADBD196490A68137A19F80310317018B910F0F5FA5844A0602069C17E01F066
:203BD000EF01C1762069C17E41F08001C1762069C17E01F0F00141F00201C1762269B9683C
:203BF00088484118D1614BE001980178802911D10820854930700A78012A03D09AF80100E9
:203C1000022801DB38690CE0D8F828003A690178D1720DE07C49072030700A783869012AE3
:203C300002D10121C17203E0D8F828104A78C2720298817901988AF80210C8E00098002842
:203C50008CD00199009A0078914205D101281CBF00200FF04FF915E0012840F0BD806848FD
:203C700001680A7A19F80200307010F099FA3918A06810F091FA18B910F092FA5844A06024
:203C90000120A8700098A2E09AF8010000287AD000F0BCF80FF0DEFB04462068029047682D
:203CB0009AF802000FF0D6FB03900FF065FE10F0070F3DD0A87804F01DFB01904168019879
:203CD0000091029909F0B6FB022831D001990A78012A2AD14A490A68137A19F8031031703A
:203CF00028B910F05DFA83440098C0F808B000980069C17E01F0EF01C17600980069C17E15
:203D100041F08001C17600980069C17E01F0F00141F00201C176009AB9683A48411810690E
:203D3000C16101210198A97051E000200FF0E2F80398A04225D0029833490278802A12D1C4
:203D5000082030700978012903D09AF80100022803DB38690121C17210E0D8F828003A69F1
:203D70000178D1720AE0072030700978386901290EBF0122D8F828104A78C272A0798AF8F1
:203D90000200029823E00FF0F7FD10F0070F29D0A87804F0AFFA04462078D4F8048001285A
:203DB00020D117490868027A19F80210317010F0F7F93918D8F8080010F0EEF920B910F019
:203DD000EFF95844C8F808000120A870204605B0BDE8F04F06F040BA05B0BDE8F04F0020A6
:203DF0000FF088B805B0BDE8F08F00BFA82E00206C5701006F4F0020289A0110684E00209B
:203E1000104F0020F0D8FFFF734F00202DE9FE4FB24C617811B900200FF06CF810F0C0F92B
:203E30004FF00008074607F6C417C246AC4DDFF8B49228E050460FF00DFB06467079F0B16D
:203E50002968B07901F80800394608F101005FFA80F8304610F09CF930680178402902BF07
:203E700006F182000178012902BF41887289914205D1B169C088411830460DF041F90AF185
:203E900001005FFA80FA99F800008245D2DB6178884505D000200FF02DF8822010F074F96B
:203EB0006078012840F0F180002701E07F1CFFB299F80000874280F2E28038460FF0CAFA8D
:203ED000064670790028F1D02968B0790A7890421CBF00200FF00EF8B079FDE0286810F808
:203EF00009000FF0B7FA00684268DAF808109068814204BF3E4609F1010900F0D480D6E0FD
:203F1000286890F800B001224FF4C0710FE0636803F5AD76835C01FB03F901FB0BFE36F853
:203F300009C036F80E60B44538BF9B46521CFBB29A42ECDB4FF6FF7010F022F906465846C4
:203F50000FF088FA68490068D0F804A00868D94630F8192060684FF4C07300F10E0103FB1F
:203F700009F3C85AB2EBD00F52D2720840F6C4104243009200275D4A0190029217E0584650
:203F90000FF068FA01680A78802A03D1DAF81030009A5A610978402908D1029980790A6817
:203FB00002EB4011009800F5A060C8617F1C47452EDA2868C05D8345F8D001464FF4C073D4
:203FD000594363685A1803F5AD73D289595A53088B4202D2521A9045E8DA0FF03BFA016836
:203FF0004A68019B9168DAF808207008A1F6C41103FB002010F0D0F80028C0D03A48006804
:2040100030F81910491C20F81910286810F807B0296808780FF01EFA0026006847684FF4A2
:20403000C079464551DA2868805D0FF013FA0068296842688B5D606809FB03F3034403F180
:204050008201087830B15889B1F802C0401C80B2604508DA887B01280ED15889098A401C30
:2040700080B2884208DB6EB3B968906801F5C241A83110F091F828B3761CF6B2D1E70020CF
:204090000EF038FF822010F07FF86178286810F073F8286800780FF0DDF900260068D0F8BB
:2040B00004A04FF00109771CC145FFF617AFF6B2002E1CBFF8B200287FF422AF286890F8D0
:2040D00000B037E7296811F806B007490A6800205B4622F813005846BDE8FE8F684E00205C
:2040F000004F00207B4F0020E42E0020844E00202DE9FC47DFF8B8A20F460546F80B80F096
:204110000881A64EDFF88882B80F80F0BA80B80880F0AE803809C0F02F819B480178090953
:2041300080F0A180007830F07F0040F09C80684606F0AAFF012803D10098002800F093806E
:2041500092480078002840F08E8001240025E8B20FF03AF948B1837A3BB1847290F9090017
:2041700004FA00F0C0B20DF0ADF86D1C032DEED345464FF0030905F1AC0085F810900FF01F
:20419000E2FC844A0021884610681160824952F8080C05F1340042F8088C42460FF0E3FC04
:2041B0003068006B8047AA68A969801A000BC0F1FF328A422CBF01444FF0FF31A961287F5E
:2041D00020B1E868A969B1EBC02F1ED90EF0ECFB414600B12146081C14D0714840F6090195
:2041F000018041464180427B64F303024273027B61F30302027341600FF00EFA418811F457
:20421000406FFBD02C774146A9616649086820F0020040F400700860634A42F8049C41F2E9
:204230003006966014605023936014604FF4CA6696601460022042F80C4C44460C600DF070
:20425000B7FA112005F0AAFF287818B9686838300FF095FC687F18B16C7705200DF0A8FA3E
:20427000524868612C7409F07BFC27F0080783E004F056FE40467430006808B927F0020777
:204290007AE00FF068FC34468146606D0068014604208847C8B1287CB8B1404608300668EF
:2042B0009EB12068EC68006B8047801BE860010BE960A14202D209194908E96040F6C410DC
:2042D00088422CBFB1F5FA7FE86048460FF050FF0CF0DCFF90B1A8696FF4807100224FF0F8
:2042F000007304462846A04740466C300068002808BF47F0020701D009F032FC68690021F9
:204310004FF0806304460A462846A04727F0005732E00FF020FC51460E684EB306F12801B3
:2043300006C90A234FF0E0450B40154008BF002B1ED106F1280191E8300006F1280393E826
:20435000060006F12803AA43A14383E806000FF00FFFB16871B1002D08BF002C0AD0306908
:20437000B6F93C10B2682B4616462246B04701E00FF0FEFE27F4804727B1504639465030C1
:204390000FF005FCBDE8FC87062F0020F9250020602400201410044029D900008C010010A7
:2043B000742E0020000004600C410440DD9D0000E02400202DE9FC41A0F201371446884653
:2043D000022F40F234819C4E9D499E4A3F1F0F2F04D9143F4CD0BF1E1CD011E0DFE817F08D
:2043F000D000CA000E01FB00C200BA002701B000A800100010009E00900081007400660064
:204410002D2880F21481B8F1020F40F010818949238808E1B8F1010F40F00981F07801284B
:2044300000F00581324620781179107189B9002800F0FD805078012800F0B680042800F0D1
:20445000B380062800F0B080052800F0AD80BDE8FC812078002840F0EA805078032800F022
:20447000B080072800F0AD80052840F0E080A8E0B8F1010F40F0DB802078012840F0D780DF
:2044900006F1F0000FF0F0F8002840F0D0803446002004F13E0107F05FFF002840F0C780D4
:2044B00004F1CC000FF083FBBDE8FC81B8F1020F40F0BD8020880A28C0F2B980B0F5486F44
:2044D00000F3B5800E4619E0B8F1020F40F0AF802088B0F5FA7F80F2AA800E463080BDE833
:2044F000FC81B8F1020F40F0A28020880628C0F29E80B0F5486F00F39A801646B61CEDE712
:20451000B8F1020F40F0938020880628C0F28F80B0F5486F00F38B801646DFE7B8F1010FC2
:2045300040F085802078062880F28180464E0EE0B8F1010F7BD12078042878DA0A3606E03A
:20455000B8F1010F73D12078082870DA09363070BDE8FC81B8F1010F69D12078042866DA44
:204570000836F4E7B8F1010F61D1207804285EDCF61DECE7B8F1020F59D120881036ADE7DD
:20459000B8F1010F53D13079012850D032462078D178D07069B9002849D05078012803D07C
:2045B000042818BF052842D101200FF095F8BDE8FC81207800283AD15078022818BF052818
:2045D00035D110780DF042FD1C490246102002F079FABDE8FC8106F1870500211F2228464A
:2045F00008F045FA21464246284606F085FE44463078B4710DF02AFD002311E006F16805AB
:2046100000211F22284608F032FA21464246284606F072FE4446307874710DF017FD012387
:2046300000940A4901950246102002F04BFABDE8FC81C046C5180100B8050020994501106C
:20465000FC050020F8050020F6050020094501102DE9FC418E488F4A04788F488F4B90498A
:204670000D2C6FD8DFE814F012010E000E000E000E000A010A018E000A01C900C900E7006C
:20469000E700EE00106041F204478648864DB0F802C08649BC451FBFB0F81AE0BE45B0F841
:2046B0003280B8454FF4A0561ED181480068D0F800C09CF8040003280CF1080E0BD1DEF8D2
:2046D0000E0000281CBFBEF81800002803D01F80784911608AE0022C1CBF1E800D46156046
:2046F00000208CF8040081E0BCF1000FA3F800C041D0BCF1010743D0B7F1010C3BD040F2BF
:20471000FE37BCEB07071ED0A7F1040CBCF1010F20D94FF47F77BCEB070C1DD04FF4406789
:20473000BCEB07070FD0BF1E012F0CD93F1F0AD07B1E012B0ED940F2F937DB1B012B1AD988
:204750001B1F09D09AE0022C01D115604EE01E800D46FAE7584DF8E7584B1C68257A012DCF
:2047700005D141F20243438043834386F0E7468046834686ECE700200EF0BCFB832081E0AB
:204790008F207FE04E498978FF290CD0106018204C4C41432068851C40F204466C5A1C8094
:2047B000A41B012C484B71D94FF47F76A41B0FD04FF44066A41B032C84BF641F012C0BD99C
:2047D000A41E012C62D940F2FD36A41B08D103E0801C41F201444452136004F0E7FD05E0E5
:2047F00000200EF087FB85200FF0CEFCBDE8FC4136480078012105F071BC40F20442488837
:20481000188090421CBF41F2084290423ED041F60402904211D12E4C2E482F4B00680025FE
:20483000CDE9004502222D4C256855F8086FB0472B4908802AE04888188000200EF05AFBA7
:2048500085201FE04888188002280DD940F20442801A1BD040F6FC72801A05D0083815D0F7
:204870004FF47F72801AE8D1887B801CC2B2B52AA8BF662088730020488007E000200EF0DA
:2048900039FB8420BDE8F6410FF07EBCBDE8F3816F4F0020204F0020273B0100504F002073
:2048B000CC4C0020204A0020B1540110615A0110F44B002059550110755B0110104F0020C6
:2048D000684E0020804E0020313901106E4F002002000080EC4E00205D180100F04E0020FC
:2048F000424F00202DE9F04F8246DAF80070DAF804600C465FEA0208ADF11C0D14BF002102
:204910004FF0FF31DFF8409248460EF01AFE002818BF0B2040F0158100258F488C49057095
:204930008A48FC6052460FF01EF9317B27200FF01CF9B8F1010F07D0657002200DF0DEF929
:2049500006200DF0DBF901E0012060702078012840F2AA80801E012868D9801E012833D986
:20497000801E012800F2DE800FF0F5F883464FF0805000F5EE77D0F8DC01A378466A0093EF
:2049900021782846062908BF0120019001200290A068228AE1686368B047814658460FF082
:2049B000E7FBB9F1000F40F0BF80B8F1000F02D00EF0D0FB02E050460CF096FF002800F069
:2049D000A3803868806A2AE00FF0C5F883464FF0805000F5EE77D0F8DC0101230668009358
:2049F000A168A27860682478AC46042C08BF9C466346B047814658460FF0BAFBB9F1000FE3
:204A100040F09280B8F1000F02D00EF0A3FB02E050460CF069FF002876D0386840688047C5
:204A30004C49C1F8B0510D6081467DE00FF093F883464FF0805000F5EE77D0F8DC01E38AB8
:204A500086690093E0680190208B0290A0780390207D04900121059122782846022A08BF1F
:204A7000081CE1786268A368B047814658460FF07FFBB9F1000F57D1B8F1000F02D00EF096
:204A900069FB02E050460CF02FFF00283CD03868006A80475FEA000946D1E078A168E28AC5
:204AB000236907F023FDBFE70FF055F883464FF0805000F5EE76D0F8DC01E38AC76800934C
:204AD000E0680190208B0290A0780390207D2946049001200590257805B9014608466268F5
:204AF000A368E178B847814658460FF041FBB9F1000F19D1B8F1000F02D00EF02BFB02E070
:204B100050460CF0F1FE08B914201AE03068406980475FEA000907D1306802692169E078FE
:204B3000904781E74FF0FF39B8F1010F05D002200CF03EFE06200CF03BFE03480FF01FF80B
:204B5000484607B0BDE8F08F801B0020B81B002025240100504502400C2F00202DE9F04369
:204B700085B011F8017B0446082F04F1FD0004F1FC0804F1760504F5A076844A844BDFF80C
:204B9000149213D0092F21D00F2F2FD0112F01BF287801286878102840F0D5800A78327686
:204BB00048787076012184F83D11EBE00025521C4E5D5F5D3E434E55575D3E4046556D1C14
:204BD000082DF5DB204608F0FFFB74E00024571C0D5D1E5D35430D553A5D15400555641CF8
:204BF000082CF5DB022088F80000CBE098F80100820704D410F0110F57D01A2266E0087819
:204C10004A7800EB02203080CA78887800EB022070804A79087900EB0220B080CA79887901
:204C300000EB0220F080087A30724A7A887A02EB00227281C87A0A7B00EB0220B0818A7BF1
:204C5000487B00EB0220F0810A7CC87B00EB022030828A7C487C00EB022070820A7DC87CE7
:204C700000EB0220B082487D897D00EB0120F082494801788A0658BF1A2212D504F5A670B9
:204C9000049071890391307A029021890191F0880090B38872883188204608F0FBF8E0B192
:204CB0001E2298F80100410710D40F2088F8150020460FF059FA002864D199F8000005B0C8
:204CD000BDE8F0434FF4804105F008BA204605B0BDE8F0430F210FF043BA7088A882B188B7
:204CF000E9820221F0882883297400206882A18EA88AC91DE981618EB0EB510F02BFE88A7E
:204D1000A18E884202BF288BE18EB0EB111F18D02878012804BF68780F2805D0687918B1D2
:204D30000F21A972FE2127E0FC2120460FF014FAF0880090B38872883188A0790FF008FA52
:204D500020E0102118E0491E20460FF0FDF9032F18D1A878042818BF0D2813D16E78142ED9
:204D700018BF0E2E0ED12F7820460FF0E9F9012F06BFAE72FD213146204605B0BDE8F043A6
:204D90000FF0EAB905B0BDE8F08300BFEC4D0020CC2E00206E4F0020144E002010B50B78BB
:204DB00084074CBF43F0020303F0FD0304064CBF43F0800303F07F0304074CBF43F008038E
:204DD00003F0F70384064CBF43F0200303F0DF0310F0AA0F0B7003D0107840F00C0003E068
:204DF00018B9107800F0F300107010BD2DE9F8430D4600272878022814461E4667D16968BE
:204E100008784978DDF8208000EB012080B25FEA08021CBFB0F5285F0B205BD14FF4285121
:204E3000401A08D0401E21D0401E2FD0401E25D0401E31D04BE0DDF82490E8680EF0C1FE11
:204E500080B2A0EB08024A45BCBFA0EB08001FFA80F909EB0800162806DAA6F800904A4674
:204E7000E86800EB08010DE00D2732E0E8680088022131802070000A60702AE006203080B5
:204E90000622E96820460EF0A1F922E001203080E9680A7822701CE0E868B0B108213180CC
:204EB0000288227003881B0A63704188A1704288120AE270818821718288120A6271C18854
:204ED000A171C088000AE07103E0308001E0378001273846BDE8F2832DE9F0470F468146B9
:204EF00038780024022890461D466DD17868089E01784078DFF8D8A001EB002189B24FF49C
:204F10002852891A06D0491E29D0491E4ED0491E39D059E0F8680EF054FE80B2B04204D355
:204F3000A919162903DB0D244FE007244DE0FB682A46414698190EF049F9AD19F868ADB2FA
:204F5000C5F11602002140190EF039FEDAF8000000281CBF0268002A37D0002123E08EBBE7
:204F7000022DE0D198F8000098F80110FA6800EB01201080DAF8000000281CBF0268002AA9
:204F900023D001210FE0EEB9062DCCD1F868062241460EF01BF9DAF8000000281CBF026826
:204FB000002A12D00321484690470EE056B9012DB9D198F80000002813BF0128F96808700B
:204FD000802402E00B2400E001242046BDE8F087F42E00207CB5894D144602460026A2F5DD
:204FF0008062182A1AD8DFE812F0FE00F800F100E900E200DC00D500D0001900C500BE00F3
:20501000B700AE00A3001900190080006F00680054004C00420039002C0024002D2880F2BD
:205030008580022940F0828021880CF043FC0646E1E0012940F0DE80002C00F0DB80113598
:20505000A6E0102940F0D680002C00F0D38028465030102221460EF0B9F8CCE0012940F050
:20507000C980002C00F0C68029468D1D90E0262940F0C080002C00F0BD8005F16000262236
:20509000E8E7012940F0B680002C00F0B3806D1D7EE0602900D13CB9012940F0AB80002C6A
:2050B00000F0A8800D3573E005F18600214660220EF08CF8012068739DE0012940F09A805F
:2050D00020780FF039F896E0012940F093802078022800F38F800C3528702078022814BFE3
:2050F000301C01200FF024F885E0072940F08280611C684606220DF027FF2078694632461C
:2051100005F01CFA04460A2C10DA0FF00DF838B9204602F08FFE0DF045FA09F04BFA6AE06C
:205130002A46012002F12C05285564E0022662E001295FD1A87B21780028A9735BD1207861
:20515000012858D1E9E7012954D12478072C51DB102C4FDC0B3537E001294BD124780A2CFD
:2051700048DA093530E0012944D12478022C41DA083529E000293DD10EF0D6FF10B90EF074
:20519000C5F8C8E701240F351EE0012932D10A35247819E001292DD12478022C2ADAED1D2B
:2051B00012E0102926D12B4603F1400051E7012920D12478022C1DDA2D1D05E0012919D1C1
:2051D0002478042C16DCED1C2C7014E0012911D12478022C0EDAAD1CF6E702290AD1208856
:2051F0001435288007E0012904D12478022CD8BF6D1CE9DD182630467CBDC046A81200204B
:205210002DE9FE4F05467B48002400680094C00905D37948007810B920200CF0B3FB012D32
:2052300040F0E280DFF80092D9F8DC00012840F0D8800220C9F8DC000DF008FF01200CF025
:20525000A1FB5FEA000805D00120C9F8DC000DF009FFCBE00EF097FCA34602906748684D9E
:20527000C0F800B0A86A016801208847012804D1584608F015F9012000906248624FC0F8E5
:2052900000B0386811200EF0E7FA00B1012410200EF0E2FA08B144F002040F200EF0DCFAC8
:2052B00008B144F004040B200EF0D6FA20B12868564E016B308888470A200EF0CDFA20B138
:2052D0002868534E016B308888475248012606602868816944F0200088474F4806600EF0DB
:2052F000B5FA00F001010191400814D2286A81684A4888478246BAF1040FF7D0BAF1010F59
:2053100004D1286A42684548032190474449086820F003000860584600F088F82B6838682B
:20533000986B8047019801280CD0BAF1010F04D1286A42683948314690473949086840F038
:20535000030008602F48066028684169204688470B200EF081FA20B128682C4BC16A18883F
:2053700088470A200EF078FA20B12868284BC16A18888847274806600322C9F8DC20264B1E
:20539000C3F800B02868416B204688470128F9D1386804200CF0F6FA0446184806603868CE
:2053B000144800688009FBD30098012802D1304608F076F80EF037FA08200CF0E3FA0746D5
:2053D0000298C9F8DC600EF0ABFE1648008807F0D3FD0DF047FE57EA040018BF4FF0FF38FE
:2053F00004E06FF0040801E06FF001084046BDE8FE8FC04614100940881700200C40094086
:20541000B8010010000222432C200940E8510100E45101002820086080010443004003404C
:2054300024220840D4550100A01600202DE9F84FDFF804B20746ABF13500DFF8F081006816
:20545000800880F0E28075480068006880477E490831D1F8009000254FEA29715FEA995209
:2054700001F101010AD2C0F13E0210F10A0F4FEAE202D8BF08229142B8BF111C684BD3F86E
:205490007C21C2F30462162AA8BF203A1B68C3F30443162BA8BF203B9A465218162A05DA57
:2054B00012F10A0FB8BF6FF0090200E015225D4B5D4E02F01F0141F4F8511980316811F0B2
:2054D000030F18BF0125C90828BF45F002050FB145F00405434693F90710411A052904DA28
:2054F0009979A94208BF99886FD0DFF844E10F28A0F10F0829DB08EB0011A1F1F0084FEAD2
:2055100028210091072984BF07210091062988BF06215EF821600424774604EB81043C5913
:205530004FEA950CA41BEE0804F0FF0124BFC4F3072631446F08AE0824BFC4F30746314413
:205550006E0828BF01EB146104E000214FEA950C6F080091009C5EF824E05FEA5C060EF0F7
:20557000FF0424BFCEF3072634447E0824BFCEF3074634446E0828BF04EB1E64009E89B239
:20559000A8EB06267143803104EB1124AAEB02010029D8BF0121342209F0FF074A4391B214
:2055B0004FF6FF727943B1FBF4F18A4238BF111C802889B2998005DA10F1800FB8BF6FF0A7
:2055D0007F0000E07F20D8719D711A4800681F2918604FF0000008D340F2FF128A4206D2DB
:2055F0004908401C8A42FBD301E01F219980134F0F39090940EAC10047EA0001CBF8FB1F64
:205610000026CBF8FF6FBDE8F88F0D490D4F434608200F609B1D1870BDE8F88FEC010010BC
:205630003C1100506E62084024220840D42E00209C130050082009403500094000E7A480FC
:2056500030100940FDFDA400AC3F00502DE9F04F044675488A46016894461F46BAF1000F4A
:20567000ADF13C0D4DD0BCF1000F4AD09AF8002001209040014244D0BCF80000B0F5C15FCD
:2056900032D1DCF81430DCF818206848DCF81C104FF0030E0DF128080B93DFF894B10C924D
:2056B00000680D91C0F3036958F8046FCEB10021351F05200B4655F8042FB2F1FF3F10D047
:2056D000934506D0401E01F1040103F10103F2D107E0052B05DA705820F4702040EA094027
:2056F0007050BEF1010EDFD1C4F804A0C4F808C00EF031FA4F4D8046287820B140460EF008
:2057100037FD00208DE002F05FFD4B49086840F00200086007A80DF087FF002605F1D000AE
:2057300007AA464909960BF0A1FB454905F5827007AA0BF09BFB07A80DF02EFFFF2105F138
:20575000340007AB3F4A089119210BF07FFA3E4A05F150001A2107AB0BF078FA3B4932465F
:2057700005F18800134609F0C7FA3949324605F1AC00134609F0C0FA364A05F12000042125
:2057900033460CF06FFE0E2004F08CFF05F174000DF0F2FD05F16C000DF0EEFD2E74072001
:2057B00085F898012E77AE616E770523AE602B49EB602A786961501C2870274B1E7040463F
:2057D0000EF0D6FCB1464FB92548B0E88C106946A1E88C100DC86F4681E80D003868206055
:2057F000398A6182012060747B6813B940F6C4130646E3601B48A06126746061F86800B1E3
:20581000A061B86800B160615822494604F1200007F02DF904F1380049460CF0C7FC2046C9
:205830006C600FB0BDE8F08FD4210840541300500200F8446024002000200940A530010094
:20585000119D000029D9000025D7000099290100252E010055F20000062F0020DD9D00005F
:2058700044550100CBB700002DE9F04F05468048066800680F461C469246C4F39901890055
:20589000ADF12C0D0A010021803207F0F0F8DFF8C891A9F1880002466E480168304690475E
:2058B000A3088046610801979F1C21F00101F819009506EB80000390091DCDF808A07818CB
:2058D000434506EB800206EB870B3844049206EB80000690C4F39C004FEA800000F108001C
:2058F00007EB400000EB070206EB82020A9224F0030202F1080200EB020506EB85053A4460
:20591000059506EB82050A4407953A4406EB8202089206EB80020992084406EB800A38449D
:2059300006EB800518BF6FF0010040F08F8009F16800024641463046904700233CB1019943
:20595000264611F8010B761E40EA0303F9D1002B08BF01207AD000263CB10299234611F8AB
:20597000010B5B1E40EA0606F9D1002E08BF02206CD001995846C84703980299C84700981B
:2059900081680498C8473548049A594681462846C847012803D14FEA88042E590EB103203A
:2059B00054E0BE0028460021324607F060F80399049A2846C847012801D12F590FB1042071
:2059D00044E0274F274C069859463A46A047079803993A46A0470699089827460A46B84769
:2059F00009980899069AB8470A9806991E4C2246B84728460021282207F039F81B4809999E
:205A10000A9A81462846C8472034284622460146C847079950460A46B84705980021324653
:205A300007F025F85FFA88F45046002C0CBF01225FFA88F200216B5C445CA34218BF052081
:205A500004D1491C521EC9B2F5D100200BB0BDE8F08FC0468C4F0020B9DB0010C9DE0010F0
:205A700090210020F9E00010DC520100C9E60010884F00202DE9F0410446804DA178A869EF
:205A9000ADF1180D891F00F0F280C91E00F0DD80491E5FD0491E48D0C91E3CD0481E40F057
:205AB000E980287A697AB8B96878002831D0A0880EF032FB071C00F0DD80A07A40080FD367
:205AD000787968B1E168890A0AD2B91D01AA04F035FD0A2804D10321A0880EF019FBC9E03F
:205AF000287B022802D1A07A0009F4D3A088797904F1080201F082F9A869002800F0BA8024
:205B10004368002B00F0B68000210A46A0889847B0E00521E0E7002800F0AC804368002B6A
:205B300000F0A88062780221F0E70DF0C5FD002800F0A080A86950B1076847B120690090E0
:205B50006189227B637BE01C3C46A04792E060890121C2E767784FF00008002F66D1A1799F
:205B7000490863D3EF69002F60D101A841460E220EF025F8A0880EF0CFFA071C7AD0606936
:205B900040B97879B91D06228DF80A0001A80DF01DFB19E06669307C062206F111018DF896
:205BB0000A0001A80DF012FB07F10C00B91D06220DF00CFBB81D062206F111010DF006FB0E
:205BD000307C40F002007871A079C00839BF387900F0FD00387940F002003871A0790009C9
:205BF00039BF387900F0DF00387940F020003871A1799DF81120C1F3800010438DF8110076
:205C1000080905D39DF8110040F008008DF8110001A8214600F034F928B92878022104F052
:205C30005DFA404627E0A8694FF0150810B3436803B3A088627801219847B8F1000F19D03B
:205C5000A86943680321424660E7E078211D002204F074FC0A280DDA410001EB800004F1AE
:205C70000C0225300421C0B202F076FF02E0A08809F0BAF8012006B0BDE8F081A812002037
:205C90002DE9FE4F0E468246307AC10693461F464FF000090CD558460EF036FA030000F0DE
:205CB000E8800A223146504698475FEA00094DD130780C9D0D9CDDF8388002281AD1706870
:205CD0000178407801EB002189B24FF42052891A012910D9891E3AD0491E14D0FD397AD054
:205CF000491E00F08180491E6DD0491E73D0491E00F09580ABE0002C2AD1F0680178298056
:205D10000278416887E0002C22D101202880F1680A783A7000217089401C80B20EF0F0F9ED
:205D3000298860B10278921C51182980418979704289120ABA7041680278F81C6CE0091DEA
:205D5000298004220021781C0DF039FF93E0002C66D1F0680688042129803E70320A7A701C
:205D70000DF1020130460EF0CBF9040021D0D4F80C80BDF802204FF6FF766B4631460EF0D6
:205D9000BBF940B9237862683C4802210EF0B0F908B9ADF8006098F8000002280BD1D8F867
:205DB00004100222381D0DF011FA2888801C288001E0ADF80060BDF80000B870BDF80010C2
:205DD000090AF97057E0002C2AD1F068016850460DF0DAFB02E01CBBF0680088022129804B
:205DF0003870000A787046E0F0680DF0EAFE80B2A042B8BF4FF007093DDB844208BF0022F5
:205E100005D008EB04028242B4BF4246021B2A8092B2F068011938460DF0D8F92BE014B14C
:205E30004FF00B0927E0F0680721298002783A7043787B704188B9704288120AFA70017949
:205E50003971C2887A71C088000AB87113E058460EF04AF95FEA00090BD00F980290CDF8DB
:205E7000048000942B463A4631465046C847814601E04FF00E094846BDE8FE8F9C5301003F
:205E90002DE9F04F754CDFF8D0A1E56988468146ADF1140D002D52D1B9F1000F00F09A80DF
:205EB000B8F1000F00F096800CF05CFA06460A2E267426DAD8F81470002F41D0700010216F
:205ED0006A4600EB86002330C0B20CF016FFB0B91020ADF1010111F8012FFF2A02D1401EEF
:205EF000F9D10CE05046007838B999F80600494600F001000EF0F4F801E00120A074E56978
:205F10001DE004F1E60B0A2700265846FF2106220DF06BF888B97F1E0BF10E0B06F1010600
:205F3000F3D1607C002804BF0A20207452D094F83660304601F07EFFE569267400E0267C76
:205F50000A2E47DA002D35D170000E214A4600EB86002030C0B202F0FFFD207C09F00AFABC
:205F70006846FF2110220DF02AFE207C10216A467030C0B202F0F0FD217C0E220801A0EB1D
:205F9000410000194946E6300DF020F9D8F814206AB15046007840B9107C02F11101002302
:205FB00000F001000EF098F801E00120A074C4F81C804CE0AA68002A3ED12A69002A2FD1B0
:205FD0006A690ABBEA683AB9A07B08B10BF0A6FC0CF084FE01203BE07000102100EB860097
:205FF0002430C0B202F0B8FDE769217CFA68480000EB8100103225300421C0B202F0ACFD58
:20601000E1690020C86022E07000102100EB86002330C0B202F0A0FDE1690020486116E06D
:2060300070001C2100EB86002230C0B202F094FDE169002008610AE070001C2100EB860010
:206050002130C0B202F088FDE16900208860002005B0BDE8F08FC0465A4F0020A812002002
:206070002DE9F04F0746880FADF1140DC0F0CC80674C201D006841688E68CD68486800B18F
:206090008047DFF89081002E08BF002D0CD0414608680028FCD00020086006B1B04705B16C
:2060B000A8475D480CF014F85C480DF0B5FA5C4940F60A0CA1F800C0002048800A7B60F3DA
:2060D00003020A7348604A7B4FF0010969F303024A73BB687D7C58801A888346A2F602025F
:2060F000CAB141F21E06921B15D041F6E676921B012A20D85A7E012D60F382025A7606D046
:206110001A8B22F47C7242F434721A8313E01A8B60F30912F9E75A7C012D60F382025A74BE
:2061300005D01A8A22F47C7242F4347202E01A8A60F309121A82D7F808A0787462465546C0
:2061500000E035466E6816B133889A42F9D169606B7B60F303036B73E66E3EB1F3681B88AF
:20617000D61F9E421AD0921F9A4217D03E8CBEB1786207F12002508097F82C3060F303039B
:2061900087F82C3097F82D3069F3030387F82D304A604A7B60F303024A7301E0C4F808B011
:2061B0002048036882680192C168406B0093102220F0784040F0805003901B4802916946E6
:2061D00005F09AF8D8F800000028FBD017486061607FC8F800B070B9154800680068014659
:2061F0004846884701280CD0687B69F303006873104F676105E00AF049FC0028FBD00DF0D5
:20621000BAFC50460DF008FA05B0BDE8F08FC046602400201C1004400100070601010E040E
:20623000742E00204C1300501800002101410000E0010010D1DB00002DE9F84F8B460AAFDE
:206250006D4E9BF80050DBF80400BC889246984631462A463F8800900CF070FA4FF00009D3
:2062700040B9022F00F3BC80C7F10200A04200F3AD808DE000982A46B11C0CF05FFA40B969
:20629000022F00F3AD80C7F10200A04200F39E807EE00098311D2A460CF050FA40B9022FCC
:2062B00080F29E80C7F10100A04200F38F806FE0009806F114012A460CF040FA38B9022FE6
:2062D00080F28E80C7F10100A0427FDC60E0009806F124012A460CF031FA30B9022F7FDC38
:2062F000C7F10200A04271DC52E0009806F134012A460CF023FA30B9022F71DCC7F1020005
:20631000A04263DC44E0009806F144012A460CF015FA30B9042F63DCC7F10400A04255DCAF
:2063300036E0009806F154012A460CF007FA30B9042F55DCC7F10400A04247DC28E0009838
:2063500006F164012A460CF0F9F930B9042F47DCC7F10400A04239DC1AE0009806F1740183
:206370002A460CF0EBF930B9042F39DCC7F10400A0422BDC0CE0009806F184012A460CF07B
:20639000DDF938B9042F2BDCC7F10400A0421DDC84B21BE00098B11D2A460CF0CFF930B9A1
:2063B000022F1DDAC7F10100A0420DDD0EE0009894362A4631460CF0C1F9A0B9022F0FDCBE
:2063D000C7F10200A04201DC82B200E02246A8F80020DBF80C105046C91904F08DFF07E02A
:2063F0004FF0070904E048464FF00A09A8F800004846BDE8F88FC046944E01002DE9FC4FD6
:2064100083F0004301E02DE9FC4F1F03FF0847EAD2574FEA42284FEA43095FEA595906D1F7
:2064300047EA080A1CBF00210020BDE8FC8F57F000575FF4E06E1EF1FF0EF14505D14FF017
:206450000000190D0905BDE8FC8F002B05D55FF0000AD8F100086AEB07070C03E40844EA0D
:20647000D0544FEA40254FEA4106760D08D144EA050A19BF00210020191C101CBDE8FC8F87
:2064900044F00054764504D10020090D0905BDE8FC8F002904D55FF0000A6D426AEB0404F9
:2064B000B6EB090E08D5A2463C465746AA464546D046CEF1000E4E46BEF1360F5CBF4FF0F0
:2064D000000B23E0BEF1000F04BF4FF0000B1AE0CEF1390ABAF120092EBF08FA09FB07FA0F
:2064F0000AFB4BEA080BDEF1200A07FA0AFA38BFBA4647FA0EF72DBF28FA0EF8AEF1200E23
:206510004AFA0EF8D04415EB08057C4154EA050A02BF00210020BDE8FC8F002C58BF4FF042
:20653000000A06D55FF0010A5FF0000E6D426EEB0404A6F101066D006441FAD515F4806E29
:2065500011D005F480794BEA090B15F5806554F1000428BF761C0BD205F400795BEA090BB6
:2065700008BF25F4006525F4E0656D0044EB0404B61CDEBF00210020BDE8FC8F5FF4E06E43
:206590001EF1FF0E76450AD34FF0000013F00043FF21C900C91D09051943BDE8FC8F27051D
:2065B00047EA1530210B41EA065141EACA71BDE8FC8F70472DE9F04FADF11C0D0190049316
:2065D00000280392109D0291119C059500F0BC80081C00F0B980101C00F0B680181C00F078
:2065F000B380281C00F0B080002C00F0B280206A002800F0A9805A4D676A281D0068002F87
:2066100000F0A280A16A0DF063FD40B2071C08BF6FF0020700F0948020786288216A84F81F
:206630002C7000EB80001218143290B288474B49086030B9284640680DF046FD4FF0FF3712
:206650007EE00846B4F802B06688277894F800900568204608F0A0FB2078AB44C01C80101E
:20667000CBF800002078B919491901F1040AC01C8010CAF80000207806EB4703591901F116
:206690000808C01C8010C8F80000217809EB49094B469A19521902F10C09C91C8910C9F8D9
:2066B00000102178D8198019401900F11005C91C88100199286022780BF1040004F01CFEF1
:2066D000227802990AF1040004F016FE2278039908F1040004F010FE237820465146424619
:2066F000FFF7C2F8071C14D100955846514642464B460DF0E5FC80462278049809F1040116
:2067100004F0FAFD22780598291D04F0F5FD4FFA88F7124821786288006801EB8101521836
:20673000002106F0A4F90D4E606A0146306888470B4840680DF0C8FCF8B2992808BF0027AD
:2067500084F82C70384606E01CB16FF0010084F82C006FF0010007B0BDE8F08F884F0020A6
:20677000882100202DE9F04FADF1240D079001F02BFD5F4800780BF063FF5E4D00240128F8
:2067900006D90C3804D0401E0ED0401E09D006E00CF050FC022804BF01210C1C06D0696873
