:20000000004000205509010001C9011001C9011001C9011001C9011001C9011001C90110FF
:1C00200001C9011001C9011001C9011001C9011001C9011001C901103FC9011089
:20003C002DE9F04F8C4606461146ADF1440D1846069362460493E14620F0004522F00047E0
:20005C0023F00043059151EA030468A30E9300F08380684C944208BF002E7DD061A3664A37
:20007C000D93BA4208DBBA4200D12EB9AA4203DB9246AA4516D1A9B1984698E80C00494666
:20009C00304606F096FE824689460598069998E80C0006F08EFE0B4602464946504606F0AF
:2000BC0088FE3BE0574AB9F1000F4FF000080F9225D5524AAA4220DDAC4220DC504B2A15FE
:2000DC00AB42A2F2FF320BDD002959D1C2F1140245FA02F303FA02F2954210D11A4607E02A
:2000FC00C2F1340321FA03F202FA03F3994206D102F00108C8F1020801E04FF00208002935
:20011C003ED15246AA4224D0AC420DD1002807D50E9803C84B46324608F099FB8C46064648
:20013C006146304600F028BCB0F1804F05D14B460796494630460893D9E30F9981421FD187
:20015C00B9F1000F1CD44946304607F081FD00F013BC391B0E4302D10E9C00F00BBCBC42CA
:20017C0006DD002806D5059A014681F0004129E0002802D50D98014631E0059A034620E0F8
:20019C002CF00041B646FEB95246BA4203D0002F18BFBC4218D100280B46324605D50E986E
:2001BC0003C808F054FB0B460246B9F1000F08D53F1B58EA07000DD0B8F1010F08BF83F06F
:2001DC00004319461646ACE74FEAD976761E58EA060319D114F04EFC2122D1A102600C466A
:2001FC00C8E3C0460000000000000000000000000000F03F0000F03F0000F07F00004043E2
:20021C00000040410000E03FA8F10102164314BF0E9AC5A292E80003CDF82090C64ACDF884
:20023C001C80AA42C0F26B81B7F5801FA8BF002508DABFA20CCA704609F0DCFA6FF034056F
:20025C000F468646BD4905EB2755C7F313002746A5F2FF35814247EA000707DAB84981424A
:20027C00DABF6D1CA7F58017012400DC0024B54800EBC400CDF800E090E80C000A973946F3
:20029C000290704606F095FDDDF838C00B4602469CE8030008F0DBFA8346029E0D9890E832
:2002BC00000396E80C0000988A46394606F07CFDCDF824B05A4689465346064609F09AFAC5
:2002DC000B468346019178100393424640F0005000EB844000F5002003460746002009F0BD
:2002FC0089FA0B4602464946304606F05DFD0646029890E80C0089463946404606F054FDEC
:20031C000B4602460A99009806F04EFD0024CDF800B0039B224609F06DFA0B460246494685
:20033C00304606F041FD099A534609F063FA8A46019906465A4658460B4609F05BFA884604
:20035C0081460B46024609F055FAD1A20CCA0F4683464146484609F04DFACFA20CCA06F0E0
:20037C0028FD43464A4609F045FACDA20CCA06F020FD43464A4609F03DFACBA20CCA06F011
:20039C0018FD43464A4609F035FAC9A20CCA06F010FD43464A4609F02DFAC7A20CCA06F039
:2003BC0008FD0B4602463946584609F023FA8846009A0399814620460B4606F0FAFC534649
:2003DC00324609F017FA0B4602464146484606F0F0FC039B0746894622462046194609F00F
:2003FC0009FA09900FF268380A9198E80C0006F0E0FC0B97CDF830904B463A4606F0D9FCA8
:20041C000B46894603992246204609F0F3F98346534632460F462046494609F0EBF998E8D0
:20043C000C0006468A462046494606F0BDFC0A9B099A06F0B9FC0B4602460C990B9806F00A
:20045C00B3FC019B009A09F0D5F90B4602465146304606F0AEFC81468846284612F0ACFDE0
:20047C000191009043464A463946584606F0A1FCB9A20CCA20468A4609F0BCF906460D46C1
:20049C003B465A462046514606F08EFC0B4602464146484606F088FCB1A20CCA09F0AAF9B5
:2004BC000B4602462946304606F083FC029A20320CCA06F07EFCACA20CCA894683465146A6
:2004DC00204609F097F905468A464B465A4606F070FC029A10320CCA06F06BFC019B009A1C
:2004FC0006F067FC019B009AA0460C46404606F05BFC029A10320CCA06F056FC70E0A04A10
:20051C00AA42C0F227829F4ABA4200F3FF81BC421ADA002840F3B98095A08046FAE1C046BE
:20053C00000000000000F87F000000000000F0BF00000000000040430000E0418E980300AC
:20055C007AB60B00286301000E9A0CCA704606F02BFC89A20CCA8A46044609F04BF98B463E
:20057C000546514620460B46024609F043F9E1A20CCA884681465146204609F03BF90246E9
:20059C000B46DEA003C806F00FFC5346224609F031F902460B46DBA003C806F005FC0B4659
:2005BC0002464146484609F025F9E0A20CCA09F021F90B4602465946284606F0F5FBDDA235
:2005DC000CCA894683465146204609F013F98A4605464B465A4606F0ECFB00200C4680462E
:2005FC0053462A4606F0E0FB0B4602464946584606F0DAFB0646DDF8109005980D4642463B
:20061C004B46494606F0D0FB474623463A4609F0F1F8059A8A4683464B462946304609F0DE
:20063C00E9F80B4602465146584606F0C2FB824623460E463A464046494609F0DBF85246BE
:20065C0082468946009210464B463146524606F0B0FBCB4A0C460746A24231DDDF4924F0DC
:20067C000040814247DCDE48201857EA00050CD1214638464B46524606F096FB0246009842
:20069C000B4631460CF0F0FD35D8DDF8348041E1EF4E454A287ECA3F65DBC9934A86CD3FE2
:2006BC0001411DA96074D13F4D268F515555D53FFFAB6FDBB66DDB3F033333333333E33FCC
:2006DC00A01A57EA000540F023810098ADA20CCA314606F06EFB8B4605464B4652462146EB
:2006FC00384606F061FB0B460246594628460CF0FEFDC0F00D810F9824F00041884243DA50
:20071C000D9A0CCAB74BC4F30A504FF48017A0F2FE31002C47FA01F004EB0001C1F3130578
:20073C00C1F30A50A0F2FF3045F4801543FA00F3C0F1140021EA030345FA00F548BF6D4210
:20075C005046494606F030FB894682461DE0C0460000000000000840F5015B14E02F3EBEE5
:20077C00FD033ADC09C7EE3F000000E009C7EE3F000000000000F07F44DF5DF80BAE543E3B
:20079C000000F043FFFFEF3F4546009C31464B465246204606F00DFB8B4640464B46524633
:2007BC0006F002FB0B4602463146204606F0FCFA76A20CCA09F01EF876A20CCA8246894646
:2007DC004046594609F016F80B4602464946504606F0EFFA71A20CCA07460E464046594685
:2007FC0009F008F833463A468B46044606F0E1FA00900B460246884608F0FCFF894682467E
:20081C0068A20CCA08F0F6FF68A20CCA06F0D1FA4B46524608F0EEFF66A20CCA06F0C9FAA9
:20083C004B46524608F0E6FF64A20CCA06F0C1FA4B46524608F0DEFF62A20CCA06F0B9FA88
:20085C004B46524608F0D6FF024600980B46414606F0AAFA89468246009841465B46224675
:20087C0006F0A2FA0B4602463146384606F09CFA044600988B464B465246414608F0BAFF9C
:20089C0052A20CCA0E4607464946504606F08CFA0B4602463146384607F0D9FF009E894666
:2008BC0082465B4622464146304608F0A3FF0B4602465946204606F07CFA0B460246494682
:2008DC00504606F071FA4346324606F06DFA02460E980B4603C806F067FA01EB0552B2F55C
:2008FC00801FA8BF111C02DA2A460AF06BF902460B4615E0000000000000D03F555555550E
:20091C005555D53F000000000000E03F002815D50FF2C00814F0AEF82221016098E80C0029
:20093C000899079808F066FF26E0C046FE822B654715F73F000000604715F73F14F09AF8C8
:20095C0022210D9A01600CCA4946404608F052FFFFF7E4BBBC4204DC002806DD1DA0044677
:20097C0004E0002848BF1BA400D40D9C14F082F82221016094E8030011B0BDE8F08FC04680
:20099C0000009040FE822B654715973CEF39FAFE422EE63F396CA80C615C20BE0000000083
:2009BC00432EE63FD0A4BE726937663EF16BD2C541BDBBBE2CDE25AF6A56113F93BDBE1621
:2009DC006CC166BF3E5555555555C53F0000000000000040000000000000F07F00CC904073
:2009FC0000346F3FFFFF0F002DE9F04FD34C04F11C012046ADF1340D0FF03CFA002604F1D1
:200A1C00A80A4FF6FF70667001216082504611F08DFCD048022111F089FCCF48042111F05C
:200A3C0085FC04F14808042010223146A07040460CF0A1FF04F158091022484631460CF04C
:200A5C009AFF04F120073E6004F10A052E7007206072DFF810B3E671022226725946102010
:200A7C000346CDF8008006F003FD102003225946CDF80090034606F0FBFC04221020594662
:200A9C000097134606F0F4FC4FF0080A4FF003094FF0010B05F12E00079005F17D000890B7
:200ABC0005F12200099005F15E000A9028350B9519E06078B4F84050B4F84230B4F8442043
:200ADC00B4F8461006280ED1ADF80A50ADF80C30ADF80E209F48ADF8101014F041F85846B1
:200AFC0002A90CF07DFBE069B44A31464FF0FF3300F02AFA071CF6D0059606A80DF11A012D
:200B1C0005AA11F0A5FF002840F0BE81BDF818102078102940F0B4819DF81A10884240F002
:200B3C00AF81059D29884FF6FF728A4200F09D812B78A23B00F080812E3B40F0A181A97839
:200B5C00B046002900F03C81891E00F00D81491E012940F2D780891E00F09B80491E72D013
:200B7C00491E5FD0083900F05781891E40F05A8194F83E10A8880529ADF808004AD075484C
:200B9C008DF812B013F0ECFF94F83E00012820D004281ED003280DD002280BD00598C18814
:200BBC00ADF80A100189ADF80C104189ADF80E1081892BE0B4F84210B4F84000ADF80C10C2
:200BDC00B4F84450ADF80A00B4F84610ADF80E501CE0B4F84000E9888842D8BF081CADF882
:200BFC000A002989B4F842008842D8BF081CADF80C006989B4F844008842D8BF081CADF8ED
:200C1C000E00A989B4F84600884200DC0846ADF8100001E08DF81260A749102002AA06F043
:200C3C0027FCFFE04C4813F09BFF6B78002B40F0F980E888A0822889E082688920834548E8
:200C5C0013F01EFDEEE0AA88B249102006F010FC0798414606220CF08EFEA682E68226831E
:200C7C00A87920733B4813F07BFF3B4813F078FFD8464FF6FF70237960823BB9A879082812
:200C9C0014BF042005206070E670CBE084F80190C8E06B787BBB291D0A68079802608988B3
:200CBC0081800623637068896082E889A082288AE082688A94F83E102083E8780129E07256
:200CDC0018BF02290BD1994910201F2206F0D0FB4FF47A7180B241431E4811F043FB68898C
:200CFC000423009090490193EA7810202D1D2B4606F0BEFB99E06878312840F08A80E67076
:200D1C0004202CE06B78002B40F08380A878218A6278032814D0E078257921B9012814BFC6
:200D3C002671E67005E0054303D0814811F01AFB6278072AE4D1062011E0C046B805002011
:200D5C00062A0BD0E578002D08BF84F801906CD0022004E084060020A8060020072060705D
:200D7C0063E0C046173D01006B78002B51D1EB78617893B902291DD007291BD0062902D1CC
:200D9C002079012816D1032914D0694813F078FC80B9584613F0A4FC0CE012F03BF9024672
:200DBC00A07960490090089843460190102006F05FFB68706D78002D2BD133E0070000800B
:200DDC006B7833BB5B485649009002221020034606F04EFB58484A465149009010200346A5
:200DFC0006F046FBED1C296809980160A9888180207884F801B012F00DF902465B460A9D75
:200E1C006079484900901020019506F031FBC0B258B184F801A008E0AA8840491020052341
:200E3C0006F026FBB8F1010F2AD1656A45B3296831B36078884723E06879132820D1288927
:200E5C00012808D1607B022805D13E4813F088FE11F048FE14E035491020052206F008FB81
:200E7C0081B2384811F07EFA0AE06888C00B07D3324804222A4900901346102006F0F8FA97
:200E9C00059808B113F012FE2579E07879082ED355EA00032BD0204600787DB9E279217A0E
:200EBC008DF808200B9D8DF809102B680DF10A010B60AA888A8003E0051601108DF80890B4
:200EDC00627A8DF81020A17A8DF8111012F0A2F81149024602AB102006F0CAFA38B1656A17
:200EFC0084F801A01DB1296809B150468847B80803D3134930460CF073F9F808FFF4F3ADD8
:200F1C00607B401E3FF4D5AD401E7FF4ECAD11F0E9FDE8E541FE000059440110C1170110D3
:200F3C00019B00000945011069A9000055410100600600200006002010060020D805002012
:200F5C00F6050020A8060020DFF800F0F99B01102DE9F041DFF8888004680E4617464FF09E
:200F7C00FF31404613F001FB4FF0FF35092E08D0217A0120B040084212D1084335462072ED
:200F9C0011E0237A0521012000FA01F2134202D0491EF9D504E0227A88400D461043207297
:200FBC00B5F1FF3F15D0A7B1062011F08BFE294638460BF08FFB0746062011F0F7FB47B174
:200FDC00217A0120A8404FF0FF3580F0FF0008402072404613F0B0FD2846BDE8F081C046D5
:040FFC00101D0020A4
:20100000B412000018100000BDF60000FDB301106DC00110FDAE011099B501100000000015
:08102000000000002D0000009B
:20102800B01200003C100000B1C00110A9BF011067C0011069B80110000000000000000035
:041048003000000074
:20104C00B012000060100000BDC00110CDB30110D9BD01106DB3011000000000000000005B
:04106C00310000004F
:2010700000000000E423002004000000000000000000000020000000E8C901103000000023
:2010900028100000EC2300200400000000000000000000000C000000D8CA011018000000FE
:2010B0004C100000F423002004000000000000000000000024000000F0CA01101800000082
:2010D00000000000FC2300200400000000000000000000001000000018CA01102C0000008E
:2010F000001000000C240020040000000000000000000000200000006CCA011024000000F1
:20111000FFFFFFFF142400200400000000000000000000002800000090CA011024000000B0
:20113000FFFFFFFF1C2400200400000000000000000000001400000008CB0110180000002F
:20115000FFFFFFFF2424002004000000000000000000000058000000B4C9011034000000FD
:20117000FFFFFFFF2C2400200400000000000000000000001000000020CB011018000000CB
:20119000FFFFFFFF342400200400000000000000000000001C000000B4CA011024000000F8
:2011B000FFFFFFFF3C2400200400000000000000000000003800000044CA01102800000020
:2011D000FFFFFFFF442400200400000000000000000000005400000078C901103C00000095
:0811F00001000000446701004A
:0411F80001000000F2
:0411FC0000000E00E1
:0412000000000F00DB
:0412040032000000B4
:0412080001000000E1
:04120C00D8220020C4
:0412100000020000D8
:0412140000000000D6
:0412180001C90110F7
:04121C0000000000CE
:0412200000000000CA
:0412240008000000BE
:0412280000002200A0
:04122C0094200020EA
:0412300000000000BA
:0412340000000000B6
:0412380008000000AA
:04123C004C22002020
:0412400000000000AA
:0412440000000000A6
:04124800080000009A
:04124C00000000009E
:04125000000000009A
:041254000000000096
:041258000000000092
:04125C00010000008D
:041260002C2100201D
:041264000600000080
:041268000100000081
:04126C00101F00202F
:04127000000000007A
:041274000000000076
:041278000002000070
:04127C00000000006E
:02128000290043
:02128200010069
:02128400250043
:02128600300036
:02128800310033
:02128A002D0035
:02128C0001005F
:01128E00015E
:0812900003000000B866010034
:0812980000000000000000004E
:0412A0000000010049
:0412A4000000030043
:0412A80013C401105A
:0412AC006943010091
:0412B000B812000070
:0412B400B81200006C
:0412B8000000000032
:0412BC00AC2300203F
:0412C000AB45010039
:0412C4002000000006
:0412C8000C660100AF
:0412CC007864010041
:0412D00029C101101F
:0412D400A54B010025
:0412D800A74B01001F
:0412DC00A1C7011095
:0412E000A3C701108F
:0412E4000000000006
:0412E800516101004F
:0412EC00B8610100E4
:0412F000D0610100C8
:0412F400A0610100F4
:0212F8000200F2
:0212FA000900E9
:0212FC000100EF
:0212FE000000EE
:0113000001EB
:041304003945010066
:041308002126010099
:04130C005138010053
:04131000052A0100A9
:041314005926010055
:041318006106010069
:04131C00EDCA000016
:04132000114801006F
:041324003DF2000096
:0413280015C70110D4
:04132C0025C70110C0
:201330002DE9F04FD74C211D2046ADF19C0D0EF0A7FD04F120060021304613F08DFFD24D38
:2013500010201F220623A660294606F097F80020ADF81E004FF47A79ADF8269082468DF828
:201370002FA00221ADF824A0502016900DF11E02ADF820004FF44870ADF8220040F20630DF
:2013900003F0F8FC4FF44270132104F13D0203F0F1FC40F20730112104F12C0203F0EAFC82
:2013B0004FF4447001210DF12F0203F0E3FC40F21130022108AA03F0DDFC40F21230022158
:2013D0000DF1220203F0D6FC40F21330022109AA03F0D0FC4FF4457002210DF1260203F0D8
:2013F000C9FC04F1500052461523A8490090102006F044F8294610200622A02306F03EF86A
:20141000294610200722A02306F038F82946102001221E2306F032F8294610200822A0235C
:2014300006F02CF8294610200922A02306F026F801208DF830008DF831000CAE8DF832A044
:2014500003468DF834A04FF48062914D00961F4610208DF83370294606F010F80DF13100E8
:201470002946009040F202423B46102006F006F80DF13200294640F203423B4600901020EB
:2014900005F0FCFF0DF13300294640F206423B460090102005F0F2FF0DA829464FF48362BF
:2014B0003B460090102005F0E9FF7A4910204FF0FF3205F0E3FF1020774B00907749784AC0
:2014D0000193092305F0DAFF76494FF0FF32102005F0D4FF744D2878800013F02BFB0146F6
:2014F00072484161002900F0A5804FF6FF700FF03BF92878800013F01DFB01466B480029FD
:20151000816100F097804FF6FF700FF02DF92878800013F00FFB014664480029C16100F09E
:2015300089804FF6FF700FF01FF92878800013F001FB01465D48002901627BD04FF6FF7031
:201550000FF012F92878800013F0F4FA01465748002941626ED04FF6FF700FF005F928781F
:20157000800013F0E7FA014650480029816261D04FF6FF700FF0F8F82878800013F0DAFA41
:2015900001464A480029016354D04FF6FF700FF0EBF82878800013F0CDFA01464348002936
:2015B000816347D04FF6FF700FF0DEF82878800013F0C0FA01463D48002901643AD04FF611
:2015D000FF700FF0D1F82878800013F0B3FA01463648816471B34FF6FF700FF0C5F8287816
:2015F000800013F0A7FA01463048016511B34FF6FF700FF0B9F82878800013F09BFA01466B
:201610002A484165B1B14FF6FF700FF0ADF82878800013F08FFA01462448816551B14FF65C
:20163000FF700FF0A1F82148214B352110225C3011F014FE2878800013F07CFA1B4A014652
:201650005C328E4815920029C16056D04FF6FF700FF08AF82878800013F06CFA014687482B
:201670000029016149D04FF6FF700FF07DF82878800013F05FFA01468048002941613CD02C
:2016900018E0C04630090020992801001DD50000A559000055370100A06601006D320100FD
:2016B000D4190020853A0100694F0020080200208C5E01004FF6FF700FF056F8287880003F
:2016D00013F038FA01466D488161B1B14FF6FF700FF04AF82878800013F02CFA0146674851
:2016F000C16151B14FF6FF700FF03EF86348644B15211022203011F0B1FD2878800013F0E9
:2017100019FA5E4A014620325E4822920029C16047D04FF6FF700FF027F82878800013F0B5
:2017300009FA01465748002901613AD04FF6FF700FF01AF82878800013F0FCF9014651485E
:20175000416171B34FF6FF700FF00EF82878800013F0F0F901464B48816111B34FF6FF70BA
:201770000FF002F82878800013F0E4F901464548C161B1B14FF6FF700EF0F6FF2878800041
:2017900013F0D8F901463F48416251B14FF6FF700EF0EAFF3B483C4B19211022283011F088
:2017B0005DFD3A490846374E4F78007806F128011C91CFB9354A21460C31516211F030FCD2
:2017D0000246324F3148DF49CDF800A03E463D464830019007F15800029006F1200003908E
:2017F000AB78102005F04AFED74922461020183205F044FE2046007811F012FCD3490246BF
:20181000102005F03BFE2046007811F009FCD0490246102005F032FECE49102005F02EFE58
:20183000CD48006800688047CC4D012028700AF07FF9CB49504607F047FDCA49504610F01A
:201850007FFA50460EF02CFE02200E9028700FF09BFCC64CC64EC44F04F1140004F12008F4
:20187000F06104F108013961404612F0BFFE5046237884F82800A3B90AE0C046F8140020DD
:20189000FC620100481000202C600100B805002041460FF099FC606000280CBF5046012072
:2018B00020700320B34E287006F11404204612F0D9FCDFF8C482D8F8000006F134074FF41E
:2018D000FA7123463A46B9FBF0F080B24143491EAA48716013F0BCFCA94C06F108023060EF
:2018F0007168E26013F0B0FC514624220823384613F0A6FC042053465146A24F287072682C
:20191000A6F8443007F1180BF1645846B26412F0A9FCD8F8000007F138064FF416715B4669
:201930003246B9FBF0F080B24143491E9648B96013F08EFC514624220823786007F10C0006
:201950002061304613F07CFC56465046A7F84800B9683E657868F96413F076FC7868B96875
:2019700013F014F90EF0B8FC11F0B6FE0620874F28708C4812F076FCD8F80000894B8A4A8C
:201990004E464FF49671B6FBF0F080B24143491E7F48B96013F05CFCDFF804927860824861
:2019B00007F10C01082309F1040211605146242213F046FC50465346A7F84800B9683B657D
:2019D0007868F96413F040FCB968786813F0DEF8764808236F4F2B7012F044FCD8F800004D
:2019F000724B07F13408B6FBF0F0424680B2410001EBC001491E6848B96013F029FC674EA0
:201A1000786051462422082307F10C007062404613F016FC50465346A7F84400B968FB64D3
:201A30007868B96413F010FC7868B96813F0AEF8092028700FF048FBDB4F07F10C00B0629D
:201A5000381D12F0B7FF0B202870012038720FF03BFBE24F07F10C00F062381D12F0AAFF1F
:201A7000012038720C20287010F04EF8DC4F07F10800606107F1180012F028FB0D232B7095
:201A900050462070514687F82D1052462262554687F82E200123E561DC487B761946B86241
:201AB0004FF4E133DB4D39760A463B63DD48FA61D74BDD497B6205F118020261842005F148
:201AD0001C078F6010F0E3FF04F12801842260600AF0A4FB082010F0DAFF0746FF23A7616D
:201AF000504638710A207B7110F0D1FF6169386008688047206900688047A07805F12C0125
:201B1000A160012804BF5046A07012F01AFC4F463546C049C1483E780831BF4C696360665C
:201B30002EB97868006880470121606E3970BC4A514631F010073BD04B0834BF0E9B042310
:201B500037E0C0462F0B0100353D01005188011031810110C5AB0010E80100105F240020E1
:201B70000000030315E70000E0210020C41E002000120020641D002040670100714B0100F8
:201B9000641A0020FC1B002015E90000581C0020754B0100141E0020794B0100B41C002006
:201BB00094230020701C0020901C0020281E002001231370491C521C1129BADB90F9076027
:201BD000078804F196024188149690F90630129704F1DA0A109204F1FC090F9204F1740877
:201BF000119104F1B80B139304F1850611270F98002120F8021B109B0F901888400010F0F6
:201C1000EBFC7F490BF07CFE7C490AF0FDFD10F0ABFC7CA20CCA07F0F3FD09F085FE0EF0DB
:201C3000F3FC129B2BF8020B139A29F8023B149908F8012B119806F8011B7F1E2AF8020B55
:201C5000D5D140F29F56C4F844612720C4F8480145F2E527C4F84C7147F29533C4F8503100
:201C700045F69942C4F8542148F2DE11C4F8581146F20247C4F85C7148F61F53C4F86031B8
:201C900046F6C031C4F8641149F22F70C4F8680146F67272C4F86C2149F6C067C4F870716B
:201CB00047F25570C4F874014AF2CF72C4F8782147F6F767C4F87C714BF2D230C4F8800153
:201CD00048F2B562C4F884214BF64277C4F8887103F1EF00C4F88C014CF69F22C4F89021F7
:201CF00049F2FA47C4F894714DF20E53C4F898310022C4F89C211746C4F8A0713B46C4F870
:201D1000A431C4F8A821C4F8AC71C4F8B03101232382C4F8B4210E99C4F8B8718846C4F873
:201D3000BC813846C4F8C0010DF052FA606DC4F82401276DC4F82871002384F83D310DF071
:201D5000EBF984F83E010BF063FCA4F83A01002084F83C0108F03AF884F83F010FF054FF92
:201D700084F840014CF25030A4F838010EF0DAFAC4F834010DF0BAFFC4F82C010BF0F2F9BB
:201D9000C4F830010DF0F6F984F84101607811F0BDFA94F83F01A070E178012901D00528AF
:201DB00004DB012904D007E0A82200200121E1700828C4BF0020E0702079011C36D0491EAC
:201DD00010D0491E18BF68703DD14FF47A5306F13D0240F2A221642440460BE0C0220020B9
:201DF000E81F002001205A244FF4615340F6CA024FF4F4716870169420E0C0460000704232
:201E1000DB0F494052B81E85EB5124400BCC0000618E000024200020840E0020B82300201B
:201E3000F0220020080200204810002000204FF4485340F6B832687040F213116B83AA8357
:201E5000169A6A72E9834FF4487C05F1380405F13E0305F1440205F15001032740F25236A3
:201E700023F8026B22F8026B7F1E24F802CB4FF0000621F8026BF1D1C549C34A2431296334
:201E9000696AD0700120096828728847A86A00688047E86A00688047BD48B74920300860A5
:201EB00012F0E6FCDFF8DC92B9490128087040F08680B24CB548218835460069ADF81010C3
:201ED00042460DF1350340688DF8355004A9064600954920B047AD49012848710F46B8713E
:201EF00020D1618838462A460069ADF82A1017468DF836500DF1360340688DF82B200DF1AD
:201F10002A010446424600974920A0479F4901272B4642F6E06248710E46F7703446237150
:201F300030460281964C98482188C069ADF81010406842462B4604A9064600953C20B047BD
:201F50009149914F62882B46C969ADF81020496838723C2042460E46009504A9B04739460A
:201F7000E288C969ADF81020496838722B463C2042460C46009504A9A0473E463546394637
:201F900033460872FF273C463A46777221463746AC722546DA72384639733C4675732B466F
:201FB000237480224274397579493A460127F5740878A373012857753E4696750BD038B9BB
:201FD000002701214846B8460E914646467005E04846417804E048464146417081704146ED
:201FF0000023B74F684AC3703E469171BB1C3D460E933C4606F10B030F933A46294605F134
:202010004C03B64E109304F14403119307F13C03129302F13403DFF8E0A2DFF8E4B2DFF837
:20203000DC92139301F12C03B27B149305F109032E461693CB1D544CB84F1793731CB84E9A
:2020500018936B1D1993CB1C1A93354606F120031B9331462B1D1D93CB1CB8491E93B31CE3
:202070001F936B1C20930E46CB1C21933546B31C07F11001464F23936B1C2493DFF8EC8254
:20209000F960331D25930025E5712B4603713E467270A248406800214FF040424FF0FF3324
:2020B000FEF758FF071CF4D0002006900DF12E0106AA07A810F0D2FC002873D1BDF81CC0D0
:2020D0000126BCF1100F68D194489DF82E100078884262D1069C20884FF6FF7181425CD0B2
:2020F0002578913D29D01F3D57D16078162818BF002305D1304611F019FA3346CBF80040FC
:20211000864845699BB165B94FF6FD70B649B74A00900023102005F0B1F980494D69C3B2A1
:202130002BB97E4845F002050026456135E021790834204613F080F82FE065780E3D02D008
:20215000AD1E27D029E0A08842F20301814224D1A1680D780DBB491C04A80A6849680260A0
:2021700004AD41602878B34904AA00F0FD002870102005F083F910E01023002014670100CE
:20219000AC5F01008C22002000120020E02100202420002008200DF077F8069810B10EB1EC
:2021B00012F08AFCF80FFFF474AF5C48806813F03FF800287FF46DAF58488468204613F0F8
:2021D00033F8844208BF002402D0846810F072FA002CEAD0514920884969401E00F09E81A2
:2021F000C01E00F09781001F00F08581083800F06381103840F09581606842780678877833
:20221000C17841F60F0506EB0226001D761B00F01381B61E00F0B98045F6EF72B61A40F046
:2022300079810C2F00F27681DFE807F0A2958A7C6C5A4C3E33281D1207C0012940F06A818F
:2022500000780E9908701E48CDF80080406D99E0022940F05F8100880F9908801848CDF8EE
:202270000080806D8EE0042940F054810068109908601348CDF80080006D83E0042940F0FB
:2022900049810068119908600D48CDF80080806C78E0042940F03E81006812990860084825
:2022B000CDF80080006C6DE0042940F033810068139908609F48CDF80080806B62E0C04624
:2022D00008020020042940F025810068149908609848CDF80080006B54E0C046B80500209D
:2022F000022940F017810088169908809148CDF80080806A46E0C046B9A70000099A0000E5
:202310000C2F0020022940F005810088179908808848CDF80080406A34E0C046300900207F
:2023300048100020012940F0F5800078189908708048CDF80080006A24E0C046F8140020F8
:20235000012940F0E78001787A480170CDF800807849C06916E0022940F0DC8000881999EA
:2023700008807448CDF8008080690BE0016C0000022940F0CF8000881A9908806D48CDF89C
:2023900000804069159A352393E0002F46D07F1E39D07F1E2CD07F1E1AD07F1E0DD07F1E68
:2023B00040F0B880042940F0B58000681B9908606148CDF80090406A39E0012940F0AA804A
:2023D00000781D9908705C48CDF80090C0692EE0012940F09F8000781E9908705648CDF894
:2023F0000090806923E0C0465DF50000C5400100012940F08F8000781F9908704E48CDF887
:202410000090406913E0012940F084800078209908704948CDF80090006908E0012979D1CE
:20243000017845480170CDF800904349C0681C9A19233EE095B40010002F2FD07F1E23D0E5
:202450007F1E17D07F1E0BD07F1E63D1012961D10078219908703948CDF800A0C06926E084
:20247000012957D10078239908703448CDF800A080691CE001294DD10078249908702F481C
:20249000CDF800A0406912E0022943D10088259908802A48CDF800A0006908E0012939D1C3
:2024B000017826480170CDF800A02449C068229A15230AF03BFA2DE088082BD3DBF80070B9
:2024D00047B37888397908373A4612F0A9FE0746162F03D0042F01D011F028F8184846693F
:2024F000C7B936F00206466114D1164A16494FF6FD7001230AE040F252300AA9443806F03A
:2025100079FB0023BDF82820094808490090102004F0B4FF606810F0CDF802E0A0780CF08B
:202530009FFD204610F0C6F83FE6C046D12A010040E201000802002048100020F8140020B3
:2025500030090020C54001005DF500002DE9FE4FB34CA06A406801466846884704F12C05BC
:202570002868E179BDF80020406804EB410301461A8704F10E008847E079E1890C350022D1
:202590009446134604EB4006F18798420CBF022601262988EF885B1CAD1C8918032B06FB1F
:2025B00007C68AB21FFA86FCEFDB4FEAAC0604EB4000A0F84460607B032340F2D47192FB42
:2025D000F3F5614504F1440300DD08B100206073B6F5FA7F0ADA401CC0B20528607305DBE2
:2025F000012020710B2011F0DDFD607B40F68C28B04509DA401CC0B20528607304DB0120A8
:2026100020710B2011F0CEFD40F6FC0AB24507DB40F25230B0420BDDB6F5FA7F08DB03E095
:202630004046B04204DB5046E179064623F81100A07AB5F5FA7F01DB012838D10127E089EF
:20265000A772DFF8B89263798BB940F2523181420DDB0E20E07067714FF0000B84F801B0E3
:202670000BF0C8F958466178A0724B4619700A2011F098FDA07AB5F5FA7F01DB012816D102
:202690003846E189A072677977B940F252328A420ADB0E21E1706071002767700BF0AAF9CC
:2026B0006178A772484601700A2011F07BFD5046A84208DBB5F5487F09DAB5F5FA7FA8BF35
:2026D0004FF4487503E04146A942A8BF554663790F20A5F5487595FBF0F085B2E582278B71
:2026F000002B64D1B4F810B0B4F81280012F0FF2B82916D1584610F065FC8A4601904046E1
:2027100010F060FC99E80C0007F07AF8024601980B4651460AF0F1FD03D8B8F1000F16D02D
:2027300017E00FB9062D17DA584610F04BFC83468A46404610F046FC99E80C0007F060F884
:202750000B460246514658460AF094FD01D2062D2DDB012F04D02CE001202083A4F812B0D0
:20277000042010F094F9012507463E20387003217D703846BD7011F0DBF8924D05F10C01AD
:202790000A68F87011F08AFC20B9384604210DF0DFFC0EE010688047384604210DF0D8FCD3
:2027B0006869E969826808680979904701E000202083A6F252301D21400090FBF1F02082E9
:2027D0001E200CF06BFE606B2779B0F800A0A4F820A06FB9617A228A08460523514342013B
:2027F000C90002EBC012628491FBF3F087B200E00027E57904EB4500A0F84A70A07804F1BB
:202810004A0601287CD1E07901280BD0002804BF0222012002D0681EC2B2A81E114604E088
:20283000B41C0020002102200A46E1724FEA4208207308EB0400A0F850A0B4F81E90002F94
:2028500063D0D1453EDBBAF1500F39DB36F8081036F81500401A33D4A782AAF150000FF0EB
:20287000BBFE0546A9F150000FF0B6FE0146284609F0CAFF01464E4807F040F80FF074FEB3
:202890004CA20CCAFDF7D2FBE77AE5790BF050FC4FEA4708814636F8081036F81500401A6B
:2028B0000FF09AFE014648460BF02AF80FF078FE0146B4F81E9036F81700A78A401818E0A3
:2028D000002017E036F8080009FB00F010F07AFB3AA20CCA06F094FF8B460190504610F0FF
:2028F00071FB024601980B46594605F0B6FF0DF08BFE80B2B842B8BF071C06E0031200207A
:20291000E07AB4F81E904FEA400806EB4502B9B21180608C36F808304FF0640E8446FF1A58
:202930000CEB8C0C0EFB07F7BC4504DC1421B0FBF1F01B1899B200201180374601468D428D
:202950000CBF0223012337F802CB491C03FB0C00032980B2F3DB8110A1821180206BE27892
:202970000068034648469847207801280FD10121631C41F611000A460DF0FEFD124B41F6C3
:202990001100032101220DF0F7FD00202070E179A08A26F81100E079401CC0B20328A8BFC2
:2029B0000020E071BDE8FE8F333333333333D33F0000803F00000000000000406666666689
:2029D0006666EE3F641A00208D2200202DE9F04F0F46CD4C0168E16241688068ADF11C0DBA
:2029F000E060C548A1608047C448E16A0160A168DFF810A34160E168DFF804938160CE4917
:202A1000002FA346C1606FD03D68E8788DF80C0028798DF80D0003A812F0FEFBA86808B1F6
:202A3000C6490160E86808B1C5490160C54C287820706878BE686070A878B268A070317894
:202A5000A2607368E1702E696360EA6926627968E2620868E06068696062A8697B68A062A5
:202A7000286A9E68206395F8240084F834001EB9002011F037FA00E066617868C06818B921
:202A9000002011F02FFA00E0A0617868006918B9002011F027FA00E0E0617868406818B925
:202AB000002011F01FFA00E0206128692062F86881680E6806B9D24ED0494FF001084E60AB
:202AD000C66881F8018036B9002011F00BFA4D462E68F86801E04D462E6000685446FB68B9
:202AF000A0615868E06107E0002011F0FBF94D462E684FF001085446361DC7493668621C3E
:202B100004F114035020B04710B1286880688047DBF808008047C24E002781463B46BF480A
:202B30007770694620610422337038460FF05CFB0098B0F5801F0CD020B910F0FDFB06F052
:202B50005BFD08E00DF0F4FC11F0DAFC0420708001E010F0F1FB3846BA4EA0602B68B76050
:202B7000986980477060AF4880F8008039464180142011F0CBFDFF211422A06211F0FEFF2B
:202B9000E01CFF21022211F0F9FF142011F0BEFDA54F386038680021142211F0EFFF00206A
:202BB00000F052F940460FF0D9F9A0480188FF2906D1022101807822001D002111F0DEFFA9
:202BD000032012F025FB042012F01EFB052012F017FB062012F010FB07200CF06FFA944E87
:202BF0000820307006F1240012F002FB0CF006FD06F1360A05200A21524611F084F838B15F
:202C10000020C0F10901401C0AF8011B0A28F8DB3078102108F098FA2B68864909200DF15E
:202C30000E025E68087001AB10200021B047A06AE1690A260A309DF80E20761E00F8012B09
:202C5000F9D1891EE161DBF80C104846884704F120002B68626A059040461E69DFF8D8811F
:202C700004F120034146B04710B1286880688047B84610F097FC5FEA000903D009F094F972
:202C90004FF0FF39002643E00298216910F8062CA0F10C07032A03D1002939D0884737E049
:202CB000A16A9DF810C00A223046491E11F8013F9C4506D0521E00F10100F7D14FF0FF0A19
:202CD00001E05FFA80FA2868BAF1FF0F00F108001CD038790FF0F4FBB979012904D0022908
:202CF00004BF0299887001E0029908700299504610F030FF0CE0C04641490010F844002032
:202D1000702400208C21002090180020006880472868C36904A902AA0DF10F009847002802
:202D3000B2D0D8F800007700C35B6BB9761CF6B20A2EF8DB2BE0C046705201001532010017
:202D5000254101005C2000200A2E20DADBF808008047D8F80010002231F807A0CA53DBF8CA
:202D70000C108847354850F8262026705146304690470646FF202070DBF808008047D8F866
:202D900000107A5A16437E52DBF80C10884710F009FC0746B9451AD007B9294FE069B842A3
:202DB00038BF071CDBF80800804781462868016A206A8847626A28681F49059B521C626296
:202DD000C6683846B047DBF80C1048468847A768296860691431AFB9D8F800000A270026B7
:202DF000835B33B10969606988472968D8F8000014317F1E06F10206F2D107E0CC230020FC
:202E100087210100096988472968143109684FF0FF3088472DE7C046C13701009D41010042
:202E30005C1F0020B40500202C2F0020101B0020841300203E2F0020092501000064010070
:202E50008EC2F528D42E00202DE9F84FDFF8BC13DFF8BC23DFF8BC53087008210020106003
:202E70000D23DFF8B40340F23732017043808280DFF8A8030560AC7EDFF8A4030470FF2C85
:202E9000E97E417008BFFF292A7F82706B7FC370AE7F0671ED7F457115D1FF2A08BFFF2B9D
:202EB00011D1FF2E08BFFF2D0DD1DFF878130A7802704B7843708A788270CB78C3700A7969
:202ED000027149794171DFF860130278DFF85C83DFF85C93DFF85C730A70FF2543784B7001
:202EF00082788A70C378CB7002790A714079487188F8005088F8015088F8025088F80350AA
:202F100088F8045088F805500020CB490880D9F83440CA49607808702278C9493A70A07826
:202F30000870A2681079C74A411E1170E078C649C64A0870E068106008B910F0D3FF2069C2
:202F5000C34E306008B910F0CDFF3068DFF804A301688847326852F8041F50468847BE4873
:202F7000BE49CAF82000CAF824106069BC49086008B910F0B7FFA069BA49086008B910F080
:202F9000B1FFE069B849086008B910F0ABFFDFF8DCB2B74C9BF8040011F0B8FB00282060F9
:202FB00075D09BF80500B34E11F0B0FB002830606DD09BF80600DFF8C0A211F0A7FB0028E5
:202FD000CAF8000063D09BF8070011F09FFBAB49002808605BD039789BF80000891C484394
:202FF00080B211F093FBA649002888604FD03878002862D0BBF80210484380B211F086FBD4
:20301000A04A0028506042D0387811F07FFB9E49002808603BD03878400011F077FB9B49D8
:203030000028086033D038781821484311F06EFB974A106058B33878400111F067FB954981
:20305000086020B33878000111F060FB92490860E8B13878000111F059FB90490860B0B194
:2030700038783021484311F051FB8D4A106070B18C4839780078484311F048FB8A4A1060EF
:2030900028B1387811F042FB8849086018B9BDE8F14F06F023BE4FF0000B09E011F0FEFA67
:2030B0000021418081600180022303710BF1010B39785FFA8BF08842F0D32268694F0120A6
:2030D000107121680D732068457321688D732068C57321680D7400212068457400202268B7
:2030F000D172A0222168487103212068C28001720720226850720021206881722821206838
:2031100001224182C2760020216848770022206880F85E200121226811770120216881F822
:203130005D0001223068027131680D733068457331688D733068C57331680D74002130684F
:20315000457400203268D172002231684871306882724FF420703168C88008818A7401214C
:203170003368D974DAF800201573DAF800104D73DAF800209573DAF80010CD73DAF800202D
:2031900015740022DAF800104D740121DAF80030DA720023DAF800201171DAF800104B712C
:2031B000DAF80010C88008818B720520DAF800209374DAF800103E4AC874106880473968AB
:2031D000054608688047396851F8042F00209047D9F80C101C4B0A881878364902430A8085
:2031F0002846354A136898470C21344811F0FCFF404611F0F5FF11F0EFFFBDE8F44F034836
:2032100000784FF4005107F09FBF00BF6E4F0020044F0020B63F0050604E0020084F0020A4
:203230002C4E0020E81200503C4E0020344E0020506701007B4F00200C4F00206D4F002055
:203250006B4F0020724F00206C4F0020F04E0020F44E00207C4B00201D4701003D47010037
:20327000F84E0020FC4E0020102F0020A0230020104F0020144F0020184F00201C4F002018
:20329000E02E0020684E0020004F0020142F0020804E0020844E0020884E00208C4E002078
:2032B000904E00208E240020182F00201C2F002098180020544F00209C180020F84D002090
:2032D0002DE9FE4FC14CBF49BF48DFF8F48204F120064FF00A0B4FF000094FF0010AA6F17A
:2032F000080209680092B54F0291B0FBF1F00190F888400830D298F8010002282CD1AC20AF
:203310000CF076FCAE200CF073FC10F073FBC8F8080010F06FFB01464A4698F80500C8F82A
:203330000C10B1F5FA7F38BF5246B74902258C460A544A461CF8011B6D1E1144CAB2F9D176
:20335000401C88F80020C0B20228D4BF88F8050088F8059010F0FEF8B868AA494EF66022C9
:2033700000F596700978B860B0FBF2F2914209D2A448491C5246A34B0170042141F61100B7
:203390000DF0FAF82078217C884206D03C2814BF80219F216174207400E0617CA07CE57C1E
:2033B000884202D1227DAA4259D0002D42D0012D39D0022D30D0032D2BD0042D22D0052D87
:2033D0001DD0062D18D0072D13D0082D0ED0092D09D00A2D04D00B2D37D1D6F88C201DE0DA
:2033F000D6F88C2010E0D6F88C201EE0D6F8982014E0D6F8982018E0D6F894201CE0D6F897
:20341000942012E0D6F8942005209047D6F8F02016E0D6F8942001E0D6F8902005209047C7
:20343000D6F8E8200CE0D6F8902005209047D6F8E02005E0D6F88C2005209047D6F8F82031
:20345000617C05209047E57C617C202D05DAF069024605209047E57C617CA07C2575A3796C
:20347000627ABD70934208BF884218D04BB1012B05D07069024605209047617C07E070692E
:2034900006E0706949460246052090474946B069024605209047A279617CA07C6272E57958
:2034B000E27B954208BF88420AD005B949467069024605209047E079617CE0730846A07408
:2034D000E578227B954208BF88420DD025B1012D14BF7068B06800E0F0680246052090475A
:2034F000E278617CA07C22732579E27A954208BF884208D0002D0CBFB06B706B024605203F
:2035100090472079E072FD88009940F21A3005F071FB207E062822D0072820D002281AD1EC
:2035300002206071680814D3A57D617C012D08D055BB3069494602460520904784F816A07E
:2035500005E0306902460520904784F81690617C1AE0022006E084F80590484602E084F89B
:2035700005A05046A27A617C904202D1A27C8A420AD0012801D030B9494630690246052026
:2035900090476079617CA072A5780DBBF88840081ED3637D012B09D0002B3CD1D6F884204F
:2035B00005204946904784F815A033E0D6F884200520904784F815902CE0C046800C0020DF
:2035D0008C22002040670100E093040000120020A07BA27C854208BF8A421CD0012D15D02A
:2035F000022D0CD0032D07D0042D03D0052D12D1706F02E0B06F00E0F06F024608E0D6F873
:20361000802005E09624002092220020D6F8842005209047A578217D6078A57320293CDBEE
:20363000627B617C904202D1A27C8A4235D090FBFBF390FBFBF202FB0BF2851AF3B90520D1
:2036500049460CF085F9052049460CF057F9052049460BF0C3FB052049460CF0D1F8052046
:2036700049460CF0F7F8052049460BF089FB052049460CF019F90FF0A1FE05E006EB8300D4
:20369000D0F88C200520904706EB8500D0F8B420617C0520904760786073019811F098FDE5
:2036B000F8883978401C0029F8807FF421AE1F4CA078012810D088B984F802A001E00FF0BF
:2036D00033FDE26810F0EAFC0028F8D09068804720698068804701E084F8029014490298AD
:2036F000B1FBF0F011F074FD04200FF0D0F905462E202870032185F801A0284685F80290E0
:2037100010F016F96169E870886802460421284690470FF083FF07F10C000FF0A3FE494612
:203730007870084604F052FBFEE7C046641A002020A107002DE9F04FADF1140D10F001FE9E
:20375000D048D24CD0494678304604EB40028888A2F89600CE4AB1F800B0B1F802A091F91F
:20377000067091F907900E72400016800EF034FFC0490AF0C5F8C04909F046F80EF0F4FE2B
:20379000BEA20CCA06F03CF808F0CEF80CF03CFF750004EB0508A8F8B800BE4820F805A038
:2037B000BD4820F805B0BD488755361986F88590B8F8B80010F00EF8B749DFF8D8B28839D4
:2037D0000391B64911310491B14904F116060BF1220BCA3102910EF0C7FED5A20CCA06F0A7
:2037F0000FF80CF011FF308006F1A2000190B8F8B8000FF0EFFF0EF0B7FE04F10807CEA250
:203810000CCA05F0FDFF8146E06B88460EF0ACFE0B4602464146484605F0F2FF0CF0F4FEC7
:203830002D1996353870042102222B464FF4F0400CF0A2FE4FF4F0400521022233460CF0C4
:203850009BFE07F18E08258AC548217A0095401C0170102DC0F22A81606CDDF808A0BF4E88
:20387000D9461127401CC4F820010025606439F8021B3AF8020B48430FF0A4FBB0A20CCAE1
:2038900005F0BEFF0DF008F916F8011B7F1E00FB0155ECD128460FF09DFFAB4908F0B4FFEB
:2038B000AA4E31460AF02CF8A94908F0ADFF0EF05BFE08F039F80DF0EFF8019AA7491127AE
:2038D00005460020A56611F8013B32F802CB7F1E0CFB0300F7D10FF07DFF31460AF010F8C3
:2038F0009C4908F091FF0EF03FFE08F01DF80DF0D3F8E16C4919E164A26CE0661218A264C3
:20391000656D236D6D18C4F824519B18C4F828310FF060FF009905464FF496704843A0F50C
:2039300096700EF059FE0146284608F06DFF8A4909F0E6FF0EF018FE07F0F6FF0CF064FEF4
:20395000C0B2207384F83D010BF0E6FB84F83E01002584F83C5109F05BFEA4F83A010EF0AC
:2039700053F984F8400106F031FAE76E7C4E84F83F01A7B1A16E4FF47A7048430FF02AFFEB
:20399000814638460FF026FF0146484608F03CFF0EF006FE4CF2503180B2814201DA4CF2D7
:2039B0005030A4F838010CF0BDFCC4F834010CF09DF9C4F82C0109F0D5FBC4F830010BF0D0
:2039D000D9FB2F4684F84101AFB9B8F820000199A8F80000088C029B0880188C5A461880C9
:2039F000108C039B108093F91000049A187092F9100010700CE00398C5557A0028F8025083
:203A10002BF80250049BDD5501998D52029885527F1C112FD8DBB4F83A1194F8402121646F
:203A30006079B27004F59073401C60710521042241F611000CF0A0FD04F594734FF4F040B2
:203A5000062104220CF098FD04F592734FF4F040072104220CF090FDE17AE078491C0128EF
:203A7000E1721DD094F83F1105291BDA0120E07019E0C046DB0F49400000704252B81E85B5
:203A9000EB51244094230020B8230020840E0020940E00205E0F0020800F0020F80E0020CE
:203AB00094F83F1110B10829C8BFE57060794B282DDBD4F82021618A606B2A4EC4F844219C
:203AD00004EBC107401CD4F82821C4F84801264D3178C7F84C21608AD4F8242104EBC000B7
:203AF000C0F85021214FC4F8B4116378606B2978401CC4F8B83100258742C4F8BC118CBF92
:203B1000606365630BF064FBE5646571A5641848014640880F46401C48807878401CC0B2E2
:203B30001128A8BF012005B04870BDE8F08FC046CDCCCCCCCCCC0C403BDF4F8D976EA23F2C
:203B50002D431CEBE2361A3F00803B4500009643000061450060EA460000B443F022002035
:203B700000120020B51C00208D22002080D3D8FF942300202DE9F84FC04CA178FF2904BFD5
:203B9000002010F0AFF9A07810F07EFC044604F1680504F190062968086810B10021E1833D
:203BB0000CE0A87B002804BFA97E002906D13078002801BF207F0128608CE0832189E08B18
:203BD0004118491C6181204611F0FEFA01281EBFAB480178012904D121890020491CE083D3
:203BF00061814FF6FF77A87E01280DD1AA8B6189208911F0E5FA38B1218960894A1C93B21C
:203C100098421BD0A88B0FE03078012816D172886189208911F0D4FA80B1218960894A1C6F
:203C300093B298420AD0708892B2904206D03818608180B211F0C0FA3F18E78304F59679B0
:203C500099F8040020B120890021401CE183608104F12E07A87E012811D12189A88B4B1CE4
:203C70009BB298420BD1608111F0A6FA8046B988288C01FB080820460AF0B2F901E0B7F84D
:203C90000480B4F81EC022687E4ED2F80CE00CF1010000FB08F340F6C41000FB03F18E443B
:203CB000C2F80CE03668DFF8E0E13678BEF80080764AB609032E11D1D67BF60748BF4FF00E
:203CD00000080BD408F101081FFA88F6012E12BF668AB9F8066006F2DC5600E0668A5E43B2
:203CF0004FF4C87AB6FBFAF6761C6661AEF80080A3614FF0180894F806A084F820C008FB1B
:203D10000AFADFF88CC1DCF800E023680EF1080656F80AB0C3F810B094F806A008FB0AFA63
:203D3000CDF800A0D3F80CB0D4F814A0ABEB0A0ADDF800B046F80BA094F806A008FB0AFAB6
:203D500056F80A609E600EF10C06A37908FB03F30EF10C0EF65C06F0F00646F002060EF8DC
:203D700003604FF0000ADCF800E0A6790EF1020308FB06F623F806A0464BA6791B68760146
:203D900003F1140AD4F814B05AF806A00AEB4B0A03F1140B4BF806A0AD7E022D0BD1A579DF
:203DB0006D0103F1140697F800B056F805A000FB0BAA46F805A0BD88D27BA779D60736D518
:203DD00008FB07F70EF10802D659A6F5A86A0EF1080646F807A0A77908FB07F7D259276820
:203DF000511A3961BA6003F11402A1794901575807F5F667575003F11401A279520189581F
:203E1000C9F800106843244AA179156B03EB41162968401AA0F51670F0612049A07903EB02
:203E300040100B78012B14D10121C17214E003F114027F01D1592A464243A1F5E661A2F528
:203E500016729142DED30821204611F0B1F9012011E0916A4A78C272A179DCF8000008FB18
:203E700001F281182268516007200D490870204609F0FCFD0020BDE8F28F00BF684E002043
:203E9000784F0020084F0020342F00205C4D0020804E0020844E002050670100734F0020EE
:203EB0006F4F00202DE9F84F0C46E00788B00BD510F004FC28B100218160B348006800B177
:203ED000804784F001005CE1A0070FD5002100230691059104910393029101910091012259
:203EF0003C2011F061F984F002004AE11D256007A64EA74F40F18A80002107918B46A54815
:203F10008178FF2904BF00200FF0ECFF386890F8A00010F0B9FA80463868C07A98F8269141
:203F3000022818BF032808F5907A06D106F10D0011F036F908B906F1070B5146484611F043
:203F50002BF988B33868807A002818BF012804D13146504611F01CF904E0524649463046B7
:203F700011F012F9FF2834D005FB00F906EB090506225146E81D10F039F916F80900396854
:203F900040F00209E81D07900622887E00F0010088F8260105F1010A386800F1140108F5D0
:203FB000907010F023F914E05146484611F0E8F878B152464946304611F0E6F8FF2808D037
:203FD00006F10D014543481911F0EAF808B949F0020908F12C004B4601780691428912094F
:203FF00005920122B8F822100491C0880799029140080390CDF804B0CDF800A0002098F89C
:20401000061011F0D1F884F00400BAE020060FD500210023069105910491039302910191D3
:20403000009101223B2011F0BFF884F08000A8E0E0044BD5F11D06F10D0011F09DF83868E1
:20405000017A012918BF042931D1C17A02291EBF0329817E01292AD1817E00F11402304696
:2040700011F092F8FF2811D04543354405F10D0011F096F850B9E91D05F10D0011F07CF883
:2040900038680622E91D143010F0B0F83868C07A022818BF03280AD106F10D0011F080F8F8
:2040B00028B938680622F11D0C3010F09FF83A4842683A4800784FF480510CF0CBFC10B1A8
:2040D0008E2009F025FB84F480505AE0A00505D510F09DFB324901200860FEE7600504D549
:2040F00006F087FA84F480604BE0600405D5812009F00EFB84F4804043E0A10440D5294D4A
:20411000286810B100200FF0EDFE274E4FF0FF30286011F02DF83168244D51F8202F684653
:2041300090472349234B486A8A6A009001920293C86A0268086A0392ADF810000A6B11780A
:20415000002904BF5068002805D19068002804BFD068002806D02970506868609168A96079
:20417000D068E86029463568134A2E6813486B46B0471349086003F0E5FB84F4005000E06E
:20419000002009B0BDE8F08F204F0020AC450020104F0020684E0020784E00206E4F00205A
:2041B000FC002043044F0020F04E0020684500205C200020BD4601002C4D0020E82D002084
:2041D000EC4E0020BB482DE9F84F0025BA4CB849056094F8E200002800F06581012800F0FF
:2041F0002F81B64E02283CD0032840F05C8151F8250CD4F8B8100029A0F5C060C4F8D40011
:20421000B8BF49420028B8BF4042814226DA4FF08057D7F8A4014568B4F8BC0030214FF475
:204230007F42082300903046A847D7F8A4014568B4F8C00004214FF4F80212230090304663
:20425000A847D7F8A401B4F8D070456820214FF440620A2330460097A847012584F8D85039
:204270001CE151F8258C10F0D2FA2F4600B901273946934F38680028FCD0B146012609F108
:204290000409D9F82CA03E6009B110F0C6FACAF30720C4F8BC0010F0BAFAAA4600B9B2469B
:2042B0003B68002BFCD0D9F800B0BAF1000F3E6001D010F0B2FACBF38440C4F8C00010F000
:2042D000A6FAAA4600B9B2463B68002BFCD0D9F81C90BAF1000F3E6001D010F09EFAC9F3F9
:2042F0008120C4F8D000B8F5C061C4F8B81000F09C8094F8D80068B9C4F8D410D4F8C00072
:20431000C4F8C800D4F8BC70C4F8C470D4F8D030C4F8CC30D4F8D400D4F8BC30002854BF0A
:2043300002226FF0010204F1C8010F6800EB40008018421000EB927207EBA2000860D4F8E6
:20435000C810C4F8C43000291CDD1E293CDDD4F8CC0030B93429B4BF15391E21C4F8C810D1
:2043700025E02A29BABFD4F8C8000B381E20C4F8C800D4F8C4003F28B4BF401C3F20C4F8E2
:20439000C4001FE0D4F8CC00032812D011F10B0FC6BFD4F8C8000B30301CC4F8C800D4F899
:2043B000C4000028C4BF401E051CC4F8C450032508E011F1150FC6BFD4F8C8001530301C4F
:2043D000C4F8C800C4F8CC504FF08057D7F8A401B4F8C43030214FF47F4245683748009333
:2043F0000823A847D7F8A40104214FF400321123456832480096A847B4F8C860D7F8A4015D
:2044100004214FF4F802122345682C480096A847D7F8A40120214FF440620A23B4F8CC60B0
:20443000456826480096A84701E084F8D85040F2FF50404502D8801C40452FD2082030E00D
:2044500051F8251C1F4F4BF2F5204843060A3868C0F3814001280CD11B4800680068804753
:204470000DF0F2FA10F0DFF93111C010484306EBE03694F8E50030B91448006820F07F40DA
:204490003618760801E084F8E5501148310C0660012741600F4D8760287808B90B2000E03A
:2044B000052084F8E40003F0BDF8BDE8F88FC0462D400C402C500C407C17002000A00C406D
:2044D00000800C40B43F0050EC010010102009403C600C40C56501002DE9F84FB34D696806
:2044F00084B0019121B905B0BDE8F04F10F03CBE0978DFF8BC82AF4EDFF8BC92DFF8BCA28C
:2045100001291CBF0229042946F2A81741F64C5B05D0402918BF802900F096803CE110F078
:20453000FBF90028FAD00198007804F025FD0090446814B900200FF0D5FC9AF801000028AA
:204550005CD000F043F90FF09FFF02900168009801914F6809F032FF022825D000990A7816
:20457000012ADBD196490A68137A19F80310317018B910F0F5FD5844A0602069C17E01F099
:20459000EF01C1762069C17E41F08001C1762069C17E01F0F00141F00201C1762269B96872
:2045B00088484118D1614BE001980178802911D10820854930700A78012A03D09AF801001F
:2045D000022801DB38690CE0D8F828003A690178D1720DE07C49072030700A783869012A1A
:2045F00002D10121C17203E0D8F828104A78C2720298817901988AF80210C8E00098002879
:204610008CD00199009A0078914205D101281CBF00200FF067FC15E0012840F0BD80684818
:2046300001680A7A19F80200307010F099FD3918A06810F091FD18B910F092FD5844A06051
:204650000120A8700098A2E09AF8010000287AD000F0BCF80FF018FF044620680290476825
:204670009AF802000FF010FF039010F05BF910F0070F3DD0A87804F07FFC0190416801981C
:204690000091029909F09AFE022831D001990A78012A2AD14A490A68137A19F80310317089
:2046B00028B910F05DFD83440098C0F808B000980069C17E01F0EF01C17600980069C17E48
:2046D00041F08001C17600980069C17E01F0F00141F00201C176009AB9683A484118106945
:2046F000C16101210198A97051E000200FF0FAFB0398A04225D0029833490278802A12D1E0
:20471000082030700978012903D09AF80100022803DB38690121C17210E0D8F828003A6927
:204730000178D1720AE0072030700978386901290EBF0122D8F828104A78C272A0798AF827
:204750000200029823E010F0EDF810F0070F29D0A87804F011FC04462078D4F8048001283A
:2047700020D117490868027A19F80210317010F0F7FC3918D8F8080010F0EEFC20B910F049
:20479000EFFC5844C8F808000120A870204605B0BDE8F04F06F0F4BD05B0BDE8F04F002022
:2047B0000FF0A0BB05B0BDE8F08F00BFE02E0020506701006F4F0020289A0110684E00208A
:2047D000104F0020F0D8FFFF734F00202DE9FE4FB24C617811B900200FF084FB10F0C0FC44
:2047F0004FF00008074607F6C417C246AC4DDFF8B49228E050460FF047FE06467079F0B167
:204810002968B07901F80800394608F101005FFA80F8304610F09CFC30680178402902BF3A
:2048300006F182000178012902BF41887289914205D1B169C088411830460DF07FFC0AF17A
:2048500001005FFA80FA99F800008245D2DB6178884505D000200FF045FB822010F074FC83
:204870006078012840F0F180002701E07F1CFFB299F80000874280F2E28038460FF004FE85
:20489000064670790028F1D02968B0790A7890421CBF00200FF026FBB079FDE0286810F823
:2048B00009000FF0F1FD00684268DAF808109068814204BF3E4609F1010900F0D480D6E0F6
:2048D000286890F800B001224FF4C0710FE0636803F5AD76835C01FB03F901FB0BFE36F88A
:2048F00009C036F80E60B44538BF9B46521CFBB29A42ECDB4FF6FF7010F022FC06465846F8
:204910000FF0C2FD68490068D0F804A00868D94630F8192060684FF4C07300F10E0103FB18
:2049300009F3C85AB2EBD00F52D2720840F6C4104243009200275D4A0190029217E0584686
:204950000FF0A2FD01680A78802A03D1DAF81030009A5A610978402908D1029980790A6810
:2049700002EB4011009800F5A060C8617F1C47452EDA2868C05D8345F8D001464FF4C0730A
:20499000594363685A1803F5AD73D289595A53088B4202D2521A9045E8DA0FF075FD01682F
:2049B0004A68019B9168DAF808207008A1F6C41103FB002010F0D0FB0028C0D03A48006837
:2049D00030F81910491C20F81910286810F807B0296808780FF058FD0026006847684FF49C
:2049F000C079464551DA2868805D0FF04DFD0068296842688B5D606809FB03F3034403F17A
:204A10008201087830B15889B1F802C0401C80B2604508DA887B01280ED15889098A401C66
:204A300080B2884208DB6EB3B968906801F5C241A83110F091FB28B3761CF6B2D1E7002002
:204A50000FF050FA822010F07FFB6178286810F073FB286800780FF017FD00260068D0F899
:204A700004A04FF00109771CC145FFF617AFF6B2002E1CBFF8B200287FF422AF286890F806
:204A900000B037E7296811F806B007490A6800205B4622F813005846BDE8FE8F684E002092
:204AB000004F00207B4F0020142F0020844E00202DE9FC47DFF8B8A20F460546F80B80F09B
:204AD0000881A64EDFF88882B80F80F0BA80B80880F0AE803809C0F02F819B48017809098A
:204AF00080F0A180007830F07F0040F09C80684607F0AAFA012803D10098002800F09380A9
:204B100092480078002840F08E8001240025E8B20FF06AFC48B1837A3BB1847290F909001A
:204B300004FA00F0C0B20DF0EBFB6D1C032DEED345464FF0030905F1AC0085F810900FF014
:204B5000E5FF844A0021884610681160824952F8080C05F1340042F8088C42460FF0E6FF2E
:204B70003068006B8047AA68A969801A000BC0F1FF328A422CBF01444FF0FF31A961287F94
:204B900020B1E868A969B1EBC02F1ED90EF022FF414600B12146081C14D0714840F6090191
:204BB000018041464180427B64F303024273027B61F30302027341600FF048FD418811F450
:204BD000406FFBD02C774146A9616649086820F0020040F400700860634A42F8049C41F220
:204BF0003006966014605023936014604FF4CA6696601460022042F80C4C44460C600DF0A7
:204C1000DBFD112006F05EFB287818B9686838300FF098FF687F18B16C7705200DF0CCFD6F
:204C3000524868612C7409F091FF27F0080783E005F044F940467430006808B927F00207AA
:204C50007AE00FF06BFF34468146606D0068014604208847C8B1287CB8B14046083006681F
:204C70009EB12068EC68006B8047801BE860010BE960A14202D209194908E96040F6C41012
:204C900088422CBFB1F5FA7FE860484610F050FA0DF01AFB90B1A8696FF4807100224FF0F7
:204CB000007304462846A04740466C300068002808BF47F0020701D009F048FF6869002116
:204CD0004FF0806304460A462846A04727F0005732E00FF023FF51460E684EB306F12801E4
:204CF00006C90A234FF0E0450B40154008BF002B1ED106F1280191E8300006F1280393E85D
:204D1000060006F12803AA43A14383E8060010F00FFAB16871B1002D08BF002C0AD0306942
:204D3000B6F93C10B2682B4616462246B04701E010F0FEF927F4804727B1504639465030FB
:204D50000FF008FFBDE8FC87362F0020312600209824002014100440B1E800008C0100109F
:204D7000AC2E0020000004600C41044049AE0000182500202DE9FC41A0F20137144688469B
:204D9000022F40F234819C4E9D499E4A3F1F0F2F04D9143F4CD0BF1E1CD011E0DFE817F0C3
:204DB000D000CA000E01FB00C200BA002701B000A800100010009E0090008100740066009A
:204DD0002D2880F21481B8F1020F40F010818949238808E1B8F1010F40F00981F078012882
:204DF00000F00581324620781179107189B9002800F0FD805078012800F0B680042800F008
:204E1000B380062800F0B080052800F0AD80BDE8FC812078002840F0EA805078032800F058
:204E3000B080072800F0AD80052840F0E080A8E0B8F1010F40F0DB802078012840F0D78015
:204E500006F1F0000FF022FC002840F0D0803446002004F13E0108F0C9F9002840F0C7806F
:204E700004F1CC000FF082FEBDE8FC81B8F1020F40F0BD8020880A28C0F2B980B0F5486F78
:204E900000F3B5800E4619E0B8F1020F40F0AF802088B0F5FA7F80F2AA800E463080BDE869
:204EB000FC81B8F1020F40F0A28020880628C0F29E80B0F5486F00F39A801646B61CEDE748
:204ED000B8F1020F40F0938020880628C0F28F80B0F5486F00F38B801646DFE7B8F1010FF9
:204EF00040F085802078062880F28180464E0EE0B8F1010F7BD12078042878DA0A3606E071
:204F1000B8F1010F73D12078082870DA09363070BDE8FC81B8F1010F69D12078042866DA7A
:204F30000836F4E7B8F1010F61D1207804285EDCF61DECE7B8F1020F59D120881036ADE713
:204F5000B8F1010F53D13079012850D032462078D178D07069B9002849D05078012803D0B2
:204F7000042818BF052842D101200FF0BFFBBDE8FC81207800283AD15078022818BF052821
:204F900035D110780EF04CF81C490246102002F075FABDE8FC8106F1870500211F2228467E
:204FB00008F0EFFC21464246284607F037F944463078B4710EF034F8002311E006F1680581
:204FD00000211F22284608F0DCFC21464246284607F024F94446307874710EF021F801235E
:204FF00000940A4901950246102002F047FABDE8FC81C04699280100B805002099450110C3
:20501000FC050020F8050020F6050020094501102DE9FC418E488F4A04788F488F4B9049C0
:205030000D2C6FD8DFE814F012010E000E000E000E000A010A018E000A01C900C900E700A2
:20505000E700EE00106041F204478648864DB0F802C08649BC451FBFB0F81AE0BE45B0F877
:205070003280B8454FF4A0561ED181480068D0F800C09CF8040003280CF1080E0BD1DEF808
:205090000E0000281CBFBEF81800002803D01F80784911608AE0022C1CBF1E800D4615607C
:2050B00000208CF8040081E0BCF1000FA3F800C041D0BCF1010743D0B7F1010C3BD040F2F5
:2050D000FE37BCEB07071ED0A7F1040CBCF1010F20D94FF47F77BCEB070C1DD04FF44067C0
:2050F000BCEB07070FD0BF1E012F0CD93F1F0AD07B1E012B0ED940F2F937DB1B012B1AD9BF
:205110001B1F09D09AE0022C01D115604EE01E800D46FAE7584DF8E7584B1C68257A012D05
:2051300005D141F20243438043834386F0E7468046834686ECE700200EF0D4FE832081E0C6
:205150008F207FE04E498978FF290CD0106018204C4C41432068851C40F204466C5A1C80CA
:20517000A41B012C484B71D94FF47F76A41B0FD04FF44066A41B032C84BF641F012C0BD9D2
:20519000A41E012C62D940F2FD36A41B08D103E0801C41F201444452136005F0D5F805E031
:2051B00000200EF09FFE85200FF0CEFFBDE8FC4136480078012105F0C7BF40F204424888F6
:2051D000188090421CBF41F2084290423ED041F60402904211D12E4C2E482F4B0068002535
:2051F000CDE9004502222D4C256855F8086FB0472B4908802AE04888188000200EF072FEC3
:2052100085201FE04888188002280DD940F20442801A1BD040F6FC72801A05D0083815D02D
:205230004FF47F72801AE8D1887B801CC2B2B52AA8BF662088730020488007E000200EF010
:2052500051FE8420BDE8F6410FF07EBFBDE8F3816F4F0020204F0020ED4A0100504F0020B6
:20527000CC4C0020204A0020B1540110615A0110F44B002059550110755B0110104F0020FC
:20529000684E0020804E0020313901106E4F002002000080EC4E002031280100F04E00204E
:2052B000424F00202DE9F04F8246DAF80070DAF804600C465FEA0208ADF11C0D14BF002138
:2052D0004FF0FF31DFF8409248460FF054F9002818BF0B2040F0158100258F488C49057096
:2052F0008A48FC6052460FF021FC317B27200FF01FFCB8F1010F07D0657002200DF0E8FC47
:2053100006200DF0E5FC01E0012060702078012840F2AA80801E012868D9801E012833D9AF
:20533000801E012800F2DE800FF0F8FB83464FF0805000F5EE77D0F8DC01A378466A00931F
:2053500021782846062908BF0120019001200290A068228AE1686368B047814658460FF0B8
:20537000E7FEB9F1000F40F0BF80B8F1000F02D00EF0F4FE02E050460DF0A0FA002800F06F
:20539000A3803868806A2AE00FF0C8FB83464FF0805000F5EE77D0F8DC0101230668009388
:2053B000A168A27860682478AC46042C08BF9C466346B047814658460FF0BAFEB9F1000F16
:2053D00040F09280B8F1000F02D00EF0C7FE02E050460DF073FA002876D0386840688047CF
:2053F0004C49C1F8B0510D6081467DE00FF096FB83464FF0805000F5EE77D0F8DC01E38AE9
:2054100086690093E0680190208B0290A0780390207D04900121059122782846022A08BF55
:20543000081CE1786268A368B047814658460FF07FFEB9F1000F57D1B8F1000F02D00EF0C9
:205450008DFE02E050460DF039FA00283CD03868006A80475FEA000946D1E078A168E28ACE
:20547000236907F08DFFBFE70FF058FB83464FF0805000F5EE76D0F8DC01E38AC768009310
:20549000E0680190208B0290A0780390207D2946049001200590257805B90146084662682B
:2054B000A368E178B847814658460FF041FEB9F1000F19D1B8F1000F02D00EF04FFE02E07C
:2054D00050460DF0FBF908B914201AE03068406980475FEA000907D1306802692169E0782F
:2054F000904781E74FF0FF39B8F1010F05D002200DF062F906200DF05FF903480FF022FBFC
:20551000484607B0BDE8F08F101D0020481D002025340100504502403C2F00202DE9F0433B
:2055300085B011F8017B0446082F04F1FD0004F1FC0804F1760504F5A076844A844BDFF842
:20555000149213D0092F21D00F2F2FD0112F01BF287801286878102840F0D5800A783276BC
:2055700048787076012184F83D11EBE00025521C4E5D5F5D3E434E55575D3E4046556D1C4A
:20559000082DF5DB204608F0E3FE74E00024571C0D5D1E5D35430D553A5D15400555641C47
:2055B000082CF5DB022088F80000CBE098F80100820704D410F0110F57D01A2266E008784F
:2055D0004A7800EB02203080CA78887800EB022070804A79087900EB0220B080CA79887938
:2055F00000EB0220F080087A30724A7A887A02EB00227281C87A0A7B00EB0220B0818A7B28
:20561000487B00EB0220F0810A7CC87B00EB022030828A7C487C00EB022070820A7DC87C1D
:2056300000EB0220B082487D897D00EB0120F082494801788A0658BF1A2212D504F5A670EF
:20565000049071890391307A029021890191F0880090B38872883188204608F0DFFBE0B1E1
:205670001E2298F80100410710D40F2088F8150020460FF059FD002864D199F8000005B0FB
:20569000BDE8F0434FF4804105F05EBD204605B0BDE8F0430F210FF043BD7088A882B18891
:2056B000E9820221F0882883297400206882A18EA88AC91DE981618EB0EB510F02BFE88AB4
:2056D000A18E884202BF288BE18EB0EB111F18D02878012804BF68780F2805D0687918B109
:2056F0000F21A972FE2127E0FC2120460FF014FDF0880090B38872883188A0790FF008FD83
:2057100020E0102118E0491E20460FF0FDFC032F18D1A878042818BF0D2813D16E78142E0C
:2057300018BF0E2E0ED12F7820460FF0E9FC012F06BFAE72FD213146204605B0BDE8F043D9
:205750000FF0EABC05B0BDE8F08300BFEC4D0020FC2E00206E4F0020144E002010B50B78BE
:2057700084074CBF43F0020303F0FD0304064CBF43F0800303F07F0304074CBF43F00803C4
:2057900003F0F70384064CBF43F0200303F0DF0310F0AA0F0B7003D0107840F00C0003E09E
:2057B00018B9107800F0F300107010BD2DE9F8430D4600272878022814461E4667D16968F4
:2057D00008784978DDF8208000EB012080B25FEA08021CBFB0F5285F0B205BD14FF4285158
:2057F000401A08D0401E21D0401E2FD0401E25D0401E31D04BE0DDF82490E8680FF0C0F94D
:2058100080B2A0EB08024A45BCBFA0EB08001FFA80F909EB0800162806DAA6F800904A46AA
:20583000E86800EB08010DE00D2732E0E8680088022131802070000A60702AE006203080EB
:205850000622E96820460EF0D1FC22E001203080E9680A7822701CE0E868B0B108213180CF
:205870000288227003881B0A63704188A1704288120AE270818821718288120A6271C1888A
:20589000A171C088000AE07103E0308001E0378001273846BDE8F2832DE9F0470F468146EF
:2058B00038780024022890461D466DD17868089E01784078DFF8D8A001EB002189B24FF4D2
:2058D0002852891A06D0491E29D0491E4ED0491E39D059E0F8680FF053F980B2B04204D391
:2058F000A919162903DB0D244FE007244DE0FB682A46414698190EF079FCAD19F868ADB2FE
:20591000C5F11602002140190FF038F9DAF8000000281CBF0268002A37D0002123E08EBB22
:20593000022DE0D198F8000098F80110FA6800EB01201080DAF8000000281CBF0268002ADF
:2059500023D001210FE0EEB9062DCCD1F868062241460EF04BFCDAF8000000281CBF026829
:20597000002A12D00321484690470EE056B9012DB9D198F80000002813BF0128F968087041
:20599000802402E00B2400E001242046BDE8F087242F00207CB5894D144602460026A2F5E2
:2059B0008062182A1AD8DFE812F0FE00F800F100E900E200DC00D500D0001900C500BE0029
:2059D000B700AE00A3001900190080006F00680054004C00420039002C0024002D2880F2F4
:2059F0008580022940F0828021880CF04DFF0646E1E0012940F0DE80002C00F0DB801135C2
:205A1000A6E0102940F0D680002C00F0D38028465030102221460EF0E9FBCCE0012940F053
:205A3000C980002C00F0C68029468D1D90E0262940F0C080002C00F0BD8005F1600026226C
:205A5000E8E7012940F0B680002C00F0B3806D1D7EE0602900D13CB9012940F0AB80002CA0
:205A700000F0A8800D3573E005F18600214660220EF0BCFB012068739DE0012940F09A8062
:205A900020780FF039FB96E0012940F093802078022800F38F800C3528702078022814BF16
:205AB000301C01200FF024FB85E0072940F08280611C684606220EF03FFA2078694632463B
:205AD00005F074FD04460A2C10DA0FF00DFB38B9204602F05DFF0DF079FD09F08FFD6AE0F8
:205AF0002A46012002F12C05285564E0022662E001295FD1A87B21780028A9735BD1207898
:205B1000012858D1E9E7012954D12478072C51DB102C4FDC0B3537E001294BD124780A2C33
:205B300048DA093530E0012944D12478022C41DA083529E000293DD10FF0D6FA10B90EF0AE
:205B5000F5FBC8E701240F351EE0012932D10A35247819E001292DD12478022C2ADAED1D2E
:205B700012E0102926D12B4603F1400051E7012920D12478022C1DDA2D1D05E0012919D1F7
:205B90002478042C16DCED1C2C7014E0012911D12478022C0EDAAD1CF6E702290AD120888C
:205BB0001435288007E0012904D12478022CD8BF6D1CE9DD182630467CBDC04684130020A4
:205BD0002DE9FE4F05467B48002400680094C00905D37948007810B920200CF0BDFE012D5C
:205BF00040F0E280DFF80092D9F8DC00012840F0D8800220C9F8DC000EF020FA01200CF048
:205C1000ABFE5FEA000805D00120C9F8DC000EF021FACBE00EF09AFFA34602906748684DAD
:205C3000C0F800B0A86A016801208847012804D1584608F0F9FB012000906248624FC0F835
:205C500000B0386811200EF001FE00B1012410200EF0FCFD08B144F002040F200EF0F6FDA6
:205C700008B144F004040B200EF0F0FD20B12868564E016B308888470A200EF0E7FD20B134
:205C90002868534E016B308888475248012606602868816944F0200088474F4806600EF011
:205CB000CFFD00F001010191400814D2286A81684A4888478246BAF1040FF7D0BAF1010F72
:205CD00004D1286A42684548032190474449086820F003000860584600F088F82B68386862
:205CF000986B8047019801280CD0BAF1010F04D1286A42683948314690473949086840F06F
:205D1000030008602F48066028684169204688470B200EF09BFD20B128682C4BC16A188858
:205D300088470A200EF092FD20B12868284BC16A18888847274806600322C9F8DC20264B37
:205D5000C3F800B02868416B204688470128F9D1386804200CF000FE0446184806603868F6
:205D7000144800688009FBD30098012802D1304608F05AFB0EF051FD08200CF0EDFD0746FA
:205D90000298C9F8DC600FF0ABF91648008808F0B7F80EF05FF957EA040018BF4FF0FF3844
:205DB00004E06FF0040801E06FF001084046BDE8FE8FC04614100940641800200C400940DF
:205DD000B8010010000222432C200940806101007C61010028200860800104430040034033
:205DF00024220840C06501007C1700202DE9F84FDFF804B20746ABF13500DFF8F081006874
:205E1000800880F0E28075480068006880477E490831D1F8009000254FEA29715FEA99523F
:205E300001F101010AD2C0F13E0210F10A0F4FEAE202D8BF08229142B8BF111C684BD3F8A4
:205E50007C21C2F30462162AA8BF203A1B68C3F30443162BA8BF203B9A465218162A05DA8D
:205E700012F10A0FB8BF6FF0090200E015225D4B5D4E02F01F0141F4F8511980316811F0E8
:205E9000030F18BF0125C90828BF45F002050FB145F00405434693F90710411A052904DA5E
:205EB0009979A94208BF99886FD0DFF844E10F28A0F10F0829DB08EB0011A1F1F0084FEA08
:205ED00028210091072984BF07210091062988BF06215EF821600424774604EB81043C594A
:205EF0004FEA950CA41BEE0804F0FF0124BFC4F3072631446F08AE0824BFC4F3074631444A
:205F10006E0828BF01EB146104E000214FEA950C6F080091009C5EF824E05FEA5C060EF02D
:205F3000FF0424BFCEF3072634447E0824BFCEF3074634446E0828BF04EB1E64009E89B26F
:205F5000A8EB06267143803104EB1124AAEB02010029D8BF0121342209F0FF074A4391B24A
:205F70004FF6FF727943B1FBF4F18A4238BF111C802889B2998005DA10F1800FB8BF6FF0DD
:205F90007F0000E07F20D8719D711A4800681F2918604FF0000008D340F2FF128A4206D211
:205FB0004908401C8A42FBD301E01F219980134F0F39090940EAC10047EA0001CBF8FB1F9A
:205FD0000026CBF8FF6FBDE8F88F0D490D4F434608200F609B1D1870BDE8F88FEC010010F3
:205FF0003C1100506E62084024220840042F00209C130050082009403500094000E7A48002
:2060100030100940FDFDA400AC3F00502DE9F04F044675488A46016894461F46BAF1000F80
:20603000ADF13C0D4DD0BCF1000F4AD09AF8002001209040014244D0BCF80000B0F5C15F03
:2060500032D1DCF81430DCF818206848DCF81C104FF0030E0DF128080B93DFF894B10C9283
:2060700000680D91C0F3036958F8046FCEB10021351F05200B4655F8042FB2F1FF3F10D07D
:20609000934506D0401E01F1040103F10103F2D107E0052B05DA705820F4702040EA09405D
:2060B0007050BEF1010EDFD1C4F804A0C4F808C00EF034FD4F4D8046287820B140460FF037
:2060D00037F800208DE002F02DFE4B49086840F00200086007A80EF0C1FA002605F1D000E5
:2060F00007AA464909960BF0DFFE454905F5827007AA0BF0D9FE07A80EF068FAFF2105F1B7
:20611000340007AB3F4A089119210BF0BDFD3E4A05F150001A2107AB0BF0B6FD3B49324613
:2061300005F18800134609F00BFE3949324605F1AC00134609F004FE364A05F120000421CB
:2061500033460DF0A3F90E2005F0E4FA05F174000EF022F905F16C000EF01EF92E74072059
:2061700085F898012E77AE616E770523AE602B49EB602A786961501C2870274B1E70404675
:206190000EF0D6FFB1464FB92548B0E88C106946A1E88C100DC86F4681E80D003868206088
:2061B000398A6182012060747B6813B940F6C4130646E3601B48A06126746061F86800B119
:2061D000A061B86800B160615822494604F1200007F0D7FB04F1380049460CF0D1FF204647
:2061F0006C600FB0BDE8F08FD4210840541300500200F84498240020002009409540010093
:206210007DAD0000B1E80000ADE60000C5390100153E01009D020100362F002049AE0000A9
:206230003065010067A900002DE9F04F05468048066800680F461C469246C4F39901890001
:20625000ADF12C0D0A010021803207F09AFBDFF8C891A9F1880002466E48016830469047E7
:20627000A3088046610801979F1C21F00101F819009506EB80000390091DCDF808A0781801
:20629000434506EB800206EB870B3844049206EB80000690C4F39C004FEA800000F1080052
:2062B00007EB400000EB070206EB82020A9224F0030202F1080200EB020506EB85053A4496
:2062D000059506EB82050A4407953A4406EB8202089206EB80020992084406EB800A3844D4
:2062F00006EB800518BF6FF0010040F08F8009F16800024641463046904700233CB101997A
:20631000264611F8010B761E40EA0303F9D1002B08BF01207AD000263CB10299234611F8E1
:20633000010B5B1E40EA0606F9D1002E08BF02206CD001995846C84703980299C847009851
:2063500081680498C8473548049A594681462846C847012803D14FEA88042E590EB1032070
:2063700054E0BE0028460021324607F00AFB0399049A2846C847012801D12F590FB10420FA
:2063900044E0274F274C069859463A46A047079803993A46A0470699089827460A46B8479F
:2063B00009980899069AB8470A9806991E4C2246B84728460021282207F0E3FA1B48099928
:2063D0000A9A81462846C8472034284622460146C847079950460A46B8470598002132468A
:2063F00007F0CFFA5FFA88F45046002C0CBF01225FFA88F200216B5C445CA34218BF05200C
:2064100004D1491C521EC9B2F5D100200BB0BDE8F08FC0468C4F0020B9DB0010C9DE001026
:20643000C0210020F9E0001074620100C9E60010884F00202DE9F0410446804DA178A8694D
:20645000ADF1180D891F00F0F280C91E00F0DD80491E5FD0491E48D0C91E3CD0481E40F08D
:20647000E980287A697AB8B96878002831D0A0880EF032FE071C00F0DD80A07A40080FD39A
:20649000787968B1E168890A0AD2B91D01AA05F08DF80A2804D10321A0880EF019FEC9E01E
:2064B000287B022802D1A07A0009F4D3A088797904F1080201F07EF9A869002800F0BA805E
:2064D0004368002B00F0B68000210A46A0889847B0E00521E0E7002800F0AC804368002BA1
:2064F00000F0A88062780221F0E70EF0EFF8002800F0A080A86950B1076847B120690090F1
:206510006189227B637BE01C3C46A04792E060890121C2E767784FF00008002F66D1A179D5
:20653000490863D3EF69002F60D101A841460E220EF024FBA0880EF0CFFD071C7AD0606967
:2065500040B97879B91D06228DF80A0001A80DF04DFE19E06669307C062206F111018DF899
:206570000A0001A80DF042FE07F10C00B91D06220DF03CFEB81D062206F111010DF036FEAB
:20659000307C40F002007871A079C00839BF387900F0FD00387940F002003871A0790009FF
:2065B00039BF387900F0DF00387940F020003871A1799DF81120C1F3800010438DF81100AC
:2065D000080905D39DF8110040F008008DF8110001A8214600F020FA28B92878022104F09C
:2065F000B3FD404627E0A8694FF0150810B3436803B3A088627801219847B8F1000F19D019
:20661000A86943680321424660E7E078211D002204F0CCFF0A280DDA410001EB800004F189
:206630000C0225300421C0B203F062FA02E0A08809F0FEFB012006B0BDE8F0818413002061
:206650002DE9FE4F0E468246307AC10693461F464FF000090CD558460EF036FD030000F011
:20667000E8800A223146504698475FEA00094DD130780C9D0D9CDDF8388002281AD17068A6
:206690000178407801EB002189B24FF42052891A012910D9891E3AD0491E14D0FD397AD08A
:2066B000491E00F08180491E6DD0491E73D0491E00F09580ABE0002C2AD1F068017829808C
:2066D0000278416887E0002C22D101202880F1680A783A7000217089401C80B20EF0F0FC21
:2066F000298860B10278921C51182980418979704289120ABA7041680278F81C6CE0091D21
:20671000298004220021781C0EF038FA93E0002C66D1F0680688042129803E70320A7A7057
:206730000DF1020130460EF0CBFC040021D0D4F80C80BDF802204FF6FF766B4631460EF009
:20675000BBFC40B9237862683C4802210EF0B0FC08B9ADF8006098F8000002280BD1D8F897
:2067700004100222381D0DF041FD2888801C288001E0ADF80060BDF80000B870BDF80010C5
:20679000090AF97057E0002C2AD1F068016850460DF014FF02E01CBBF06800880221298043
