:2000000000400020ED07010001C9011001C9011001C9011001C9011001C9011001C9011069
:1C00200001C9011001C9011001C9011001C9011001C9011001C901103FC9011089
:20003C002DE9F04FC94DE888ADF11C0D13F0C0FCDEA494E80C0009F0D9FBDEA696E80C005E
:20005C0008F083FC02F0E0FADCA20CCA09F0CEFBDCA20CCA06F033FF10F03EFA288140F698
:20007C00B8306881E88813F0A3FC94E80C0009F0BDFBD6A20CCA08F068FC02F0C5FAD5A276
:20009C000CCA09F0B3FBD5A20CCA06F018FF10F023FAA881E88813F08BFC94E80C0009F0AC
:2000BC00A5FB96E80C0008F050FC02F0ADFACDA797E80C0009F09AFBCCA20CCA06F0FFFE59
:2000DC0010F00AFAA870E88813F072FC94E80C0009F08CFB96E80C0008F037FC02F094FACA
:2000FC00C4A20CCA09F082FB97E80C0006F0E7FE10F0F2F96F78CB4C394604EB4102A98900
:20011C00A2F88610CA4A4FFA80F9B5F808A0B5F80AB095F9028085F803904800178012F000
:20013C009DF9B6490DF0C8FBB5490CF08BFB12F05DF9B4A20CCA09F059FB0BF069FB10F09E
:20015C00CBF97E0004F1EC05A319A3F8A80004F1CA0222F806B0A5F1880125F806A0B44DE8
:20017C00049102F12201039104F1640101F8078005F1BE00029001F11105059504F17508F0
:20019C0008F80790B3F8A80013F022FA12F02EF99EA20CCA8946824609F028FB10F09CF9B3
:2001BC009CA2ADF800000CCA4946504609F01EFB8146A06B08F1330B884612F017F90B46F9
:2001DC0002464146484609F011FB10F085F93619A71D863604210222387033464FF4F04077
:2001FC0010F032F94FF4F040052102226B4610F02BF907F1800AA5898C48A1790195401C96
:20021C000170102DC0F2B081206CDDF80C80DDF80890854D1127401CC4F8100100262064FA
:20023C0038F8021B39F8020B484312F00DFE7BA20CCA09F0DBFA10F075FB15F8011B7F1E88
:20025C0000FB0166ECD1304613F0C2F9E7490CF0F9FAE74D29460DF02FFBE6490CF0F2FA2F
:20027C0012F0C4F80BF0D4FA10F05CFB06466E4800275946112310F8012B31F802CB5B1EE5
:20029C000CFB0277F7D1384613F0A2F929460DF013FBD9490CF0D6FA12F0A8F80BF0B8FA27
:2002BC0010F040FB0746A06C8019A064616CC9196164236DE26C1B185218C4F81431384683
:2002DC00C4F8182113F084F9019981464FF496704843A0F5967012F0C1F8014648460CF031
:2002FC00B1FAC6490DF0E8FA12F080F80BF090FA10F0F2F8C0B2607284F82C0110F038F843
:20031C0084F82D010025A4F82A510FF007FFA4F8280111F09FFB84F82F010AF067FBDFF897
:20033C000C8184F82E019FB14FF47A70704313F04FF949460CF086FA12F084FA4FF6FF71AE
:20035C00814228BF80B205D202E0C046682200204FF6FF70A4F824010FF01EFEA4F82601E9
:20037C000FF098FBC4F81C010CF01CFFC4F8200110F022F82F4684F83001002F5AD1BAF8BA
:20039C0020000299BBF82060039AAAF800000B8CABF80060108C0B80049E108096F9100082
:2003BC00059B307093F91000187050E0182D4454FB21094000000000008066400000000025
:2003DC000070B740000000000094E14000000000000044400000000000E0754000000000CC
:2003FC0000C0774000000000000034400000000000002E400000000000003E40DB0F494097
:20041C000000704252B81E85EB512440CDCCCCCCCCCC0C403BDF4F8D976EA23F2D431CEB59
:20043C00E2361A3F580F0020CC2200200C110020640F00207B002AF803502BF803500498C8
:20045C00C555059EF5550299CD52039AD5527F1C112F92DB94F82F11607904F58876B4F86B
:20047C00287188F80210401C04223346607194F82E01E7630521A07041F611000FF0E4FF04
:20049C004FF4F0400221012206F11D030FF0DCFF4FF4F0400621042206F108030FF0D4FF02
:2004BC004FF4F04007210422331D0FF0CDFF04F592734FF4F0400B2102220FF0C5FF04F5C7
:2004DC0093734FF4F040082102220FF0BDFF4FF4F0400921042206F10C030FF0B5FF4FF4C0
:2004FC00F0400A21042206F110030FF0ADFF4FF4F0400C21012206F120030FF0A5FFE079D1
:20051C00192805D0207A202808BF04F1080300D0E31D4FF4F040032101220FF095FF06F1EC
:20053C00180341F60F00012102220FF08DFF06F11E0341F60F00294601220FF085FF06F103
:20055C001F0341F60F00042101220FF07DFFE078A17820B90529BCBF0120E07001DB0128EB
:20057C0002D10829C8BFE57060794B282DDBD4F81021E189206B224EC4F8342104EBC10701
:20059C00401CD4F81821C4F838011E4D3178C7F83C21E089D4F8142104EBC000C0F8402187
:2005BC00194FC4F8A4116378206B2978401CC4F8A83100258742C4F8AC118CBF2063256391
:2005DC000EF0B0FCA5646571656410480146C0880F46401CC8807878401CC0B21128A8BF6F
:2005FC00012007B04870BDE8F08FC04600803B4500009643000061450060EA460000B4431F
:20061C00141E00204D22002080D3D8FF682200202DE9F04F0446B4480D461646ADF5FE7DA2
:20063C005B1E011DADF1600D9095F21E8F94D1F800C0929316F1140FCDF854C24FF0180199
:20065C00CDF850C292FBF1F19391BCBF002193910C466246A6EB04161946A6EBC406183E9F
:20067C008D18A4EB0104969612D406466D1CE8465036002C44BFBEA003C803D456F82400E9
:20069C0012F0E2FB6D1EA8E8030004F10104F0D19598002828D405460DF5A07B00266D1C1E
:2006BC00929FB3A090E80003002F17D4DDF83CA206EBC7007F1C0DEB0004BAE8030094E8E2
:2006DC000C0009F093F80B4602464946404606F0F6FB083C894680467F1EEED16D1EABE886
:2006FC00000306F10806DBD19598919048E0B9F1000F42DD9199DDF848C2939A7A4F0DEBE5
:20071C00C1030CEB0100CB4603F5A473C4008A188C93083407EB820000F1500A61440DEBC4
:20073C00C1065AF8040F12F08FFB083686E803008FA003C8929F8D90002F8E9115D4DDF8E2
:20075C003C820DEB04057F1CB8E8030095E80C0009F04CF80B4602468E998D9806F0AFFB35
:20077C00083D8E917F1E8D90EED18C9ABBF1010B03C204F108048C92D3D191984844919044
:20079C00C5000DEB050404F5A07494E80003002828DD083C07460DF5F07BBDA20CCA4946FC
:2007BC00404609F023F80FF097FE12F04DFBBAA20CCA8A46064609F019F80B460246494625
:2007DC00404606F077FB0FF087FE4BF8040B94E803005346324606F072FB083C894680466D
:2007FC007F1EDAD1969F494640463A460AF066F9ABA20CCA8846814608F0F8FF09F06CF96D
:20081C00A9A20CCA08F0F2FF0B4602464146484606F050FB884681460FF05EFE8D9012F0B4
:20083C0013FB0B4602464146484606F043FB0FF2882A89468046002F14DC391C0BD09CA2D7
:20085C000CCA49460CF079FD84BF00208E9071D802208E9020E091980DEB8000D0F8DC0155
:20087C00C01516E091983C460DEB800303F5F0738D9F53F8040CC4F11802C4F1170440FAB0
:20089C0002F101FA02F2801A43F8040C7A188D92204100288E904DDD9198002400280EDD93
:2008BC0077A951F8047F24B93FB1C7F18077012402E06FF07F42D71B0F60401EF1D1969FD7
:2008DC008D98002F00F101008D901ADD7F1E0DD07F1E16D191980DEB800101F5F07151F862
:2008FC00040C6FF39F500AE0E05C010091980DEB800101F5F07151F8040C6FF3DF5041F838
:20091C00040C8E98022815D19AE803004B46424606F0D0FA8946804664B19AE80300969AB8
:20093C000AF0CCF80B4602464946404606F0C2FA894680460EA20CCA494640460CF0BAFC9B
:20095C003FD0969F40467A420AF0B8F88046919851A20CCA0DEB800440460CF0EEFC8946DC
:20097C0004F5F07484BF8B46464624D804E0C046000000000000000045A20CCA404608F03D
:20099C0035FF0FF0A9FD12F05FFA43A20CCA8B46064608F02BFF0B4602464946404606F069
:2009BC0089FA0FF099FD1837083544F8040B91989697401C9190594630460FF08DFD20603B
:2009DC0039E0919895990026401E81420CDC919F95980DEB870101F5EE713F1A51F804097B
:2009FC007F1E40EA0606F9D176B995984FF001090DEB800000F5EE70016800297FF477AEA4
:200A1C00001F09F10109F7E79199969F0DEB8100083D183F00F5F070491E9697001F91911B
:200A3C0006E09199183F083D001F9697491E919101680029F5D09AE803003A460AF03EF88D
:200A5C0082469198894600281ED407460DEBC7040DEB870804F5A07408F5F0787F1C58F8AC
:200A7C00040912F0F1F94B46524608F0BFFE08A284E803000CCA4946504608F0B7FE083C7E
:200A9C00894682467F1EEAD1919C002C50D417E0000000000000703E000000000000704178
:200ABC00000000000000C03F0000000000002040000000000000E03F000000000000F03F6D
:200ADC00A5EBC40528A8E70005EB0008949E3DA090E8000C002ECDF830A221D4DFF8EC9052
:200AFC00DDF844A2354600266D1C09F11009AAEB040AB24514DBF20002EB090003C850ABAB
:200B1C00D219D2180CCA08F071FE02468C980B46594606F0D4F9761C8B466D1E8C90E8D1C5
:200B3C00DDF830A2641EA7F10807A8E8000CCDD5919F24A090E80C00002F10D40DEBC7043D
:200B5C007F1CA03494E80003194610464B46424606F0B5F9083C7F1E02460B46F2D18E99B5
:200B7C0000290CBF191C83F00041DDF840C2104628AF8CE8030097E8030006F09BF90246AD
:200B9C0091980B4600280DDD0DF1A80A0746BAE8000310464B46424606F091F97F1E024637
:200BBC000B46F4D18E9909B183F0004390988D9F08307FB080E80C0018B007F00700BDE8D2
:200BDC00F08FC0460000000000000000E05C01002DE9FE4FC348C14CBD4DC14ABE4FDFF8C3
:200BFC00F4B2016804F11C064FF00A084FF00009F31F68880093B2FBF1F1019140082AD220
:200C1C007878022827D1AC200EF0C6FEAE200EF0C3FE12F0EDFDB86012F0EAFD01464A46C7
:200C3C007879F960B1F5FA7F38BF0122C34902238C460A544A461CF8011B5B1E1144CAB2AA
:200C5C00F9D1401C3A70C0B20228D4BF787187F8059012F07FFB68689BF800104EF66022C7
:200C7C0000F596706860B0FBF2F2914209D2491C8BF8001041F6110002225B4604210FF02F
:200C9C00E3FB2078217C884206D03C2814BFC82164216174207400E0617CA07CE27C884276
:200CBC0002D1237D934254D0012A3DD0022A34D0032A2FD0042A26D0052A21D0062A18D0BC
:200CDC00072A13D0082A0ED0092A09D00A2A04D00B2A34D1D6F88C2021E0D6F88C2014E09D
:200CFC00D6F88C2022E0D6F8982018E0D6F898201CE0D6F8942007209047D6F8F82019E0FD
:200D1C00D6F8942012E0D6F8942007209047D6F8F0200FE0D6F8942001E0D6F890200720EE
:200D3C009047D6F8E82005E0D6F8902007209047D6F8E020617C07209047617CE27CFF2A7C
:200D5C0005D0F069024607209047E27C617CA07C2275A379627A934208BF884219D053B1CA
:200D7C00012B06D070694946024607209047617C07E0706906E07069494602460720904776
:200D9C004946B069024607209047A279617CA07C6272E378227B934208BF88420DD023B152
:200DBC00012B14BF7068B06800E0F068024607209047E278617CA07C22732379E27A9342F5
:200DDC0008BF884208D0002B0CBFB06B706B0246072090472079E072009940F21A3007F065
:200DFC0081FF607D022807D0062805D007281CBF84F805904A4602D1012060710246A37AA1
:200E1C00617CA07C9A4208BF88420AD0012A18BF494630690246072090476279617CA07C32
:200E3C00A272A378A27B934208BF88421FD0B3B1012B11D0022B0CD0032B07D0042B03D074
:200E5C00052B13D1706F02E0B06F00E0F06F024607E0D6F8802004E0D6F8842001E0D6F8A1
:200E7C00882007209047617CA378A07CA373237D6278FF2B49D1637B9A4208BF884244D069
:200E9C0092FBF8F392FBF8F000FB08F0A2EB000A53BB072049460EF02FFC072049460EF01E
:200EBC0001FC072049460DF09FFE072049460EF07BFB072049460EF0A1FB072049460DF09C
:200EDC0065FE072049460EF0C3FB12F077F911E0E00B0020542400204C2200200C11002050
:200EFC00E0930400EC66010006EB8300D0F88C200720904706EB8A00D0F8B420617C07200B
:200F1C0090476278617CA07C6273E379E27B934208BF884209D003B94946706902460720AB
:200F3C009047E079E073637CA374019800F008F86888401C80B2688060E6C046522200204D
:200F5C00DFF800F0A5A501102DE9F84F81460020C9F8000068460DF02DFF204FDFF880A011
:200F7C0000264FF0FF354FF0190B34468046E0B213F03EF9B8B1837AABB1017A01260229BE
:200F9C0015D079684A8A97F89A314069C96889180BFB031111F0F6FD51460968B0FBF1F024
:200FBC00854288BF051C641C032CE0D300E00025B8F1000F04D0012E05D0B8F1010F05D061
:200FDC00012E04D005E00098854200D9009DC9F8005046EA0806F0B2BDE8F88F582400207F
:040FFC00F02E0020B3
:20100000B4120000181000001DF40000FDB301106DC00110FDAE011099B5011000000000B7
:08102000000000002D0000009B
:20102800B01200003C100000B1C00110A9BF011067C0011069B80110000000000000000035
:041048003000000074
:20104C00B012000060100000BDC00110CDB30110D9BD01106DB3011000000000000000005B
:04106C00310000004F
:20107000000000009823002004000000000000000000000020000000E8C90110300000006F
:2010900028100000A02300200400000000000000000000000C000000D8CA0110180000004A
:2010B0004C100000A823002004000000000000000000000024000000F0CA011018000000CE
:2010D00000000000B02300200400000000000000000000001000000018CA01102C000000DA
:2010F00000100000C0230020040000000000000000000000200000006CCA0110240000003E
:20111000FFFFFFFFC82300200400000000000000000000002800000090CA011024000000FD
:20113000FFFFFFFFD02300200400000000000000000000001400000008CB0110180000007C
:20115000FFFFFFFFD823002004000000000000000000000058000000B4C90110340000004A
:20117000FFFFFFFFE02300200400000000000000000000001000000020CB01101800000018
:20119000FFFFFFFFE82300200400000000000000000000001C000000B4CA01102400000045
:2011B000FFFFFFFFF02300200400000000000000000000003800000044CA0110280000006D
:2011D000FFFFFFFFF82300200400000000000000000000005400000078C901103C000000E2
:0811F00001000000F06601009F
:0411F80001000000F2
:0411FC0000000E00E1
:0412000000000F00DB
:0412040032000000B4
:0412080001000000E1
:04120C00B4220020E8
:0412100000020000D8
:0412140000000000D6
:0412180001C90110F7
:04121C0000000000CE
:0412200000000000CA
:0412240008000000BE
:0412280000002200A0
:04122C00FC1F002083
:0412300000000000BA
:0412340000000000B6
:0412380008000000AA
:04123C000C22002060
:0412400000000000AA
:0412440000000000A6
:04124800080000009A
:04124C00000000009E
:04125000000000009A
:041254000000000096
:041258000000000092
:04125C00010000008D
:04126000C420002086
:041264000600000080
:041268000100000081
:04126C00B01E002090
:04127000000000007A
:041274000000000076
:041278000002000070
:04127C00000000006E
:02128000290043
:02128200010069
:02128400250043
:02128600300036
:02128800310033
:02128A002D0035
:02128C0001005F
:01128E00015E
:08129000030000006866010084
:0812980000000000000000004E
:0412A0000000010049
:0412A4000000030043
:0412A80013C401105A
:0412AC006741010095
:0412B000B812000070
:0412B400B81200006C
:0412B8000000000032
:0412BC006C2300207F
:0412C000974301004F
:0412C4002000000006
:0412C800B465010008
:0412CC002064010099
:0412D00029C101101F
:0412D400094A0100C2
:0412D8000B4A0100BC
:0412DC00A1C7011095
:0412E000A3C701108F
:0412E4000000000006
:0412E8005D61010043
:0412EC00C4610100D8
:0412F000DC610100BC
:0412F400AC610100E8
:0212F8000200F2
:0212FA000900E9
:0212FC000100EF
:0212FE000000EE
:0113000001EB
:04130400254301007C
:04130800B12401000B
:04130C00593601004D
:04131000952801001B
:04131400E9240100C7
:041318003D0501008E
:04131C00C5CB00003D
:041320000F46010073
:041324009DEF000039
:0413280015C70110D4
:04132C0025C70110C0
:201330002DE9F04FD74C211D2046ADF19C0D0EF081FC04F120050021284613F0BBFED24E3A
:2013500010201F220623A560314606F01DF95020ADF820000025ADF81E504FF47A798DF833
:201370002F500221ADF824500DF11E02ADF826904FF44870ADF8220040F2063003F058FCB8
:201390004FF44270132104F13D0203F051FC40F20730112104F12C0203F04AFC4FF44470B2
:2013B00001210DF12F0203F043FC40F21130022108AA03F03DFC40F2123002210DF122026D
:2013D00003F036FC40F21330022109AA03F030FC4FF4457002210DF1260203F029FC04F120
:2013F00050002A461523A9490090102006F0CCF8314610200622A02306F0C6F8314610208C
:201410000722A02306F0C0F83146102001221E2306F0BAF8314610200822A02306F0B4F839
:20143000314610200922A02306F0AEF80CAC01208DF8325029468DF8300003468DF8310068
:201450004FF480628DF83410914D00941F4610208DF83370294606F097F80DF131002946CD
:20147000009040F202423B46102006F08DF80DF13200294640F203423B460090102006F0DD
:2014900083F80DF13300294640F206423B460090102006F079F80DA829464FF483623B4632
:2014B0000090102006F070F87A4910204FF0FF3206F06AF81020784B00907849784A0193A9
:2014D000092306F061F877494FF0FF32102006F05BF8754D2878800013F052FA01467348A5
:2014F0002C464161002900F0A5804FF6FF700FF0A9F82078800013F043FA01466B480029BB
:20151000816100F097804FF6FF700FF09BF82078800013F035FA014664480029C16100F014
:2015300089804FF6FF700FF08DF82078800013F027FA01465D48002901627BD04FF6FF70A7
:201550000FF080F82078800013F01AFA01465748002941626ED04FF6FF700FF073F820782F
:20157000800013F00DFA014650480029816261D04FF6FF700FF066F82078800013F000FA8F
:2015900001464A480029016354D04FF6FF700FF059F82078800013F0F3F9014643480029AB
:2015B000816347D04FF6FF700FF04CF82078800013F0E6F901463D480029C1633AD04FF6C7
:2015D000FF700FF03FF82078800013F0D9F901463648416471B34FF6FF700FF033F8207865
:2015F000800013F0CDF901463048C16411B34FF6FF700FF027F82078800013F0C1F90146FC
:201610002A480165B1B14FF6FF700FF01BF82078800013F0B5F901462448416551B14FF651
:20163000FF700FF00FF82148214B35211022583011F01AFD2078800013F0A2F91B4A0146C6
:2016500058328C480F920029C16056D04FF6FF700EF0F8FF2078800013F092F901468548A8
:201670000029016149D04FF6FF700EF0EBFF2078800013F085F901467E48002941613CD09D
:2016900018E0C046D008002029270100E5D400009D5A00005D35010050660100793001004F
:2016B000DC180020AD380100694F002008020020405E01004FF6FF700EF0C4FF20788000F2
:2016D00013F05EF901466B488161B1B14FF6FF700EF0B8FF2078800013F052F9014665489F
:2016F000C16151B14FF6FF700EF0ACFF6148624B15211022203011F0B7FC2078800013F07C
:201710003FF95C4A014620325C4822920029C16047D04FF6FF700EF095FF2078800013F028
:201730002FF901465548002901613AD04FF6FF700EF088FF2078800013F022F901464F48AB
:20175000416171B34FF6FF700EF07CFF2078800013F016F901464948816111B34FF6FF702A
:201770000EF070FF2078800013F00AF901464348C161B1B14FF6FF700EF064FF207880004B
:2017900013F0FEF801463D48416251B14FF6FF700EF058FF39483A4B19211022283011F0FB
:2017B00063FC38490846354E4F78007806F128011C91D7B93F49334A0C31516211F078FB63
:2017D000304F024600203E463D462F4900903C4607F14800019006F15800029005F12000B9
:2017F0000390A378102005F0CFFE324A27491020183205F0C9FE2F48007811F059FB244966
:201810000246102005F0C0FE2A48007811F050FB20490246102005F0B7FE1F49102005F03F
:20183000B3FE1E4C012020700AF052F91C49002007F0C8FD1B49002010F0AEF900200EF0FD
:2018500055FD02200E9020700FF0EAFB174D164A174805F10801116005F11401016005F1FD
:20187000200012F0B9FD01202F7885F828002FBB22E0C0460014002078640100A00D002043
:20189000E05F0100B0050020C7090100793B01005188011031810110C5AB00100B24002021
:2018B0000000030369D6000084210020641E002024110020D008002011F0B0FF0320E54F18
:2018D000207007F11405284612F0D6FBDFF888A3DAF8000007F134084FF4FA712B46424667
:2018F000B9FBF0F080B24143491EDC48796013F0DDFBDB4E07F1080238607968F26013F056
:20191000D1FB002124220823404613F0C7FB4FF000080420D34D20707B68A7F8448005F1B7
:20193000140BC7F84C805846BB6412F0A5FBDAF8000005F1340749465B463A46B9FBF0F047
:2019500080B24143491EC848696013F0AFFB242208232860414605F108003061384613F044
:201970009DFBA5F844806968C5F84C802868A96413F098FB2868696813F034F80520BB4F12
:20199000207007F1140B584612F076FBDAF8000007F1340540F2DC51B9FBF0F05B462A4678
:2019B00080B24143491EB248796013F07FFBB14938602422082307F108000860414628464A
:2019D00013F06CFBC7F84880A7F844800620C7F84C80A94D207005F1140B584612F04CFB70
:2019F000DAF8000005F134074FF49671B9FBF0F05B463A4680B24143491EA048696013F004
:201A100055FBDFF87CB2414624220823286005F10800CBF81000384613F040FBA5F84480F3
:201A30006968C5F84C802868A96413F03BFB2868696812F0D7FF072020709748914D12F0B7
:201A50001BFBDAF8000005F134074FF49651B9FBF0F080B24143491E69608B488E4B3A468D
:201A700013F024FB05F10801286024220823CBF814103846414613F011FBA5F84480C5F823
:201A90004C8069682868A96413F00CFB6968286812F0A8FF0820207080487C4D12F0ECFAB7
:201AB0007E4B05F130076421DAF800001091B9FBF0F03A4680B24143491E7548696013F06E
:201AD000F5FA744A05F1080128600823116238464146242213F0E2FAA5F840806968C5F80F
:201AF00048802868696413F0DDFA6968286812F079FF0920DF4D2070DF4812F0BDFADAF865
:201B10000000DD4B05F1300747F23051B9FBF0F03A4680B24143491EE648696013F0C6FABB
:201B3000E54A05F1080128600823116038464146242213F0B3FAC5F84480A5F84080C5F8AD
:201B500048800A2020700FF00BFA5249E04D05F10C004862281D12F04FFE012028720B2001
:201B700020700FF0FDF94B49DA4D05F10C008862281D12F041FE012028720C2020700FF02D
:201B9000EFFED54D05F10800706105F1180012F0BFF9474637624346F3610D2020700122AC
:201BB0006A761146297686F800804FF4E13785F82E80134685F82D80E14C2F63C749EB611D
:201BD0000322A96204F10C03A270C649C44F0B61E6496F6204F1100284208A6010F09FFEEF
:201BF00006F12801842270600AF03CFB082010F096FE054685F80480B561FF2068710A20CE
:201C100010F08DFE716928600868804730690068804704F11C00B06012F0FAFA9BF80070AE
:201C30005FB95C46C64A2069042100689170804760690068804701202070C14A0520C94901
:201C50009070404630F010072AD0420834BF0E9A042226E05C1B0020EC660100BD490100BB
:201C70006C190020B41B0020EFDD00000C1C0020C1490100E8220020641C0020C5490100C8
:201C900068220020BC1C0020C94901006C1D0020CD490100141E0020D01C00207C1D0020A8
:201CB00001220A70401C491C1128CBDBDFF8B8B248F6A0494FF00F0A11275E4606F1200420
:201CD000A6F1230526F8028BBBF80000400010F0CBFBE3490BF0F6FDE0490AF0B9FD10F0DE
:201CF0008BFBE2A20CCA07F087FD09F097FD0EF0F9FB05F801AF24F8020F85F811A0A4F856
:201D1000449040F6B83060847F1EDBD1D94E49F22F7546F67274C6F858510120C6F85C4189
:201D300049F6C063B08147F25572C6F8603146F6C031C6F8642140F2DC57C6F8541127256D
:201D5000C6F8385145F2E524C6F83C41A7F13D00C6F8340147F29533C6F8403145F69942A3
:201D7000C6F84421C6F88C81C6F89081C6F89481C6F89881C6F89C81C6F8A081C6F8A8814B
:201D9000C6F8B0814AF2CF77C6F868714BF2D235C6F8705148F2B564C6F874414DF20E5104
:201DB000C6F8881147F6F760C6F86C014BF64273C6F878314CF69F22C6F8802148F2DE170F
:201DD000C6F8487146F20245C6F84C5109F17F04C6F85041DDF83890C6F8A491C6F8AC914B
:201DF00004F1EF00C6F87C0149F2FA47C6F884710DF09EF886F82C81306DC6F81401F56CF6
:201E1000C6F818510EF0BAFA86F82D010EF08CF9A6F82A81A6F8280108F0EEFD86F82E010A
:201E30000FF01EFE86F82F014FF6FF71A6F824110EF0B8F8A6F826010DF032FEC6F81C01C6
:201E50000BF0B6F9C6F820010EF0BCFA86F83001707811F061F9DFF820A2894F874C894D29
:201E7000F3783079B1780BB9052907DB012B07D0FFE709E0C01D0020D01D00200122F270E0
:201E90000829C8BF86F803802D4B0622011C9A702AD0491E12D0491E18BF287032D1484608
:201EB00043F686534FF4FA6240F297212870109E24E0C046D1490100B42E0020492642F663
:201ED000E9434FF4F071012040F6B8321096EDE7842200209C220020881F002093EA00007F
:201EF0005D8F00000802002085F80080292641F639134FF47A624FF4877140466B83EE71C0
:201F1000AA83E98305F1300205F14001082640F2523322F8023B761E21F8023BF7D108497A
:201F30001831E962296AE07001200968A8718847686A00688047A86A0068804702E0C04676
:201F5000A0210020BB4909200E46887006F11400CAF80C0012F096FBDFF8D4A208700128BD
:201F700073D105E0CC220020DE0F0020A00D0020AD4D2988F8684646ADF810104A460DF156
:201F9000350340688DF8356004A9844600964920E047012878711AD16988F868ADF82A106D
:201FB00040688DF836604A460DF1360341468DF82B800546009149200DF12A01A84778718A
:201FD0000120F87087F8048042F6E065FD80974D2988A069ADF8101040684A46434604A99A
:201FF000074600963C20B8476A88A169ADF810204968207243463C204A460F46009604A972
:20201000B847EA88A169ADF810204968207243463C204A460D46009604A9A84720720A2067
:202030000746C82160723E463D46A7723B46E6723A462573FF2763737E4E2274307861749C
:20205000012827753946E1741ED058B9012051460E90C14681F8018019E0C04600007042D0
:20207000DB0F49405146487813E0C04652B81E85EB512440580F0020E02200200C1100205A
:2020900078210020141E00205146484648708870484633463746B64A81F80380B54DA071BD
:2020B0000D26927B81F80480B3485A70AA1CBE702B4684F807805F490E9210302F4603F1B5
:2020D0000D0210923E4607F14802119206F14002DFF8D8B2DFF8D8A2DFF8D892129205F110
:2020F0000B02139203F1340214924FF6FD78886007F12C02159206F109021692EA1D179285
:202110005A1CB34D18927A1D19922B46F21C1A922F4605F120021B923E461A1DB34B1D9280
:20213000FA1C1E92B21C1F921F466A1C20923E46DA1C21923D46BA1C2392721C24922A1DE7
:2021500025928D48406800214FF040424FF0FF3312F0A0FF071CF4D0002006900DF12E017D
:2021700006AA07A810F0C2FB00286DD1BDF81CC00126BCF1100F62D17F489DF82E10007804
:2021900088425CD1069C20884FF6FF71814256D02578913D28D01F3D51D16078162818BF82
:2021B000002305D1304611F0C7F8B048334604607148456993B15DB94046B349B34A00903B
:2021D0000023102005F0E0F96B494D69C3B22BB9694845F002050026456130E0217908346C
:2021F000204612F053FF2AE065780E3D02D0AD1E22D024E0A08842F2030181421FD1A16834
:202210000D78E5B9491C04A80A684968026004AD41602878B14904AA00F0FD0028701020A6
:2022300005F0B2F90BE0C046DC5C0100605F01004C220020A021002008200CF0D5FE069800
:2022500010B10EB112F05EFBF80FFFF47AAF4A48806812F017FF00287FF473AF46488468A7
:20227000204612F00BFF844208BF002402D0846810F068F9002CEAD03F4920884969401EE6
:2022900000F0AE81C01E00F0A781001F00F09581083800F07381103840F0A58160684278B0
:2022B00006788778C17841F60F0506EB0226001D761B00F01F81B61E00F0BF8045F6EF7217
:2022D000B61A40F089810C2F00F28681DFE807F0A79B908274625643372B1F1307C00129AA
:2022F00040F07A8101780E980170CDF8009021480E99006D9EE0022940F06E810188109848
:202310000180CDF800901B481099406D92E0042940F06281016811980160CDF80090154847
:202330001199C06C86E0042940F05681016812980160CDF800900F481299406C7AE0022921
:2023500040F04A81018813980180CDF8009009481399C06B6EE0042940F03E8101681498C1
:202370000160CDF8009003481499806B62E0C046B005002008020020D0080020042940F018
:202390002B81016815980160CDF800909A481599006B4FE0022940F01F81018816980180D8
:2023B000CDF8009094481699806A43E0B1A60000059900000D6D0000022940F00D8101883F
:2023D00017980180CDF800908B481799406A31E0A00D0020012940F0FF80017818980170EA
:2023F000CDF8009084481899006A23E000140020012940F0F18001787F480170CDF8009089
:202410007D49C06916E0022940F0E680018819980180CDF800907848199980690AE0022986
:2024300040F0DA8001881A980180CDF8009072481A9940690F9A35239DE0002F50D07F1E71
:202450003ED07F1E30D07F1E22D07F1E10D07F1E40F0C280042940F0BF8001681B9801608D
:20247000CDF800A065481B99406A34E0D42E0020022940F0B18001881D980180CDF800A0F6
:202490005E481D99C06926E0BDF20000093F0100012940F0A18001781E980170CDF800A029
:2024B00056481E99806916E0012940F0958001781F980170CDF800A050481F9940690AE080
:2024D000012940F08980017820980170CDF800A04A48209900691C9A19234CE095B4001057
:2024F000012979D1017845480170CDF800A04349C068F0E7002F33D07F1E26D07F1E19D0A6
:202510007F1E0CD07F1E67D1012965D1017821980170CDF800B03A482199C06929E001294D
:202530005AD1017823980170CDF800B03448239980691EE001294FD1017824980170CDF872
:2025500000B02F482499406913E0022944D1018825980180CDF800B029482599006908E0EF
:20257000012939D1017826480170CDF800B02449C068229A15230AF045FA2DE088082BD3ED
:202590002048076847B37888397908373A4612F071FD0746162F03D0042F01D010F0CCFE46
:2025B00019484669C7B936F00206466114D1174A1749CDF8008001230BE040F252300AA945
:2025D000443806F095FB00230A48BDF8282008490090102004F0D8FF60680FF0B3FF02E040
:2025F000A0780CF049FC20460FF0ACFF2FE6C0466129010040E2010008020020A00D0020A2
:2026100000140020D42E0020D0080020093F0100BDF200002DE9F04F0746C84821F000445D
:202630000E460FF2D82BADF15C0DA04213DDC448A04203DD38460DF055FF48B10020009013
:202650009BE80C003146384605F08EFB0E46074631463846A1E2BB48A04205DC38460B46BA
:20267000024604F02DFC98E2B748B146AFA50FF2C42AA04280F2C880B448A04251DCB4488F
:20269000A04200F36F81B34AC1F30A502315000502AEA3F21648251A3C460227AD1829465C
:2026B00020460DF01FFF10F0D5FB0B460246294620460CC604F004FC92A20CCA07F09CF8F0
:2026D00004460D467F1EEAD106A880E830000325044694E803009BE80C000AF0F1FD1DD05A
:2026F00002A808A942462B46FDF798FFB9F1000F014606D408A890E800030AAF97E80C00A2
:202710001CE208A890E800030AAF97E80C00494289F0004983F0004310460EE2083C6D1E24
:20273000D7E78D48A04238DA8C48A04200F01A81B9F1000F75A277A416DC0CCA384604F09C
:20275000C4FB94E80C000D46064604F0BEFB894680464B4642462946304604F0B1FB94E827
:202770000C0004F0B2FB15E00CCA384604F0A8FB94E80C000D46064604F0A2FB894680466F
:202790004B4642462946304604F09AFB94E80C0004F096FB02460B46D8E17148A04200F0B8
:2027B000E180B9F1000F5DA25EA416DC0CCA384604F08BFB94E80C000D46064604F085FB93
:2027D000894680464B4642462946304604F078FB94E80C0004F079FB8CE00CCA384604F04B
:2027F0006FFB94E80C000D46064604F069FB894680464B4642462946304604F061FB94E881
:202810000C0004F05DFB5AE0D449C4F31300814200F0A880D248A04236DAB9F1000FD4A219
:20283000D5A417DC0CCA4946384604F04EFB94E80C000D46064604F048FB80468946424681
:2028500030464B46294604F03BFB94E80C0004F03CFB16E00CCA4946384604F031FB94E8A0
:202870000C000D46064604F02BFB80468946424630464B46294604F023FB94E80C0004F062
:202890001FFB02460B467BE1B9F1000F1ADC95E80C004946384604F018FB9AE80C000C46ED
:2028B000054604F012FB80468946424628464B46214604F005FB9AE80C0004F006FB02467A
:2028D0000B4664E195E80C004946384604F0F8FA9AE80C000C46054604F0F2FA8046894636
:2028F000424628464B46214604F0EAFA9AE80C0004F0E6FA02460B4634E1C04600000000EC
:2029100000000000000000000000704100004054FB2119403163621A61B4F03D0000307FEC
:202930007CD91240CA9493A7910EE93D00004054FB21F93F3163621A61B4D03DFC21E93F24
:202950000000503E0000F07F7A6A0F403C461C40FB21394100006041BCFD1540FB2119409F
:202970007CD912408EA20CCA4946384606F044FF0FF2342898E80C0004F0A7FA98E80C004A
:2029900004F09EFA0D9181460C9088460DF0AAFD0E9095E80C004146484606F02DFF0B4679
:2029B00002463146384604F08BFA15909AE80C008B464146484606F01FFF13901598139A27
:2029D00014910B46594604F07BFA80460D984B4689460146184695E80C0006F00DFF0B469D
:2029F00002463146384604F06BFA10910F900D990C989AE80C0006F0FFFE0B4602461099E4
:202A10000F9804F05DFA24154800A4EB5050102840F387800D990C9865A20CCA06F0ECFE8B
:202A30008A46054610990F9853462A4604F048FA8B4615900D990C985FA20CCA06F0DCFE75
:202A50000E460746159A10990F985B4604F038FA53462A4604F034FA0B4602463146384646
:202A700004F02EFA139014911598149B139A594604F026FA80468946159810991190024652
:202A90000F98CDF848B05B4604F01AFA53462A4604F016FA0B4602463146384604F010FA80
:202AB000024611980B46594604F00AFA4800A4EB5054322C35DB0D9C0C9D41A20CCA2146D2
:202AD000284606F099FE82461598894659464B46524604F0F5F980463BA2CDF854800CCAEB
:202AF0008B462846214606F087FE0C460546129911985B46424604F0E3F94B46524604F09E
:202B1000DFF90B4602462146284604F0D9F90B461493024613925946404604F0D1F9894602
:202B30008046159859464B46424604F0C9F9149B139A04F0C5F90B460E99024611F0030151
:202B500004D0491E0ED0491E1AD020E0012000904946404605F008F91FE0C046FB21090015
:202B70007CD902404946404605F062FA15E0C04600004054FB2109403163621A61B4E03D12
:202B9000012000904946404605F0EEF803E04946404605F04DFA81F0004117B0BDE8F08FB3
:202BB00083C8C96D305FE43F00000000000038430000601A61B4D03D7370032E8A19A33B26
:202BD0000000002E8A19A33BC14920259A837B392DE9F04FD34C04F11C012046ADF1340D4B
:202BF0000DF028F8002604F1A80A4FF6FF7066700121608250460FF0E7FAD04802210FF09D
:202C1000E3FACF4804210FF0DFFA04F14808042010223146A07040460AF095FE04F1580928
:202C30001022484631460AF08EFE04F120073E6004F10A052E7007206072DFF810B3E67181
:202C500002222672594610200346CDF8008004F09BFC102003225946CDF80090034604F03A
:202C700093FC0422102059460097134604F08CFC4FF0080A4FF003094FF0010B05F12E0049
:202C9000079005F17D00089005F12200099005F15E000A9028350B9519E06078B4F84050D9
:202CB000B4F84230B4F84420B4F8461006280ED1ADF80A50ADF80C30ADF80E209F48ADF888
:202CD000101011F07FFE584602A90AF0B5FAE069B44A31464FF0FF3312F0DCF9071CF6D065
:202CF000059606A80DF11A0105AA0FF0FFFD002840F0BE81BDF818102078102940F0B4810E
:202D10009DF81A10884240F0AF81059D29884FF6FF728A4200F09D812B78A23B00F0808166
:202D30002E3B40F0A181A978B046002900F03C81891E00F00D81491E012940F2D780891EF5
:202D500000F09B80491E72D0491E5FD0083900F05781891E40F05A8194F83E10A888052926
:202D7000ADF808004AD075488DF812B011F02AFE94F83E00012820D004281ED003280DD04A
:202D900002280BD00598C188ADF80A100189ADF80C104189ADF80E1081892BE0B4F842108E
:202DB000B4F84000ADF80C10B4F84450ADF80A00B4F84610ADF80E501CE0B4F84000E98809
:202DD0008842D8BF081CADF80A002989B4F842008842D8BF081CADF80C006989B4F84400F7
:202DF0008842D8BF081CADF80E00A989B4F84600884200DC0846ADF8100001E08DF81260E6
:202E1000A749102002AA04F0BFFBFFE04C4811F0D9FD6B78002B40F0F980E888A0822889E4
:202E3000E08268892083454811F026FBEEE0AA88B249102004F0A8FB0798414606220AF0D3
:202E500082FDA682E6822683A87920733B4811F0B9FD3B4811F0B6FDD8464FF6FF70237917
:202E700060823BB9A879082814BF042005206070E670CBE084F80190C8E06B787BBB291D1A
:202E90000A6807980260898881800623637068896082E889A082288AE082688A94F83E105B
:202EB0002083E8780129E07218BF02290BD1994910201F2204F068FB4FF47A7180B2414317
:202ED0001E480FF09DF968890423009090490193EA7810202D1D2B4604F056FB99E06878E7
:202EF000312840F08A80E67004202CE06B78002B40F08380A878218A6278032814D0E0785C
:202F1000257921B9012814BF2671E67005E0054303D081480FF074F96278072AE4D1062025
:202F300011E0C046B0050020062A0BD0E578002D08BF84F801906CD0022004E07C06002068
:202F5000A00600200720607063E0C0463F3B01006B78002B51D1EB78617893B902291DD010
:202F700007291BD0062902D12079012816D1032914D0694811F080FA80B9584611F0B4FAB9
:202F90000CE00FF095FF0246A07960490090089843460190102004F0F7FA68706D78002D4F
:202FB0002BD133E0070000806B7833BB5B485649009002221020034604F0E6FA58484A4627
:202FD000514900901020034604F0DEFAED1C296809980160A9888180207884F801B00FF0E0
:202FF00067FF02465B460A9D6079484900901020019504F0C9FAC0B258B184F801A008E0D4
:20301000AA8840491020052304F0BEFAB8F1010F2AD1656A45B3296831B36078884723E047
:203030006879132820D12889012808D1607B022805D13E4811F0C6FC0FF0A2FC14E035498D
:203050001020052204F0A0FA81B238480FF0D8F80AE06888C00B07D3324804222A490090D7
:203070001346102004F090FA059808B111F04AFC2579E07879082ED355EA00032BD0204681
:2030900000787DB9E279217A8DF808200B9D8DF809102B680DF10A010B60AA888A8003E063
:2030B000051601108DF80890627A8DF81020A17A8DF811100FF0FCFE1149024602AB1020ED
:2030D00004F062FA38B1656A84F801A01DB1296809B150468847B80803D3134930460AF0DB
:2030F000ABF8F808FFF4F3AD607B401E3FF4D5AD401E7FF4ECAD0FF043FCE8E5F5FB000037
:2031100059440110C1170110FD99000009450110D99C0000813F010058060020F805002042
:2031300008060020D0050020EE050020A00600202DE9F04F0F46CD4C0168E1624168806883
:20315000ADF11C0DE060C548A1608047C448E16A0160A168DFF810A34160E168DFF80493E0
:203170008160CE49002FA346C1606FD03D68E8788DF80C0028798DF80D0003A811F076FFE5
:20319000A86808B1C6490160E86808B1C5490160C54C287820706878BE686070A878B2681D
:2031B000A0703178A2607368E1702E696360EA6926627968E2620868E06068696062A8696A
:2031D0007B68A062286A9E68206395F8240084F834001EB9002010F0A7FD00E0666178685C
:2031F000C06818B9002010F09FFD00E0A0617868006918B9002010F097FD00E0E06178685A
:20321000406818B9002010F08FFD00E0206128692062F86881680E6806B9D24ED0494FF00F
:2032300001084E60C66881F8018036B9002010F07BFD4D462E68F86801E04D462E60006825
:203250005446FB68A0615868E06107E0002010F06BFD4D462E684FF001085446361DC74982
:203270003668621C04F114035020B04710B1286880688047DBF808008047C24E002781460F
:203290003B46BF487770694620610422337038460EF0F2FE0098B0F5801F0CD020B90FF0BA
:2032B00051FF06F027FA08E00DF0B0F811F01EF80420708001E00FF045FF3846BA4EA06035
:2032D0002B68B760986980477060AF4880F8008039464180142011F017F9FF211422A062D0
:2032F00011F078FBE01CFF21022211F073FB142011F00AF9A54F386038680021142211F0DF
:2033100069FB002000F052F940460EF053FDA0480188FF2906D1022101807822001D00211E
:2033300011F058FB032011F09DFE042011F096FE052011F08FFE062011F088FE07200BF02F
:20335000C9FD944E0820307006F1240011F07AFE0CF004F806F1360A05200A21524610F042
:20337000E6FB38B10020C0F10901401C0AF8011B0A28F8DB3078102107F062FE2B68864987
:2033900009200DF10E025E68087001AB10200021B047A06AE1690A260A309DF80E20761E9F
:2033B00000F8012BF9D1891EE161DBF80C104846884704F120002B68626A059040461E69C4
:2033D000DFF8D88104F120034146B04710B1286880688047B8460FF0EBFF5FEA000903D00B
:2033F00008F054FE4FF0FF39002643E00298216910F8062CA0F10C07032A03D1002939D07E
:20341000884737E0A16A9DF810C00A223046491E11F8013F9C4506D0521E00F10100F7D113
:203430004FF0FF0A01E05FFA80FA2868BAF1FF0F00F108001CD038790EF08AFFB9790129BE
:2034500004D0022904BF0299887001E0029908700299504610F092FA0CE0C04641490010CA
:20347000F84400202C2400202421002098170020006880472868C36904A902AA0DF10F00EB
:2034900098470028B2D0D8F800007700C35B6BB9761CF6B20A2EF8DB2BE0C046D050010093
:2034B00021300100513F0100C41F00200A2E20DADBF808008047D8F80010002231F807A070
:2034D000CA53DBF80C108847354850F8262026705146304690470646FF202070DBF80800A6
:2034F0008047D8F800107A5A16437E52DBF80C1088470FF05DFF0746B9451AD007B9294F92
:20351000E069B84238BF071CDBF80800804781462868016A206A8847626A28681F49059B1D
:20353000521C6262C6683846B047DBF80C1048468847A768296860691431AFB9D8F8000074
:203550000A270026835B33B10969606988472968D8F8000014317F1E06F10206F2D107E04C
:203570008023002093410100096988472968143109684FF0FF3088472DE7C046C9350100C5
:20359000C93F0100102400200C240020F42E0020181A00208C120020062F0020992301000A
:2035B000A86301008EC2F528942E00202DE9F84FDFF8BC13DFF8BC23DFF8BC530870082160
:2035D000002010600D23DFF8B40340F23732017043808280DFF8A8030560AC7EDFF8A4032D
:2035F0000470FF2CE97E417008BFFF292A7F82706B7FC370AE7F0671ED7F457115D1FF2A88
:2036100008BFFF2B11D1FF2E08BFFF2D0DD1DFF878130A7802704B7843708A788270CB78C6
:20363000C3700A79027149794171DFF860130278DFF85C83DFF85C93DFF85C730A70FF2559
:2036500043784B7082788A70C378CB7002790A714079487188F8005088F8015088F802509F
:2036700088F8035088F8045088F805500020CB490880D9F83440CA49607808702278C949AE
:203690003A70A0780870A2681079C74A411E1170E078C649C64A0870E068106008B910F0F4
:2036B00043FB2069C34E306008B910F03DFB3068DFF804A301688847326852F8041F5046AE
:2036D0008847BE48BE49CAF82000CAF824106069BC49086008B910F027FBA069BA49086099
:2036F00008B910F021FBE069B849086008B910F01BFBDFF8DCB2B74C9BF8040010F004FF52
:203710000028206075D09BF80500B34E10F0FCFE002830606DD09BF80600DFF8C0A210F052
:20373000F3FE0028CAF8000063D09BF8070010F0EBFEAB49002808605BD039789BF80000F5
:20375000891C484380B210F0DFFEA649002888604FD03878002862D0BBF80210484380B270
:2037700010F0D2FEA04A0028506042D0387810F0CBFE9E49002808603BD03878400010F0AA
:20379000C3FE9B490028086033D038781821484310F0BAFE974A106058B33878400110F068
:2037B000B3FE9549086020B33878000110F0ACFE92490860E8B13878000110F0A5FE9049CB
:2037D0000860B0B138783021484310F09DFE8D4A106070B18C4839780078484310F094FE67
:2037F0008A4A106028B1387810F08EFE8849086018B9BDE8F14F06F0EFB94FF0000B09E0A0
:2038100010F04AFE0021418081600180022303710BF1010B39785FFA8BF08842F0D32268CF
:20383000694F0120107121680D732068457321688D732068C57321680D7400212068457420
:2038500000202268D172A0222168487103212068C2800172072022685072002120688172F7
:203870002821206801224182C2760020216848770022206880F85E200121226811770120EC
:20389000216881F85D0001223068027131680D733068457331688D733068C57331680D749F
:2038B00000213068457400203268D172002231684871306882724FF420703168C88008814C
:2038D0008A7401213368D974DAF800201573DAF800104D73DAF800209573DAF80010CD7398
:2038F000DAF8002015740022DAF800104D740121DAF80030DA720023DAF800201171DAF89F
:2039100000104B71DAF80010C88008818B720520DAF800209374DAF800103E4AC8741068DF
:2039300080473968054608688047396851F8042F00209047D9F80C101C4B0A881878364984
:2039500002430A802846354A136898470C21344811F074FB404611F06DFB11F067FBBDE831
:20397000F44F034800784FF4005107F069BB00BF6E4F0020044F0020B63F0050604E002060
:20399000084F00202C4E0020E81200503C4E0020344E0020FC6601007B4F00200C4F0020A8
:2039B0006D4F00206B4F0020724F00206C4F0020F04E0020F44E00207C4B0020194501007F
:2039D00039450100F84E0020FC4E0020D82E002060230020104F0020144F0020184F002036
:2039F0001C4F0020A02E0020684E0020004F0020DC2E0020804E0020844E0020884E0020F9
:203A10008C4E0020904E00204C240020E02E0020E42E0020A0170020544F0020A417002039
:203A3000F84D00202DE9F84FC04CA178FF2904BF002010F079F9A07810F026FC044604F199
:203A5000680504F190062968086810B10021E1830CE0A87B002804BFA97E002906D130784E
:203A7000002801BF207F0128608CE0832189E08B4118491C6181204611F0D4FA01281EBF47
:203A9000AB480178012904D121890020491CE08361814FF6FF77A87E01280DD1AA8B618930
:203AB000208911F0BBFA38B1218960894A1C93B298421BD0A88B0FE03078012816D17288D7
:203AD0006189208911F0AAFA80B1218960894A1C93B298420AD0708892B2904206D0381847
:203AF000608180B211F096FA3F18E78304F5967999F8040020B120890021401CE183608178
:203B100004F12E07A87E012811D12189A88B4B1C9BB298420BD1608111F07CFA8046B98894
:203B3000288C01FB080820460AF002FA01E0B7F80480B4F81EC022687E4ED2F80CE00CF1B2
:203B5000010000FB08F340F6C41000FB03F18E44C2F80CE03668DFF8E0E13678BEF80080D3
:203B7000764AB609032E11D1D67BF60748BF4FF000080BD408F101081FFA88F6012E12BF8F
:203B9000668AB9F8066006F2DC5600E0668A5E434FF4C87AB6FBFAF6761C6661AEF80080CE
:203BB000A3614FF0180894F806A084F820C008FB0AFADFF88CC1DCF800E023680EF108068D
:203BD00056F80AB0C3F810B094F806A008FB0AFACDF800A0D3F80CB0D4F814A0ABEB0A0A03
:203BF000DDF800B046F80BA094F806A008FB0AFA56F80A609E600EF10C06A37908FB03F332
:203C10000EF10C0EF65C06F0F00646F002060EF803604FF0000ADCF800E0A6790EF1020376
:203C300008FB06F623F806A0464BA6791B68760103F1140AD4F814B05AF806A00AEB4B0A26
:203C500003F1140B4BF806A0AD7E022D0BD1A5796D0103F1140697F800B056F805A000FB5B
:203C70000BAA46F805A0BD88D27BA779D60736D508FB07F70EF10802D659A6F5A86A0EF11D
:203C9000080646F807A0A77908FB07F7D2592768511A3961BA6003F11402A179490157580A
:203CB00007F5F667575003F11401A27952018958C9F800106843244AA179156B03EB4116D3
:203CD0002968401AA0F51670F0612049A07903EB40100B78012B14D10121C17214E003F1EC
:203CF00014027F01D1592A464243A1F5E661A2F516729142DED30821204611F087F901204E
:203D100011E0916A4A78C272A179DCF8000008FB01F281182268516007200D49087020469E
:203D300009F086FE0020BDE8F28F00BF684E0020784F0020084F0020FC2E00205C4D0020AA
:203D5000804E0020844E0020FC660100734F00206F4F00202DE9F84F0C46E00788B00BD5A2
:203D700010F0AAFB28B100218160B348006800B1804784F001005CE1A0070FD50021002357
:203D9000069105910491039302910191009101223C2011F037F984F002004AE11D2560070B
:203DB000A64EA74F40F18A80002107918B46A5488178FF2904BF00200FF0B6FF386890F877
:203DD000A00010F061FA80463868C07A98F82691022818BF032808F5907A06D106F10D00E3
:203DF00011F00CF908B906F1070B5146484611F001F988B33868807A002818BF012804D1F1
:203E10003146504611F0F2F804E052464946304611F0E8F8FF2834D005FB00F906EB090515
:203E300006225146E81D10F0EBF816F80900396840F00209E81D07900622887E00F001001D
:203E500088F8260105F1010A386800F1140108F5907010F0D5F814E05146484611F0BEF86A
:203E700078B152464946304611F0BCF8FF2808D006F10D014543481911F0C0F808B949F017
:203E9000020908F12C004B46017806914289120905920122B8F822100491C08807990291AF
:203EB00040080390CDF804B0CDF800A0002098F8061011F0A7F884F00400BAE020060FD5B7
:203ED00000210023069105910491039302910191009101223B2011F095F884F08000A8E0F8
:203EF000E0044BD5F11D06F10D0011F073F83868017A012918BF042931D1C17A02291EBFA2
:203F10000329817E01292AD1817E00F11402304611F068F8FF2811D04543354405F10D0058
:203F300011F06CF850B9E91D05F10D0011F052F838680622E91D143010F062F83868C07A69
:203F5000022818BF03280AD106F10D0011F056F828B938680622F11D0C3010F051F83A4839
:203F700042683A4800784FF480510CF0BFFC10B18E2009F0AFFB84F480505AE0A00505D5AF
:203F900010F044FB324901200860FEE7600504D506F05DFC84F480604BE0600405D58120FA
:203FB00009F098FB84F4804043E0A10440D5294D286810B100200FF0B7FE274E4FF0FF30D2
:203FD000286011F003F83168244D51F8202F684690472349234B486A8A6A009001920293EE
:203FF000C86A0268086A0392ADF810000A6B1178002904BF5068002805D19068002804BFD6
:20401000D068002806D02970506868609168A960D068E86029463568134A2E6813486B46B4
:20403000B0471349086003F013FD84F4005000E0002009B0BDE8F08F204F0020AC4500206D
:20405000104F0020684E0020784E00206E4F0020FC002043044F0020F04E0020684500203B
:20407000C41F0020B94401002C4D0020A82D0020EC4E0020BB482DE9F84F0025BA4CB849BB
:20409000056094F8E200002800F06581012800F02F81B64E02283CD0032840F05C8151F8BB
:2040B000250CD4F8B8100029A0F5C060C4F8D400B8BF49420028B8BF4042814226DA4FF098
:2040D0008057D7F8A4014568B4F8BC0030214FF47F42082300903046A847D7F8A4014568DA
:2040F000B4F8C00004214FF4F802122300903046A847D7F8A401B4F8D070456820214FF427
:2041100040620A2330460097A847012584F8D8501CE151F8258C10F079FA2F4600B901273A
:204130003946934F38680028FCD0B146012609F10409D9F82CA03E6009B110F06DFACAF33C
:204150000720C4F8BC0010F061FAAA4600B9B2463B68002BFCD0D9F800B0BAF1000F3E6041
:2041700001D010F059FACBF38440C4F8C00010F04DFAAA4600B9B2463B68002BFCD0D9F8BA
:204190001C90BAF1000F3E6001D010F045FAC9F38120C4F8D000B8F5C061C4F8B81000F0D0
:2041B0009C8094F8D80068B9C4F8D410D4F8C000C4F8C800D4F8BC70C4F8C470D4F8D030EA
:2041D000C4F8CC30D4F8D400D4F8BC30002854BF02226FF0010204F1C8010F6800EB40009E
:2041F0008018421000EB927207EBA2000860D4F8C810C4F8C43000291CDD1E293CDDD4F838
:20421000CC0030B93429B4BF15391E21C4F8C81025E02A29BABFD4F8C8000B381E20C4F846
:20423000C800D4F8C4003F28B4BF401C3F20C4F8C4001FE0D4F8CC00032812D011F10B0F41
:20425000C6BFD4F8C8000B30301CC4F8C800D4F8C4000028C4BF401E051CC4F8C450032578
:2042700008E011F1150FC6BFD4F8C8001530301CC4F8C800C4F8CC504FF08057D7F8A40190
:20429000B4F8C43030214FF47F424568374800930823A847D7F8A40104214FF400321123FE
:2042B000456832480096A847B4F8C860D7F8A40104214FF4F802122345682C480096A847BD
:2042D000D7F8A40120214FF440620A23B4F8CC60456826480096A84701E084F8D85040F2D8
:2042F000FF50404502D8801C40452FD2082030E051F8251C1F4F4BF2F5204843060A386821
:20431000C0F3814001280CD11B480068006880470DF0BAFC10F086F93111C010484306EB59
:20433000E03694F8E50030B91448006820F07F403618760801E084F8E5501148310C066010
:20435000012741600F4D8760287808B90B2000E0052084F8E40003F0EBF9BDE8F88FC04647
:204370002D400C402C500C408416002000A00C4000800C40B43F0050EC0100101020094081
:204390003C600C406D6501002DE9F84FB34D696884B0019121B905B0BDE8F04F10F012BE1B
:2043B0000978DFF8BC82AF4EDFF8BC92DFF8BCA201291CBF0229042946F2A81741F64C5BCE
:2043D00005D0402918BF802900F096803CE110F0C5F90028FAD00198007804F04BFE00905E
:2043F000446814B900200FF09FFC9AF8010000285CD000F043F90FF047FF0290016800988F
:2044100001914F6809F04AFF022825D000990A78012ADBD196490A68137A19F8031031704D
:2044300018B910F0CBFD5844A0602069C17E01F0EF01C1762069C17E41F08001C17620691D
:20445000C17E01F0F00141F00201C1762269B96888484118D1614BE001980178802911D1F1
:204470000820854930700A78012A03D09AF80100022801DB38690CE0D8F828003A690178DC
:20449000D1720DE07C49072030700A783869012A02D10121C17203E0D8F828104A78C272F9
:2044B0000298817901988AF80210C8E0009800288CD00199009A0078914205D101281CBF0E
:2044D00000200FF031FC15E0012840F0BD80684801680A7A19F80200307010F06FFD3918E8
:2044F000A06810F067FD18B910F068FD5844A0600120A8700098A2E09AF8010000287AD016
:2045100000F0BCF80FF0C0FE04462068029047689AF802000FF0B8FE039010F025F910F01D
:20453000070F3DD0A87804F0A5FD0190416801980091029909F0B2FE022831D001990A78A3
:20455000012A2AD14A490A68137A19F80310317028B910F033FD83440098C0F808B0009856
:204570000069C17E01F0EF01C17600980069C17E41F08001C17600980069C17E01F0F00120
:2045900041F00201C176009AB9683A4841181069C16101210198A97051E000200FF0C4FB8C
:2045B0000398A04225D0029833490278802A12D1082030700978012903D09AF80100022859
:2045D00003DB38690121C17210E0D8F828003A690178D1720AE007203070097838690129B3
:2045F0000EBF0122D8F828104A78C272A0798AF80200029823E010F0B7F810F0070F29D0C5
:20461000A87804F037FD04462078D4F80480012820D117490868027A19F80210317010F0E6
:20463000CDFC3918D8F8080010F0C4FC20B910F0C5FC5844C8F808000120A870204605B066
:20465000BDE8F04F06F0BABD05B0BDE8F04F00200FF06ABB05B0BDE8F08F00BFA02E002096
:20467000FC6601006F4F0020289A0110684E0020104F0020F0D8FFFF734F00202DE9FE4FB6
:20469000B24C617811B900200FF04EFB10F096FC4FF00008074607F6C417C246AC4DDFF82B
:2046B000B49228E050460FF0EFFD06467079F0B12968B07901F80800394608F101005FFAB8
:2046D00080F8304610F072FC30680178402902BF06F182000178012902BF418872899142BF
:2046F00005D1B169C088411830460DF053FC0AF101005FFA80FA99F800008245D2DB6178AA
:20471000884505D000200FF00FFB822010F04AFC6078012840F0F180002701E07F1CFFB2E0
:2047300099F80000874280F2E28038460FF0ACFD064670790028F1D02968B0790A789042E9
:204750001CBF00200FF0F0FAB079FDE0286810F809000FF099FD00684268DAF80810906835
:20477000814204BF3E4609F1010900F0D480D6E0286890F800B001224FF4C0710FE0636808
:2047900003F5AD76835C01FB03F901FB0BFE36F809C036F80E60B44538BF9B46521CFBB293
:2047B0009A42ECDB4FF6FF7010F0F8FB064658460FF06AFD68490068D0F804A00868D9463B
:2047D00030F8192060684FF4C07300F10E0103FB09F3C85AB2EBD00F52D2720840F6C410EA
:2047F0004243009200275D4A0190029217E058460FF04AFD01680A78802A03D1DAF8103049
:20481000009A5A610978402908D1029980790A6802EB4011009800F5A060C8617F1C47454F
:204830002EDA2868C05D8345F8D001464FF4C073594363685A1803F5AD73D289595A53080C
:204850008B4202D2521A9045E8DA0FF01DFD01684A68019B9168DAF808207008A1F6C411FD
:2048700003FB002010F0A6FB0028C0D03A48006830F81910491C20F81910286810F807B081
:20489000296808780FF000FD0026006847684FF4C079464551DA2868805D0FF0F5FC0068C7
:2048B000296842688B5D606809FB03F3034403F18201087830B15889B1F802C0401C80B20A
:2048D000604508DA887B01280ED15889098A401C80B2884208DB6EB3B968906801F5C24154
:2048F000A83110F067FB28B3761CF6B2D1E700200FF01AFA822010F055FB6178286810F012
:2049100049FB286800780FF0BFFC00260068D0F804A04FF00109771CC145FFF617AFF6B242
:20493000002E1CBFF8B200287FF422AF286890F800B037E7296811F806B007490A68002030
:204950005B4622F813005846BDE8FE8F684E0020004F00207B4F0020DC2E0020844E00205E
:204970002DE9FC47DFF8C4A20F460546F80B80F00A81A74EDFF88C82B80F80F0BC80B808E6
:2049900080F0B0803809C0F031819C480178090980F0A380007830F07F0040F09E806846AF
:2049B000FCF7D8FA012803D10098002800F0958093480078002840F0908001240025E8B2C1
:2049D0000FF01CFC48B1837A3BB1847290F9090004FA00F0C0B20DF0DBFB6D1C032DEED399
:2049F00045464FF0030905F1AC0085F810900FF0B3FF854A0021884610681160834952F8A4
:204A1000080C05F1340042F8088C42460FF0B4FF3068006B8047AA68A969801A000BC0F1FC
:204A3000FF328A422CBF01444FF0FF31A961287F20B1E868A969B1EBC02F20D9754800683D
:204A500010F0010018D074480068000A14D3734840F60901018041464180427B64F303026B
:204A70004273027B61F30302027341600FF0E4FC418811F4406FFBD02C774146A961684979
:204A9000086820F0020040F400700860654A42F8049C41F230069660146050239360146042
:204AB0004FF4CA6696601460022042F80C4C44460C600DF0AFFD112006F022FB287818B901
:204AD000686838300FF064FF687F18B16C7705200DF0A0FD544868612C7409F073FF27F053
:204AF000080783E005F066F940467430006808B927F002077AE00FF037FF34468146606DD0
:204B10000068014604208847C8B1287CB8B14046083006689EB12068EC68006B8047801B39
:204B3000E860010BE960A14202D209194908E96040F6C41088422CBFB1F5FA7FE8604846A1
:204B500010F024FA0DF008FB90B1A8696FF4807100224FF0007304462846A04740466C30EC
:204B70000068002808BF47F0020701D009F02AFF686900214FF0806304460A462846A04798
:204B900027F0005732E00FF0EFFE51460E684EB306F1280106C90A234FF0E0450B4015406B
:204BB00008BF002B1ED106F1280191E8300006F1280393E8060006F12803AA43A14383E83A
:204BD000060010F0E3F9B16871B1002D08BF002C0AD03069B6F93C10B2682B4616462246CB
:204BF000B04701E010F0D2F927F4804727B15046394650300FF0D4FEBDE8FC87FE2E00206E
:204C1000F1250020582400201410044029E700008C01001040210840000004406C2E0020F6
:204C3000000004600C41044041AD0000D82400202DE9FC41A0F2013714468846022F40F2BD
:204C500034819C4E9D499E4A3F1F0F2F04D9143F4CD0BF1E1CD011E0DFE817F0D000CA00CD
:204C70000E01FB00C200BA002701B000A800100010009E0090008100740066002D2880F2AE
:204C90001481B8F1020F40F010818949238808E1B8F1010F40F00981F078012800F0058114
:204CB000324620781179107189B9002800F0FD805078012800F0B680042800F0B38006285E
:204CD00000F0B080052800F0AD80BDE8FC812078002840F0EA805078032800F0B08007289C
:204CF00000F0AD80052840F0E080A8E0B8F1010F40F0DB802078012840F0D78006F1F000CF
:204D10000FF0BAFB002840F0D0803446002004F13E0108F091FA002840F0C78004F1CC0076
:204D30000FF050FEBDE8FC81B8F1020F40F0BD8020880A28C0F2B980B0F5486F00F3B58084
:204D50000E4619E0B8F1020F40F0AF802088B0F5FA7F80F2AA800E463080BDE8FC81B8F1AC
:204D7000020F40F0A28020880628C0F29E80B0F5486F00F39A801646B61CEDE7B8F1020FF5
:204D900040F0938020880628C0F28F80B0F5486F00F38B801646DFE7B8F1010F40F08580BF
:204DB0002078062880F28180464E0EE0B8F1010F7BD12078042878DA0A3606E0B8F1010F2E
:204DD00073D12078082870DA09363070BDE8FC81B8F1010F69D12078042866DA0836F4E75C
:204DF000B8F1010F61D1207804285EDCF61DECE7B8F1020F59D120881036ADE7B8F1010FB5
:204E100053D13079012850D032462078D178D07069B9002849D05078012803D0042818BFA9
:204E3000052842D101200FF05FFBBDE8FC81207800283AD15078022818BF052835D1107837
:204E50000EF036F81C490246102002F09DFBBDE8FC8106F1870500211F22284608F073FDD2
:204E700021464246284607F0FDF944463078B4710EF01EF8002311E006F1680500211F2293
:204E9000284608F060FD21464246284607F0EAF94446307874710EF00BF8012300940A49E5
:204EB00001950246102002F06FFBBDE8FC81C04629270100B005002099450110F405002022
:204ED000F0050020EE050020094501102DE9FC418E488F4A04788F488F4B90490D2C6FD8B3
:204EF000DFE814F012010E000E000E000E000A010A018E000A01C900C900E700E700EE008F
:204F1000106041F204478648864DB0F802C08649BC451FBFB0F81AE0BE45B0F83280B845DE
:204F30004FF4A0561ED181480068D0F800C09CF8040003280CF1080E0BD1DEF80E000028C2
:204F50001CBFBEF81800002803D01F80784911608AE0022C1CBF1E800D46156000208CF84F
:204F7000040081E0BCF1000FA3F800C041D0BCF1010743D0B7F1010C3BD040F2FE37BCEBFE
:204F900007071ED0A7F1040CBCF1010F20D94FF47F77BCEB070C1DD04FF44067BCEB070728
:204FB0000FD0BF1E012F0CD93F1F0AD07B1E012B0ED940F2F937DB1B012B1AD91B1F09D0A2
:204FD0009AE0022C01D115604EE01E800D46FAE7584DF8E7584B1C68257A012D05D141F251
:204FF0000243438043834386F0E7468046834686ECE700200EF098FE832081E08F207FE03F
:205010004E498978FF290CD0106018204C4C41432068851C40F204466C5A1C80A41B012C2D
:20503000484B71D94FF47F76A41B0FD04FF44066A41B032C84BF641F012C0BD9A41E012C10
:2050500062D940F2FD36A41B08D103E0801C41F201444452136005F0F3F805E000200EF025
:2050700063FE85200FF09EFFBDE8FC4136480078012105F0E5BF40F2044248881880904239
:205090001CBF41F2084290423ED041F60402904211D12E4C2E482F4B00680025CDE90045E5
:2050B00002222D4C256855F8086FB0472B4908802AE04888188000200EF036FE85201FE097
:2050D0004888188002280DD940F20442801A1BD040F6FC72801A05D0083815D04FF47F72DF
:2050F000801AE8D1887B801CC2B2B52AA8BF662088730020488007E000200EF015FE8420CF
:20511000BDE8F6410FF04EBFBDE8F3816F4F0020204F002039490100504F0020CC4C002097
:20513000204A0020B1540110615A0110F44B002059550110755B0110104F0020684E00209F
:20515000804E0020313901106E4F002002000080EC4E0020C1260100F04E0020424F002026
:205170002DE9F04F8246DAF80070DAF804600C465FEA0208ADF11C0D14BF00214FF0FF31BB
:20519000DFF8409248460FF0ECF8002818BF0B2040F0158100258F488C4905708A48FC6081
:2051B00052460FF0E9FB317B27200FF0E7FBB8F1010F07D0657002200DF0D2FC06200DF01B
:2051D000CFFC01E0012060702078012840F2AA80801E012868D9801E012833D9801E012863
:2051F00000F2DE800FF0C0FB83464FF0805000F5EE77D0F8DC01A378466A00932178284659
:20521000062908BF0120019001200290A068228AE1686368B047814658460FF0B7FEB9F1A1
:20523000000F40F0BF80B8F1000F02D00EF0ACFE02E050460DF08AFA002800F0A3803868DA
:20525000806A2AE00FF090FB83464FF0805000F5EE77D0F8DC01012306680093A168A278A1
:2052700060682478AC46042C08BF9C466346B047814658460FF08AFEB9F1000F40F0928068
:20529000B8F1000F02D00EF07FFE02E050460DF05DFA002876D03868406880474C49C1F862
:2052B000B0510D6081467DE00FF05EFB83464FF0805000F5EE77D0F8DC01E38A866900932E
:2052D000E0680190208B0290A0780390207D04900121059122782846022A08BF081CE1789C
:2052F0006268A368B047814658460FF04FFEB9F1000F57D1B8F1000F02D00EF045FE02E093
:2053100050460DF023FA00283CD03868006A80475FEA000946D1E078A168E28A236908F00E
:2053300055F8BFE70FF020FB83464FF0805000F5EE76D0F8DC01E38AC7680093E068019072
:20535000208B0290A0780390207D2946049001200590257805B9014608466268A368E178E1
:20537000B847814658460FF011FEB9F1000F19D1B8F1000F02D00EF007FE02E050460DF006
:20539000E5F908B914201AE03068406980475FEA000907D1306802692169E078904781E7DA
:2053B0004FF0FF39B8F1010F05D002200DF032F906200DF02FF903480FF0EAFA484607B0D0
:2053D000BDE8F08F081B0020401B00203132010050450240042F00202DE9F04385B011F8C6
:2053F000017B0446082F04F1FD0004F1FC0804F1760504F5A076844A844BDFF8149213D039
:20541000092F21D00F2F2FD0112F01BF287801286878102840F0D5800A78327648787076E0
:20543000012184F83D11EBE00025521C4E5D5F5D3E434E55575D3E4046556D1C082DF5DB2C
:20545000204608F0F5FE74E00024571C0D5D1E5D35430D553A5D15400555641C082CF5DB77
:20547000022088F80000CBE098F80100820704D410F0110F57D01A2266E008784A7800EBE7
:2054900002203080CA78887800EB022070804A79087900EB0220B080CA79887900EB022019
:2054B000F080087A30724A7A887A02EB00227281C87A0A7B00EB0220B0818A7B487B00EBC8
:2054D0000220F0810A7CC87B00EB022030828A7C487C00EB022070820A7DC87C00EB022000
:2054F000B082487D897D00EB0120F082494801788A0658BF1A2212D504F5A67004907189B0
:205510000391307A029021890191F0880090B38872883188204608F029FCE0B11E2298F895
:205530000100410710D40F2088F8150020460FF029FD002864D199F8000005B0BDE8F04364
:205550004FF4804105F07CBD204605B0BDE8F0430F210FF013BD7088A882B188E98202212E
:20557000F0882883297400206882A18EA88AC91DE981618EB0EB510F02BFE88AA18E88428A
:2055900002BF288BE18EB0EB111F18D02878012804BF68780F2805D0687918B10F21A972F8
:2055B000FE2127E0FC2120460FF0E4FCF0880090B38872883188A0790FF0D8FC20E0102140
:2055D00018E0491E20460FF0CDFC032F18D1A878042818BF0D2813D16E78142E18BF0E2E9C
:2055F0000ED12F7820460FF0B9FC012F06BFAE72FD213146204605B0BDE8F0430FF0BABCE9
:2056100005B0BDE8F08300BFEC4D0020C42E00206E4F0020144E00202DE9FE4F8B4C606A20
:205630004068014668468847A06A6179BDF80020406804EB410301461A8604F10A008847A5
:20565000607961796689401C04EB4102C1B2A2F840600829A8BF00210025082720462B4679
:205670002E30617130F8022F018A7F1E2A44194495B28BB2F6D1764FE910D810B3F5C85FDE
:205690003A7DE1823D46208305DA01230C2AA370A4BF0B23EB7440F6C419814505DA0123A2
:2056B0000C2AA370A4BF0B23EB74A9F1960A824507DB40F25233834208DDB0F5487F05DB11
:2056D00003E04B46834201DB53462383237AB1F5487F01DB012B1AD101232372E07888B917
:2056F00040F25237B7420DDB0E206070E3700026267008F061F933462778E18A2A7D2372E0
:20571000E078EF700A2AC4BF0A26EE7400E0E078B1F5487F01DB012B1BD163890126267235
:2057300080B940F252379F420CDB0E206070E6700027277008F040F920782772E18A2A7D17
:20575000E870E078B4F818800A2AC4BF0A22EA7401E0B4F8188052468A4207DB40F25232E3
:205770008A4208DDB1F5487F05DB02E04B468B4201DBE2821146A1F252310F2291FBF2F18E
:205790008DB26582A78A00283DD1A689B4F80E90012F0FF2B00A19D130460DF05BFB8B4684
:2057B000019048460DF056FB9AE80C0004F024F8024601980B46594607F0C5FD06D8B9F1BC
:2057D000000F01D1062D1EDB01271DE00FB9062D15DA30460DF03EFB83460E4648460DF049
:2057F00039FB9AE80C0004F007F80B4602463146584607F065FD08D2062D04DB05E00127E4
:20581000A782E68101E00027A782A6780F20A8F2523191FBF0F080B2A08156B9012F08D077
:20583000E17928274843C0EB801090FBF7F081B200E00021E06A218262780368E08B9847C7
:20585000BDE8FE8F666666666666E63F141E00200C11002010B50B7884074CBF43F00203D8
:2058700003F0FD0304064CBF43F0800303F07F0304074CBF43F0080303F0F70384064CBF0F
:2058900043F0200303F0DF0310F0AA0F0B7003D0107840F00C0003E018B9107800F0F300E3
:2058B000107010BD2DE9F8430D4600272878022814461E4667D1696808784978DDF8208079
:2058D00000EB012080B25FEA08021CBFB0F5285F0B205BD14FF42851401A08D0401E21D08C
:2058F000401E2FD0401E25D0401E31D04BE0DDF82490E8680FF070F880B2A0EB08024A45C8
:20591000BCBFA0EB08001FFA80F909EB0800162806DAA6F800904A46E86800EB08010DE0CE
:205930000D2732E0E8680088022131802070000A60702AE0062030800622E96820460EF03E
:205950005FFB22E001203080E9680A7822701CE0E868B0B1082131800288227003881B0A52
:2059700063704188A1704288120AE270818821718288120A6271C188A171C088000AE071A0
:2059900003E0308001E0378001273846BDE8F2832DE9F0470F4681463878002402289046CF
:2059B0001D466DD17868089E01784078DFF8D8A001EB002189B24FF42852891A06D0491E4B
:2059D00029D0491E4ED0491E39D059E0F8680FF003F880B2B04204D3A919162903DB0D242B
:2059F0004FE007244DE0FB682A46414698190EF007FBAD19F868ADB2C5F116020021401938
:205A10000EF0E8FFDAF8000000281CBF0268002A37D0002123E08EBB022DE0D198F8000044
:205A300098F80110FA6800EB01201080DAF8000000281CBF0268002A23D001210FE0EEB9A3
:205A5000062DCCD1F868062241460EF0D9FADAF8000000281CBF0268002A12D00321484689
:205A700090470EE056B9012DB9D198F80000002813BF0128F9680870802402E00B2400E069
:205A900001242046BDE8F087EC2E00207CB5894D144602460026A2F58062182A1AD8DFE8D2
:205AB00012F0FE00F800F100E900E200DC00D500D0001900C500BE00B700AE00A3001900E4
:205AD000190080006F00680054004C00420039002C0024002D2880F28580022940F08280B2
:205AF00021880CF019FE0646E1E0012940F0DE80002C00F0DB801135A6E0102940F0D68013
:205B1000002C00F0D38028465030102221460EF077FACCE0012940F0C980002C00F0C6805F
:205B300029468D1D90E0262940F0C080002C00F0BD8005F160002622E8E7012940F0B680B7
:205B5000002C00F0B3806D1D7EE0602900D13CB9012940F0AB80002C00F0A8800D3573E051
:205B700005F18600214660220EF04AFA012068739DE0012940F09A8020780FF0EBF996E090
:205B9000012940F093802078022800F38F800C3528702078022814BF301C01200FF0D6F91B
:205BB00085E0072940F08280611C684606220EF0E5F820786946324605F080FD04460A2C2F
:205BD00010DA0FF0BFF938B9204602F05FFF0DF003FC09F0C3FB6AE02A46012002F12C05BB
:205BF000285564E0022662E001295FD1A87B21780028A9735BD12078012858D1E9E7012900
:205C100054D12478072C51DB102C4FDC0B3537E001294BD124780A2C48DA093530E00129E4
:205C300044D12478022C41DA083529E000293DD10FF088F910B90EF083FAC8E701240F3501
:205C50001EE0012932D10A35247819E001292DD12478022C2ADAED1D12E0102926D12B46A2
:205C700003F1400051E7012920D12478022C1DDA2D1D05E0012919D12478042C16DCED1CC2
:205C90002C7014E0012911D12478022C0EDAAD1CF6E702290AD120881435288007E0012950
:205CB00004D12478022CD8BF6D1CE9DD182630467CBDC0468C1200202DE9FE4F05467B482D
:205CD000002400680094C00905D37948007810B920200CF089FD012D40F0E280DFF8009206
:205CF000D9F8DC00012840F0D8800220C9F8DC000EF0C6F801200CF077FD5FEA000805D004
:205D10000120C9F8DC000EF0C7F8CBE00EF044FEA34602906748684DC0F800B0A86A01684B
:205D300001208847012804D1584608F0EDFA012000906248624FC0F800B0386811200EF0A5
:205D500083FC00B1012410200EF07EFC08B144F002040F200EF078FC08B144F004040B2082
:205D70000EF072FC20B12868564E016B308888470A200EF069FC20B12868534E016B3088FC
:205D900088475248012606602868816944F0200088474F4806600EF051FC00F00101019194
:205DB000400814D2286A81684A4888478246BAF1040FF7D0BAF1010F04D1286A4268454823
:205DD000032190474449086820F003000860584600F098F92B683868986B80470198012862
:205DF0000CD0BAF1010F04D1286A42683948314690473949086840F0030008602F480660B2
:205E100028684169204688470B200EF01DFC20B128682C4BC16A188888470A200EF014FC17
:205E300020B12868284BC16A18888847274806600322C9F8DC20264BC3F800B02868416B15
:205E5000204688470128F9D1386804200CF0CCFC0446184806603868144800688009FBD3B7
:205E70000098012802D1304608F04EFA0EF0D4FB08200CF0B9FC07460298C9F8DC600FF03F
:205E90005DF81648008807F0E3FF0EF005F857EA040018BF4FF0FF3804E06FF0040801E021
:205EB0006FF001084046BDE8FE8FC046141009406C1700200C400940B801001000022243D7
:205ED0002C2009408C610100886101002820086080010443004003402422084068650100EE
:205EF000841600202DE9F0430446854DA178A869ADF1140D891F00F0FC80C91E00F0E78038
:205F1000491E5FD0491E48D0C91E3CD0481E40F0F380287A697AB8B96878002831D0A08839
:205F30000FF008F8071C00F0E780A07A40080FD3787968B1E168890A0AD2B91D01AA05F05C
:205F5000BDFB0A2804D10321A0880EF0EFFFD3E0287B022802D1A07A0009F4D3A0887979E3
:205F700004F1080201F0ACFCA869002800F0C4804368002B00F0C08000210A46A08898478E
:205F9000BAE00521E0E7002800F0B6804368002B00F0B28062780221F0E70EF095FA00289B
:205FB00000F0AA80A86950B1076847B1206900906189227B637BE01C3C46A0479CE06089F6
:205FD0000121C2E767784FF00008002F70D1A17949086DD3EF69002F6AD101A841460E2283
:205FF0000EF0F8FCA0880EF0A5FF071C00F08480606960B97879062601A98DF80A00B81DB1
:2060100010F8012B761E01F8012BF9D11EE06669307C062301A906F111098DF80A0006F1D6
:20603000110010F8012B5B1E01F8012BF9D107F10C00B91D06220DF0E3FFB81D4946062236
:206050000DF0DEFF307C40F002007871A079C00839BF387900F0FD00387940F0020038718C
:20607000A079000939BF387900F0DF00387940F020003871A1799DF81120C1F38000104365
:206090008DF81100080905D39DF8110040F008008DF8110001A8214600F044FD28B928783B
:2060B000022104F0CDFF404627E0A8694FF0150810B3436803B3A088627801219847B8F123
:2060D000000F19D0A86943680321424656E7E078211D002205F0F2FA0A280DDA410001EB34
:2060F000800004F10C0225300421C0B203F07EFC02E0A08809F076FD012005B0BDE8F08350
:206110008C1200202DE9F84FDFF804B20746ABF13500DFF8F0810068800880F0E2807548E2
:206130000068006880477E490831D1F8009000254FEA29715FEA995201F101010AD2C0F1B2
:206150003E0210F10A0F4FEAE202D8BF08229142B8BF111C684BD3F87C21C2F30462162A0A
:20617000A8BF203A1B68C3F30443162BA8BF203B9A465218162A05DA12F10A0FB8BF6FF070
:20619000090200E015225D4B5D4E02F01F0141F4F8511980316811F0030F18BF0125C908D7
:2061B00028BF45F002050FB145F00405434693F90710411A052904DA9979A94208BF998836
:2061D0006FD0DFF844E10F28A0F10F0829DB08EB0011A1F1F0084FEA28210091072984BF7D
:2061F00007210091062988BF06215EF821600424774604EB81043C594FEA950CA41BEE08E5
:2062100004F0FF0124BFC4F3072631446F08AE0824BFC4F3074631446E0828BF01EB1461F7
:2062300004E000214FEA950C6F080091009C5EF824E05FEA5C060EF0FF0424BFCEF30726F4
:2062500034447E0824BFCEF3074634446E0828BF04EB1E64009E89B2A8EB062671438031FC
:2062700004EB1124AAEB02010029D8BF0121342209F0FF074A4391B24FF6FF727943B1FB2D
:20629000F4F18A4238BF111C802889B2998005DA10F1800FB8BF6FF07F0000E07F20D87191
:2062B0009D711A4800681F2918604FF0000008D340F2FF128A4206D24908401C8A42FBD3EE
:2062D00001E01F219980134F0F39090940EAC10047EA0001CBF8FB1F0026CBF8FF6FBDE8C2
:2062F000F88F0D490D4F434608200F609B1D1870BDE8F88FEC0100103C1100506E62084017
:2063100024220840CC2E00209C130050082009403500094000E7A48030100940FDFDA400A5
:20633000AC3F00502DE9F04F044675488A46016894461F46BAF1000FADF13C0D4DD0BCF1D3
:20635000000F4AD09AF8002001209040014244D0BCF80000B0F5C15F32D1DCF81430DCF8A2
:2063700018206848DCF81C104FF0030E0DF128080B93DFF894B10C9200680D91C0F303692A
:2063900058F8046FCEB10021351F05200B4655F8042FB2F1FF3F10D0934506D0401E01F181
:2063B000040103F10103F2D107E0052B05DA705820F4702040EA09407050BEF1010EDFD10A
:2063D000C4F804A0C4F808C00EF0CEFA4F4D8046287820B140460EF0D9FD00208DE002F057
:2063F0001FFD4B49086840F00200086007A80EF02BF8002605F1D00007AA464909960BF03D
:206410007FFC454905F5827007AA0BF079FC07A80DF0D2FFFF2105F1340007AB3F4A0891BB
:2064300019210BF05DFB3E4A05F150001A2107AB0BF056FB3B49324605F18800134609F0EC
:2064500059FB3949324605F1AC00134609F052FB364A05F12000042133460CF01DFF0E2023
:2064700005F078F805F174000DF096FE05F16C000DF092FE2E74072085F898012E77AE612A
:206490006E770523AE602B49EB602A786961501C2870274B1E7040460EF078FDB1464FB9AA
:2064B0002548B0E88C106946A1E88C100DC86F4681E80D0038682060398A6182012060749C
:2064D0007B6813B940F6C4130646E3601B48A06126746061F86800B1A061B86800B16061FE
:2064F0005822494604F1200007F02DFA04F1380049460CF061FD20466C600FB0BDE8F08F25
:20651000D4210840541300500200F8445824002000200940D93E010075AC000029E70000EB
:206530008DE50000ED370100593C0100ED000100FE2E002041AD0000D864010037C70000BB
:206550002DE9F04F05468048066800680F461C469246C4F399018900ADF12C0D0A01002181
:20657000803207F0F0F9DFF8C891A9F1880002466E48016830469047A30880466108019701
:206590009F1C21F00101F819009506EB80000390091DCDF808A07818434506EB800206EB64
:2065B000870B3844049206EB80000690C4F39C004FEA800000F1080007EB400000EB0702F5
:2065D00006EB82020A9224F0030202F1080200EB020506EB85053A44059506EB82050A4439
:2065F00007953A4406EB8202089206EB80020992084406EB800A384406EB800518BF6FF065
:20661000010040F08F8009F16800024641463046904700233CB10199264611F8010B761EED
:2066300040EA0303F9D1002B08BF01207AD000263CB10299234611F8010B5B1E40EA060618
:20665000F9D1002E08BF02206CD001995846C84703980299C847009881680498C8473548D8
:20667000049A594681462846C847012803D14FEA88042E590EB1032054E0BE0028460021DD
:20669000324607F060F90399049A2846C847012801D12F590FB1042044E0274F274C069859
:2066B00059463A46A047079803993A46A0470699089827460A46B84709980899069AB84746
:2066D0000A9806991E4C2246B84728460021282207F039F91B4809990A9A81462846C847A9
:2066F0002034284622460146C847079950460A46B84705980021324607F025F95FFA88F465
:206710005046002C0CBF01225FFA88F200216B5C445CA34218BF052004D1491C521EC9B258
:20673000F5D100200BB0BDE8F08FC0468C4F0020B9DB0010C9DE001058210020F9E00010A6
:2067500080620100C9E60010884F00202DE9FE4F0E468246307AC10693461F464FF000091A
:206770000CD558460EF0DEFB030000F0E8800A223146504698475FEA00094DD130780C9D7F
:206790000D9CDDF8388002281AD170680178407801EB002189B24FF42052891A012910D9E2
