:200000000040002069F9000001C9011001C9011001C9011001C9011001C9011001C90110FC
:1C00200001C9011001C9011001C9011001C9011001C9011001C901103FC9011089
:20003C002DE9F04FD34C04F11C012046ADF1340D0EF026FF002604F1A80A4FF6FF7066705F
:20005C0001216082504611F079F9D048022111F075F9CF48042111F071F904F148080420BD
:20007C0010223146A07040460CF019FD04F158091022484631460CF012FD04F120073E60C1
:20009C0004F10A052E7007206072DFF810B3E67102222672594610200346CDF8008006F0A9
:2000BC002DFD102003225946CDF80090034606F025FD0422102059460097134606F01EFD5A
:2000DC004FF0080A4FF003094FF0010B05F12E00079005F17D00089005F12200099005F1B0
:2000FC005E000A9028350B9519E06078B4F84050B4F84230B4F84420B4F8461006280ED1A5
:20011C00ADF80A50ADF80C30ADF80E209F48ADF8101013F080FD584602A90CF035F9E06928
:20013C00B44A31464FF0FF3300F02AFA071CF6D0059606A80DF11A0105AA11F0C5FC0028C5
:20015C0040F0BE81BDF818102078102940F0B4819DF81A10884240F0AF81059D29884FF680
:20017C00FF728A4200F09D812B78A23B00F080812E3B40F0A181A978B046002900F03C81FF
:20019C00891E00F00D81491E012940F2D780891E00F09B80491E72D0491E5FD0083900F0E2
:2001BC005781891E40F05A8194F83E10A8880529ADF808004AD075488DF812B013F02BFD6B
:2001DC0094F83E00012820D004281ED003280DD002280BD00598C188ADF80A100189ADF825
:2001FC000C104189ADF80E1081892BE0B4F84210B4F84000ADF80C10B4F84450ADF80A008B
:20021C00B4F84610ADF80E501CE0B4F84000E9888842D8BF081CADF80A002989B4F8420090
:20023C008842D8BF081CADF80C006989B4F844008842D8BF081CADF80E00A989B4F846002E
:20025C00884200DC0846ADF8100001E08DF81260A749102002AA06F051FCFFE04C4813F07C
:20027C00DAFC6B78002B40F0F980E888A0822889E08268892083454813F02AFAEEE0AA88E8
:20029C00B249102006F03AFC0798414606220CF006FCA682E6822683A87920733B4813F02C
:2002BC00BAFC3B4813F0B7FCD8464FF6FF70237960823BB9A879082814BF042005206070B2
:2002DC00E670CBE084F80190C8E06B787BBB291D0A6807980260898881800623637068897B
:2002FC006082E889A082288AE082688A94F83E102083E8780129E07218BF02290BD199494E
:20031C0010201F2206F0FAFB4FF47A7180B241431E4811F02FF868890423009090490193DE
:20033C00EA7810202D1D2B4606F0E8FB99E06878312840F08A80E67004202CE06B78002BFB
:20035C0040F08380A878218A6278032814D0E078257921B9012814BF2671E67005E00543B4
:20037C0003D0814811F006F86278072AE4D1062011E0C046B8050020062A0BD0E578002D77
:20039C0008BF84F801906CD0022004E084060020A80600200720607063E0C046572D0100EE
:2003BC006B78002B51D1EB78617893B902291DD007291BD0062902D12079012816D103295F
:2003DC0014D0694813F084F980B9584613F0B8F90CE011F05BFE0246A079604900900898E1
:2003FC0043460190102006F089FB68706D78002D2BD133E0070000806B7833BB5B4856498A
:20041C00009002221020034606F078FB58484A46514900901020034606F070FBED1C29685C
:20043C0009980160A9888180207884F801B011F02DFE02465B460A9D6079484900901020C1
:20045C00019506F05BFBC0B258B184F801A008E0AA8840491020052306F050FBB8F1010F11
:20047C002AD1656A45B3296831B36078884723E06879132820D12889012808D1607B0228BA
:20049C0005D13E4813F0C7FB11F068FB14E035491020052206F032FB81B2384810F06AFFB3
:2004BC000AE06888C00B07D3324804222A4900901346102006F022FB059808B113F04DFBC1
:2004DC002579E07879082ED355EA00032BD0204600787DB9E279217A8DF808200B9D8DF867
:2004FC0009102B680DF10A010B60AA888A8003E0051601108DF80890627A8DF81020A17AAC
:20051C008DF8111011F0C2FD1149024602AB102006F0F4FA38B1656A84F801A01DB12968C2
:20053C0009B150468847B80803D3134930460BF02BFFF808FFF4F3AD607B401E3FF4D5AD72
:20055C00401E7FF4ECAD11F009FBE8E54DEE000059440110C1170110B18B000009450110D6
:20057C008D8E000099310100600600200006002010060020D8050020F6050020A8060020B1
:20059C00DFF800F0F99B01102DE9F04FADF11C0D12F0E7FEBE48C04CBE494678304604EB94
:2005BC0040028888A2F89600BC4AB1F800B0B1F802A091F9067091F907800E72400016808C
:2005DC0011F00CF8D6490CF029FAD6490BF0A2F910F0CCFFD4A20CCA08F0E2F90AF08AF9A0
:2005FC000FF05AF8750004EB0509A9F8B800D24820F805A0D14820F805B0D14887553619C2
:20061C0086F88580B9F8B80012F0EEF8CA4922310391CA4988390491C949113105919F49B5
:20063C0004F11607CC31029110F0A0FFC0A20CCA08F0B6F90FF030F83880B9F8B80012F034
:20065C00D3F810F093FF07F1A208A61DE1A20CCA08F0A6F98246E06B894610F087FF0B4613
:20067C0002464946504608F09BF90FF015F82D19963530700421022290362B464FF4F040B5
:20069C0001960EF0C1FF4FF4F040052102223B460EF0BAFFE589DC48A1790095401C0170E6
:2006BC0028461028C0F25481606CDDF80CA0DDF808B0DFF850931127401CC4F820010025C7
:2006DC0060643AF8021B3BF8020B484311F0B0FCC2A20CCA08F064F90FF0E2F919F8011BDD
:2006FC007F1E00FB0155ECD1284612F07DF8BD490BF010F9BC4E31460CF090F9BB490BF03F
:20071C0009F910F033FF0AF0F5F80FF0C9F9BD491127054642460020A56611F8013B32F836
:20073C0002CB7F1E0CFB0300F7D112F05DF831460CF074F9AE490BF0EDF810F017FF0AF043
:20075C00D9F80FF0ADF9E16C4919E164A26CE0661218A264656D236D6D18C4F824519B18C4
:20077C00C4F8283112F040F8009905464FF496704843A0F5967010F031FF014628460BF0DB
:20079C00C9F89C490CF04AF910F0F0FE0AF0B2F80EF082FFC0B2A07284F83D010EF0ECFE21
:2007BC0084F83E01002584F83C510EF095FDA4F83A0110F00DFA84F8400109F0F1F9E76ED1
:2007DC00DFF8449284F83F01A7B1A16E4FF47A70484312F009F88246384612F005F80146E6
:2007FC0050460BF097F810F0DDFE4CF2503180B2814201DA4CF25030A4F838010EF092FD33
:20081C000746C4F83471002F08BF281C19D094F83F0111F0E9FF78490CF000F910F0A6FEDC
:20083C0076A20CCA08F0BCF883468A46384612F0CBF90B4602465146584607F07EFA0FF0E9
:20085C002FF9C4F82C010BF05BFDC4F830010DF0BDFC2F4684F8410117BB0198B8F82060A7
:20087C00029B0146008CA8F800601A460880188C039E10803346308C049A1880164692F9DD
:20089C001000059B307093F910001A46107014E0D822002098230020E80B0020F60B002053
:2008BC000498C5557B0028F80350059EF5550199CD52029AD5520398C5527F1C112FCBDBDC
:2008DC0094F84011B4F83A71607994F83F6189F8021004F5907304222764401C6071052130
:2008FC0041F61100A6700EF08FFE04F594734FF4F040062104220EF087FE04F592734FF46F
:20091C00F040072104220EF07FFE607A401C6072E078B8B9A178052915DA0120E07014E056
:20093C00DB0F49400000704252B81E85EB512440CDCCCCCCCCCC0C40C20C0020E40C002016
:20095C005C0C0020A178012802D10829C8BFE57060794B282DDBD4F82021218A606B2B4E81
:20097C00C4F8442104EBC107401CD4F82821C4F84801274D3178C7F84C21208AD4F8242109
:20099C0004EBC000C0F85021224FC4F8B4116378606B2978401CC4F8B83100258742C4F87F
:2009BC00BC118CBF606365630DF03EFCE5646571A5641948014680880F46401C88807878C0
:2009DC00401CC0B21128A8BF012007B04870BDE8F08FC0463BDF4F8D976EA23F2D431CEB80
:2009FC00E2361A3F00803B4500009643000061450060EA460000B4430070AD48CDCCCCCCCE
:200A1C00CCCCEC3FEC220020241100208D1D00207522002080D3D8FFD82200202DE9F04F5A
:200A3C000F46CD4C0168E16241688068ADF11C0DE060C548A1608047C448E16A0160A16852
:200A5C00DFF810A34160E168DFF804938160CE49002FA346C1606FD03D68E8788DF80C0092
:200A7C0028798DF80D0003A800F016FAA86808B1C6490160E86808B1C5490160C54C28781A
:200A9C0020706878BE686070A878B268A0703178A2607368E1702E696360EA69266279689D
:200ABC00E2620868E06068696062A8697B68A062286A9E68206395F8240084F834001EB94A
:200ADC00002012F037FA00E066617868C06818B9002012F02FFA00E0A0617868006918B9E1
:200AFC00002012F027FA00E0E0617868406818B9002012F01FFA00E0206128692062F8680E
:200B1C0081680E6806B9D24ED0494FF001084E60C66881F8018036B9002012F00BFA4D469B
:200B3C002E68F86801E04D462E6000685446FB68A0615868E06107E0002012F0FBF94D46AA
:200B5C002E684FF001085446361DC7493668621C04F114035020B04710B12868806880470F
:200B7C00DBF808008047C24E002781463B46BF4877706946206104223370384610F036FBA2
:200B9C000098B0F5801F0CD020B911F0F5FB07F085FE08E00EF014FD12F0CCFC0420708068
:200BBC0001E011F0E9FB3846BA4EA0602B68B760986980477060AF4880F80080394641805C
:200BDC00142012F0D5FDFF211422A06213F02BF8E01CFF21022213F026F8142012F0C8FD17
:200BFC00A54F386038680021142213F01CF8002001F046FD404610F0B3F9A0480188FF2920
:200C1C0006D1022101807822001D002113F00BF8032000F045F9042000F046F9052000F0A6
:200C3C0047F9062000F048F907200DF0A1FA944E0820307006F1240000F042F90DF0DEFC7B
:200C5C0006F1360A05200A21524612F076F838B10020C0F10901401C0AF8011B0A28F8DBA6
:200C7C003078102109F058FA2B68864909200DF10E025E68087001AB10200021B047A06A5F
:200C9C00E1690A260A309DF80E20761E00F8012BF9D1891EE161DBF80C104846884704F115
:200CBC0020002B68626A059040461E69DFF8D88104F120034146B04710B128688068804731
:200CDC00B84611F07BFC5FEA000903D00AF0A4F94FF0FF39002643E00298216910F8062CA8
:200CFC00A0F10C07032A03D1002939D0884737E0A16A9DF810C00A223046491E11F8013F59
:200D1C009C4506D0521E00F10100F7D14FF0FF0A01E05FFA80FA2868BAF1FF0F00F1080098
:200D3C001CD0387910F0CEFBB979012904D0022904BF0299887001E002990870029950465B
:200D5C0011F022FF0CE0C04641490010F84400204C24002044210020B4170020006880473E
:200D7C002868C36904A902AA0DF10F0098470028B2D0D8F800007700C35B6BB9761CF6B2E9
:200D9C000A2EF8DB2BE0C046F44201006122010069310100E41F00200A2E20DADBF8080095
:200DBC008047D8F80010002231F807A0CA53DBF80C108847354850F82620267051463046F5
:200DDC0090470646FF202070DBF808008047D8F800107A5A16437E52DBF80C10884711F0E7
:200DFC00EDFB0746B9451AD007B9294FE069B84238BF071CDBF80800804781462868016AC1
:200E1C00206A8847626A28681F49059B521C6262C6683846B047DBF80C1048468847A768C9
:200E3C00296860691431AFB9D8F800000A270026835B33B10969606988472968D8F800003B
:200E5C0014317F1E06F10206F2D107E0AC2300206F240100096988472968143109684FF0A1
:200E7C00FF3088472DE7C046E1270100E1310100C4210020B4050020142F0020341A002073
:200E9C00A8120020262F002019150100AC5401008EC2F528B42E0020DFF800F0B992011025
:200EBC00DFF800F0C9790110DFF800F059880110DFF800F0D9750110DFF800F07D81011047
:200EDC00DFF800F0518B0110B0B544688068006811F04AFD3F49012201F118031A60A8B10E
:200EFC00237AFF2B12D010F0140F01D0020901D3277A4FB9C00804D304200860022012F062
:200F1C002FFEFF2020725FE0FF203DE0207A00285AD0314B401E19D0401E02D0FD3853D025
:200F3C004FE01D68D4F8B4000570D4F8B870D4F8B400401CC4F8B400781EC4F8B800D4F8D6
:200F5C00B87007B3012F39D909221FE0D4F8B000401EC4F8B000D4F8B070E7B9D4F8B87061
:200F7C008FB10220D4F8A8202072127C0B1F012F4FEA420242F001021A6099BF0321596084
:200F9C000B220A6004E00020207204220A60022012F0E6FDB0BDD4F8AC0000781860D4F8D0
:200FBC00AC00022F00F10100C4F8AC00EED2D4F8B870002FEAD100202072052243F8042CFC
:200FDC00E5E7FF202072B0BD04F12C0012F015FEB0BDC046042800400828004040680021BD
:040FFC0001747047C5
:20100000B412000018100000C9E60000FDB301106DC00110FDAE011099B501100000000019
:08102000000000002D0000009B
:20102800B01200003C100000B1C00110A9BF011067C0011069B80110000000000000000035
:041048003000000074
:20104C00B012000060100000BDC00110CDB30110D9BD01106DB3011000000000000000005B
:04106C00310000004F
:2010700000000000C423002004000000000000000000000020000000E8C901103000000043
:2010900028100000CC2300200400000000000000000000000C000000D8CA0110180000001E
:2010B0004C100000D423002004000000000000000000000024000000F0CA011018000000A2
:2010D00000000000DC2300200400000000000000000000001000000018CA01102C000000AE
:2010F00000100000EC230020040000000000000000000000200000006CCA01102400000012
:20111000FFFFFFFFF42300200400000000000000000000002800000090CA011024000000D1
:20113000FFFFFFFFFC2300200400000000000000000000001400000008CB01101800000050
:20115000FFFFFFFF0424002004000000000000000000000058000000B4C90110340000001D
:20117000FFFFFFFF0C2400200400000000000000000000001000000020CB011018000000EB
:20119000FFFFFFFF142400200400000000000000000000001C000000B4CA01102400000018
:2011B000FFFFFFFF1C2400200400000000000000000000003800000044CA01102800000040
:2011D000FFFFFFFF242400200400000000000000000000005400000078C901103C000000B5
:0811F00001000000D4570100CA
:0411F80001000000F2
:0411FC0000000E00E1
:0412000000000F00DB
:0412040032000000B4
:0412080001000000E1
:04120C00C0220020DC
:0412100000020000D8
:0412140000000000D6
:0412180001C90110F7
:04121C0000000000CE
:0412200000000000CA
:0412240008000000BE
:0412280000002200A0
:04122C001C20002062
:0412300000000000BA
:0412340000000000B6
:0412380008000000AA
:04123C003422002038
:0412400000000000AA
:0412440000000000A6
:04124800080000009A
:04124C00000000009E
:04125000000000009A
:041254000000000096
:041258000000000092
:04125C00010000008D
:04126000E420002066
:041264000600000080
:041268000100000081
:04126C00D41E00206C
:04127000000000007A
:041274000000000076
:041278000002000070
:04127C00000000006E
:02128000290043
:02128200010069
:02128400250043
:02128600300036
:02128800310033
:02128A002D0035
:02128C0001005F
:01128E00015E
:081290000300000048570100B3
:0812980000000000000000004E
:0412A0000000010049
:0412A4000000030043
:0412A80013C401105A
:0412AC009533010075
:0412B000B812000070
:0412B400B81200006C
:0412B8000000000032
:0412BC008C2300205F
:0412C000EB35010009
:0412C4002000000006
:0412C8009456010037
:0412CC0024550100A4
:0412D00029C101101F
:0412D4005F3C01007A
:0412D800613C010074
:0412DC00A1C7011095
:0412E000A3C701108F
:0412E4000000000006
:0412E8002D52010082
:0412EC009452010017
:0412F000AC520100FB
:0412F4007C52010027
:0212F8000200F2
:0212FA000900E9
:0212FC000100EF
:0212FE000000EE
:0113000001EB
:041304007935010036
:041308003116010099
:04130C007128010043
:041310007D1A010041
:041314006916010055
:04131800FDF60000DE
:04131C0095BC00007C
:0413200091380100FF
:04132400A1E2000042
:0413280015C70110D4
:04132C0025C70110C0
:201330002DE9F04FD74C211D2046ADF1940D0DF0ADFD04F120060021304612F0CFFFD24DFA
:2013500010201F220623A660294605F0DDFB0020ADF81E004FF47A79ADF8269082468DF8E0
:201370002FA00221ADF824A0502015900DF11E02ADF820004FF44870ADF8220040F20630E0
:2013900003F038F84FF44270132104F13D0203F031F840F20730112104F12C0203F02AF8CE
:2013B0004FF4447001210DF12F0203F023F840F21130022108AA03F01DF840F212300221E0
:2013D0000DF1220203F016F840F21330022109AA03F010F84FF4457002210DF1260203F060
:2013F00009F804F1500052461523A8490090102005F08AFB294610200622A02305F084FB9E
:20141000294610200722A02305F07EFB2946102001221E2305F078FB294610200822A023CC
:2014300005F072FB294610200922A02305F06CFB01208DF830008DF831000CAE8DF832A0B4
:2014500003468DF834A04FF48062914D00961F4610208DF83370294605F056FB0DF13100A0
:201470002946009040F202423B46102005F04CFB0DF13200294640F203423B4600901020A3
:2014900005F042FB0DF13300294640F206423B460090102005F038FB0DA829464FF483623B
:2014B0003B460090102005F02FFB7A4910204FF0FF3205F029FB1020774B00907749784A3C
:2014D0000193092305F020FB76494FF0FF32102005F01AFB744D2878800012F082FB01461C
:2014F00072484161002900F0A5804FF6FF700EF089F92878800012F074FB01466B4800295A
:20151000816100F097804FF6FF700EF07BF92878800012F066FB014664480029C16100F0FB
:2015300089804FF6FF700EF06DF92878800012F058FB01465D48002901627BD04FF6FF708E
:201550000EF060F92878800012F04BFB01465748002941626ED04FF6FF700EF053F928782E
:20157000800012F03EFB014650480029816261D04FF6FF700EF046F92878800012F031FB45
:2015900001464A480029016354D04FF6FF700EF039F92878800012F024FB01464348002991
:2015B000816347D04FF6FF700EF02CF92878800012F017FB01463D48002901643AD04FF66C
:2015D000FF700EF01FF92878800012F00AFB01463648816471B34FF6FF700EF013F9287823
:2015F000800012F0FEFA01463048016511B34FF6FF700EF007F92878800012F0F2FA014671
:201610002A484165B1B14FF6FF700EF0FBF82878800012F0E6FA01462448816551B14FF6B9
:20163000FF700EF0EFF82148214B352110225C3010F03AFE2878800012F0D3FA1B4A01468A
:201650005C328B4814920029C16056D04FF6FF700EF0D8F82878800012F0C3FA014684488F
:201670000029016149D04FF6FF700EF0CBF82878800012F0B6FA01467D48002941613CD08C
:2016900018E0C046D808002011190100C5C60000255000007527010030570100B922010010
:2016B000F8180020C52A0100694F002008020020104F01004FF6FF700EF0A4F8287880002A
:2016D00012F08FFA01466A488161B1B14FF6FF700EF098F82878800012F083FA014664485E
:2016F000C16151B14FF6FF700EF08CF86048614B15211022203010F0D7FD2878800012F07E
:2017100070FA5B4A014620325B4822920029C16047D04FF6FF700EF075F82878800012F018
:2017300060FA01465448002901613AD04FF6FF700EF068F82878800012F053FA01464E4869
:20175000416171B34FF6FF700EF05CF82878800012F047FA01464848816111B34FF6FF7019
:201770000EF050F82878800012F03BFA01464248C161B1B14FF6FF700EF044F82878800059
:2017900012F02FFA01463C48416251B14FF6FF700EF038F83848394B19211022283010F0F4
:2017B00083FD37490846344E4F78007806F128011C91CFB9324A21460C31516210F06CFC7A
:2017D00002462F4F2E482F49CDF800A03E463D464830019007F15800029006F12000039044
:2017F000AB78102005F090F9274922461020183205F08AF92046007810F04EFC2349024662
:20181000102005F081F92046007810F045FC20490246102005F078F91E49102005F074F9BA
:201830001D4C0120207009F06FF91C49504606F0A3FE1B4950460FF06DFA50460DF05AFE40
:2018500002200E9020700EF0A9FC174D154A174805F10801116005F11401016005F1200071
:2018700011F0E4FE01202F7885F8280017BB1FE01C140020D85301006C0F0020B05001001F
:20189000B805002043FB0000912D01005188011031810110C5AB00103F24002000000303A8
:2018B000A5D00000D4210020881E00204011002011F0C0F80320DA4F207007F11405284643
:2018D00011F0E6FCDFF85C83D8F8000007F134064FF4FA712B463246B9FBF0F080B241437C
:2018F000491EDD48796012F0F5FCDC4D07F1080238607968EA6012F0E9FC514624220823A3
:20191000304612F0DFFC5046A7F84400C6484FF0040B7E6884F800B05146BE64D04EF96449
:2019300011F0B6FCD8F8000006F138074946B9FBF0F080B24143491EB160CA48BA4B3A46F6
:2019500012F0C8FC06F10C0170602422082329613846514612F0B6FC57465046A6F8480000
:20197000B16837657068F16412F0B0FCB168706812F067F905202070CC48BB4E11F088FC1D
:20199000D8F80000C94BCA4A4F4640F2DC51B7FBF0F080B24143491EB448716012F09AFC37
:2019B000B349306006F108000860C14824220823514612F087FC06202070BE485346B36422
:2019D0005246A6F844205146F164AA4E11F060FCD8F80000B74BB84A4FF49671B7FBF0F06C
:2019F00080B24143491EA448716012F073FCDFF88C923060B04806F1080124220823C9F8DD
:201A10000810514612F05EFC50465346A6F844007168F3643068B16412F058FC71683068F6
:201A300012F00FF907202070A448954E11F030FCD8F80000A14BA24A4FF49651B7FBF0F075
:201A500080B24143491E8F48716012F043FC306006F10800C9F80C0099485146242208232B
:201A700012F030FC50465346A6F844007168F3643068B16412F02AFC7168306812F0E1F8C6
:201A90000820814E20708F4811F002FCD8F800008C4B8D4AB7FBF0F080B2010101EB801118
:201AB000491E7A48716012F015FC794A3060864806F10801082391625146242212F002FCED
:201AD00050465346A6F840007168B3643068716412F0FCFB7168306812F0B3F809202070BC
:201AF0007A486C4E11F0D4FBD8F80000774B47F23051B7FBF0F006F1300780B23A46414348
:201B1000491E6548716012F0E5FB644930602422082306F1080008605146384612F0D2FBF5
:201B30000A272770504670645346A6F84030B0640EF0D4FA56495A4E06F10C00C862301D1B
:201B500011F09CFF0B202070012030720EF0C6FA4F49544E06F10C000863301D11F08EFF1A
:201B70000C202070012030720EF0B8FF4E4E06F10800686106F1180011F0D6FA514686F8C8
:201B90002D10534686F82E3001202B70024632760146F1610D2323704FF4E1327076DB491B
:201BB0003263DB4CB162DB49746203465246CB70D94C2A620E46D949EA61334606F110003E
:201BD000206103F11400886084200FF09CFF05F128018422686009F0ADFB08200FF093FF5F
:201BF000FF260446AC6150462071384666710FF08AFF69692060086880472869006880470C
:201C1000C4482030A86011F019FC11F0B0FBDE481F49DC4D886399F80070686687B905E0F8
:201C3000D41B0020D0570100381B00204C46A06800688047E068006880470121686E217021
:201C5000D24A514631F0100742D04B0838BF0E9B3FD382F800B03DE01F3C0100881900200E
:201C7000201B0020DD3601002C1C002039D8000008230020841C0020233C0100D8220020E7
:201C9000DC1C0020273C0100E01D00202B3C01008C1D0020341E00202F3C0100D42E00206A
:201CB00090220020A8220020A81F0020401C0020601C0020981C0020B81C0020F01C002065
:201CD000101D0020F01D0020101E0020441E002001231370491C521C1129B3DB418805F1A9
:201CF000960B038890F90620109105F1FC0805F1740605F185041127CDF83CB005F1B80ACE
:201D1000119390F90710129205F1DA09139100200F9B2BF8020B188840000FF065FC964935
:201D30000AF082FE934909F0FBFD0FF025FC93A20CCA06F03BFE08F0E3FD0DF0B3FC119BC2
:201D50002AF8020B129A28F8023B139906F8012B109804F8011B7F1E29F8020BD7D140F200
:201D7000DC5027273D3845F2E526C5F8440147F29534C5F8487145F69943C5F84C6148F2ED
:201D9000DE12C5F8504146F20241C5F8543148F61F57C5F8582149F22F70C5F85C1146F60E
:201DB0007276C5F8607146F6C031C5F8641149F6C064C5F8680147F25573C5F86C614AF2EE
:201DD000CF72C5F8704147F6F760C5F874314BF2D236C5F8782148F2B564C5F87C014BF6E5
:201DF0004273C5F880614CF69F22C5F8844107F1EF00C5F8883149F2FA46C5F88C014DF29A
:201E10000E54C5F890210023C5F894611F46C5F898413A46C5F89C313E46C5F8A0713C4634
:201E3000C5F8A4210127C5F8A8613A46EA81C5F8AC410E99C5F8B0318846C5F8B481C5F8CB
:201E5000B871C5F8BC813046C5F8C0010CF0F2F9686DC5F824012E6DC5F8286185F83D41E1
:201E70000DF090FB85F83E010DF03CFAA5F83A01204685F83C0107F099FE85F83F010EF09A
:201E9000ADFE85F840014CF25030A5F838010DF04FFA0746C5F83471002F08BF201C19D025
:201EB00095F83F0110F0A6FC98490AF0BDFD0FF063FB97A20CCA06F079FD06460C4638461A
:201ED00010F088FE0B4602462146304605F03BFF0DF0ECFDC5F82C010AF018FAC5F83001FD
:201EF0000CF07AF985F84101687810F035FAEB78DFF82492894C8A4FDFF818B0894EA87861
:201F10000BB905280CDB012B0CD00FE053CF0000E97A000070210020080200206C0F0020E7
:201F30000121E9700828C4BF0020E87028790F9070B3401E11D0401E1CBF0F98707036D182
:201F5000434664204FF47A52CDF83C8040F2DC51737040F2972C159009E001204FF4485211
:201F700040F6CA014FF4F07C707005460F95159B604618E000007042DB0F494052B81E85B2
:201F9000EB512440E80B002098230020EC22002000200025412342F6A002707040F6B831F3
:201FB0000F954FF48770B2837372F183308406F1400206F1460106F14C00032540F2523C4F
:201FD000634621F8023B6D1E22F802CB4FF0000320F8023BF2D10BF11C000F997063B06A79
:201FF000E1700121006831728047F06A00688047306B006880470BF11800C9F80C0011F057
:2020100083FCDFF8C4928BF80000012871D1AD4D2988F8680026ADF8101042460DF1350362
:2020300040688DF8356004A9844600964920E047012878711BD16988F8683246ADF82A108B
:2020500040688DF836600DF136038DF82B20114605460091424649200DF12A01A847787181
:202070000120F87035463D7142F6E063FB80C14D2988E069ADF8101040684246334604A985
:20209000074600963C20B8476A88E169ADF810204968207233463C2042460F46009604A9A9
:2020B000B847EA88E169ADF810204968207233463C2042460D46009604A9A8472072FF20AA
:2020D00060720746A7723E46E6723D4625733B4663733A462274CF21617427759BF8000060
:2020F000E6740128A5734FF0010363751946A1751AD038B9002701214846B8460E914646CA
:20211000467014E04846417813E0C0460070AD48CDCCCCCCCCCCEC3F0023002024110020D4
:20213000C82100208C1D002048464146417081704146B84AB84E927BA171002103278BF88A
:2021500001203546C17033468BF80370B21C0E92374605F10B0231460F9203F14C02109249
:2021700007F14402119206F13C02DFF8DCA2DFF8DC92DFF8DC82B74D129203F134021392F3
:2021900001F12C02B44F159206F109021692DA1D17924A1CB7491892721D1992DA1C1A922F
:2021B00001F120020E461B92321D33461D92DA1C1E928A1C2B461F92721C209207F11001CC
:2021D000DA1C21920027CBF808102E46E771B21C23922D1D5A1C24923E4606719E484068F6
:2021F00000214FF040424FF0FF33FEF7CFF9071CF4D0002006900DF12E0106AA07A80FF097
:2022100069FC00286AD1BDF81CC00126BCF1100F5FD191489DF82E100078884259D1069C78
:2022300020884FF6FF71814253D02378913B29D01F3B4ED16078162818BF002205D1304617
:2022500010F086F9B54832460460834843699AB163B94FF6FD70B849B84A009000231020A0
:2022700004F052FC7C494B69C2B22AB97A4843F00203002643612CE021790834204612F02E
:202290001DF826E063780E3B02D09B1E1ED020E0A08842F2030181421BD1A1680C78C4B95D
:2022B000491C04A80A684968026004AC41602078B94904AA00F0FD002070102004F024FC1E
:2022D00007E0C046A45701007422002008200CF00DF8069810B10EB111F045FCF80FFFF4CC
:2022F0007DAF5D48806811F0E5FF00287FF476AF59488468204611F0D9FF844208BF0024F3
:2023100002D084680FF0F8F9002CEAD0524920884969401E00F0A081C01E00F09981001FAE
:2023300000F08781083800F06581103840F097816068427806788778C17841F60F0306EB7D
:202350000226001DF61A00F01281B61E00F0B78045F6EF72B61A40F07B810C2F00F27881DC
:20237000DFE807F0A0958A7C675C4C41362B20150AC0C04630500100012940F06981007861
:202390000E9908702448CDF80080406D94E0022940F05E8100880F9908801F48CDF800809E
:2023B000806D89E0042940F053810068109908601948CDF80080006D7EE0042940F0488176
:2023D0000068119908601448CDF80080806C73E0042940F03D810068129908600E48CDF8E2
:2023F0000080006C68E0042940F032810068139908600948CDF80080806B5DE0042940F0F2
:2024100027810068159908609948CDF80080006B52E0C046B805002008020020022940F05B
:2024300017810088169908809148CDF80080806A42E0022940F00C810088179908808C488F
:20245000CDF80080406A37E065980000B98A00008D6200001C140020D8080020012940F08D
:20247000F7800078189908708148CDF80080006A22E0C0466C0F0020012940F0E9800178DD
:202490007B480170CDF800807949C06914E0022940F0DE800088199908807548CDF8008057
:2024B000806909E0022940F0D38000881A9908806F48CDF800804069149A352397E0002F78
:2024D00049D07F1E3CD07F1E2AD07F1E1AD07F1E0DD07F1E40F0BC80042940F0B98000688B
:2024F0001B9908606348CDF80090406A3CE0012940F0AE8000781D9908705E48CDF80090C1
:20251000C06931E0012940F0A38000781E9908705848CDF80090806926E0C046F42E002021
:20253000012940F0958000781F9908705148CDF80090406918E0C04669E50000213101003E
:20255000012940F085800078209908704948CDF80090006908E001297AD101784548017040
:20257000CDF800904349C0681C9A19233FE0002F32D07F1E26D07F1E1AD07F1E0ED07F1ECE
:2025900066D1012964D10078219908703A48CDF800A0C06929E0C04695B40010012957D121
:2025B0000078239908703448CDF800A080691CE001294DD10078249908702F48CDF800A0C8
:2025D000406912E0022943D10088294608802A48CDF800A0006908E0012939D1017826484F
:2025F0000170CDF800A02449C068229A152309F071FA2DE088082BD32048076847B378889C
:20261000397908373A4611F04DFE0746162F03D0042F01D00FF09CFF19484669C7B936F034
:202630000206466114D1174A17494FF6FD7001230AE040F252300AA9443805F051FD00232C
:20265000BDF82820094808490090102004F05CFA60680FF051F802E0A0780BF061FD2046F8
:202670000FF04AF83DE6C046491B010040E20100080200206C0F00201C140020F42E002001
:20269000D80800202131010069E500002DE9F84FDFF8BC13DFF8BC23DFF8BC530870082149
:2026B000002010600D23DFF8B40340F23732017043808280DFF8A8030560AC7EDFF8A4035C
:2026D0000470FF2CE97E417008BFFF292A7F82706B7FC370AE7F0671ED7F457115D1FF2AB7
:2026F00008BFFF2B11D1FF2E08BFFF2D0DD1DFF878130A7802704B7843708A788270CB78F6
:20271000C3700A79027149794171DFF860130278DFF85C83DFF85C93DFF85C730A70FF2588
:2027300043784B7082788A70C378CB7002790A714079487188F8005088F8015088F80250CE
:2027500088F8035088F8045088F805500020CB490880D9F83440CA49607808702278C949DD
:202770003A70A0780870A2681079C74A411E1170E078C649C64A0870E068106008B910F023
:20279000DFFB2069C34E306008B910F0D9FB3068DFF804A301688847326852F8041F5046A5
:2027B0008847BE48BE49CAF82000CAF824106069BC49086008B910F0C3FBA069BA4908602C
:2027D00008B910F0BDFBE069B849086008B910F0B7FBDFF8DCB2B74C9BF8040010F0CEFF7F
:2027F0000028206075D09BF80500B34E10F0C6FF002830606DD09BF80600DFF8C0A210F0B7
:20281000BDFF0028CAF8000063D09BF8070010F0B5FFAB49002808605BD039789BF800008E
:20283000891C484380B210F0A9FFA649002888604FD03878002862D0BBF80210484380B2D4
:2028500010F09CFFA04A0028506042D0387810F095FF9E49002808603BD03878400010F043
:202870008DFF9B490028086033D038781821484310F084FF974A106058B33878400110F001
:202890007DFF9549086020B33878000110F076FF92490860E8B13878000110F06FFF904999
:2028B0000860B0B138783021484310F067FF8D4A106070B18C4839780078484310F05EFF00
:2028D0008A4A106028B1387810F058FF8849086018B9BDE8F14F06F059BA4FF0000B09E099
:2028F00010F00CFF0021418081600180022303710BF1010B39785FFA8BF08842F0D322683C
:20291000694F0120107121680D732068457321688D732068C57321680D740021206845744F
:2029300000202268D172A0222168487103212068C280017207202268507200212068817226
:202950002821206801224182C2760020216848770022206880F85E2001212268117701201B
:20297000216881F85D0001223068027131680D733068457331688D733068C57331680D74CE
:2029900000213068457400203268D172002231684871306882724FF420703168C88008817B
:2029B0008A7401213368D974DAF800201573DAF800104D73DAF800209573DAF80010CD73C7
:2029D000DAF8002015740022DAF800104D740121DAF80030DA720023DAF800201171DAF8CE
:2029F00000104B71DAF80010C88008818B720520DAF800209374DAF800103E4AC87410680F
:202A100080473968054608688047396851F8042F00209047D9F80C101C4B0A8818783649B3
:202A300002430A802846354A136898470C21344811F034FC404611F02DFC11F027FCBDE81D
:202A5000F44F034800784FF4005107F06BBB00BF6E4F0020044F0020B63F0050604E00208D
:202A7000084F00202C4E0020E81200503C4E0020344E0020E05701007B4F00200C4F002002
:202A90006D4F00206B4F0020724F00206C4F0020F04E0020F44E00207C4B00208D37010048
:202AB000AD370100F84E0020FC4E0020F82E002080230020104F0020144F0020184F0020BF
:202AD0001C4F0020C02E0020684E0020004F0020FC2E0020804E0020844E0020884E0020E8
:202AF0008C4E0020904E00206A240020002F0020042F0020BC170020544F0020C0170020D1
:202B1000F84D00202DE9FE4FBA48BF4CBF49BD4EBB4F00684FF00A0B04F120054FF0000896
:202B30004FF00109A5F108020092B1FBF0F00190788840082AD27078022827D1AC200CF0D7
:202B500087F8AE200CF084F80FF064FFB0600FF061FF014642467079F160B1F5FA7F38BFB0
:202B70004A46AB4902238C460A5442461CF8011B5B1E1144CAB2F9D1401C3270C0B2022806
:202B9000D4BF707186F805800FF0F6FC7868BE494EF6602200F5967009787860B0FBF2F22D
:202BB000914209D2B848491C4A46B74B0170042141F611000CF02EFD2078217C884206D086
:202BD0003C2814BFCF219F216174207400E0617CA27CE07C8A4202D1227D824253D0012810
:202BF0003DD0022834D003282FD0042826D0052821D0062818D0072813D008280ED00928B9
:202C100009D00A2804D00B2834D1D5F88C2021E0D5F88C2014E0D5F88C2022E0D5F89820A6
:202C300018E0D5F898201CE0D5F8942007209047D5F8F82019E0D5F8942012E0D5F89420BA
:202C500007209047D5F8F0200FE0D5F8942001E0D5F8902007209047D5F8E82005E0D5F836
:202C7000902007209047D5F8E020617C07209047617CE07CFF2805D0E86902460720904722
:202C9000E07C617C2075A379607A834202D1A07C884218D053B1012B06D068694146024654
:202CB00007209047617C07E0686906E0686941460246072090474146A8690246072090470F
:202CD000A079617C6072E378207B834202D1A07C88420CD023B1012B14BF6868A86800E039
:202CF000E868024607209047E078617C20732379E07A834202D1A07C884208D0002B0CBF24
:202D1000A86B686B0246072090472079E072B7F802A0009940F21A3005F0E2F9207E06288A
:202D300023D0072821D002281BD1022060715FEA5A0014D3A37D617C012B08D053BB28693D
:202D5000414602460720904784F8169005E0286902460720904784F81680617C1AE00220AD
:202D700006E084F80580404602E084F805904846A27A617C904202D1A27C8A420AD00128CA
:202D900001D030B9414628690246072090476079617CA072A378B3B97888400813D3627DAF
:202DB000012A09D0002A3BD1D5F8842007204146904784F8159031E0D5F884200720904732
:202DD00084F815802AE0A07B834202D1A07C884226D0012B1ED0022B0ED0032B07D0042BE0
:202DF00003D0052B1CD1686F02E0A86F00E0E86F024611E0D0570100D5F880200CE0C0460C
:202E1000AC0D00207422002024110020E09304007A220020D5F8842007209047617CA37824
:202E3000227D6078A373FF2A40D1627B904202D1A27C8A423AD090FBFBF390FBFBF202FB57
:202E50000BF2A0EB020A0BBB072041460BF0B0FD072041460BF082FD072041460BF01EF8CB
:202E7000072041460BF0FCFC072041460BF022FD072041460AF0E4FF072041460BF044FD64
:202E90000FF0C2FA08E0C0467224002005EB8300D0F88C200720904705EB8A00D0F8B420C8
:202EB000617C072090476078617C6073E379E07B834202D1A07C884209D003B9414668697D
:202ED000024607209047E079E073637CA374019811F0D8F97888401C788029E62DE9F84FCF
:202EF000C04CA178FF2904BF002010F029F8A07810F0E0FA044604F1680504F190062968B7
:202F1000086810B10021E1830CE0A87B002804BFA97E002906D13078002801BF207F012872
:202F3000608CE0832189E08B4118491C6181204611F0A4F901281EBFAB480178012904D108
:202F500021890020491CE08361814FF6FF77A87E01280DD1AA8B6189208911F08BF938B1CF
:202F7000218960894A1C93B298421BD0A88B0FE03078012816D172886189208911F07AF963
:202F900080B1218960894A1C93B298420AD0708892B2904206D03818608180B211F066F957
:202FB0003F18E78304F5967999F8040020B120890021401CE183608104F12E07A87E0128EE
:202FD00011D12189A88B4B1C9BB298420BD1608111F04CF98046B988288C01FB0808204664
:202FF0000AF0C8F801E0B7F80480B4F81EC022687E4ED2F80CE00CF1010000FB08F340F633
:20301000C41000FB03F18E44C2F80CE03668DFF8E0E13678BEF80080764AB609032E11D1B9
:20303000D67BF60748BF4FF000080BD408F101081FFA88F6012E12BF668AB9F8066006F26D
:20305000DC5600E0668A5E434FF4C87AB6FBFAF6761C6661AEF80080A3614FF0180894F829
:2030700006A084F820C008FB0AFADFF88CC1DCF800E023680EF1080656F80AB0C3F810B044
:2030900094F806A008FB0AFACDF800A0D3F80CB0D4F814A0ABEB0A0ADDF800B046F80BA063
:2030B00094F806A008FB0AFA56F80A609E600EF10C06A37908FB03F30EF10C0EF65C06F08A
:2030D000F00646F002060EF803604FF0000ADCF800E0A6790EF1020308FB06F623F806A063
:2030F000464BA6791B68760103F1140AD4F814B05AF806A00AEB4B0A03F1140B4BF806A036
:20311000AD7E022D0BD1A5796D0103F1140697F800B056F805A000FB0BAA46F805A0BD88C5
:20313000D27BA779D60736D508FB07F70EF10802D659A6F5A86A0EF1080646F807A0A77932
:2031500008FB07F7D2592768511A3961BA6003F11402A1794901575807F5F667575003F174
:203170001401A27952018958C9F800106843244AA179156B03EB41162968401AA0F516700C
:20319000F0612049A07903EB40100B78012B14D10121C17214E003F114027F01D1592A460D
:2031B0004243A1F5E661A2F516729142DED30821204611F057F8012011E0916A4A78C27218
:2031D000A179DCF8000008FB01F281182268516007200D490870204609F0DCFC0020BDE836
:2031F000F28F00BF684E0020784F0020084F00201C2F00205C4D0020804E0020844E002037
:20321000E0570100734F00206F4F00202DE9F84F0C46E00788B00BD510F080FA28B1002184
:203230008160B348006800B1804784F001005CE1A0070FD5002100230691059104910393E9
:2032500002910191009101223C2011F007F884F002004AE11D256007A64EA74F40F18A80BA
:20327000002107918B46A5488178FF2904BF00200FF066FE386890F8A00010F01BF98046BE
:203290003868C07A98F82691022818BF032808F5907A06D106F10D0010F0DCFF08B906F15C
:2032B000070B5146484610F0D1FF88B33868807A002818BF012804D13146504610F0C2FF57
:2032D00004E052464946304610F0B8FFFF2834D005FB00F906EB090506225146E81D0FF0C0
:2032F0009BFF16F80900396840F00209E81D07900622887E00F0010088F8260105F1010ACE
:20331000386800F1140108F590700FF085FF14E05146484610F08EFF78B15246494630460B
:2033300010F08CFFFF2808D006F10D014543481910F090FF08B949F0020908F12C004B46BB
:20335000017806914289120905920122B8F822100491C0880799029140080390CDF804B067
:20337000CDF800A0002098F8061010F077FF84F00400BAE020060FD500210023069105910F
:203390000491039302910191009101223B2010F065FF84F08000A8E0E0044BD5F11D06F1D5
:2033B0000D0010F043FF3868017A012918BF042931D1C17A02291EBF0329817E01292AD1D0
:2033D000817E00F11402304610F038FFFF2811D04543354405F10D0010F03CFF50B9E91DD4
:2033F00005F10D0010F022FF38680622E91D14300FF012FF3868C07A022818BF03280AD196
:2034100006F10D0010F026FF28B938680622F11D0C300FF001FF3A4842683A4800784FF418
:2034300080510CF021FB10B18E2009F005FA84F480505AE0A00505D510F029FA324901206C
:203450000860FEE7600504D506F0DBFA84F480604BE0600405D5812009F0EEF984F480408C
:2034700043E0A10440D5294D286810B100200FF067FD274E4FF0FF30286010F0D3FE316840
:20349000244D51F8202F684690472349234B486A8A6A009001920293C86A0268086A0392B3
:2034B000ADF810000A6B1178002904BF5068002805D19068002804BFD068002806D02970F5
:2034D000506868609168A960D068E86029463568134A2E6813486B46B0471349086003F021
:2034F00077FD84F4005000E0002009B0BDE8F08F204F0020AC450020104F0020684E0020AE
:20351000784E00206E4F0020FC002043044F0020F04E002068450020E41F00201D37010063
:203530002C4D0020C82D0020EC4E00202DE9FE4F04200EF0E8FA4FF0020804462E20032107
:20355000207001206070204684F802800FF000FAB84AD368E0700FF0CFFD20B920460421C1
:203570000BF0FCFD0DE018688047204604210BF0F5FDB048AF494069C969826808680979F4
:203590009047AD4CE06A406801466846884704F130052868BDF80020E179406804EB4103D1
:2035B0000146A3F8402004F10C008847E079A189103500231E461A4604EB4007A7F846100F
:2035D00090420CBFC4464FF0010C2988EF88521CAD1CC9180CFB0766032A8BB2B6B2EFDB98
:2035F0000321B210401C93FBF1F16283C0B221830328A8BF0020E071B2F5167F05DA0120CF
:2036100020710B200FF07EFF628B40F68C25954205DA012020710B200FF074FF628B208BF1
:2036300040F62E18904507DB40F25231914207DDB2F5167F04DB02E0954201DB41466183C0
:20365000A77A7E4EB0F5167F01DB012F1ED1A2890121A1726179012789B940F25233934208
:203670000DDB0E20E070384660710027677009F055FAF21CA7726378208B61791370337D85
:203690000A2B04DD32460A23D37400E06179B0F5167F01DB012F19D1A2890123A37281B990
:2036B00040F2523393420CDB0E20E070012060710027677009F032FA6178A772208BF170F6
:2036D0006179327D0A2AC4BF0A22F2744246824207DB40F25232824207DDB0F5167F04DB63
:2036F00001E0854201DB228310464FF00F08A0F2523090FBF8F085B2A582E78A002964D131
:20371000E689B4F81090012F0FF2201A16D130460EF094FC8B46019048460EF08FFC9AE88D
:203730000C0005F043F9024601980B46594608F0B8FE03D8B9F1000F16D017E00FB9062D51
:2037500017DA30460EF07AFC83460E4648460EF075FC9AE80C0005F029F90B4602463146AF
:20377000584608F05BFE01D2062D2EDB012F03D02DE00120E082268204200EF0C4F90127F9
:203790003E4605463E20287003216F702846AE700FF0DEF82749CA68E8700FF0ADFC20B975
:2037B000284604210BF0DAFC0DE010688047284604210BF0D3FC1F481E494069C969826879
:2037D000086809799047E78A01E00027E782608B2679A0F2523090FBF8F080B2E0814EB983
:2037F000012F07D0617A05274843C00090FBF7F081B200E00021606B6182E2780368208C9B
:203810009847207801280FD10121631C41F611000A460BF0FFFE0A4B41F611000321012203
:203830000BF0F8FE00202070BDE8FE8F333333333333D33F881900208C1D00202411002082
:2038500075220020BB482DE9F84F0025BA4CB849056094F8E200002800F06581012800F02B
:203870002F81B64E02283CD0032840F05C8151F8250CD4F8B8100029A0F5C060C4F8D4009A
:20389000B8BF49420028B8BF4042814226DA4FF08057D7F8A4014568B4F8BC0030214FF4FF
:2038B0007F42082300903046A847D7F8A4014568B4F8C00004214FF4F802122300903046ED
:2038D000A847D7F8A401B4F8D070456820214FF440620A2330460097A847012584F8D850C3
:2038F0001CE151F8258C0FF0D2FF2F4600B901273946934F38680028FCD0B146012609F18E
:203910000409D9F82CA03E6009B10FF0C6FFCAF30720C4F8BC000FF0BAFFAA4600B9B2461C
:203930003B68002BFCD0D9F800B0BAF1000F3E6001D00FF0B2FFCBF38440C4F8C0000FF086
:20395000A6FFAA4600B9B2463B68002BFCD0D9F81C90BAF1000F3E6001D00FF09EFFC9F379
:203970008120C4F8D000B8F5C061C4F8B81000F09C8094F8D80068B9C4F8D410D4F8C000FB
:20399000C4F8C800D4F8BC70C4F8C470D4F8D030C4F8CC30D4F8D400D4F8BC30002854BF94
:2039B00002226FF0010204F1C8010F6800EB40008018421000EB927207EBA2000860D4F870
:2039D000C810C4F8C43000291CDD1E293CDDD4F8CC0030B93429B4BF15391E21C4F8C8105B
:2039F00025E02A29BABFD4F8C8000B381E20C4F8C800D4F8C4003F28B4BF401C3F20C4F86C
:203A1000C4001FE0D4F8CC00032812D011F10B0FC6BFD4F8C8000B30301CC4F8C800D4F822
:203A3000C4000028C4BF401E051CC4F8C450032508E011F1150FC6BFD4F8C8001530301CD8
:203A5000C4F8C800C4F8CC504FF08057D7F8A401B4F8C43030214FF47F42456837480093BC
:203A70000823A847D7F8A40104214FF400321123456832480096A847B4F8C860D7F8A401E6
:203A900004214FF4F802122345682C480096A847D7F8A40120214FF440620A23B4F8CC603A
:203AB000456826480096A84701E084F8D85040F2FF50404502D8801C40452FD2082030E097
:203AD00051F8251C1F4F4BF2F5204843060A3868C0F3814001280CD11B48006800688047DD
:203AF0000DF090F90FF0DFFE3111C010484306EBE03694F8E50030B91448006820F07F40C3
:203B10003618760801E084F8E5501148310C0660012741600F4D8760287808B90B2000E0C3
:203B3000052084F8E40003F0C3F8BDE8F88FC0462D400C402C500C40A016002000A00C40CD
:203B500000800C40B43F0050EC010010102009403C600C404D5601002DE9F84FB34D696816
:203B700084B0019121B905B0BDE8F04F10F056BB0978DFF8BC82AF4EDFF8BC92DFF8BCA2FE
:203B900001291CBF0229042946F2A81741F64C5B05D0402918BF802900F096803CE10FF003
:203BB0001FFF0028FAD00198007804F0C7FB0090446814B900200FF0C3F99AF8010000287F
:203BD0005CD000F043F90FF075FC02900168009801914F6809F084FC022825D000990A787E
:203BF000012ADBD196490A68137A19F80310317018B910F00FFB5844A0602069C17E01F00B
:203C1000EF01C1762069C17E41F08001C1762069C17E01F0F00141F00201C1762269B968FB
:203C300088484118D1614BE001980178802911D10820854930700A78012A03D09AF80100A8
:203C5000022801DB38690CE0D8F828003A690178D1720DE07C49072030700A783869012AA3
:203C700002D10121C17203E0D8F828104A78C2720298817901988AF80210C8E00098002802
:203C90008CD00199009A0078914205D101281CBF00200FF055F915E0012840F0BD806848B7
:203CB00001680A7A19F80200307010F0B3FA3918A06810F0ABFA18B910F0ACFA5844A06096
:203CD0000120A8700098A2E09AF8010000287AD000F0BCF80FF0EEFB0446206802904768DD
:203CF0009AF802000FF0E6FB03900FF07FFE10F0070F3DD0A87804F021FB0190416801980B
:203D10000091029909F0ECFB022831D001990A78012A2AD14A490A68137A19F803103170C3
:203D300028B910F077FA83440098C0F808B000980069C17E01F0EF01C17600980069C17EBA
:203D500041F08001C17600980069C17E01F0F00141F00201C176009AB9683A4841181069CE
:203D7000C16101210198A97051E000200FF0E8F80398A04225D0029833490278802A12D17E
:203D9000082030700978012903D09AF80100022803DB38690121C17210E0D8F828003A69B1
:203DB0000178D1720AE0072030700978386901290EBF0122D8F828104A78C272A0798AF8B1
:203DD0000200029823E00FF011FE10F0070F29D0A87804F0B3FA04462078D4F804800128FB
:203DF00020D117490868027A19F80210317010F011FA3918D8F8080010F008FA20B910F0A3
:203E100009FA5844C8F808000120A870204605B0BDE8F04F06F044BA05B0BDE8F04F002046
:203E30000FF08EB805B0BDE8F08F00BFC02E0020E05701006F4F0020289A0110684E0020C8
:203E5000104F0020F0D8FFFF734F00202DE9FE4FB24C617811B900200FF072F810F0DAF9CB
:203E70004FF00008074607F6C417C246AC4DDFF8B49228E050460FF01DFB06467079F0B11D
:203E90002968B07901F80800394608F101005FFA80F8304610F0B6F930680178402902BFAD
:203EB00006F182000178012902BF41887289914205D1B169C088411830460DF047F90AF13F
:203ED00001005FFA80FA99F800008245D2DB6178884505D000200FF033F8822010F08EF90B
:203EF0006078012840F0F180002701E07F1CFFB299F80000874280F2E28038460FF0DAFA3D
:203F1000064670790028F1D02968B0790A7890421CBF00200FF014F8B079FDE0286810F8C1
:203F300009000FF0C7FA00684268DAF808109068814204BF3E4609F1010900F0D480D6E0AC
:203F5000286890F800B001224FF4C0710FE0636803F5AD76835C01FB03F901FB0BFE36F813
:203F700009C036F80E60B44538BF9B46521CFBB29A42ECDB4FF6FF7010F03CF9064658466A
:203F90000FF098FA68490068D0F804A00868D94630F8192060684FF4C07300F10E0103FBCF
:203FB00009F3C85AB2EBD00F52D2720840F6C4104243009200275D4A0190029217E0584610
:203FD0000FF078FA01680A78802A03D1DAF81030009A5A610978402908D1029980790A68C7
:203FF00002EB4011009800F5A060C8617F1C47452EDA2868C05D8345F8D001464FF4C07394
:20401000594363685A1803F5AD73D289595A53088B4202D2521A9045E8DA0FF04BFA0168E5
:204030004A68019B9168DAF808207008A1F6C41103FB002010F0EAF80028C0D03A480068A9
:2040500030F81910491C20F81910286810F807B0296808780FF02EFA0026006847684FF452
:20407000C079464551DA2868805D0FF023FA0068296842688B5D606809FB03F3034403F130
:204090008201087830B15889B1F802C0401C80B2604508DA887B01280ED15889098A401CF0
:2040B00080B2884208DB6EB3B968906801F5C241A83110F0ABF828B3761CF6B2D1E7002075
:2040D0000EF03EFF822010F099F86178286810F08DF8286800780FF0EDF900260068D0F831
:2040F00004A04FF00109771CC145FFF617AFF6B2002E1CBFF8B200287FF422AF286890F890
:2041100000B037E7296811F806B007490A6800205B4622F813005846BDE8FE8F684E00201B
:20413000004F00207B4F0020FC2E0020844E00202DE9FC47DFF8B8A20F460546F80B80F03D
:204150000881A64EDFF88882B80F80F0BA80B80880F0AE803809C0F02F819B480178090913
:2041700080F0A180007830F07F0040F09C80684606F0A8FF012803D10098002800F0938030
:2041900092480078002840F08E8001240025E8B20FF040F948B1837A3BB1847290F90900D1
:2041B00004FA00F0C0B20DF0B3F86D1C032DEED345464FF0030905F1AC0085F810900FF0D9
:2041D000FCFC844A0021884610681160824952F8080C05F1340042F8088C42460FF0FDFC90
:2041F0003068006B8047AA68A969801A000BC0F1FF328A422CBF01444FF0FF31A961287F1E
:2042100020B1E868A969B1EBC02F1ED90EF0F2FB414600B12146081C14D0714840F609014E
:20423000018041464180427B64F303024273027B61F30302027341600FF028FA418811F4FC
:20425000406FFBD02C774146A9616649086820F0020040F400700860634A42F8049C41F2A9
:204270003006966014605023936014604FF4CA6696601460022042F80C4C44460C600DF030
:20429000BDFA112005F0AEFF287818B9686838300FF0AFFC687F18B16C7705200DF0AEFAD4
:2042B000524868612C7409F0B1FC27F0080783E004F05AFE40467430006808B927F00207FD
:2042D0007AE00FF082FC34468146606D0068014604208847C8B1287CB8B140460830066895
:2042F0009EB12068EC68006B8047801BE860010BE960A14202D209194908E96040F6C4109C
:2043100088422CBFB1F5FA7FE86048460FF06AFF0CF0E2FF90B1A8696FF4807100224FF097
:20433000007304462846A04740466C300068002808BF47F0020701D009F068FC6869002182
:204350004FF0806304460A462846A04727F0005732E00FF03AFC51460E684EB306F1280159
:2043700006C90A234FF0E0450B40154008BF002B1ED106F1280191E8300006F1280393E8E6
:20439000060006F12803AA43A14383E806000FF029FFB16871B1002D08BF002C0AD03069AE
:2043B000B6F93C10B2682B4616462246B04701E00FF018FF27F4804727B150463946503066
:2043D0000FF01FFCBDE8FC871E2F0020112600207824002014100440D5D900008C01001058
:2043F0008C2E0020000004600C410440259E0000F82400202DE9FC41A0F20137144688469A
:20441000022F40F234819C4E9D499E4A3F1F0F2F04D9143F4CD0BF1E1CD011E0DFE817F04C
:20443000D000CA000E01FB00C200BA002701B000A800100010009E00900081007400660023
:204450002D2880F21481B8F1020F40F010818949238808E1B8F1010F40F00981F07801280B
:2044700000F00581324620781179107189B9002800F0FD805078012800F0B680042800F091
:20449000B380062800F0B080052800F0AD80BDE8FC812078002840F0EA805078032800F0E2
:2044B000B080072800F0AD80052840F0E080A8E0B8F1010F40F0DB802078012840F0D7809F
:2044D00006F1F0000FF00AF9002840F0D0803446002004F13E0107F05DFF002840F0C7807B
:2044F00004F1CC000FF09DFBBDE8FC81B8F1020F40F0BD8020880A28C0F2B980B0F5486FEA
:2045100000F3B5800E4619E0B8F1020F40F0AF802088B0F5FA7F80F2AA800E463080BDE8F2
:20453000FC81B8F1020F40F0A28020880628C0F29E80B0F5486F00F39A801646B61CEDE7D1
:20455000B8F1020F40F0938020880628C0F28F80B0F5486F00F38B801646DFE7B8F1010F82
:2045700040F085802078062880F28180464E0EE0B8F1010F7BD12078042878DA0A3606E0FA
:20459000B8F1010F73D12078082870DA09363070BDE8FC81B8F1010F69D12078042866DA04
:2045B0000836F4E7B8F1010F61D1207804285EDCF61DECE7B8F1020F59D120881036ADE79D
:2045D000B8F1010F53D13079012850D032462078D178D07069B9002849D05078012803D03C
:2045F000042818BF052842D101200FF0AFF8BDE8FC81207800283AD15078022818BF0528BE
:2046100035D110780DF048FD1C490246102002F07BFABDE8FC8106F1870500211F22284601
:2046300008F043FA21464246284606F083FE44463078B4710DF030FD002311E006F1680568
:2046500000211F22284608F030FA21464246284606F070FE4446307874710DF01DFD012345
:2046700000940A4901950246102002F04DFABDE8FC81C04611190100B805002099450110DD
:20469000FC050020F8050020F6050020094501102DE9FC418E488F4A04788F488F4B90494A
:2046B0000D2C6FD8DFE814F012010E000E000E000E000A010A018E000A01C900C900E7002C
:2046D000E700EE00106041F204478648864DB0F802C08649BC451FBFB0F81AE0BE45B0F801
:2046F0003280B8454FF4A0561ED181480068D0F800C09CF8040003280CF1080E0BD1DEF892
:204710000E0000281CBFBEF81800002803D01F80784911608AE0022C1CBF1E800D46156005
:2047300000208CF8040081E0BCF1000FA3F800C041D0BCF1010743D0B7F1010C3BD040F27E
:20475000FE37BCEB07071ED0A7F1040CBCF1010F20D94FF47F77BCEB070C1DD04FF4406749
:20477000BCEB07070FD0BF1E012F0CD93F1F0AD07B1E012B0ED940F2F937DB1B012B1AD948
:204790001B1F09D09AE0022C01D115604EE01E800D46FAE7584DF8E7584B1C68257A012D8F
:2047B00005D141F20243438043834386F0E7468046834686ECE700200EF0C2FB832081E065
:2047D0008F207FE04E498978FF290CD0106018204C4C41432068851C40F204466C5A1C8054
:2047F000A41B012C484B71D94FF47F76A41B0FD04FF44066A41B032C84BF641F012C0BD95C
:20481000A41E012C62D940F2FD36A41B08D103E0801C41F201444452136004F0EBFD05E0A0
:2048300000200EF08DFB85200FF0E8FCBDE8FC4136480078012105F075BC40F204424888D2
:20485000188090421CBF41F2084290423ED041F60402904211D12E4C2E482F4B00680025BE
:20487000CDE9004502222D4C256855F8086FB0472B4908802AE04888188000200EF060FB61
:2048900085201FE04888188002280DD940F20442801A1BD040F6FC72801A05D0083815D0B7
:2048B0004FF47F72801AE8D1887B801CC2B2B52AA8BF662088730020488007E000200EF09A
:2048D0003FFB8420BDE8F6410FF098BCBDE8F3816F4F0020204F00209B3B0100504F00209F
:2048F000CC4C0020204A0020B1540110615A0110F44B002059550110755B0110104F002086
:20491000684E0020804E0020313901106E4F002002000080EC4E0020A9180100F04E00206F
:20493000424F00202DE9F04F8246DAF80070DAF804600C465FEA0208ADF11C0D14BF0021C1
:204950004FF0FF31DFF8409248460EF034FE002818BF0B2040F0158100258F488C4905703B
:204970008A48FC6052460FF038F9317B27200FF036F9B8F1010F07D0657002200DF0E4F9AF
:2049900006200DF0E1F901E0012060702078012840F2AA80801E012868D9801E012833D940
:2049B000801E012800F2DE800FF00FF983464FF0805000F5EE77D0F8DC01A378466A009394
:2049D00021782846062908BF0120019001200290A068228AE1686368B047814658460FF042
:2049F00001FCB9F1000F40F0BF80B8F1000F02D00EF0D6FB02E050460CF09CFF002800F002
:204A1000A3803868806A2AE00FF0DFF883464FF0805000F5EE77D0F8DC01012306680093FD
:204A3000A168A27860682478AC46042C08BF9C466346B047814658460FF0D4FBB9F1000F88
:204A500040F09280B8F1000F02D00EF0A9FB02E050460CF06FFF002876D038684068804779
:204A70004C49C1F8B0510D6081467DE00FF0ADF883464FF0805000F5EE77D0F8DC01E38A5E
:204A900086690093E0680190208B0290A0780390207D04900121059122782846022A08BFDF
:204AB000081CE1786268A368B047814658460FF099FBB9F1000F57D1B8F1000F02D00EF03C
:204AD0006FFB02E050460CF035FF00283CD03868006A80475FEA000946D1E078A168E28A79
:204AF000236907F021FDBFE70FF06FF883464FF0805000F5EE76D0F8DC01E38AC7680093F4
:204B1000E0680190208B0290A0780390207D2946049001200590257805B9014608466268B4
:204B3000A368E178B847814658460FF05BFBB9F1000F19D1B8F1000F02D00EF031FB02E00F
:204B500050460CF0F7FE08B914201AE03068406980475FEA000907D1306802692169E078B8
:204B7000904781E74FF0FF39B8F1010F05D002200CF044FE06200CF041FE03480FF039F8A5
:204B9000484607B0BDE8F08F801B0020B81B00207124010050450240242F00202DE9F043C5
:204BB00085B011F8017B0446082F04F1FD0004F1FC0804F1760504F5A076844A844BDFF8CC
:204BD000149213D0092F21D00F2F2FD0112F01BF287801286878102840F0D5800A78327646
:204BF00048787076012184F83D11EBE00025521C4E5D5F5D3E434E55575D3E4046556D1CD4
:204C1000082DF5DB204608F035FC74E00024571C0D5D1E5D35430D553A5D15400555641C80
:204C3000082CF5DB022088F80000CBE098F80100820704D410F0110F57D01A2266E00878D8
:204C50004A7800EB02203080CA78887800EB022070804A79087900EB0220B080CA798879C1
:204C700000EB0220F080087A30724A7A887A02EB00227281C87A0A7B00EB0220B0818A7BB1
:204C9000487B00EB0220F0810A7CC87B00EB022030828A7C487C00EB022070820A7DC87CA7
:204CB00000EB0220B082487D897D00EB0120F082494801788A0658BF1A2212D504F5A67079
:204CD000049071890391307A029021890191F0880090B38872883188204608F0F9F8E0B154
:204CF0001E2298F80100410710D40F2088F8150020460FF073FA002864D199F8000005B06E
:204D1000BDE8F0434FF4804105F00CBA204605B0BDE8F0430F210FF05DBA7088A882B18858
:204D3000E9820221F0882883297400206882A18EA88AC91DE981618EB0EB510F02BFE88A3D
:204D5000A18E884202BF288BE18EB0EB111F18D02878012804BF68780F2805D0687918B192
:204D70000F21A972FE2127E0FC2120460FF02EFAF0880090B38872883188A0790FF022FADE
:204D900020E0102118E0491E20460FF017FA032F18D1A878042818BF0D2813D16E78142E7E
:204DB00018BF0E2E0ED12F7820460FF003FA012F06BFAE72FD213146204605B0BDE8F0434B
:204DD0000FF004BA05B0BDE8F08300BFEC4D0020E42E00206E4F0020144E002010B50B7848
:204DF00084074CBF43F0020303F0FD0304064CBF43F0800303F07F0304074CBF43F008034E
:204E100003F0F70384064CBF43F0200303F0DF0310F0AA0F0B7003D0107840F00C0003E027
:204E300018B9107800F0F300107010BD2DE9F8430D4600272878022814461E4667D169687D
:204E500008784978DDF8208000EB012080B25FEA08021CBFB0F5285F0B205BD14FF42851E1
:204E7000401A08D0401E21D0401E2FD0401E25D0401E31D04BE0DDF82490E8680EF0DBFEB7
:204E900080B2A0EB08024A45BCBFA0EB08001FFA80F909EB0800162806DAA6F800904A4634
:204EB000E86800EB08010DE00D2732E0E8680088022131802070000A60702AE00620308075
:204ED0000622E96820460EF0A7F922E001203080E9680A7822701CE0E868B0B10821318086
:204EF0000288227003881B0A63704188A1704288120AE270818821718288120A6271C18814
:204F1000A171C088000AE07103E0308001E0378001273846BDE8F2832DE9F0470F46814678
:204F300038780024022890461D466DD17868089E01784078DFF8D8A001EB002189B24FF45B
:204F50002852891A06D0491E29D0491E4ED0491E39D059E0F8680EF06EFE80B2B04204D3FB
:204F7000A919162903DB0D244FE007244DE0FB682A46414698190EF04FF9AD19F868ADB2B4
:204F9000C5F11602002140190EF053FEDAF8000000281CBF0268002A37D0002123E08EBB8D
:204FB000022DE0D198F8000098F80110FA6800EB01201080DAF8000000281CBF0268002A69
:204FD00023D001210FE0EEB9062DCCD1F868062241460EF021F9DAF8000000281CBF0268E0
:204FF000002A12D00321484690470EE056B9012DB9D198F80000002813BF0128F9680870CB
:20501000802402E00B2400E001242046BDE8F0870C2F00207CB5894D144602460026A2F583
:205030008062182A1AD8DFE812F0FE00F800F100E900E200DC00D500D0001900C500BE00B2
:20505000B700AE00A3001900190080006F00680054004C00420039002C0024002D2880F27D
:205070008580022940F0828021880CF049FC0646E1E0012940F0DE80002C00F0DB80113552
:20509000A6E0102940F0D680002C00F0D38028465030102221460EF0BFF8CCE0012940F00A
:2050B000C980002C00F0C68029468D1D90E0262940F0C080002C00F0BD8005F160002622F6
:2050D000E8E7012940F0B680002C00F0B3806D1D7EE0602900D13CB9012940F0AB80002C2A
:2050F00000F0A8800D3573E005F18600214660220EF092F8012068739DE0012940F09A8019
:2051100020780FF053F896E0012940F093802078022800F38F800C3528702078022814BF88
:20513000301C01200FF03EF885E0072940F08280611C684606220DF02DFF207869463246BB
:2051500005F02EFB04460A2C10DA0FF027F838B9204602F093FE0DF04BFA09F055FA6AE0EB
:205170002A46012002F12C05285564E0022662E001295FD1A87B21780028A9735BD1207821
:20519000012858D1E9E7012954D12478072C51DB102C4FDC0B3537E001294BD124780A2CBD
:2051B00048DA093530E0012944D12478022C41DA083529E000293DD10EF0F0FF10B90EF01A
:2051D000CBF8C8E701240F351EE0012932D10A35247819E001292DD12478022C2ADAED1DE5
:2051F00012E0102926D12B4603F1400051E7012920D12478022C1DDA2D1D05E0012919D181
:205210002478042C16DCED1C2C7014E0012911D12478022C0EDAAD1CF6E702290AD1208815
:205230001435288007E0012904D12478022CD8BF6D1CE9DD182630467CBDC046A81200200A
:205250002DE9FE4F05467B48002400680094C00905D37948007810B920200CF0B9FB012DEC
:2052700040F0E280DFF80092D9F8DC00012840F0D8800220C9F8DC000DF00EFF01200CF0DF
:20529000A7FB5FEA000805D00120C9F8DC000DF00FFFCBE00EF0B1FCA34602906748684D38
:2052B000C0F800B0A86A016801208847012804D1584608F04BF9012000906248624FC0F86F
:2052D00000B0386811200EF001FB00B1012410200EF0FCFA08B144F002040F200EF0F6FA39
:2052F00008B144F004040B200EF0F0FA20B12868564E016B308888470A200EF0E7FA20B1C4
:205310002868534E016B308888475248012606602868816944F0200088474F4806600EF09A
:20533000CFFA00F001010191400814D2286A81684A4888478246BAF1040FF7D0BAF1010FFE
:2053500004D1286A42684548032190474449086820F003000860584600F088F82B683868EB
:20537000986B8047019801280CD0BAF1010F04D1286A42683948314690473949086840F0F8
:20539000030008602F48066028684169204688470B200EF09BFA20B128682C4BC16A1888E5
:2053B00088470A200EF092FA20B12868284BC16A18888847274806600322C9F8DC20264BC4
:2053D000C3F800B02868416B204688470128F9D1386804200CF0FCFA044618480660386888
:2053F000144800688009FBD30098012802D1304608F0ACF80EF051FA08200CF0E9FA07463F
:205410000298C9F8DC600EF0C5FE1648008807F0D1FD0DF04DFE57EA040018BF4FF0FF389F
:2054300004E06FF0040801E06FF001084046BDE8FE8FC04614100940881700200C40094045
:20545000B8010010000222432C2009405C5201005852010028200860800104430040034022
:205470002422084048560100A01600202DE9F84FDFF804B20746ABF13500DFF8F081006861
:20549000800880F0E28075480068006880477E490831D1F8009000254FEA29715FEA9952C9
:2054B00001F101010AD2C0F13E0210F10A0F4FEAE202D8BF08229142B8BF111C684BD3F82E
:2054D0007C21C2F30462162AA8BF203A1B68C3F30443162BA8BF203B9A465218162A05DA17
:2054F00012F10A0FB8BF6FF0090200E015225D4B5D4E02F01F0141F4F8511980316811F072
:20551000030F18BF0125C90828BF45F002050FB145F00405434693F90710411A052904DAE7
:205530009979A94208BF99886FD0DFF844E10F28A0F10F0829DB08EB0011A1F1F0084FEA91
:2055500028210091072984BF07210091062988BF06215EF821600424774604EB81043C59D3
:205570004FEA950CA41BEE0804F0FF0124BFC4F3072631446F08AE0824BFC4F307463144D3
:205590006E0828BF01EB146104E000214FEA950C6F080091009C5EF824E05FEA5C060EF0B7
:2055B000FF0424BFCEF3072634447E0824BFCEF3074634446E0828BF04EB1E64009E89B2F9
:2055D000A8EB06267143803104EB1124AAEB02010029D8BF0121342209F0FF074A4391B2D4
:2055F0004FF6FF727943B1FBF4F18A4238BF111C802889B2998005DA10F1800FB8BF6FF067
:205610007F0000E07F20D8719D711A4800681F2918604FF0000008D340F2FF128A4206D29A
:205630004908401C8A42FBD301E01F219980134F0F39090940EAC10047EA0001CBF8FB1F23
:205650000026CBF8FF6FBDE8F88F0D490D4F434608200F609B1D1870BDE8F88FEC0100107C
:205670003C1100506E62084024220840EC2E00209C130050082009403500094000E7A480A4
:2056900030100940FDFDA400AC3F00502DE9F04F044675488A46016894461F46BAF1000F0A
:2056B000ADF13C0D4DD0BCF1000F4AD09AF8002001209040014244D0BCF80000B0F5C15F8D
:2056D00032D1DCF81430DCF818206848DCF81C104FF0030E0DF128080B93DFF894B10C920D
:2056F00000680D91C0F3036958F8046FCEB10021351F05200B4655F8042FB2F1FF3F10D007
:20571000934506D0401E01F1040103F10103F2D107E0052B05DA705820F4702040EA0940E6
:205730007050BEF1010EDFD1C4F804A0C4F808C00EF04BFA4F4D8046287820B140460EF0AD
:2057500051FD00208DE002F063FD4B49086840F00200086007A80DF0A1FF002605F1D00036
:2057700007AA464909960BF0A7FB454905F5827007AA0BF0A1FB07A80DF048FFFF2105F1D2
:20579000340007AB3F4A089119210BF067FA3E4A05F150001A2107AB0BF060FA3B4932464F
:2057B00005F18800134609F0D1FA3949324605F1AC00134609F0CAFA364A05F120000421D1
:2057D00033460CF075FE0E2004F036FF05F174000DF0F8FD05F16C000DF0F4FD2E74072005
:2057F00085F898012E77AE616E770523AE602B49EB602A786961501C2870274B1E704046FF
:205810000EF0F0FCB1464FB92548B0E88C106946A1E88C100DC86F4681E80D0038682060FA
:20583000398A6182012060747B6813B940F6C4130646E3601B48A06126746061F86800B1A2
:20585000A061B86800B160615822494604F1200007F02BF904F1380049460CF0CDFC204685
:205870006C600FB0BDE8F08FD4210840541300500200F8447824002000200940F1300100F0
:20589000599D0000D5D90000D1D70000E5290100712E0100A9F200001E2F0020259E000032
:2058B000B855010007B800002DE9F0430446834DA178A869ADF1140D891F00F0F780C91EC9
:2058D00000F0E280491E5FD0491E48D0C91E3CD0481E40F0EE80287A697AB8B9687800285C
:2058F00031D0A0880EF052FC071C00F0E280A07A40080FD3787968B1E168890A0AD2B91DD2
:2059100001AA04F04DFF0A2804D10321A0880EF039FCCEE0287B022802D1A07A0009F4D3CE
:20593000A088797904F1080201F08AFAA869002800F0BF804368002B00F0BB8000210A46EF
:20595000A0889847B5E00521E0E7002800F0B1804368002B00F0AD8062780221F0E70DF0A1
:20597000E5FE002800F0A580A86950B1076847B1206900906189227B637BE01C3C46A0479B
:2059900097E060890121C2E767784FF00008002F6BD1A179490868D3EF69002F65D101A82F
:2059B00041460E220EF045F9A0880EF0EFFB071C7FD0606940B97879B91D06228DF80A0022
:2059D00001A80DF029FC1EE06669307C062301A906F111098DF80A0006F1110010F8012BC4
:2059F0005B1E01F8012BF9D107F10C00B91D06220DF012FCB81D494606220DF00DFC307CE4
:205A100040F002007871A079C00839BF387900F0FD00387940F002003871A079000939BF3E
:205A3000387900F0DF00387940F020003871A1799DF81120C1F3800010438DF8110008091E
:205A500005D39DF8110040F008008DF8110001A8214600F027FB28B92878022104F062FBD3
:205A7000404627E0A8694FF0150810B3436803B3A088627801219847B8F1000F19D0A86943
:205A90004368032142465BE7E078211D002204F087FE0A280DDA410001EB800004F10C0263
:205AB00025300421C0B203F07BF802E0A08809F0C5F9012005B0BDE8F083C046A8120020F5
:205AD0002DE9F04F05468048066800680F461C469246C4F399018900ADF12C0D0A0100210C
:205AF000803206F0E2FFDFF8C891A9F1880002466E48016830469047A30880466108019795
:205B10009F1C21F00101F819009506EB80000390091DCDF808A07818434506EB800206EBEE
:205B3000870B3844049206EB80000690C4F39C004FEA800000F1080007EB400000EB07027F
:205B500006EB82020A9224F0030202F1080200EB020506EB85053A44059506EB82050A44C3
:205B700007953A4406EB8202089206EB80020992084406EB800A384406EB800518BF6FF0EF
:205B9000010040F08F8009F16800024641463046904700233CB10199264611F8010B761E78
:205BB00040EA0303F9D1002B08BF01207AD000263CB10299234611F8010B5B1E40EA0606A3
:205BD000F9D1002E08BF02206CD001995846C84703980299C847009881680498C847354863
:205BF000049A594681462846C847012803D14FEA88042E590EB1032054E0BE002846002168
:205C1000324606F052FF0399049A2846C847012801D12F590FB1042044E0274F274C0698EC
:205C300059463A46A047079803993A46A0470699089827460A46B84709980899069AB847D0
:205C50000A9806991E4C2246B84728460021282206F02BFF1B4809990A9A81462846C8473C
:205C70002034284622460146C847079950460A46B84705980021324606F017FF5FFA88F4F8
:205C90005046002C0CBF01225FFA88F200216B5C445CA34218BF052004D1491C521EC9B2E3
:205CB000F5D100200BB0BDE8F08FC0468C4F0020B9DB0010C9DE0010A4210020F9E00010E5
:205CD00050530100C9E60010884F00202DE9FE4F0E468246307AC10693461F464FF00009E4
:205CF0000CD558460EF04AFA030000F0E8800A223146504698475FEA00094DD130780C9D9F
:205D10000D9CDDF8388002281AD170680178407801EB002189B24FF42052891A012910D96C
:205D3000891E3AD0491E14D0FD397AD0491E00F08180491E6DD0491E73D0491E00F09580C5
:205D5000ABE0002C2AD1F068017829800278416887E0002C22D101202880F1680A783A7010
:205D700000217089401C80B20EF004FA298860B10278921C51182980418979704289120AD9
:205D9000BA7041680278F81C6CE0091D298004220021781C0DF04DFF93E0002C66D1F06825
:205DB0000688042129803E70320A7A700DF1020130460EF0DFF9040021D0D4F80C80BDF854
:205DD00002204FF6FF766B4631460EF0CFF940B9237862683C4802210EF0C4F908B9ADF8C3
:205DF000006098F8000002280BD1D8F804100222381D0DF011FA2888801C288001E0ADF8BE
:205E10000060BDF80000B870BDF80010090AF97057E0002C2AD1F068016850460DF0EEFB59
:205E300002E01CBBF0680088022129803870000A787046E0F0680DF0FEFE80B2A042B8BF51
:205E50004FF007093DDB844208BF002205D008EB04028242B4BF4246021B2A8092B2F0682C
:205E7000011938460DF0D8F92BE014B14FF00B0927E0F0680721298002783A7043787B708F
:205E90004188B9704288120AFA7001793971C2887A71C088000AB87113E058460EF05EF9F6
:205EB0005FEA00090BD00F980290CDF8048000942B463A4631465046C847814601E04FF09B
:205ED0000E094846BDE8FE8F105401002DE9F04F0746880FADF1140DC0F0CC80674C201D92
:205EF000006841688E68CD68486800B18047DFF89081002E08BF002D0CD041460868002829
:205F1000FCD00020086006B1B04705B1A8475D480CF004F95C480DF0B9FB5C4940F60A0CE6
:205F3000A1F800C0002048800A7B60F303020A7348604A7B4FF0010969F303024A73BB68BF
:205F50007D7C58801A888346A2F60202CAB141F21E06921B15D041F6E676921B012A20D892
:205F70005A7E012D60F382025A7606D01A8B22F47C7242F434721A8313E01A8B60F3091266
:205F9000F9E75A7C012D60F382025A7405D01A8A22F47C7242F4347202E01A8A60F309121B
:205FB0001A82D7F808A078746246554600E035466E6816B133889A42F9D169606B7B60F334
:205FD00003036B73E66E3EB1F3681B88D61F9E421AD0921F9A4217D03E8CBEB1786207F14E
:205FF0002002508097F82C3060F3030387F82C3097F82D3069F3030387F82D304A604A7BE7
:2060100060F303024A7301E0C4F808B02048036882680192C168406B0093102220F0784055
:2060300040F0805003901B480291694605F082F9D8F800000028FBD017486061607FC8F826
:2060500000B070B915480068006801464846884701280CD0687B69F303006873104F67613D
:2060700005E00AF01BFD0028FBD00DF0BEFD50460DF00CFB05B0BDE8F08FC0467824002039
:206090001C1004400100070601010E048C2E00204C1300501800002141410000E001001029
:2060B0007DDC00002DE9F04F734CDFF8C8A1E56988468146ADF1140D002D4ED1B9F1000F7C
:2060D00000F09680B8F1000F00F092800CF070F906460A2E267422DAD8F81470002F3DD0E1
:2060F000700010216A4600EB86002330C0B20CF02AFE90B950460778FF21102268460CF08B
:206110009AFF50B93FB999F80600494600F001000EF020F801E00120A074E5691DE004F152
:20613000E60B0A2700265846FF2106220CF083FF88B97F1E0BF10E0B06F10106F3D1607C12
:20615000002804BF0A20207452D094F83660304601F094FEE569267400E0267C0A2E47DA86
:20617000002D35D170000E214A4600EB86002030C0B202F015FD207C09F026F96846FF21F4
:2061900010220DF056FD207C10216A467030C0B202F006FD217C0E220801A0EB410000192E
:2061B0004946E6300DF038F8D8F814206AB15046007840B9107C02F11101002300F0010032
:2061D0000DF0C4FF01E00120A074C4F81C804CE0AA68002A3ED12A69002A2FD16A690ABBB5
:2061F000EA683AB9A07B08B10BF0BEFB0CF09CFD01203BE07000102100EB86002430C0B219
:2062100002F0CEFCE769217CFA68480000EB8100103225300421C0B202F0C2FCE169002067
:20623000C86022E07000102100EB86002330C0B202F0B6FCE1690020486116E070001C21F3
:2062500000EB86002230C0B202F0AAFCE169002008610AE070001C2100EB86002130C0B2C3
:2062700002F09EFCE16900208860002005B0BDE8F08FC0465A4F0020A81200202DE9F84F31
:206290008B460AAF6D4E9BF80050DBF80400BC889246984631462A463F8800900CF074FA4D
:2062B0004FF0000940B9022F00F3BC80C7F10200A04200F3AD808DE000982A46B11C0CF033
:2062D00063FA40B9022F00F3AD80C7F10200A04200F39E807EE00098311D2A460CF054FA5C
:2062F00040B9022F80F29E80C7F10100A04200F38F806FE0009806F114012A460CF044FA9A
:2063100038B9022F80F28E80C7F10100A0427FDC60E0009806F124012A460CF035FA30B95D
:20633000022F7FDCC7F10200A04271DC52E0009806F134012A460CF027FA30B9022F71DCEE
:20635000C7F10200A04263DC44E0009806F144012A460CF019FA30B9042F63DCC7F10400C4
:20637000A04255DC36E0009806F154012A460CF00BFA30B9042F55DCC7F10400A04247DC81
:2063900028E0009806F164012A460CF0FDF930B9042F47DCC7F10400A04239DC1AE000980B
:2063B00006F174012A460CF0EFF930B9042F39DCC7F10400A0422BDC0CE0009806F1840137
:2063D0002A460CF0E1F938B9042F2BDCC7F10400A0421DDC84B21BE00098B11D2A460CF0A2
:2063F000D3F930B9022F1DDAC7F10100A0420DDD0EE0009894362A4631460CF0C5F9A0B9E1
:20641000022F0FDCC7F10200A04201DC82B200E02246A8F80020DBF80C105046C91904F040
:2064300089FF07E04FF0070904E048464FF00A09A8F800004846BDE8F88FC046084F010012
:206450002DE9FC4F83F0004301E02DE9FC4F1F03FF0847EAD2574FEA42284FEA43095FEADF
:20647000595906D147EA080A1CBF00210020BDE8FC8F57F000575FF4E06E1EF1FF0EF14563
:2064900005D14FF00000190D0905BDE8FC8F002B05D55FF0000AD8F100086AEB07070C03D2
:2064B000E40844EAD0544FEA40254FEA4106760D08D144EA050A19BF00210020191C101C5D
:2064D000BDE8FC8F44F00054764504D10020090D0905BDE8FC8F002904D55FF0000A6D42E6
:2064F0006AEB0404B6EB090E08D5A2463C465746AA464546D046CEF1000E4E46BEF1360FAD
:206510005CBF4FF0000B23E0BEF1000F04BF4FF0000B1AE0CEF1390ABAF120092EBF08FA79
:2065300009FB07FA0AFB4BEA080BDEF1200A07FA0AFA38BFBA4647FA0EF72DBF28FA0EF8AA
:20655000AEF1200E4AFA0EF8D04415EB08057C4154EA050A02BF00210020BDE8FC8F002C8B
:2065700058BF4FF0000A06D55FF0010A5FF0000E6D426EEB0404A6F101066D006441FAD58A
:2065900015F4806E11D005F480794BEA090B15F5806554F1000428BF761C0BD205F40079D8
:2065B0005BEA090B08BF25F4006525F4E0656D0044EB0404B61CDEBF00210020BDE8FC8F4B
:2065D0005FF4E06E1EF1FF0E76450AD34FF0000013F00043FF21C900C91D09051943BDE8F3
:2065F000FC8F270547EA1530210B41EA065141EACA71BDE8FC8F70472DE9F04FADF11C0D47
:206610000190049300280392109D0291119C059500F0BC80081C00F0B980101C00F0B68033
:20663000181C00F0B380281C00F0B080002C00F0B280206A002800F0A9805A4D676A281DB9
:206650000068002F00F0A280A16A0DF07BFD40B2071C08BF6FF0020700F094802078628837
:20667000216A84F82C7000EB80001218143290B288474B49086030B9284640680DF05EFD28
:206690004FF0FF377EE00846B4F802B06688277894F800900568204608F0A8FB2078AB44CD
:2066B000C01C8010CBF800002078B919491901F1040AC01C8010CAF80000207806EB4703CE
:2066D000591901F10808C01C8010C8F80000217809EB49094B469A19521902F10C09C91C8F
:2066F0008910C9F800102178D8198019401900F11005C91C88100199286022780BF1040065
:2067100004F018FE227802990AF1040004F012FE2278039908F1040004F00CFE23782046F5
:2067300051464246FFF7CCF9071C14D100955846514642464B460DF0FDFC80462278049892
:2067500009F1040104F0F6FD22780598291D04F0F1FD4FFA88F7124821786288006801EBEB
:2067700081015218002106F0A0F90D4E606A0146306888470B4840680DF0E0FCF8B299285B
:2067900008BF002784F82C70384606E01CB16FF0010084F82C006FF0010007B0BDE8F08F6F
