:20000000004000201909010001C9011001C9011001C9011001C9011001C9011001C901103B
:1C00200001C9011001C9011001C9011001C9011001C9011001C901103FC9011089
:20003C002DE9F04F8C4606461146ADF1440D1846069362460493E14620F0004522F00047E0
:20005C0023F00043059151EA030468A30E9300F08380684C944208BF002E7DD061A3664A37
:20007C000D93BA4208DBBA4200D12EB9AA4203DB9246AA4516D1A9B1984698E80C00494666
:20009C00304606F00EFF824689460598069998E80C0006F006FF0B4602464946504606F0BD
:2000BC0000FF3BE0574AB9F1000F4FF000080F9225D5524AAA4220DDAC4220DC504B2A1585
:2000DC00AB42A2F2FF320BDD002959D1C2F1140245FA02F303FA02F2954210D11A4607E02A
:2000FC00C2F1340321FA03F202FA03F3994206D102F00108C8F1020801E04FF00208002935
:20011C003ED15246AA4224D0AC420DD1002807D50E9803C84B46324608F0FFFB8C460646E2
:20013C006146304600F028BCB0F1804F05D14B460796494630460893D9E30F9981421FD187
:20015C00B9F1000F1CD44946304607F0F9FD00F013BC391B0E4302D10E9C00F00BBCBC4252
:20017C0006DD002806D5059A014681F0004129E0002802D50D98014631E0059A034620E0F8
:20019C002CF00041B646FEB95246BA4203D0002F18BFBC4218D100280B46324605D50E986E
:2001BC0003C808F0BAFB0B460246B9F1000F08D53F1B58EA07000DD0B8F1010F08BF83F009
:2001DC00004319461646ACE74FEAD976761E58EA060319D114F03CFC2122D1A102600C467C
:2001FC00C8E3C0460000000000000000000000000000F03F0000F03F0000F07F00004043E2
:20021C00000040410000E03FA8F10102164314BF0E9AC5A292E80003CDF82090C64ACDF884
:20023C001C80AA42C0F26B81B7F5801FA8BF002508DABFA20CCA704609F02CFA6FF034051F
:20025C000F468646BD4905EB2755C7F313002746A5F2FF35814247EA000707DAB84981424A
:20027C00DABF6D1CA7F58017012400DC0024B54800EBC400CDF800E090E80C000A973946F3
:20029C000290704606F00DFEDDF838C00B4602469CE8030008F041FB8346029E0D9890E852
:2002BC00000396E80C0000988A46394606F0F4FDCDF824B05A4689465346064609F0EAF9FE
:2002DC000B468346019178100393424640F0005000EB844000F5002003460746002009F0BD
:2002FC00D9F90B4602464946304606F0D5FD0646029890E80C0089463946404606F0CCFDAD
:20031C000B4602460A99009806F0C6FD0024CDF800B0039B224609F0BDF90B4602464946BE
:20033C00304606F0B9FD099A534609F0B3F98A46019906465A4658460B4609F0ABF98846EE
:20035C0081460B46024609F0A5F9D1A20CCA0F4683464146484609F09DF9CFA20CCA06F042
:20037C00A0FD43464A4609F095F9CDA20CCA06F098FD43464A4609F08DF9CBA20CCA06F083
:20039C0090FD43464A4609F085F9C9A20CCA06F088FD43464A4609F07DF9C7A20CCA06F0AB
:2003BC0080FD0B4602463946584609F073F98846009A0399814620460B4606F072FD534609
:2003DC00324609F067F90B4602464146484606F068FD039B0746894622462046194609F047
:2003FC0059F909900FF268380A9198E80C0006F058FD0B97CDF830904B463A4606F051FD67
:20041C000B46894603992246204609F043F98346534632460F462046494609F03BF998E830
:20043C000C0006468A462046494606F035FD0A9B099A06F031FD0B4602460C990B9806F018
:20045C002BFD019B009A09F025F90B4602465146304606F026FD81468846284612F088FDC2
:20047C000191009043464A463946584606F019FDB9A20CCA20468A4609F00CF906460D46F8
:20049C003B465A462046514606F006FD0B4602464146484606F000FDB1A20CCA09F0FAF874
:2004BC000B4602462946304606F0FBFC029A20320CCA06F0F6FCACA20CCA894683465146B6
:2004DC00204609F0E7F805468A464B465A4606F0E8FC029A10320CCA06F0E3FC019B009ADD
:2004FC0006F0DFFC019B009AA0460C46404606F0D3FC029A10320CCA06F0CEFC70E0A04AA8
:20051C00AA42C0F227829F4ABA4200F3FF81BC421ADA002840F3B98095A08046FAE1C046BE
:20053C00000000000000F87F000000000000F0BF00000000000040430000E0418E980300AC
:20055C007AB60B00606301000E9A0CCA704606F0A3FC89A20CCA8A46044609F09BF88B463F
:20057C000546514620460B46024609F093F8E1A20CCA884681465146204609F08BF802464B
:20059C000B46DEA003C806F087FC5346224609F081F802460B46DBA003C806F07DFC0B461A
:2005BC0002464146484609F075F8E0A20CCA09F071F80B4602465946284606F06DFCDDA21E
:2005DC000CCA894683465146204609F063F88A4605464B465A4606F064FC00200C46804666
:2005FC0053462A4606F058FC0B4602464946584606F052FC0646DDF8109005980D46424649
:20061C004B46494606F048FC474623463A4609F041F8059A8A4683464B462946304609F015
:20063C0039F80B4602465146584606F03AFC824623460E463A464046494609F02BF85246A5
:20065C0082468946009210464B463146524606F028FCCB4A0C460746A24231DDDF4924F063
:20067C000040814247DCDE48201857EA00050CD1214638464B46524606F00EFC02460098C9
:20069C000B4631460CF0F2FD35D8DDF8348041E1EF4E454A287ECA3F65DBC9934A86CD3FE0
:2006BC0001411DA96074D13F4D268F515555D53FFFAB6FDBB66DDB3F033333333333E33FCC
:2006DC00A01A57EA000540F023810098ADA20CCA314606F0E6FB8B4605464B465246214673
:2006FC00384606F0D9FB0B460246594628460CF000FEC0F00D810F9824F00041884243DAD5
:20071C000D9A0CCAB74BC4F30A504FF48017A0F2FE31002C47FA01F004EB0001C1F3130578
:20073C00C1F30A50A0F2FF3045F4801543FA00F3C0F1140021EA030345FA00F548BF6D4210
:20075C005046494606F0A8FB894682461DE0C0460000000000000840F5015B14E02F3EBE6D
:20077C00FD033ADC09C7EE3F000000E009C7EE3F000000000000F07F44DF5DF80BAE543E3B
:20079C000000F043FFFFEF3F4546009C31464B465246204606F085FB8B4640464B465246BB
:2007BC0006F07AFB0B4602463146204606F074FB76A20CCA08F06EFF76A20CCA82468946FF
:2007DC004046594608F066FF0B4602464946504606F067FB71A20CCA07460E4640465946B6
:2007FC0008F058FF33463A468B46044606F059FB00900B460246884608F04CFF894682465F
:20081C0068A20CCA08F046FF68A20CCA06F049FB4B46524608F03EFF66A20CCA06F041FB17
:20083C004B46524608F036FF64A20CCA06F039FB4B46524608F02EFF62A20CCA06F031FBF6
:20085C004B46524608F026FF024600980B46414606F022FB89468246009841465B462246AC
:20087C0006F01AFB0B4602463146384606F014FB044600988B464B465246414608F00AFF5A
:20089C0052A20CCA0E4607464946504606F004FB0B4602463146384608F03FF8009E89468D
:2008BC0082465B4622464146304608F0F3FE0B4602465946204606F0F4FA0B4602464946BB
:2008DC00504606F0E9FA4346324606F0E5FA02460E980B4603C806F0DFFA01EB0552B2F5F4
:2008FC00801FA8BF111C02DA2A460AF0B9F802460B4615E0000000000000D03F55555555C1
:20091C005555D53F000000000000E03F002815D50FF2C00814F09CF82221016098E80C003B
:20093C000899079808F0B6FE26E0C046FE822B654715F73F000000604715F73F14F088F88B
:20095C0022210D9A01600CCA4946404608F0A2FEFFF7E4BBBC4204DC002806DD1DA0044628
:20097C0004E0002848BF1BA400D40D9C14F070F82221016094E8030011B0BDE8F08FC04692
:20099C0000009040FE822B654715973CEF39FAFE422EE63F396CA80C615C20BE0000000083
:2009BC00432EE63FD0A4BE726937663EF16BD2C541BDBBBE2CDE25AF6A56113F93BDBE1621
:2009DC006CC166BF3E5555555555C53F0000000000000040000000000000F07F00CC904073
:2009FC0000346F3FFFFF0F002DE9F04FD34C04F11C012046ADF1340D0FF0D6F9002604F138
:200A1C00A80A4FF6FF70667001216082504611F04FFCD048022111F04BFCCF48042111F0D8
:200A3C0047FC04F14808042010223146A07040460CF063FF04F158091022484631460CF0C8
:200A5C005CFF04F120073E6004F10A052E7007206072DFF810B3E67102222672594610204E
:200A7C000346CDF8008006F07BFD102003225946CDF80090034606F073FD04221020594671
:200A9C000097134606F06CFD4FF0080A4FF003094FF0010B05F12E00079005F17D0008903E
:200ABC0005F12200099005F15E000A9028350B9519E06078B4F84050B4F84230B4F8442043
:200ADC00B4F8461006280ED1ADF80A50ADF80C30ADF80E209F48ADF8101014F033F85846BF
:200AFC0002A90CF07FFBE069B44A31464FF0FF3300F02AFA071CF6D0059606A80DF11A012B
:200B1C0005AA11F081FF002840F0BE81BDF818102078102940F0B4819DF81A10884240F026
:200B3C00AF81059D29884FF6FF728A4200F09D812B78A23B00F080812E3B40F0A181A97839
:200B5C00B046002900F03C81891E00F00D81491E012940F2D780891E00F09B80491E72D013
:200B7C00491E5FD0083900F05781891E40F05A8194F83E10A8880529ADF808004AD075484C
:200B9C008DF812B013F0DEFF94F83E00012820D004281ED003280DD002280BD00598C18822
:200BBC00ADF80A100189ADF80C104189ADF80E1081892BE0B4F84210B4F84000ADF80C10C2
:200BDC00B4F84450ADF80A00B4F84610ADF80E501CE0B4F84000E9888842D8BF081CADF882
:200BFC000A002989B4F842008842D8BF081CADF80C006989B4F844008842D8BF081CADF8ED
:200C1C000E00A989B4F84600884200DC0846ADF8100001E08DF81260A749102002AA06F043
:200C3C009FFCFFE04C4813F08DFF6B78002B40F0F980E888A0822889E0826889208345487E
:200C5C0013F0D0FCEEE0AA88B249102006F088FC0798414606220CF050FEA682E682268333
:200C7C00A87920733B4813F06DFF3B4813F06AFFD8464FF6FF70237960823BB9A87908282E
:200C9C0014BF042005206070E670CBE084F80190C8E06B787BBB291D0A68079802608988B3
:200CBC0081800623637068896082E889A082288AE082688A94F83E102083E8780129E07256
:200CDC0018BF02290BD1994910201F2206F048FC4FF47A7180B241431E4811F005FB688951
:200CFC000423009090490193EA7810202D1D2B4606F036FC99E06878312840F08A80E670FD
:200D1C0004202CE06B78002B40F08380A878218A6278032814D0E078257921B9012814BFC6
:200D3C002671E67005E0054303D0814811F0DCFA6278072AE4D1062011E0C046B805002050
:200D5C00062A0BD0E578002D08BF84F801906CD0022004E084060020A8060020072060705D
:200D7C0063E0C046933C01006B78002B51D1EB78617893B902291DD007291BD0062902D151
:200D9C002079012816D1032914D0694813F02AFC80B9584613F05EFC0CE012F017F902462A
:200DBC00A07960490090089843460190102006F0D7FB68706D78002D2BD133E00700008093
:200DDC006B7833BB5B485649009002221020034606F0C6FB58484A4651490090102003462D
:200DFC0006F0BEFBED1C296809980160A9888180207884F801B012F0E9F802465B460A9D22
:200E1C006079484900901020019506F0A9FBC0B258B184F801A008E0AA88404910200523C9
:200E3C0006F09EFBB8F1010F2AD1656A45B3296831B36078884723E06879132820D12889AF
:200E5C00012808D1607B022805D13E4813F07AFE11F024FE14E035491020052206F080FB3B
:200E7C0081B2384811F040FA0AE06888C00B07D3324804222A4900901346102006F070FB5C
:200E9C00059808B113F000FE2579E07879082ED355EA00032BD0204600787DB9E279217A20
:200EBC008DF808200B9D8DF809102B680DF10A010B60AA888A8003E0051601108DF80890B4
:200EDC00627A8DF81020A17A8DF8111012F07EF81149024602AB102006F042FB38B1656AC2
:200EFC0084F801A01DB1296809B150468847B80803D3134930460CF075F9F808FFF4F3ADD6
:200F1C00607B401E3FF4D5AD401E7FF4ECAD11F0C5FDE8E575FD000059440110C1170110C4
:200F3C00A1990000094501107D9C0000D5400100600600200006002010060020D8050020EE
:200F5C00F6050020A8060020DFF800F0F99B01102DE9F041DFF8888004680E4617464FF09E
:200F7C00FF31404613F0ABFA4FF0FF35092E08D0217A0120B040084212D108433546207244
:200F9C0011E0237A0521012000FA01F2134202D0491EF9D504E0227A88400D461043207297
:200FBC00B5F1FF3F15D0A7B1062011F067FE294638460BF093FB0746062011F0B9FB47B1D2
:200FDC00217A0120A8404FF0FF3580F0FF0008402072404613F09EFD2846BDE8F081C046E7
:040FFC00DC1B0020DA
:20100000B4120000181000009DF50000FDB301106DC00110FDAE011099B501100000000036
:08102000000000002D0000009B
:20102800B01200003C100000B1C00110A9BF011067C0011069B80110000000000000000035
:041048003000000074
:20104C00B012000060100000BDC00110CDB30110D9BD01106DB3011000000000000000005B
:04106C00310000004F
:2010700000000000CC23002004000000000000000000000020000000E8C90110300000003B
:2010900028100000D42300200400000000000000000000000C000000D8CA01101800000016
:2010B0004C100000DC23002004000000000000000000000024000000F0CA0110180000009A
:2010D00000000000E42300200400000000000000000000001000000018CA01102C000000A6
:2010F00000100000F4230020040000000000000000000000200000006CCA0110240000000A
:20111000FFFFFFFFFC2300200400000000000000000000002800000090CA011024000000C9
:20113000FFFFFFFF042400200400000000000000000000001400000008CB01101800000047
:20115000FFFFFFFF0C24002004000000000000000000000058000000B4C901103400000015
:20117000FFFFFFFF142400200400000000000000000000001000000020CB011018000000E3
:20119000FFFFFFFF1C2400200400000000000000000000001C000000B4CA01102400000010
:2011B000FFFFFFFF242400200400000000000000000000003800000044CA01102800000038
:2011D000FFFFFFFF2C2400200400000000000000000000005400000078C901103C000000AD
:0811F00001000000606701002E
:0411F80001000000F2
:0411FC0000000E00E1
:0412000000000F00DB
:0412040032000000B4
:0412080001000000E1
:04120C00C8220020D4
:0412100000020000D8
:0412140000000000D6
:0412180001C90110F7
:04121C0000000000CE
:0412200000000000CA
:0412240008000000BE
:0412280000002200A0
:04122C00242000205A
:0412300000000000BA
:0412340000000000B6
:0412380008000000AA
:04123C003C22002030
:0412400000000000AA
:0412440000000000A6
:04124800080000009A
:04124C00000000009E
:04125000000000009A
:041254000000000096
:041258000000000092
:04125C00010000008D
:041260001C2100202D
:041264000600000080
:041268000100000081
:04126C00DC1E002064
:04127000000000007A
:041274000000000076
:041278000002000070
:04127C00000000006E
:02128000290043
:02128200010069
:02128400250043
:02128600300036
:02128800310033
:02128A002D0035
:02128C0001005F
:01128E00015E
:0812900003000000D466010018
:0812980000000000000000004E
:0412A0000000010049
:0412A4000000030043
:0412A80013C401105A
:0412AC00D14201002A
:0412B000B812000070
:0412B400B81200006C
:0412B8000000000032
:0412BC009423002057
:0412C000FF440100E6
:0412C4002000000006
:0412C800206601009B
:0412CC00B064010009
:0412D00029C101101F
:0412D400894B010041
:0412D8008B4B01003B
:0412DC00A1C7011095
:0412E000A3C701108F
:0412E4000000000006
:0412E8008961010017
:0412EC00F0610100AC
:0412F000086201008F
:0412F400D8610100BC
:0212F8000200F2
:0212FA000900E9
:0212FC000100EF
:0212FE000000EE
:0113000001EB
:041304008D44010013
:04130800A525010016
:04130C008D37010018
:04131000BD290100F2
:04131400DD250100D2
:0413180025060100A5
:04131C00F1CA000012
:04132000A5470100DC
:0413240075F100005F
:0413280015C70110D4
:04132C0025C70110C0
:201330002DE9F04FD74C211D2046ADF19C0D0EF041FD04F120050021284613F07BFFD24EB8
:2013500010201F220623A560314606F00FF950200E90ADF820000025ADF81E504FF47A7829
:201370008DF82F500221ADF824500DF11E02ADF826804FF44870ADF8220040F2063003F097
:2013900069FD4FF44270132104F13D0203F062FD40F20730112104F12C0203F05BFD4FF4DC
:2013B000447001210DF12F0203F054FD40F21130022108AA03F04EFD40F2123002210DF1B9
:2013D000220203F047FD40F21330022109AA03F041FD4FF4457002210DF1260203F03AFDBB
:2013F00004F150002A461523A8490090102006F0BDF8314610200622A02306F0B7F83146E6
:2014100010200722A02306F0B1F83146102001221E2306F0ABF8314610200822A02306F0D3
:20143000A5F8314610200922A02306F09FF80CAC01208DF8325029468DF8300003468DF80B
:2014500031004FF480628DF83410914D00941F4610208DF83370294606F088F80DF131001A
:201470002946009040F202423B46102006F07EF80DF13200294640F203423B460090102073
:2014900006F074F80DF13300294640F206423B460090102006F06AF80DA829464FF48362DB
:2014B0003B460090102006F061F87A4910204FF0FF3206F05BF81020774B00907749784ADC
:2014D0000193092306F052F876494FF0FF32102006F04CF8744D2878800013F019FB014624
:2014F00072482C464161002900F0A5804FF6FF700FF01CF92078800013F00AFB01466B48EE
:201510000029816100F097804FF6FF700FF00EF92078800013F0FCFA014664480029C161A0
:2015300000F089804FF6FF700FF000F92078800013F0EEFA01465D48002901627BD04FF6EB
:20155000FF700FF0F3F82078800013F0E1FA01465648002941626ED04FF6FF700FF0E6F8AC
:201570002078800013F0D4FA014650480029816261D04FF6FF700FF0D9F82078800013F0B7
:20159000C7FA014649480029016354D04FF6FF700FF0CCF82078800013F0BAFA01464348D9
:2015B0000029816347D04FF6FF700FF0BFF82078800013F0ADFA01463C48002901643AD068
:2015D0004FF6FF700FF0B2F82078800013F0A0FA01463648816471B34FF6FF700FF0A6F8CA
:2015F0002078800013F094FA01463048016511B34FF6FF700FF09AF82078800013F088FA67
:2016100001462A484165B1B14FF6FF700FF08EF82078800013F07CFA01462448816551B194
:201630004FF6FF700FF082F82048214B352110225C3011F0D9FD2078800013F069FA1B4ACB
:2016500001465C328A4815920029C16055D04FF6FF700FF06BF82078800013F059FA0146F2
:2016700083480029016148D04FF6FF700FF05EF82078800013F04CFA01467D4800294161AB
:201690003BD017E0D80800205128010021D50000855A000091360100BC660100F9310100D3
:2016B000F8180020013A0100694F0020080200206C5E01004FF6FF700FF038F820788000E6
:2016D00013F026FA01466A488161B1B14FF6FF700FF02CF82078800013F01AFA01466448A1
:2016F000C16151B14FF6FF700FF020F86048614B15211022203011F077FD2078800013F04F
:2017100007FA5B4A014620325B4822920029C16047D04FF6FF700FF009F82078800013F0F3
:20173000F7F901465448002901613AD04FF6FF700EF0FCFF2078800013F0EAF901464E48A9
:20175000416171B34FF6FF700EF0F0FF2078800013F0DEF901464848816111B34FF6FF70EF
:201770000EF0E4FF2078800013F0D2F901464248C161B1B14FF6FF700EF0D8FF207880009C
:2017900013F0C6F901463C48416251B14FF6FF700EF0CCFF3848394B19211022283011F0C1
:2017B00023FD37490846344E4F78007806F128011C91D7B93E49324A0C31516211F00CFC11
:2017D0002F4F024600203E463D462E4900903C4607F14800019006F15800029005F12000BB
:2017F0000390A378102005F0C1FE314A26491020183205F0BBFE2E48007811F0EDFB2349F2
:201810000246102005F0B2FE2948007811F0E4FB1F490246102005F0A9FE1E49102005F0CA
:20183000A5FE1D4D012028700AF086F91B49002007F01CFD1A49002010F044FA00200EF0E6
:20185000EDFD022028700FF081FC174C154A174804F10801116004F11401016004F1200048
:2018700012F06EFE0120277884F8280027BB21E01C140020346301006C0F00200C600100B3
:20189000B8050020F30A0100CD3C01005188011031810110C5AB00103F240020000003039D
:2018B00005DF0000DC210020901E002040110020D808002012F05CF80320E34F287007F19D
:2018D0001404204612F082FCDFF88093D9F8000007F1340A4FF4FA7123465246B8FBF0F0C7
:2018F00080B24143491EDA48796013F09FFCD94E07F1080238607968F26013F093FC00217B
:2019100024220823504613F089FC04200021E64C28700B46F9647A68A7F8443004F1180A5F
:20193000BA64504612F052FCD9F8000004F138074146B8FBF0F080B24143491EA160E1482D
:201950003A46534613F072FC04F10C0160602422082331613846002113F060FC0020A16801
:20197000A4F848000746E1646068276513F05AFC6068A16813F0FCF80520D34C287004F19B
:201990001407384612F022FCD9F8000004F1340A40F2DC51B8FBF0F03B46524680B24143B9
:2019B000491ECA48616013F041FCC94920602422082304F1080008600021504613F02EFC51
:2019D00006202870CB480027A7643B46A4F844303A46E264BF4C12F0F9FBD9F80000C54BBB
:2019F000474604F134084FF496714246B7FBF0F080B24143491EB848616013F017FCDFF8EA
:201A1000DCA204F10801242220600823CAF808104046002113F002FC00200346A4F844007E
:201A30006168E3642068A16413F0FCFB6168206813F09EF807202870AF48A94C12F0C6FBA7
:201A5000D9F80000AC4B04F134084FF496514246B7FBF0F080B24143491EA248616013F06E
:201A7000E5FB002124220823206004F10800CAF80C00404613F0D2FB00206168A4F844007A
:201A90000346A1642068E36413F0CCFB6168206813F06EF80820944C2870984812F096FB82
:201AB000D9F80000954B04F1300BB7FBF0F05A4680B2810001EB0011491E8C48616013F054
:201AD000B5FBDFF82C8204F10801242220600823C8F828105846002113F0A0FB0020034614
:201AF000A4F840006168A3642068616413F09AFB6168206813F03CF809202870E548E44C9F
:201B100012F064FBD9F80000E24B47F23051B7FBF0F004F1300780B23A464143491EE04819
:201B3000616013F083FBDF4920602422082304F1080008600021384613F070FB4FF00A0976
:201B500085F8009000206064A0640746A4F840700FF09CFADF4C04F10C00C8F82C00201DFD
:201B700012F016FF0B202870012020720FF08EFAD94C04F10C00C8F83000201D12F008FFE5
:201B90000C202870012020720FF080FFD34C04F10800706104F1180012F064FA84F82E70CC
:201BB000012060760346E36123763A4684F82D20394631704FF4E13727633162C848A06205
:201BD0000D232B70C74A62620F46C74DD048D149F761012305F11402026105F118078F60CB
:201BF000EC1C2370842010F02EFF06F12801842270600AF017FB082010F025FF4FF0FF0B32
:201C10000746B76100203871484687F805B010F01AFF71693860086880473069006880473A
:201C300005F12400B06012F09DFB12F03EFBE01CAE49AF4C9AF80070C8F8380004F1640054
:201C5000016097B908E0C046301C00205C6701004D4B0100881900205646B0680068804768
:201C7000F068006880470120307094F804C0DFF88492A14EDFF884A245465FEA0C003FD0F4
:201C9000401E13D0401E18BF85F801C047D1022764234FF47A5240F2DC5140F2A2206F7077
:201CB000BC460E930CE0C0467C1B002001204FF4485240F6CA014FF0010C68704FF4F470FE
:201CD0000E9B28E0F1450100881C002055DC000010230020E01C0020514B0100E0220020E9
:201CF000381D0020554B0100E81D0020594B0100201B0020F41C00204C1D0020F81D0020AB
:201D10000020412342F6A00240F6B8314FF0000C687040F21310EA836B722984688405F1E5
:201D30003C0305F1420205F1480105F15400032740F2523E23F802EB22F802EB7F1E21F8E0
:201D500002EB4FF0000E20F802EBF1D16648012120306863A86A86F803C00068297280476A
:201D7000E86A00688047286B006880475E481C30C9F80C0012F052FD5B49DFF88C8101284F
:201D900008707FD15E4F3988DAF80C004FF00009ADF8101002220DF1350340688DF83590C6
:201DB00004A98446CDF800904920E04701288AF8050020D17988DAF80C004A46ADF82A10C8
:201DD00040688DF836900DF136038DF82B20114607460091022249200DF12A01B8478AF88D
:201DF000050001208AF803004F468AF8047042F6E063AAF80630434F3988F069ADF81010D9
:201E1000406802224B4604A98446CDF800903C20E0477A88F169ADF81020496830724B46F1
:201E30003C2002228C46CDF8009004A9E047FA88F169ADF81020496830724B463C20022202
:201E50000F46CDF8009004A9B847307286F809B086F80AB086F80BB086F80CB086F80DB05D
:201E700086F810B0CF207074012786F814B01E4B86F813B0394686F80EB0187877750128CD
:201E9000B17511D040B94146012200208A700FE03C1E00204C1E00204146487809E0C04645
:201EB0005D4B0100E42E00200220414607468F704870B07100200346C870144A0B711F4689
:201ED000F77130F0100727D0410834BF0221042123E0C04698220020B0220020B01F002014
:201EF0000FCC0000BD8600005C200020A0230020E80B00200823002024110020D021002071
:201F1000306701008C5F01007C220020F4220020080200206C0F002001211170401C521C07
:201F30001128CEDB04F19601606E0F9104F1B8020E910388109204F18508112704F1FC0A85
:201F500004F1DA0B4188129390F90620119190F90710139204F1740914910E98002120F89D
:201F7000021B0F9B0E901888400010F0F7FAC6490BF088FCC3490AF001FC10F0B7FAD0A267
:201F90000CCA07F08DFB09F07DFC0EF01FFB119B2BF8023B129A2AF8022B109921F8020B7C
:201FB000139B09F8013B149A10917F1E08F8012BD3D140F2DC503D38C4F844012727C4F88C
:201FD000487145F2E523C4F84C3147F29532C4F8502145F69941C4F8541148F2DE17C4F872
:201FF000587146F20243C4F85C3148F61F52C4F8602146F6C031C4F8641149F22F70C4F862
:20201000680146F67277C4F86C7149F6C063C4F8703147F25570C4F874014AF2CF77C4F85D
:20203000787147F6F763C4F87C314BF2D230C4F8800148F2B567C4F884714BF64271C4F874
:20205000881102F1EF00C4F88C014CF69F23C4F8903149F2FA47C4F894714DF20E51C4F894
:2020700098110022C4F89C211346C4F8A0311F46C4F8A4713946C4F8A811C4F8AC21C4F8B7
:20209000B0310123E381C4F8B471C4F8B8110222C4F8BC213846C4F8C0010DF035F8606DB2
:2020B000C4F82401276DC4F82871002384F83D310EF0FCF984F83E010EF0A8F8A4F83A0116
:2020D000002084F83C0108F069FC84F83F010FF05DFD84F840014CF25030A4F838010EF057
:2020F000BBF8C4F834010DF09BFDC4F82C010BF03BF8C4F830010CF0D9FF84F84101607829
:2021100011F0CAF82079E778F070A178687027B90529BCBF0120E07001DB012F03D1082998
:20213000C4BF0020E070B848B849B94E807B03270A463546344648703346D770B11C0E9146
:2021500005F10B0130460F91324604F14C01109103F14401DFF8D4A2DFF8D492DFF8D8B2D8
:20217000DFF8D082119100F13C01129102F13401B84F139106F12C01149105F10901B64E13
:202190001691E11D1791591C18913546411D19913446D11C3346B74A1A91304606F1200127
:2021B0001B91291D1D91E11C16461E91991C1F913546411C3446954B2091D11C2191B11CB3
:2021D000239107F110009860691C2491211D2591A048406800214FF040424FF0FF33FEF735
:2021F000B9FE071CF4D0002006900DF12E0106AA07A810F00FFC00286ED1BDF81CC00126C5
:20221000BCF1100F63D193489DF82E10007888425DD1069C20884FF6FF71814257D025780A
:20223000913D29D01F3D52D16078162818BF002305D1304611F02CF93346CBF8004085487D
:2022500045699BB165B94FF6FD70B949B94A00900023102005F08AF97E494D69C3B22BB96E
:202270007C4845F002050026456130E021790834204612F0CFFF2AE065780E3D06D0AD1E93
:2022900022D024E000007042DB0F4940A08842F2030181421BD1A1680D78C5B9491C04A8E7
:2022B0000A684968026004AD41602878B84904AA00F0FD002870102005F058F907E0C04600
:2022D00052B81E85EB51244008200CF079FF069810B10EB112F0DEFBF80FFFF479AF5D4845
:2022F000806812F093FF00287FF472AF59488468204612F087FF844208BF002402D08468AC
:2023100010F0B4F9002CEAD0524920884969401E00F09E81C01E00F09781001F00F08581BD
:20233000083800F06381103840F095816068427806788778C17841F60F0506EB0226001D32
:20235000761B00F01081B61E00F0B98045F6EF72B61A40F079810C2F00F27681DFE807F0E6
:20237000A2978C7E6E5A493E33281D1207C0012940F06A8100780E9908702548CDF80080DC
:20239000406D99E0022940F05F8100880F9908801F48CDF80080806D8EE0042940F05481DB
:2023B0000068109908601A48CDF80080006D83E0042940F049810068119908601448CDF85B
:2023D0000080806C78E0042940F03E810068129908600F48CDF80080006C6DE0042940F0E0
:2023F00033810068139908600948CDF80080806B62E0042940F028810068149908609A4875
:20241000CDF80080006B57E0B80500205C20002008020020022940F0178100881699088070
:202430009148CDF80080806A46E0C04655A60000A9980000F16C0000042F0020022940F011
:2024500003810088179908808748CDF80080406A32E0C046D80800206C0F0020012940F05D
:20247000F3800078189908707F48CDF80080006A22E0C0461C140020012940F0E580017832
:2024900079480170CDF800807749C06914E0022940F0DA800088199908807348CDF8008061
:2024B000806909E0022940F0CF8000881A9908806D48CDF800804069159A352393E0002F81
:2024D00045D07F1E38D07F1E27D07F1E1AD07F1E0DD07F1E40F0B880042940F0B58000689E
:2024F0001B9908606148CDF80090406A38E0012940F0AA8000781D9908705C48CDF80090CD
:20251000C0692DE0012940F09F8000781E9908705648CDF80090806922E0012940F0948009
:2025300000781F9908705148CDF80090406917E03DF400005D400100012940F085800078AF
:20255000209908704948CDF80090006908E001297AD1017845480170CDF800904349C0680E
:202570001C9A19233FE0002F32D07F1E26D07F1E1AD07F1E0ED07F1E66D1012964D10078C9
:20259000219908703A48CDF800A0C06929E0C04695B40010012957D1007823990870344807
:2025B000CDF800A080691CE001294DD10078249908702F48CDF800A0406912E0022943D116
:2025D0000088259908802A48CDF800A0006908E0012939D1017826480170CDF800A0244997
:2025F000C068229A15230AF0A3F92DE088082BD3DBF8007047B37888397908373A4612F0CE
:20261000FDFD0746162F03D0042F01D010F040FF18484669C7B936F00206466114D1164A5F
:2026300016494FF6FD7001230AE040F252300AA9443806F045FB0023BDF828200948084990
:202650000090102004F092FF606810F00FF802E0A0780CF0CFFC204610F008F83FE6C04604
:20267000892A010040E20100080200206C0F00201C140020D80800205D4001003DF400008F
:202690002DE9FE4F042010F0DEF904462E2003212070012060700220A070204611F0F7F807
:2026B000BE4AD368E07011F0C5FC20B9204604210DF0E8FC0DE018688047204604210DF0B4
:2026D000E1FCB648B5494069C9698268086809799047B34CE06A406801466846884704F1D9
:2026F00030052868BDF80020E179406804EB410301469A8704F10E008847E079B4F80EC0EE
:202710000C3500210F460B4604EB4002A2F842C098420CBF4FF0020E4FF0010E2A88EE886A
:202730005B1CAD1C5218032B0EFB067691B2B7B2EEDBC44D04EB40030320BE1091FBF0F017
:20275000B7F5166F03F14803608332461E80297DA68305DA01260C292671A4BF0B26EE7469
:2027700040F68C26964205DA01270C292771A4BF0B27EF7440F62E18904507DB40F25237CF
:20279000974208DDB2F5167F05DB02E0964202DB4746A7831F80A77AB0F5167F01DB012FFB
:2027B0001BD10122A272627901278AB940F2523363450DDB0E20E07038466071002767708E
:2027D0000BF0DAF8A7726378608B297D6279EB700A29C4BF0A23EB7400E06279B0F5167F2A
:2027F00001DB012F19D1E3890127A7728AB940F252379F420DDB0E20E070012060710027C8
:2028100067700BF0B9F8A7726378608B297D6279EB700A29C4BF0A21E9744146814207DB00
:2028300040F25231814207DDB0F5167F04DB01E0864201DB618308464FF00F08A0F25230F2
:2028500090FBF8F085B2E582278B002A62D1B4F810B0668A012F0FF2D02914D1584610F03F
:202870008DFB8A460190304610F088FB99E80C0006F016FF024601980B4651460AF03FFDCF
:2028900001D8B6B117E00FB9062D17DA584610F075FB83468A46304610F070FB99E80C00F0
:2028B00006F0FEFE0B460246514658460AF0E4FC01D2062D2EDB012F04D02DE0012020838A
:2028D000A4F812B0042010F0BEF801273E4605463E20287003216F702846AE7010F0D7FF5E
:2028F0002E49CA68E87011F0A5FB20B9284604210DF0C8FB10E010688047284604210DF03B
:20291000C1FB264825494069C969826808680979904701E000202083A08BA0F2523090FB13
:20293000F8F020821E200BF00DFDA26B2079B2F800A0A4F824A0C8B9208B0021012818BF1D
:20295000012112880020502AA8BF012008420DD0617A228A0846052351434201C90002EBD8
:20297000C012E28491FBF3F087B200E00027E57904EB4500A0F84E70A07804F14E060128EE
:202990007ED1E07901280DD0002804BF022001210AD0681EA91EC0B206E0C0468819002004
:2029B000201B002000200221E0724FEA4008217308EB0400A0F854A0B4F82290002F64D0BE
:2029D000D14541DBBAF1500F39DB36F8081036F81500401A33D4A782AAF150000FF0BEFDDF
:2029F0000546A9F150000FF0B9FD0146284609F0C5FE01464E4806F0D1FE0FF077FD4DA268
:202A10000CCAFDF713FBE77AE5790BF08BFB4FEA4708814636F8081036F81500401A0FF05D
:202A30009DFD014648460AF02DFF0FF07BFD0146B4F8229036F81700A78A40181BE00020EC
:202A50001AE0C0462411002036F8080009FB00F010F094FA39A20CCA06F022FE8B46019030
:202A7000504610F08BFA024601980B46594605F05AFF0DF0ABFD80B2B842B8BF071C04E0BD
:202A9000E07AB4F822904FEA400806EB4502B9B21180E08C36F808304FF0320E8446FF1A85
:202AB0000CEB8C0C0EFB07F7BC4504DC0A21B0FBF1F01B1899B200231180374619468D42FB
:202AD0000CBF0220012037F802CB491C032900FB0C3083B2F3DB9910A1821180606BE2788F
:202AF0000068034648469847207801280FD10121631C41F611000A460DF020FD114B41F621
:202B10001100032101220DF019FD00202070E179A08A26F81100E079401CC0B20328A8BF1E
:202B30000020E071BDE8FE8F333333333333D33F0000803F00000000000000406666666607
:202B50006666EE3F7D2200202DE9F04F0F46CD4C0168E16241688068ADF11C0DE060C54899
:202B7000A1608047C448E16A0160A168DFF810A34160E168DFF804938160CE49002FA346CA
:202B9000C1606FD03D68E8788DF80C0028798DF80D0003A812F02EFBA86808B1C6490160ED
:202BB000E86808B1C5490160C54C287820706878BE686070A878B268A0703178A2607368A6
:202BD000E1702E696360EA6926627968E2620868E06068696062A8697B68A062286A9E6869
:202BF000206395F8240084F834001EB9002011F045F900E066617868C06818B9002011F00A
:202C10003DF900E0A0617868006918B9002011F035F900E0E0617868406818B9002011F089
:202C30002DF900E0206128692062F86881680E6806B9D24ED0494FF001084E60C66881F896
:202C5000018036B9002011F019F94D462E68F86801E04D462E6000685446FB68A061586810
:202C7000E06107E0002011F009F94D462E684FF001085446361DC7493668621C04F1140363
:202C90005020B04710B1286880688047DBF808008047C24E002781463B46BF4877706946FF
:202CB00020610422337038460FF060FA0098B0F5801F0CD020B910F005FB06F06FFC08E009
:202CD0000DF018FC11F0C6FB0420708001E010F0F9FA3846BA4EA0602B68B7609869804731
:202CF0007060AF4880F8008039464180142011F0CFFCFF211422A06211F032FFE01CFF211F
:202D1000022211F02DFF142011F0C2FCA54F386038680021142211F023FF002000F052F95E
:202D300040460FF0DDF8A0480188FF2906D1022101807822001D002111F012FF032012F006
:202D500055FA042012F04EFA052012F047FA062012F040FA07200CF07BF9944E082030709B
:202D700006F1240012F032FA0CF0B8FB06F1360A05200A21524610F084FF38B10020C0F1EF
:202D90000901401C0AF8011B0A28F8DB3078102108F08CF92B68864909200DF10E025E68E5
:202DB000087001AB10200021B047A06AE1690A260A309DF80E20761E00F8012BF9D1891EED
:202DD000E161DBF80C104846884704F120002B68626A059040461E69DFF8D88104F12003F7
:202DF0004146B04710B1286880688047B84610F08BFB5FEA000903D009F0DAF84FF0FF395A
:202E1000002643E00298216910F8062CA0F10C07032A03D1002939D0884737E0A16A9DF89E
:202E300010C00A223046491E11F8013F9C4506D0521E00F10100F7D14FF0FF0A01E05FFAFD
:202E500080FA2868BAF1FF0F00F108001CD038790FF0F8FAB979012904D0022904BF02995F
:202E7000887001E0029908700299504610F030FE0CE0C04641490010F84400205C2400206F
:202E90007C210020B4170020006880472868C36904A902AA0DF10F0098470028B2D0D8F8D0
:202EB00000007700C35B6BB9761CF6B20A2EF8DB2BE0C04650520100A1310100A540010097
:202ED000EC1F00200A2E20DADBF808008047D8F80010002231F807A0CA53DBF80C10884736
:202EF000354850F8262026705146304690470646FF202070DBF808008047D8F800107A5AEC
:202F100016437E52DBF80C10884710F0FDFA0746B9451AD007B9294FE069B84238BF071CF9
:202F3000DBF80800804781462868016A206A8847626A28681F49059B521C6262C668384682
:202F5000B047DBF80C1048468847A768296860691431AFB9D8F800000A270026835B33B11F
:202F70000969606988472968D8F8000014317F1E06F10206F2D107E0B42300200B21010027
:202F9000096988472968143109684FF0FF3088472DE7C046FD3601001D410100402400202B
:202FB000B4050020242F0020341A0020A8120020362F00208D240100386401008EC2F5282C
:202FD000C42E00202DE9F84FDFF8BC13DFF8BC23DFF8BC5308700821002010600D23DFF8F8
:202FF000B40340F23732017043808280DFF8A8030560AC7EDFF8A4030470FF2CE97E4170F3
:2030100008BFFF292A7F82706B7FC370AE7F0671ED7F457115D1FF2A08BFFF2B11D1FF2E24
:2030300008BFFF2D0DD1DFF878130A7802704B7843708A788270CB78C3700A7902714979C1
:203050004171DFF860130278DFF85C83DFF85C93DFF85C730A70FF2543784B7082788A70C0
:20307000C378CB7002790A714079487188F8005088F8015088F8025088F8035088F8045048
:2030900088F805500020CB490880D9F83440CA49607808702278C9493A70A0780870A268F7
:2030B0001079C74A411E1170E078C649C64A0870E068106008B910F0E1FE2069C34E306015
:2030D00008B910F0DBFE3068DFF804A301688847326852F8041F50468847BE48BE49CAF8BD
:2030F0002000CAF824106069BC49086008B910F0C5FEA069BA49086008B910F0BFFEE069B5
:20311000B849086008B910F0B9FEDFF8DCB2B74C9BF8040011F0BCFA0028206075D09BF888
:203130000500B34E11F0B4FA002830606DD09BF80600DFF8C0A211F0ABFA0028CAF8000073
:2031500063D09BF8070011F0A3FAAB49002808605BD039789BF80000891C484380B211F09E
:2031700097FAA649002888604FD03878002862D0BBF80210484380B211F08AFAA04A00286D
:20319000506042D0387811F083FA9E49002808603BD03878400011F07BFA9B4900280860D3
:2031B00033D038781821484311F072FA974A106058B33878400111F06BFA9549086020B34F
:2031D0003878000111F064FA92490860E8B13878000111F05DFA90490860B0B13878302147
:2031F000484311F055FA8D4A106070B18C4839780078484311F04CFA8A4A106028B13878E0
:2032100011F046FA8849086018B9BDE8F14F06F0B5BC4FF0000B09E011F0FAF900214180FE
:2032300081600180022303710BF1010B39785FFA8BF08842F0D32268694F012010712168FC
:203250000D732068457321688D732068C57321680D7400212068457400202268D172A0223A
:203270002168487103212068C28001720720226850720021206881722821206801224182D5
:20329000C2760020216848770022206880F85E200121226811770120216881F85D00012207
:2032B0003068027131680D733068457331688D733068C57331680D74002130684574002075
:2032D0003268D172002231684871306882724FF420703168C88008818A7401213368D974BC
:2032F000DAF800201573DAF800104D73DAF800209573DAF80010CD73DAF8002015740022E9
:20331000DAF800104D740121DAF80030DA720023DAF800201171DAF800104B71DAF8001073
:20333000C88008818B720520DAF800209374DAF800103E4AC8741068804739680546086850
:203350008047396851F8042F00209047D9F80C101C4B0A881878364902430A802846354AD1
:20337000136898470C21344811F02CFF404611F025FF11F01FFFBDE8F44F034800784FF456
:20339000005107F093BE00BF6E4F0020044F0020B63F0050604E0020084F00202C4E002051
:2033B000E81200503C4E0020344E00206C6701007B4F00200C4F00206D4F00206B4F002078
:2033D000724F00206C4F0020F04E0020F44E00207C4B0020A1460100C1460100F84E002024
:2033F000FC4E0020082F002088230020104F0020144F0020184F00201C4F0020D02E0020FF
:20341000684E0020004F00200C2F0020804E0020844E0020884E00208C4E0020904E00202E
:203430007A240020102F0020142F0020BC170020544F0020C0170020F84D00202DE9F04F95
:20345000ADF1140D10F031FFD048D24CD0494678304604EB40028888A2F89600CE4AB1F8B8
:2034700000B0B1F802A091F9067091F907900E72400016800FF072F8C0490AF003FAC04958
:2034900009F07CF90FF032F8BEA20CCA06F008F908F0F8F90DF09AF8750004EB0508A8F8CF
:2034B000B800BE4820F805A0BD4820F805B0BD488755361986F88590B8F8B80010F028F963
:2034D000B749DFF8D8B288390391B64911310491B14904F116060BF1220BCC3102910FF08D
:2034F00005F8D5A20CCA06F0DBF80DF06FF8308006F1A2000190B8F8B80010F009F90EF003
:20351000F5FFA71DCEA20CCA06F0CAF88146E06B88460EF0EBFF0B4602464146484606F079
:20353000BFF80DF053F82D1996353870042102222B464FF4F0400DF001F84FF4F040052107
:20355000022233460CF0FAFF07F19008E589C648A1790095401C0170102DC0F22B81606CDA
:20357000DDF808A0BF4ED9461127401CC4F820010025606439F8021B3AF8020B48430FF021
:20359000FDFCB1A20CCA06F08BF80DF067FA16F8011B7F1E00FB0155ECD1284610F0B8F82F
:2035B000AB4909F0EBF8AB4E31460AF06BF9AA4909F0E4F80EF09AFF08F064F90DF04EFA64
:2035D000019AA849112705460020A56611F8013B32F802CB7F1E0CFB0300F7D110F098F866
:2035F00031460AF04FF99D4909F0C8F80EF07EFF08F048F90DF032FAE16C4919E164A26C84
:20361000E0661218A264656D236D6D18C4F824519B18C4F8283110F07BF8009905464FF4AA
:2036300096704843A0F596700EF098FF0146284609F0A4F88A490AF025F90EF057FF08F038
:2036500021F90CF0C3FFC0B2A07284F83D010CF02DFF84F83E01002584F83C510CF0D6FD64
:20367000A4F83A010EF092FA84F8400107F096F9E76E7D4E84F83F01A7B1A16E4FF47A7026
:20369000484310F045F88146384610F041F80146484609F073F80EF045FF4CF2503180B268
:2036B000814201DA4CF25030A4F838010CF0D4FDC4F834010CF0B4FAC4F82C0109F054FD2E
:2036D000C4F830010BF0F2FC2F4684F84101AFB9B8F820000199A8F80000088C029B0880A6
:2036F000188C5A461880108C039B108093F91000049A187092F9100010700CE00398C55596
:203710007A0028F802502BF80250049BDD5501998D52029885527F1C112FD8DB94F8401112
:203730006079B4F83A71B17004F590730422401C276494F83F616071052141F61100A6709E
:203750000CF0FCFE04F594734FF4F040062104220CF0F4FE04F592734FF4F04007210422F6
:203770000CF0ECFE607A401C6072E078E0B9A17805291ADA0120E07019E0C046DB0F49403C
:203790000000704252B81E85EB512440E0220020A0230020E80B0020F60B0020C20C0020F3
:2037B000E40C00205C0C0020A178012802D10829C8BFE57060794B282DDBD4F82021218A33
:2037D000606B2A4EC4F8442104EBC107401CD4F82821C4F84801264D3178C7F84C21208A56
:2037F000D4F8242104EBC000C0F85021214FC4F8B4116378606B2978401CC4F8B831002572
:203810008742C4F8BC118CBF606365630BF07CFCE5646571A5641848014680880F46401C75
:2038300088807878401CC0B21128A8BF012005B04870BDE8F08FC046CDCCCCCCCCCC0C4045
:203850003BDF4F8D976EA23F2D431CEBE2361A3F00803B4500009643000061450060EA4685
:203870000000B443F422002024110020211B00207D22002080D3D8FFE02200202DE9FE4FEC
:20389000BA48BF4CBF49BD4EBB4F00684FF00A0B04F120054FF000084FF00109A5F10802E8
:2038B0000092B1FBF0F00190788840082AD27078022827D1AC200CF035F9AE200CF032F910
:2038D00010F046F8B06010F043F8014642467079F160B1F5FA7F38BF4A46AB4902238C46B5
:2038F0000A5442461CF8011B5B1E1144CAB2F9D1401C3270C0B20228D4BF707186F805807D
:203910000FF0DAFD7868BE494EF6602200F5967009787860B0FBF2F2914209D2B848491C1E
:203930004A46B74B0170042141F611000CF006FE2078217C884206D03C2814BFCF219F214B
:203950006174207400E0617CA27CE07C8A4202D1227D824253D001283DD0022834D0032803
:203970002FD0042826D0052821D0062818D0072813D008280ED0092809D00A2804D00B287F
:2039900034D1D5F88C2021E0D5F88C2014E0D5F88C2022E0D5F8982018E0D5F898201CE0B2
:2039B000D5F8942007209047D5F8F82019E0D5F8942012E0D5F8942007209047D5F8F020CB
:2039D0000FE0D5F8942001E0D5F8902007209047D5F8E82005E0D5F8902007209047D5F809
:2039F000E020617C07209047617CE07CFF2805D0E869024607209047E07C617C2075A37926
:203A1000607A834202D1A07C884218D053B1012B06D068694146024607209047617C07E0EE
:203A3000686906E0686941460246072090474146A869024607209047A079617C6072E37820
:203A5000207B834202D1A07C88420CD023B1012B14BF6868A86800E0E86802460720904738
:203A7000E078617C20732379E07A834202D1A07C884208D0002B0CBFA86B686B02460720D7
:203A900090472079E072B7F802A0009940F21A3005F016F9207E062823D0072821D00228E1
:203AB0001BD1022060715FEA5A0014D3A37D617C012B08D053BB2869414602460720904720
:203AD00084F8169005E0286902460720904784F81680617C1AE0022006E084F80580404680
:203AF00002E084F805904846A27A617C904202D1A27C8A420AD0012801D030B941462869D8
:203B10000246072090476079617CA072A378B3B97888400813D3627D012A09D0002A3BD1B9
:203B3000D5F8842007204146904784F8159031E0D5F884200720904784F815802AE0A07BA8
:203B5000834202D1A07C884226D0012B1ED0022B0ED0032B07D0042B03D0052B1CD1686FC1
:203B700002E0A86F00E0E86F024611E05C670100D5F880200CE0C046AC0D00207C22002012
:203B900024110020E093040082220020D5F8842007209047617CA378227D6078A373FF2A68
:203BB00040D1627B904202D1A27C8A423AD090FBFBF390FBFBF202FB0BF2A0EB020A0BBB26
:203BD000072041460BF05EFE072041460BF030FE072041460BF0CCF8072041460BF0AAFD3C
:203BF000072041460BF0D0FD072041460BF092F8072041460BF0F2FD0FF0A6FB08E0C046E6
:203C10008224002005EB8300D0F88C200720904705EB8A00D0F8B420617C07209047607820
:203C3000617C6073E379E07B834202D1A07C884209D003B941466869024607209047E07903
:203C5000E073637CA374019811F0B0FA7888401C788029E62DE9F84FC04CA178FF2904BFF7
:203C7000002010F00BF9A07810F0B8FB044604F1680504F190062968086810B10021E183C7
:203C90000CE0A87B002804BFA97E002906D13078002801BF207F0128608CE0832189E08B37
:203CB0004118491C6181204611F07CFA01281EBFAB480178012904D121890020491CE08374
:203CD00061814FF6FF77A87E01280DD1AA8B6189208911F063FA38B1218960894A1C93B2BD
:203CF00098421BD0A88B0FE03078012816D172886189208911F052FA80B1218960894A1C11
:203D100093B298420AD0708892B2904206D03818608180B211F03EFA3F18E78304F5967951
:203D300099F8040020B120890021401CE183608104F12E07A87E012811D12189A88B4B1C03
:203D50009BB298420BD1608111F024FA8046B988288C01FB080820460AF03CF901E0B7F864
:203D70000480B4F81EC022687E4ED2F80CE00CF1010000FB08F340F6C41000FB03F18E445A
:203D9000C2F80CE03668DFF8E0E13678BEF80080764AB609032E11D1D67BF60748BF4FF02D
:203DB00000080BD408F101081FFA88F6012E12BF668AB9F8066006F2DC5600E0668A5E43D1
:203DD0004FF4C87AB6FBFAF6761C6661AEF80080A3614FF0180894F806A084F820C008FB3A
:203DF0000AFADFF88CC1DCF800E023680EF1080656F80AB0C3F810B094F806A008FB0AFA83
:203E1000CDF800A0D3F80CB0D4F814A0ABEB0A0ADDF800B046F80BA094F806A008FB0AFAD5
:203E300056F80A609E600EF10C06A37908FB03F30EF10C0EF65C06F0F00646F002060EF8FB
:203E500003604FF0000ADCF800E0A6790EF1020308FB06F623F806A0464BA6791B68760165
:203E700003F1140AD4F814B05AF806A00AEB4B0A03F1140B4BF806A0AD7E022D0BD1A579FE
:203E90006D0103F1140697F800B056F805A000FB0BAA46F805A0BD88D27BA779D60736D537
:203EB00008FB07F70EF10802D659A6F5A86A0EF1080646F807A0A77908FB07F7D25927683F
:203ED000511A3961BA6003F11402A1794901575807F5F667575003F11401A279520189583E
:203EF000C9F800106843244AA179156B03EB41162968401AA0F51670F0612049A07903EB22
:203F100040100B78012B14D10121C17214E003F114027F01D1592A464243A1F5E661A2F547
:203F300016729142DED30821204611F02FF9012011E0916A4A78C272A179DCF8000008FBB9
:203F500001F281182268516007200D490870204609F04EFD0020BDE8F28F00BF684E002010
:203F7000784F0020084F00202C2F00205C4D0020804E0020844E00206C670100734F0020F9
:203F90006F4F00202DE9F84F0C46E00788B00BD510F04EFB28B100218160B348006800B14D
:203FB000804784F001005CE1A0070FD5002100230691059104910393029101910091012278
:203FD0003C2011F0DFF884F002004AE11D256007A64EA74F40F18A80002107918B46A548B7
:203FF0008178FF2904BF00200FF048FF386890F8A00010F0F3F980463868C07A98F82691CC
:20401000022818BF032808F5907A06D106F10D0011F0B4F808B906F1070B5146484611F0E5
:20403000A9F888B33868807A002818BF012804D13146504611F09AF804E0524649463046DC
:2040500011F090F8FF2834D005FB00F906EB090506225146E81D10F07DF816F809003968B3
:2040700040F00209E81D07900622887E00F0010088F8260105F1010A386800F1140108F5EF
:20409000907010F067F814E05146484611F066F878B152464946304611F064F8FF2808D017
:2040B00006F10D014543481911F068F808B949F0020908F12C004B460178069142891209F0
:2040D00005920122B8F822100491C0880799029140080390CDF804B0CDF800A0002098F8BB
:2040F000061011F04FF884F00400BAE020060FD50021002306910591049103930291019175
:20411000009101223B2011F03DF884F08000A8E0E0044BD5F11D06F10D0011F01BF8386804
:20413000017A012918BF042931D1C17A02291EBF0329817E01292AD1817E00F114023046B5
:2041500011F010F8FF2811D04543354405F10D0011F014F850B9E91D05F10D0010F0FAFF22
:2041700038680622E91D14300FF0F4FF3868C07A022818BF03280AD106F10D0010F0FEFF49
:2041900028B938680622F11D0C300FF0E3FF3A4842683A4800784FF480510CF03DFC10B10B
:2041B0008E2009F077FA84F480505AE0A00505D510F0F7FA324901200860FEE7600504D5BE
:2041D00006F065F984F480604BE0600405D5812009F060FA84F4804043E0A10440D5294D3B
:2041F000286810B100200FF049FE274E4FF0FF30286010F0ABFF3168244D51F8202F684693
:2042100090472349234B486A8A6A009001920293C86A0268086A0392ADF810000A6B117829
:20423000002904BF5068002805D19068002804BFD068002806D02970506868609168A96098
:20425000D068E86029463568134A2E6813486B46B0471349086003F0EDFB84F4005000E085
:20427000002009B0BDE8F08F204F0020AC450020104F0020684E0020784E00206E4F002079
:20429000FC002043044F0020F04E002068450020EC1F0020314601002C4D0020D82D0020B0
:2042B000EC4E0020BB482DE9F84F0025BA4CB849056094F8E200002800F06581012800F01E
:2042D0002F81B64E02283CD0032840F05C8151F8250CD4F8B8100029A0F5C060C4F8D40030
:2042F000B8BF49420028B8BF4042814226DA4FF08057D7F8A4014568B4F8BC0030214FF495
:204310007F42082300903046A847D7F8A4014568B4F8C00004214FF4F80212230090304682
:20433000A847D7F8A401B4F8D070456820214FF440620A2330460097A847012584F8D85058
:204350001CE151F8258C10F02CFA2F4600B901273946934F38680028FCD0B146012609F1CD
:204370000409D9F82CA03E6009B110F020FACAF30720C4F8BC0010F014FAAA4600B9B24606
:204390003B68002BFCD0D9F800B0BAF1000F3E6001D010F00CFACBF38440C4F8C00010F0C5
:2043B00000FAAA4600B9B2463B68002BFCD0D9F81C90BAF1000F3E6001D010F0F8F9C9F365
:2043D0008120C4F8D000B8F5C061C4F8B81000F09C8094F8D80068B9C4F8D410D4F8C00091
:2043F000C4F8C800D4F8BC70C4F8C470D4F8D030C4F8CC30D4F8D400D4F8BC30002854BF2A
:2044100002226FF0010204F1C8010F6800EB40008018421000EB927207EBA2000860D4F805
:20443000C810C4F8C43000291CDD1E293CDDD4F8CC0030B93429B4BF15391E21C4F8C810F0
:2044500025E02A29BABFD4F8C8000B381E20C4F8C800D4F8C4003F28B4BF401C3F20C4F801
:20447000C4001FE0D4F8CC00032812D011F10B0FC6BFD4F8C8000B30301CC4F8C800D4F8B8
:20449000C4000028C4BF401E051CC4F8C450032508E011F1150FC6BFD4F8C8001530301C6E
:2044B000C4F8C800C4F8CC504FF08057D7F8A401B4F8C43030214FF47F4245683748009352
:2044D0000823A847D7F8A40104214FF400321123456832480096A847B4F8C860D7F8A4017C
:2044F00004214FF4F802122345682C480096A847D7F8A40120214FF440620A23B4F8CC60D0
:20451000456826480096A84701E084F8D85040F2FF50404502D8801C40452FD2082030E02C
:2045300051F8251C1F4F4BF2F5204843060A3868C0F3814001280CD11B4800680068804772
:204550000DF038FC10F039F93111C010484306EBE03694F8E50030B91448006820F07F4057
:204570003618760801E084F8E5501148310C0660012741600F4D8760287808B90B2000E059
:20459000052084F8E40003F0C5F8BDE8F88FC0462D400C402C500C40A016002000A00C4061
:2045B00000800C40B43F0050EC010010102009403C600C40D96501002DE9F84FB34D696811
:2045D00084B0019121B905B0BDE8F04F10F0BABD0978DFF8BC82AF4EDFF8BC92DFF8BCA22E
:2045F00001291CBF0229042946F2A81741F64C5B05D0402918BF802900F096803CE110F098
:2046100079F90028FAD00198007804F087FC0090446814B900200FF031FC9AF8010000288E
:204630005CD000F043F90FF0D9FE02900168009801914F6809F0F2FE022825D000990A783D
:20465000012ADBD196490A68137A19F80310317018B910F073FD5844A0602069C17E01F03A
:20467000EF01C1762069C17E41F08001C1762069C17E01F0F00141F00201C1762269B96891
:2046900088484118D1614BE001980178802911D10820854930700A78012A03D09AF801003E
:2046B000022801DB38690CE0D8F828003A690178D1720DE07C49072030700A783869012A39
:2046D00002D10121C17203E0D8F828104A78C2720298817901988AF80210C8E00098002898
:2046F0008CD00199009A0078914205D101281CBF00200FF0C3FB15E0012840F0BD806848DD
:2047100001680A7A19F80200307010F017FD3918A06810F00FFD18B910F010FD5844A060F6
:204730000120A8700098A2E09AF8010000287AD000F0BCF80FF052FE04462068029047680B
:204750009AF802000FF04AFE039010F0D9F810F0070F3DD0A87804F0E1FB01904168019824
:204770000091029909F05AFE022831D001990A78012A2AD14A490A68137A19F803103170E8
:2047900028B910F0DBFC83440098C0F808B000980069C17E01F0EF01C17600980069C17EEA
:2047B00041F08001C17600980069C17E01F0F00141F00201C176009AB9683A484118106964
:2047D000C16101210198A97051E000200FF056FB0398A04225D0029833490278802A12D1A3
:2047F000082030700978012903D09AF80100022803DB38690121C17210E0D8F828003A6947
:204810000178D1720AE0072030700978386901290EBF0122D8F828104A78C272A0798AF846
:204830000200029823E010F06BF810F0070F29D0A87804F073FB04462078D4F8048001287A
:2048500020D117490868027A19F80210317010F075FC3918D8F8080010F06CFC20B910F06C
:204870006DFC5844C8F808000120A870204605B0BDE8F04F06F0D8BC05B0BDE8F04F0020E0
:204890000FF0FCBA05B0BDE8F08F00BFD02E00206C6701006F4F0020289A0110684E002042
:2048B000104F0020F0D8FFFF734F00202DE9FE4FB24C617811B900200FF0E0FA10F03EFC8A
:2048D0004FF00008074607F6C417C246AC4DDFF8B49228E050460FF081FD06467079F0B14D
:2048F0002968B07901F80800394608F101005FFA80F8304610F01AFC30680178402902BFDC
:2049100006F182000178012902BF41887289914205D1B169C088411830460DF0D1FB0AF148
:2049300001005FFA80FA99F800008245D2DB6178884505D000200FF0A1FA822010F0F2FBCA
:204950006078012840F0F180002701E07F1CFFB299F80000874280F2E28038460FF03EFD6B
:20497000064670790028F1D02968B0790A7890421CBF00200FF082FAB079FDE0286810F8E7
:2049900009000FF02BFD00684268DAF808109068814204BF3E4609F1010900F0D480D6E0DB
:2049B000286890F800B001224FF4C0710FE0636803F5AD76835C01FB03F901FB0BFE36F8A9
:2049D00009C036F80E60B44538BF9B46521CFBB29A42ECDB4FF6FF7010F0A0FB064658469A
:2049F0000FF0FCFC68490068D0F804A00868D94630F8192060684FF4C07300F10E0103FBFF
:204A100009F3C85AB2EBD00F52D2720840F6C4104243009200275D4A0190029217E05846A5
:204A30000FF0DCFC01680A78802A03D1DAF81030009A5A610978402908D1029980790A68F6
:204A500002EB4011009800F5A060C8617F1C47452EDA2868C05D8345F8D001464FF4C07329
:204A7000594363685A1803F5AD73D289595A53088B4202D2521A9045E8DA0FF0AFFC016815
:204A90004A68019B9168DAF808207008A1F6C41103FB002010F04EFB0028C0D03A480068D8
:204AB00030F81910491C20F81910286810F807B0296808780FF092FC0026006847684FF482
:204AD000C079464551DA2868805D0FF087FC0068296842688B5D606809FB03F3034403F160
:204AF0008201087830B15889B1F802C0401C80B2604508DA887B01280ED15889098A401C86
:204B100080B2884208DB6EB3B968906801F5C241A83110F00FFB28B3761CF6B2D1E70020A3
:204B30000FF0ACF9822010F0FDFA6178286810F0F1FA286800780FF051FC00260068D0F82A
:204B500004A04FF00109771CC145FFF617AFF6B2002E1CBFF8B200287FF422AF286890F825
:204B700000B037E7296811F806B007490A6800205B4622F813005846BDE8FE8F684E0020B1
:204B9000004F00207B4F00200C2F0020844E00202DE9FC47DFF8B8A20F460546F80B80F0C2
:204BB0000881A64EDFF88882B80F80F0BA80B80880F0AE803809C0F02F819B4801780909A9
:204BD00080F0A180007830F07F0040F09C80684607F03EFA012803D10098002800F0938034
:204BF00092480078002840F08E8001240025E8B20FF0AEFB48B1837A3BB1847290F90900F7
:204C100004FA00F0C0B20DF03DFB6D1C032DEED345464FF0030905F1AC0085F810900FF0E1
:204C300063FF844A0021884610681160824952F8080C05F1340042F8088C42460FF064FF51
:204C50003068006B8047AA68A969801A000BC0F1FF328A422CBF01444FF0FF31A961287FB3
:204C700020B1E868A969B1EBC02F1ED90EF060FE414600B12146081C14D0714840F6090173
:204C9000018041464180427B64F303024273027B61F30302027341600FF082FC418811F436
:204CB000406FFBD02C774146A9616649086820F0020040F400700860634A42F8049C41F23F
:204CD0003006966014605023936014604FF4CA6696601460022042F80C4C44460C600DF0C6
:204CF0002DFD112006F042FA287818B9686838300FF016FF687F18B16C7705200DF01EFD8A
:204D1000524868612C7409F0EBFE27F0080783E005F022F840467430006808B927F0020793
:204D30007AE00FF0E9FE34468146606D0068014604208847C8B1287CB8B1404608300668C1
:204D50009EB12068EC68006B8047801BE860010BE960A14202D209194908E96040F6C41031
:204D700088422CBFB1F5FA7FE860484610F0CEF90DF06CFA90B1A8696FF4807100224FF048
:204D9000007304462846A04740466C300068002808BF47F0020701D009F0A2FE68690021DC
:204DB0004FF0806304460A462846A04727F0005732E00FF0A1FE51460E684EB306F1280186
:204DD00006C90A234FF0E0450B40154008BF002B1ED106F1280191E8300006F1280393E87C
:204DF000060006F12803AA43A14383E8060010F08DF9B16871B1002D08BF002C0AD03069E5
:204E1000B6F93C10B2682B4616462246B04701E010F07CF927F4804727B15046394650309C
:204E30000FF086FEBDE8FC872E2F0020212600208824002014100440A9E800008C01001071
:204E50009C2E0020000004600C410440E5AC0000082500202DE9FC41A0F201371446884640
:204E7000022F40F234819C4E9D499E4A3F1F0F2F04D9143F4CD0BF1E1CD011E0DFE817F0E2
:204E9000D000CA000E01FB00C200BA002701B000A800100010009E009000810074006600B9
:204EB0002D2880F21481B8F1020F40F010818949238808E1B8F1010F40F00981F0780128A1
:204ED00000F00581324620781179107189B9002800F0FD805078012800F0B680042800F027
:204EF000B380062800F0B080052800F0AD80BDE8FC812078002840F0EA805078032800F078
:204F1000B080072800F0AD80052840F0E080A8E0B8F1010F40F0DB802078012840F0D78034
:204F300006F1F0000FF064FB002840F0D0803446002004F13E0108F05BF9002840F0C780BB
:204F500004F1CC000FF004FEBDE8FC81B8F1020F40F0BD8020880A28C0F2B980B0F5486F15
:204F700000F3B5800E4619E0B8F1020F40F0AF802088B0F5FA7F80F2AA800E463080BDE888
:204F9000FC81B8F1020F40F0A28020880628C0F29E80B0F5486F00F39A801646B61CEDE767
:204FB000B8F1020F40F0938020880628C0F28F80B0F5486F00F38B801646DFE7B8F1010F18
:204FD00040F085802078062880F28180464E0EE0B8F1010F7BD12078042878DA0A3606E090
:204FF000B8F1010F73D12078082870DA09363070BDE8FC81B8F1010F69D12078042866DA9A
:205010000836F4E7B8F1010F61D1207804285EDCF61DECE7B8F1020F59D120881036ADE732
:20503000B8F1010F53D13079012850D032462078D178D07069B9002849D05078012803D0D1
:20505000042818BF052842D101200FF009FBBDE8FC81207800283AD15078022818BF0528F6
:2050700035D110780DF0B8FF1C490246102002F07DFABDE8FC8106F1870500211F22284623
:2050900008F041FC21464246284607F0CBF844463078B4710DF0A0FF002311E006F1680549
:2050B00000211F22284608F02EFC21464246284607F0B8F84446307874710DF08DFF012326
:2050D00000940A4901950246102002F04FFABDE8FC81C04651280100B80500209945011022
:2050F000FC050020F8050020F6050020094501102DE9FC418E488F4A04788F488F4B9049E0
:205110000D2C6FD8DFE814F012010E000E000E000E000A010A018E000A01C900C900E700C1
:20513000E700EE00106041F204478648864DB0F802C08649BC451FBFB0F81AE0BE45B0F896
:205150003280B8454FF4A0561ED181480068D0F800C09CF8040003280CF1080E0BD1DEF827
:205170000E0000281CBFBEF81800002803D01F80784911608AE0022C1CBF1E800D4615609B
:2051900000208CF8040081E0BCF1000FA3F800C041D0BCF1010743D0B7F1010C3BD040F214
:2051B000FE37BCEB07071ED0A7F1040CBCF1010F20D94FF47F77BCEB070C1DD04FF44067DF
:2051D000BCEB07070FD0BF1E012F0CD93F1F0AD07B1E012B0ED940F2F937DB1B012B1AD9DE
:2051F0001B1F09D09AE0022C01D115604EE01E800D46FAE7584DF8E7584B1C68257A012D25
:2052100005D141F20243438043834386F0E7468046834686ECE700200EF030FE832081E089
:205230008F207FE04E498978FF290CD0106018204C4C41432068851C40F204466C5A1C80E9
:20525000A41B012C484B71D94FF47F76A41B0FD04FF44066A41B032C84BF641F012C0BD9F1
:20527000A41E012C62D940F2FD36A41B08D103E0801C41F201444452136004F0B3FF05E06C
:2052900000200EF0FBFD85200FF04CFFBDE8FC4136480078012105F009BF40F204424888FA
:2052B000188090421CBF41F2084290423ED041F60402904211D12E4C2E482F4B0068002554
:2052D000CDE9004502222D4C256855F8086FB0472B4908802AE04888188000200EF0CEFD87
:2052F00085201FE04888188002280DD940F20442801A1BD040F6FC72801A05D0083815D04D
:205310004FF47F72801AE8D1887B801CC2B2B52AA8BF662088730020488007E000200EF02F
:20533000ADFD8420BDE8F6410FF0FCBEBDE8F3816F4F0020204F0020C94A0100504F002021
:20535000CC4C0020204A0020B1540110615A0110F44B002059550110755B0110104F00201B
:20537000684E0020804E0020313901106E4F002002000080EC4E0020E9270100F04E0020B6
:20539000424F00202DE9F04F8246DAF80070DAF804600C465FEA0208ADF11C0D14BF002157
:2053B0004FF0FF31DFF8409248460FF08EF8002818BF0B2040F0158100258F488C4905707C
:2053D0008A48FC6052460FF09FFB317B27200FF09DFBB8F1010F07D0657002200DF054FC00
:2053F00006200DF051FC01E0012060702078012840F2AA80801E012868D9801E012833D963
:20541000801E012800F2DE800FF076FB83464FF0805000F5EE77D0F8DC01A378466A0093C0
:2054300021782846062908BF0120019001200290A068228AE1686368B047814658460FF0D7
:2054500065FEB9F1000F40F0BF80B8F1000F02D00EF044FE02E050460DF00CFA002800F054
:20547000A3803868806A2AE00FF046FB83464FF0805000F5EE77D0F8DC0101230668009329
:20549000A168A27860682478AC46042C08BF9C466346B047814658460FF038FEB9F1000FB7
:2054B00040F09280B8F1000F02D00EF017FE02E050460DF0DFF9002876D038684068804733
:2054D0004C49C1F8B0510D6081467DE00FF014FB83464FF0805000F5EE77D0F8DC01E38A8A
:2054F00086690093E0680190208B0290A0780390207D04900121059122782846022A08BF75
:20551000081CE1786268A368B047814658460FF0FDFDB9F1000F57D1B8F1000F02D00EF06B
:20553000DDFD02E050460DF0A5F900283CD03868006A80475FEA000946D1E078A168E28A33
:20555000236907F01FFFBFE70FF0D6FA83464FF0805000F5EE76D0F8DC01E38AC768009320
:20557000E0680190208B0290A0780390207D2946049001200590257805B90146084662684A
:20559000A368E178B847814658460FF0BFFDB9F1000F19D1B8F1000F02D00EF09FFD02E0CF
:2055B00050460DF067F908B914201AE03068406980475FEA000907D1306802692169E078E2
:2055D000904781E74FF0FF39B8F1010F05D002200DF0B4F806200DF0B1F803480FF0A0FAFC
:2055F000484607B0BDE8F08FDC1B0020141C0020B133010050450240342F00202DE9F04343
:2056100085B011F8017B0446082F04F1FD0004F1FC0804F1760504F5A076844A844BDFF861
:20563000149213D0092F21D00F2F2FD0112F01BF287801286878102840F0D5800A783276DB
:2056500048787076012184F83D11EBE00025521C4E5D5F5D3E434E55575D3E4046556D1C69
:20567000082DF5DB204608F0A3FE74E00024571C0D5D1E5D35430D553A5D15400555641CA6
:20569000082CF5DB022088F80000CBE098F80100820704D410F0110F57D01A2266E008786E
:2056B0004A7800EB02203080CA78887800EB022070804A79087900EB0220B080CA79887957
:2056D00000EB0220F080087A30724A7A887A02EB00227281C87A0A7B00EB0220B0818A7B47
:2056F000487B00EB0220F0810A7CC87B00EB022030828A7C487C00EB022070820A7DC87C3D
:2057100000EB0220B082487D897D00EB0120F082494801788A0658BF1A2212D504F5A6700E
:20573000049071890391307A029021890191F0880090B38872883188204608F031FBE0B1AE
:205750001E2298F80100410710D40F2088F8150020460FF0D7FC002864D199F8000005B09D
:20577000BDE8F0434FF4804105F0A0BC204605B0BDE8F0430F210FF0C1BC7088A882B188F2
:20579000E9820221F0882883297400206882A18EA88AC91DE981618EB0EB510F02BFE88AD3
:2057B000A18E884202BF288BE18EB0EB111F18D02878012804BF68780F2805D0687918B128
:2057D0000F21A972FE2127E0FC2120460FF092FCF0880090B38872883188A0790FF086FCA8
:2057F00020E0102118E0491E20460FF07BFC032F18D1A878042818BF0D2813D16E78142EAE
:2058100018BF0E2E0ED12F7820460FF067FC012F06BFAE72FD213146204605B0BDE8F0437A
:205830000FF068BC05B0BDE8F08300BFEC4D0020F42E00206E4F0020144E002010B50B7867
:2058500084074CBF43F0020303F0FD0304064CBF43F0800303F07F0304074CBF43F00803E3
:2058700003F0F70384064CBF43F0200303F0DF0310F0AA0F0B7003D0107840F00C0003E0BD
:2058900018B9107800F0F300107010BD2DE9F8430D4600272878022814461E4667D1696813
:2058B00008784978DDF8208000EB012080B25FEA08021CBFB0F5285F0B205BD14FF4285177
:2058D000401A08D0401E21D0401E2FD0401E25D0401E31D04BE0DDF82490E8680FF042F9EA
:2058F00080B2A0EB08024A45BCBFA0EB08001FFA80F909EB0800162806DAA6F800904A46CA
:20591000E86800EB08010DE00D2732E0E8680088022131802070000A60702AE0062030800A
:205930000622E96820460EF015FC22E001203080E9680A7822701CE0E868B0B108213180AA
:205950000288227003881B0A63704188A1704288120AE270818821718288120A6271C188A9
:20597000A171C088000AE07103E0308001E0378001273846BDE8F2832DE9F0470F4681460E
:2059900038780024022890461D466DD17868089E01784078DFF8D8A001EB002189B24FF4F1
:2059B0002852891A06D0491E29D0491E4ED0491E39D059E0F8680FF0D5F880B2B04204D32F
:2059D000A919162903DB0D244FE007244DE0FB682A46414698190EF0BDFBAD19F868ADB2DA
:2059F000C5F11602002140190FF0BAF8DAF8000000281CBF0268002A37D0002123E08EBBC1
:205A1000022DE0D198F8000098F80110FA6800EB01201080DAF8000000281CBF0268002AFE
:205A300023D001210FE0EEB9062DCCD1F868062241460EF08FFBDAF8000000281CBF026805
:205A5000002A12D00321484690470EE056B9012DB9D198F80000002813BF0128F968087060
:205A7000802402E00B2400E001242046BDE8F0871C2F00207CB5894D144602460026A2F509
:205A90008062182A1AD8DFE812F0FE00F800F100E900E200DC00D500D0001900C500BE0048
:205AB000B700AE00A3001900190080006F00680054004C00420039002C0024002D2880F213
:205AD0008580022940F0828021880CF0B9FE0646E1E0012940F0DE80002C00F0DB80113576
:205AF000A6E0102940F0D680002C00F0D38028465030102221460EF02DFBCCE0012940F02F
:205B1000C980002C00F0C68029468D1D90E0262940F0C080002C00F0BD8005F1600026228B
:205B3000E8E7012940F0B680002C00F0B3806D1D7EE0602900D13CB9012940F0AB80002CBF
:205B500000F0A8800D3573E005F18600214660220EF000FB012068739DE0012940F09A803D
:205B700020780FF0B7FA96E0012940F093802078022800F38F800C3528702078022814BFB8
:205B9000301C01200FF0A2FA85E0072940F08280611C684606220EF09BF920786946324682
:205BB00005F068FD04460A2C10DA0FF08BFA38B9204602F053FF0DF0BBFC09F08FFC6AE070
:205BD0002A46012002F12C05285564E0022662E001295FD1A87B21780028A9735BD12078B7
:205BF000012858D1E9E7012954D12478072C51DB102C4FDC0B3537E001294BD124780A2C53
:205C100048DA093530E0012944D12478022C41DA083529E000293DD10FF054FA10B90EF04F
:205C300039FBC8E701240F351EE0012932D10A35247819E001292DD12478022C2ADAED1D09
:205C500012E0102926D12B4603F1400051E7012920D12478022C1DDA2D1D05E0012919D116
:205C70002478042C16DCED1C2C7014E0012911D12478022C0EDAAD1CF6E702290AD12088AB
:205C90001435288007E0012904D12478022CD8BF6D1CE9DD182630467CBDC046A8120020A0
:205CB0002DE9FE4F05467B48002400680094C00905D37948007810B920200CF029FE012D0F
:205CD00040F0E280DFF80092D9F8DC00012840F0D8800220C9F8DC000EF07CF901200CF00C
:205CF00017FE5FEA000805D00120C9F8DC000EF07DF9CBE00EF018FFA34602906748684D88
:205D1000C0F800B0A86A016801208847012804D1584608F0B9FB012000906248624FC0F894
:205D300000B0386811200EF05BFD00B1012410200EF056FD08B144F002040F200EF050FDB8
:205D500008B144F004040B200EF04AFD20B12868564E016B308888470A200EF041FD20B19F
:205D70002868534E016B308888475248012606602868816944F0200088474F4806600EF030
:205D900029FD00F001010191400814D2286A81684A4888478246BAF1040FF7D0BAF1010F37
:205DB00004D1286A42684548032190474449086820F003000860584600F088F82B68386881
:205DD000986B8047019801280CD0BAF1010F04D1286A42683948314690473949086840F08E
:205DF000030008602F48066028684169204688470B200EF0F5FC20B128682C4BC16A18881F
:205E100088470A200EF0ECFC20B12868284BC16A18888847274806600322C9F8DC20264BFD
:205E3000C3F800B02868416B204688470128F9D1386804200CF06CFD0446184806603868AA
:205E5000144800688009FBD30098012802D1304608F01AFB0EF0ABFC08200CF059FD074694
:205E70000298C9F8DC600FF029F91648008808F009F80EF0BBF857EA040018BF4FF0FF3838
:205E900004E06FF0040801E06FF001084046BDE8FE8FC04614100940881700200C400940DB
:205EB000B8010010000222432C200940B8610100B4610100282008608001044300400340E2
:205ED00024220840D4650100A01600202DE9F84FDFF804B20746ABF13500DFF8F08100685C
:205EF000800880F0E28075480068006880477E490831D1F8009000254FEA29715FEA99525F
:205F100001F101010AD2C0F13E0210F10A0F4FEAE202D8BF08229142B8BF111C684BD3F8C3
:205F30007C21C2F30462162AA8BF203A1B68C3F30443162BA8BF203B9A465218162A05DAAC
:205F500012F10A0FB8BF6FF0090200E015225D4B5D4E02F01F0141F4F8511980316811F007
:205F7000030F18BF0125C90828BF45F002050FB145F00405434693F90710411A052904DA7D
:205F90009979A94208BF99886FD0DFF844E10F28A0F10F0829DB08EB0011A1F1F0084FEA27
:205FB00028210091072984BF07210091062988BF06215EF821600424774604EB81043C5969
:205FD0004FEA950CA41BEE0804F0FF0124BFC4F3072631446F08AE0824BFC4F30746314469
:205FF0006E0828BF01EB146104E000214FEA950C6F080091009C5EF824E05FEA5C060EF04D
:20601000FF0424BFCEF3072634447E0824BFCEF3074634446E0828BF04EB1E64009E89B28E
:20603000A8EB06267143803104EB1124AAEB02010029D8BF0121342209F0FF074A4391B269
:206050004FF6FF727943B1FBF4F18A4238BF111C802889B2998005DA10F1800FB8BF6FF0FC
:206070007F0000E07F20D8719D711A4800681F2918604FF0000008D340F2FF128A4206D230
:206090004908401C8A42FBD301E01F219980134F0F39090940EAC10047EA0001CBF8FB1FB9
:2060B0000026CBF8FF6FBDE8F88F0D490D4F434608200F609B1D1870BDE8F88FEC01001012
:2060D0003C1100506E62084024220840FC2E00209C130050082009403500094000E7A4802A
:2060F00030100940FDFDA400AC3F00502DE9F04F044675488A46016894461F46BAF1000FA0
:20611000ADF13C0D4DD0BCF1000F4AD09AF8002001209040014244D0BCF80000B0F5C15F22
:2061300032D1DCF81430DCF818206848DCF81C104FF0030E0DF128080B93DFF894B10C92A2
:2061500000680D91C0F3036958F8046FCEB10021351F05200B4655F8042FB2F1FF3F10D09C
:20617000934506D0401E01F1040103F10103F2D107E0052B05DA705820F4702040EA09407C
:206190007050BEF1010EDFD1C4F804A0C4F808C00EF0B2FC4F4D8046287820B140460EF0DA
:2061B000B5FF00208DE002F023FE4B49086840F00200086007A80EF0FBF9002605F1D00050
:2061D00007AA464909960BF031FE454905F5827007AA0BF02BFE07A80EF0A2F9FF2105F1F9
:2061F000340007AB3F4A089119210BF00FFD3E4A05F150001A2107AB0BF008FD3B4932468F
:2062100005F18800134609F035FD3949324605F1AC00134609F02EFD364A05F12000042198
:2062300033460DF0E5F80E2005F0CAF905F174000EF066F805F16C000EF062F82E740720CC
:2062500085F898012E77AE616E770523AE602B49EB602A786961501C2870274B1E70404694
:206270000EF054FFB1464FB92548B0E88C106946A1E88C100DC86F4681E80D003868206029
:20629000398A6182012060747B6813B940F6C4130646E3601B48A06126746061F86800B138
:2062B000A061B86800B160615822494604F1200007F029FB04F1380049460CF03DFF2046A8
:2062D0006C600FB0BDE8F08FD4210840541300500200F84488240020002009402D4001002A
:2062F00019AC0000A9E800000DE7000021390100AD3D0100D10101002E2F0020E5AC00001D
:206310004465010003A800002DE9F04F05468048066800680F461C469246C4F39901890071
:20633000ADF12C0D0A010021803207F0ECFADFF8C891A9F1880002466E48016830469047B5
:20635000A3088046610801979F1C21F00101F819009506EB80000390091DCDF808A0781820
:20637000434506EB800206EB870B3844049206EB80000690C4F39C004FEA800000F1080071
:2063900007EB400000EB070206EB82020A9224F0030202F1080200EB020506EB85053A44B5
:2063B000059506EB82050A4407953A4406EB8202089206EB80020992084406EB800A3844F3
:2063D00006EB800518BF6FF0010040F08F8009F16800024641463046904700233CB1019999
:2063F000264611F8010B761E40EA0303F9D1002B08BF01207AD000263CB10299234611F801
:20641000010B5B1E40EA0606F9D1002E08BF02206CD001995846C84703980299C847009870
:2064300081680498C8473548049A594681462846C847012803D14FEA88042E590EB103208F
:2064500054E0BE0028460021324607F05CFA0399049A2846C847012801D12F590FB10420C8
:2064700044E0274F274C069859463A46A047079803993A46A0470699089827460A46B847BE
:2064900009980899069AB8470A9806991E4C2246B84728460021282207F035FA1B480999F5
:2064B0000A9A81462846C8472034284622460146C847079950460A46B847059800213246A9
:2064D00007F021FA5FFA88F45046002C0CBF01225FFA88F200216B5C445CA34218BF0520D9
:2064F00004D1491C521EC9B2F5D100200BB0BDE8F08FC0468C4F0020B9DB0010C9DE001046
:20651000B0210020F9E00010AC620100C9E60010884F00202DE9F0410446804DA178A86944
:20653000ADF1180D891F00F0F280C91E00F0DD80491E5FD0491E48D0C91E3CD0481E40F0AC
:20655000E980287A697AB8B96878002831D0A0880EF0B0FD071C00F0DD80A07A40080FD33C
:20657000787968B1E168890A0AD2B91D01AA05F081F80A2804D10321A0880EF097FDC9E0CC
:20659000287B022802D1A07A0009F4D3A088797904F1080201F086F9A869002800F0BA8075
:2065B0004368002B00F0B68000210A46A0889847B0E00521E0E7002800F0AC804368002BC0
:2065D00000F0A88062780221F0E70EF039F8002800F0A080A86950B1076847B120690090C6
:2065F0006189227B637BE01C3C46A04792E060890121C2E767784FF00008002F66D1A179F5
:20661000490863D3EF69002F60D101A841460E220EF0A6FAA0880EF04DFD071C7AD0606987
:2066300040B97879B91D06228DF80A0001A80DF091FD19E06669307C062206F111018DF875
:206650000A0001A80DF086FD07F10C00B91D06220DF080FDB81D062206F111010DF07AFD01
:20667000307C40F002007871A079C00839BF387900F0FD00387940F002003871A07900091E
:2066900039BF387900F0DF00387940F020003871A1799DF81120C1F3800010438DF81100CB
:2066B000080905D39DF8110040F008008DF8110001A8214600F028FA28B92878022104F0B3
:2066D000F5FC404627E0A8694FF0150810B3436803B3A088627801219847B8F1000F19D0F7
:2066F000A86943680321424660E7E078211D002204F0C0FF0A280DDA410001EB800004F1B5
:206710000C0225300421C0B203F042F902E0A08809F028FB012006B0BDE8F081A812002054
:206730002DE9FE4F0E468246307AC10693461F464FF000090CD558460EF0B4FC030000F0B3
:20675000E8800A223146504698475FEA00094DD130780C9D0D9CDDF8388002281AD17068C5
:206770000178407801EB002189B24FF42052891A012910D9891E3AD0491E14D0FD397AD0A9
:20679000491E00F08180491E6DD0491E73D0491E00F09580ABE0002C2AD1F06801782980AB
